:020000041102E7
:1000000003B40148019001BDADAE000003B4014846
:10001000019001BD456B010003B40148019001BD91
:100020000189000003B40148019001BDC53F0000F3
:1000300003B40148019001BDE94C010003B401483B
:10004000019001BDC95C010003B40148019001BDEC
:10005000CD4C010003B40148019001BD618900004D
:1000600003B40148019001BD154D010003B40148DE
:10007000019001BDF54E010003B40148019001BD9E
:10008000434D010003B40148019001BD2526000045
:1000900003B40148019001BD8B52010003B4014833
:1000A000019001BDB352010003B40148019001BDAC
:1000B0000D52010003B40148019001BDC94A01007D
:1000C00003B40148019001BD691F000003B4014859
:1000D000019001BD5D17000003B40148019001BD0E
:1000E0003D4B010003B40148019001BD595201008C
:1000F00003B40148019001BD5125000003B401483B
:10010000019001BD014C010003B40148019001BD03
:10011000594F010003B40148019001BD1D4B01007E
:1001200003B40148019001BD8D12000003B40148E1
:10013000019001BD4D1F000003B40148019001BDB5
:100140005522000003B40148019001BDDD520100B9
:1001500003B40148019001BD1D4D010003B40148E5
:10016000019001BD810E000003B40148019001BD62
:10017000017F000003B40148019001BDE1170000B8
:1001800003B40148019001BD7918000003B401488F
:10019000019001BDD949010003B40148019001BD9E
:1001A000E928000003B40148019001BD5549010050
:1001B00003B40148019001BD4551010003B4014859
:1001C000019001BDC926000003B40148019001BDA2
:1001D000331AFF1F03B40148019001BD611AFF1FCC
:1001E00003B40148019001BD1DBC000003B40148E7
:1001F000019001BD6DBC000003B40148019001BD38
:10020000D91F000003B40148019001BDC51D0000C5
:1002100003B40148019001BD4D4FFF1F03B40148D5
:10022000019001BD651BFF1F03B40148019001BD92
:10023000C91EFF1F03B40148019001BD090E000053
:1002400003B40148019001BD350E000003B401481C
:10025000019001BDB30E000003B40148019001BD3F
:10026000B30E000003B40148019001BDF94C010038
:1002700003B40148019001BDC521000003B4014849
:10028000019001BD291C000003B40148019001BD8B
:10029000851F000003B40148019001BD1147010012
:1002A00003B40148019001BD3D58FF1F03B401484C
:1002B000019001BD4D62FF1F03B40148019001BDD3
:1002C000F561FF1F03B40148019001BD0958FF1FEC
:1002D00003B40148019001BDB962FF1F03B4014896
:1002E000019001BD771EFF1F03B40148019001BDBD
:1002F000611EFF1F03B40148019001BDDF1BFF1FFA
:1003000003B40148019001BD851EFF1F03B40148DD
:10031000019001BD351EFF1F03B40148019001BDCE
:10032000551FFF1F03B40148019001BD551BFF1F5E
:1003300003B40148019001BD5B1CFF1F03B40148D9
:10034000019001BD2D1FFF1F03B40148019001BDA5
:10035000751CFF1F03B40148019001BD451DFF1F1F
:1003600003B40148019001BDB31AFF1F03B4014853
:10037000019001BD810E000003B40148019001BD50
:10038000D1A5000003B40148019001BD75A900008A
:1003900003B40148019001BD9DA9000003B40148C8
:1003A000019001BD3965FF1F03B40148019001BDF3
:1003B000715EFF1F03B40148019001BD2163FF1F5F
:1003C00003B40148019001BD7B2EFF1F03B4014817
:1003D000019001BD552EFF1F03B40148019001BDDE
:1003E000A946010003B40148019001BD750F00004A
:1003F00003B40148019001BDAD1EFF1F03B40148C5
:10040000019001BDF11EFF1F03B40148019001BD21
:10041000E548000003B40148019001BD29510100E5
:1004200003B40148019001BDD91B000003B4014889
:10043000019001BD592FFF1F03B40148019001BD78
:10044000812FFF1F03B40148019001BD51470100F6
:1004500003B40148019001BD4F1AFF1F03B40148C6
:10046000019001BDC90E000003B40148019001BD17
:10047000CD37FF1F03B40148019001BDF30E00000A
:1004800003B40148019001BDCD19FF1F03B4014819
:10049000019001BD991AFF1F03B40148019001BDED
:1004A0006D19FF1F03B40148019001BD7F1AFF1FA2
:1004B00003B40148019001BD6945FF1F03B4014821
:1004C000019001BDFD2EFF1F03B40148019001BD45
:1004D0002549FF1F03B40148019001BDED58FF1FDE
:1004E00003B40148019001BDA559FF1F03B40148A1
:1004F000019001BD555AFF1F03B40148019001BD91
:100500001D5DFF1F03B40148019001BD1D5CFF1F6D
:1005100003B40148019001BDC55BFF1F03B401484E
:10052000019001BD755DFF1F03B40148019001BD3D
:10053000A55DFF1F03B40148019001BDED5BFF1FE6
:1005400003B40148019001BDC95FFF1F03B4014816
:10055000019001BD995EFF1F03B40148019001BDE8
:10056000C95EFF1F03B40148019001BD1D5FFF1F5D
:1005700003B40148019001BD3D60FF1F03B4014871
:10058000019001BD0D60FF1F03B40148019001BD42
:100590007560FF1F03B40148019001BD815FFF1F1B
:1005A00003B40148019001BD6137FF1F03B4014846
:1005B000019001BDA161FF1F03B40148019001BD7D
:1005C000B94DFF1F03B40148019001BD254FFF1F26
:1005D00003B40148019001BD1954FF1F03B4014841
:1005E000019001BD1565FF1F03B40148019001BDD5
:1005F000D544010003B40148019001BD7158FF1FAB
:1006000003B40148019001BD0D0F0000F8B5D349B6
:10061000D14A002004464A608300401CD450FF2881
:10062000FADD4868CE4A014680318A606E22C26295
:10063000CC4A1278002A01D07F22C2620A220265C7
:10064000C94A13788363C94BC36115781023022DFF
:1006500008D01578012D05D01578032D02D0157816
:10066000042D00D10362C24D45611925AD0185619C
:100670003725CD6036272826C763082546640564DC
:100680004F6032270F603B27CF634127CF64392764
:100690004031E0C132274F6002274F6142270831C5
:1006A000E0C11E274F60CE608D6005264E61422658
:1006B0000E615A2660390E614D613C258D61AF2572
:1006C000ED000560AB4D05631578022D09D0157856
:1006D000012D08D01578032D07D01578042D06D0EC
:1006E00007E0152504E0436003E00E2500E00C253B
:1006F0004560FF252D358560C560FF25F535056111
:100700009D4D85647D25ED009C4ECD67C664456298
:100710009B4D85627325C565062545658565C51DA7
:100720000826F93502272E6047664B27FF008766AB
:100730000927C766934F07674667BE108467C66779
:10074000914F8E4E3E601678022E09D01678012EFB
:100750000AD01678032E0BD01278042A0CD00EE0A3
:100760001A22CA61212205E01422CA61182201E07E
:100770001322CB610A6202E00E220B62CA617E4A3A
:100780008A627D22D2008A6764224A620522CA6296
:1007900002220A63C8228C634A63382169607B495C
:1007A00029647B49A9614B21C900E9617349FF3084
:1007B000643929627D2109016962EC661E212C677A
:1007C000A9667049A965E965891029666964696740
:1007D0007049A9677049714A8130E9670260826097
:1007E0004160FF21F531C16001616E486C495A4A90
:1007F00081606D49803A11616A496C4A80318A6230
:100800006B4ACA626B4A82616B4AC2626B4A02637C
:100810006B4A64484038C2636A4ACA616A49816364
:1008200060496A48403188616A49694888605D4822
:10083000694A80384260694A4263694A0A62694982
:10084000816058496848C039C860FFF7D9FB01206A
:10085000FFF7DCFBF8BDF3B50746644881B0C1691A
:10086000634A1140FF310931C161002613E00025C0
:100870002C461120FFF7D0FB5C48406A8007800FB0
:10088000610088402843641CE4B20546102CF0D374
:1008900001C7761CF6B202988642E8D3FEBD10B5B9
:1008A0002E4C607800280AD104215248FFF7D3FF6C
:1008B000504804211030FFF7CEFF0120607010BDBA
:1008C000F0B500248BB00D460646102902D9012050
:1008D0000BB0F0BDFFF7E3FF464900200A5C401C67
:1008E0001419C0B21028F9D3002C03D0102D03D94D
:1008F0000B20EDE70E20EBE73F483E4C002300685D
:1009000002A91034E25CC75C7A40CA545B1CDBB2BB
:10091000102BF7D306AA3748FFF784FB102D00D918
:1009200010252A4606A93046FFF782FBFFF786FB13
:10093000216840182060FFF781FB61684018606003
:10094000FFF77CFBA1684018A060FFF777FBE16828
:100950004018E0600020BBE70004FF1FE896FF1F7F
:1009600058ECFF1FF093FF1F4A0AFF1F3A070000D1
:1009700080C3C9019A02000050C30000280A000089
:100980006A180000204E0000F009FF1F004000110F
:1009900068100000DC05000040420F001027000036
:1009A000796BFF1F0001FF1F4133FF1FCD75FF1F34
:1009B000A578FF1FA92FFF1F3D31FF1FC52FFF1F68
:1009C000114DFF1FF18CFF1F158BFF1FD52EFF1F31
:1009D000F936FF1F0002FF1FF167FF1FCD69FF1FE0
:1009E0001169FF1FAD67FF1F2937FF1F40F000404F
:1009F00000FEFEFF58E7FF1F2897FF1F0A780270CE
:100A00008A7842704A88120A82700979C17004207B
:100A100070470A7802700988090A417002207047FD
:100A200010B500220EE093005B189C7804705C887F
:100A3000521C240A44701C7984709B88D2B21B0A11
:100A4000C370001D0B789342EDD81806800D10BDC1
:100A5000F8B50D4606464978012031700024761C11
:100A600016E06978012917D01221614349198A7863
:100A700032704A88871C120A7270B61C10223046E7
:100A8000091DFFF7D5FA1037B8B21036641CE4B26E
:100A90002978A142E5D8F8BDA10049198A783270B9
:100AA0004A88871C120A7270B61C02223046091D41
:100AB000FFF7BEFABF1CB8B2B61CE7E710B50C468C
:100AC000097801702188090A41706288211D801C03
:100AD000FFF7AEFA6088801C80B210BD10B50C46DE
:100AE000097801702188090A4170A17881706188B4
:100AF000090AC170A288A11D001DFFF799FAA088FC
:100B0000001D80B210BD10B50C460A88891CFFF785
:100B10008FFA208810BD10B50B788A780270534385
:100B2000DCB22246401C091DFFF782FA601C10BD92
:100B300010B50B788A7802705343DCB22246401C11
:100B4000091DFFF775FA601C10BD10B50C460A8828
:100B5000891CFFF76DFA208810BD10B50C460A8875
:100B6000891CFFF765FA208810BD7FB5154604463D
:100B7000022901D0102903D1022B04D0102B02D05E
:100B8000002004B070BD994202D10A46294607E010
:100B90001029694607D000F00DF810226946284652
:100BA000FFF752FAEDE7104600F004F8102269460C
:100BB0002046F5E770B50C4605000CD0002C0AD095
:100BC000102206492046FFF733FA28782073687808
:100BD0006073012070BD002070BD000018840311F7
:100BE00010B50B460122024901F002FF10BD0000C2
:100BF000FD09021170B5064608880C46172812D365
:100C00000B4603220949304601F0F2FE050008D1E7
:100C1000074920880988884200D20146304600F002
:100C2000B7F9284670BD022070BD0000130A0211FA
:100C30001896FF1F10B500231922194601F0D8FE9F
:100C400010BD000010B50A78002A05D00B46072217
:100C5000024901F0CDFE10BD022010BD210A021193
:100C600010B54A78012A01D0022A08D10A78002A50
:100C700005D00B460522034901F0BAFE10BD022043
:100C800010BD0000510A021101494000085A704786
:100C90001696FF1F10B50B461B22024901F0A8FE55
:100CA00010BD0000BD0A02110149172008807047DD
:100CB0001696FF1F0098022B01D004207047117870
:100CC0005278120289180180002070470098012B89
:100CD00001D004207047117801700020704770B572
:100CE000049C1E461546062B1BD3697828780902FA
:100CF00040182080E978A878090240186080022214
:100D00002271291D601DFFF793F9B61FB2B222812F
:100D1000F02A06D82046A91D0A30FFF789F90020DD
:100D200070BD042070BD0098042B01D004207047D2
:100D3000537811781B02C91801809178D278120279
:100D40008918418000207047F8B584890D46064611
:100D5000002C26D0B2681778380620D50C2C20D964
:100D60000C3CA4B21019009001217088234601F0B8
:100D7000F5FB002811D0022028707806C00F68709B
:100D8000B806800EA870641E2004000CA88001D054
:100D9000B068401CA8600020F8BD0120ECE70020EE
:100DA000EAE70120F8BD10B502981146042B14D3D0
:100DB0004C780A78240212190280CC788A782402AE
:100DC000121942801B1F9AB28280F22A05D8801D18
:100DD000091DFFF72DF9002010BD042010BD00985B
:100DE000042B01D004207047537811781B02C918D6
:100DF00001809178D27812028918418000207047D2
:100E000010B502981146062B03D0142B03D00420F2
:100E100010BD022200E0102202714B780A781B02FA
:100E2000D2180280CB788A781B02D21842800279CD
:100E3000401D091DFFF7FCF8002010BD30B5039CD4
:100E4000D80718D1D805010E022914D30B48808881
:100E5000814210D8F6200155002008E0557813781B
:100E60002D025B194500401C6353C0B2921C88429E
:100E7000F4D3002030BD042030BD00001096FF1FC9
:100E80000098022B01D0042070471178527812028A
:100E9000891801800020704770B5144602460498F6
:100EA000022B18D3667825783602AD1905800546E1
:100EB000E0352A766976002A0BD0E8219B1E9AB28B
:100EC00042808A4207D8A11C001DFFF7B1F800201C
:100ED00070BDF421F2E7042070BD000010B50B4690
:100EE0001722024901F084FD10BD0000DD0A021145
:100EF00010B50B460D22024901F07AFD10BD00002D
:100F0000070B021110B50A78002A05D00B461122F2
:100F1000024901F06DFD10BD022010BD170B02113A
:100F200010B50A78002A05D00B460922024901F0C3
:100F30005FFD10BD022010BD310B021110B50B4634
:100F40000F22024901F054FD10BD00004B0B0211AD
:100F500010B50B460B22024901F04AFD10BD0000FE
:100F60005B0B0211F72800D9F720084A01461080D0
:100F7000401EC3179B0F18188003000C5080491E99
:100F8000C80F4018C003000C908070471096FF1FD8
:100F9000044A1288914203D8024A4000921D11521D
:100FA000704700001096FF1F10B50023132219464A
:100FB00001F01EFD10BD000070B50C460146032077
:100FC00000020A1A002534481300FFF743F81D10E9
:100FD00012151C1F2326282C303234383A3C3E4050
:100FE000424446484A4E50525A5456585A00C079C4
:100FF00011E01022294902E0284910221031204630
:10100000FFF716F845E0C06A206042E02249062258
:101010003C31F4E7007820703BE0808936E01E49DF
:1010200042784231EBE71D4982781F39E7E7007AC1
:10103000F1E7407AEFE7184906223031DFE7807A9E
:10104000E9E7C07AE7E7C08920E0808A1EE0C0783F
:101050001CE0C08A1AE0008B18E0408B16E0808B01
:1010600014E00D4906223631C9E7C08B0EE0008C32
:101070000CE0408C0AE08079CDE7008A06E0408AE7
:1010800004E0272904D2084600F080FA208000E01E
:101090000225284670BD00008495FF1F0DE6FF1F46
:1010A00070B50E4C00256071A571691EE18100F0DC
:1010B0009DFB0420E071102200210948FEF7D0FFBB
:1010C0000748102200211030FEF7CAFFE5622572A2
:1010D00065720720A072E57270BD00008495FF1F45
:1010E0000DE6FF1FFEB53B4D0C4608040CD5687994
:1010F000FEF7BCFF050004D002F090FC2846FEF786
:10110000BBFF0120C00360E0600403D50120800321
:101110004840FEBD2F48E1070126807900292AD0EA
:101120002978002920D0052821D0297A6846017025
:10113000697A4170274906223031801CFEF778FF1A
:10114000A97A68460172E97A41726946687900F0C5
:1011500039FA002808D00720A871696A002903D04D
:101160000968002900D0884720467040FEBD032052
:1011700069460870E4E7A1070DD5052809D1E8897B
:10118000FEF780FFAA8A002A03D002216879FEF7C1
:101190007FFF022019E0600704D5002002F096FCD2
:1011A000042012E0200712D52879012802D0022855
:1011B0000AD107E00096AB8B6A8B298BE88A00F096
:1011C00013F801E000F062F908206040FEBD002045
:1011D000FEBD00008495FF1F002801D001498862F0
:1011E000704700008495FF1FF8B5134C069EA57943
:1011F000052D01D01420F8BD104F851FBD4219D216
:10120000062917D3BD1DA94214D2FF27F537BA42CC
:1012100010D20A2B0ED3AB420CD2E0822183628320
:10122000A383304602F052FC04216079FEF736FFBA
:101230000020F8BD1820F8BD8495FF1F7A0C00002F
:10124000F7B50D4680490098164642187F4F002496
:101250007879B9791300FEF7FDFE190E141BE92009
:1012600040455970777E888FE996A2A9B4BFC8E936
:10127000E9E9E9D3E900102D76D11022314674480E
:101280006FE0102D70D1724810223146103068E0A6
:10129000042D69D13068F862CEE0012D64D13B782D
:1012A00032783A70002B0AD0002A07D1022903D0E5
:1012B000062901D0042901D100F03EF9BCE0002A42
:1012C0000AD0012905D0032903D0052901D004291A
:1012D00002D10121FEF7E8FEAEE0022D44D13088B4
:1012E000B881A9E01F2D3FD858481F220021423065
:1012F000FEF7B6FE55482A4631464230FEF798FEC4
:10130000524B7D7042332A46012112E01F2D7CD8BA
:101310004F481F2200211F38FEF7A2FE4C482A46E4
:1013200031461F38FEF784FE494B2A461F3BBD70ED
:101330000021787900F0D0FA83E0012D65D1307872
:10134000042862D8387277E0012D5ED13078032806
:101350005BD8787270E0062D57D13C4806223146A2
:101360003030FEF765FE67E04FE0012D4DD130785B
:1013700007284AD8B8725FE0012D46D1307803289B
:1013800043D8F87258E0022D3FD13288BA82002A41
:1013900052D0052950D10221FEF77AFE4CE0012DF2
:1013A00033D13078012830D8F87045E03088022DEC
:1013B0002BD1062829D31921C901884225D8F882C2
:1013C0003AE03088022D20D106281ED31921C90108
:1013D00088421AD838832FE03088022D15D1FF219A
:1013E000F531884211D2788326E03088022D0CD165
:1013F0000A280AD31921C901884206D8B8831BE0FC
:101400003178012D01D1012901D0182414E00821DF
:10141000FEF750FE002801D016240DE0002002F057
:1014200055FB04217879FEF739FE05E0009827285E
:1014300001D2022D02D002242046FEBD318800F0E8
:10144000FBF90446F8E70000FFFCFFFF8495FF1F4F
:101450000DE6FF1F1CB50B4CA179002901D011200E
:101460001CBD002800D06062064907482C310346A5
:1014700001910090103B0022E179607900F016F8AC
:1014800000201CBD8495FF1F1DE6FF1F10B50648F8
:101490008179052901D0122010BDC189132240791C
:1014A00000F0DAF910BD00008495FF1FFFB581B090
:1014B0001E460D4602240B9F0B00FEF7CBFD0D1AB6
:1014C0000B1A1A0B1A1A1A1A1A1A1A081A000AA050
:1014D00001F02EFD2946019800F0D8F8040008D14B
:1014E0003A4630460A9900F087F900F0EBF801F02F
:1014F00025F8204605B0F0BD4741505F4465766948
:101500006365496E69743A204741505F50524F46B7
:10151000494C455F43454E5452414C207C20474145
:10152000505F50524F46494C455F504552495048D4
:101530004552414C200A000070B5104C216800292A
:1015400004D00978814203D0032070BD122070BD01
:101550000B4D02212878FEF7A1FD0A48002646809F
:1015600004212878FEF79AFD0748068021680320A9
:1015700048700020FEF7A4FD70BD00007C96FF1FA0
:10158000AD96FF1F9096FF1F2096FF1F272803D2BE
:1015900002494000085A7047014870472896FF1FCB
:1015A000FFFF000010B5064C607005F07FFB60780F
:1015B000FEF78CFD0521607800F0BCFE10BD000038
:1015C000AC96FF1F70B5284E054630680C460028C3
:1015D00001D0112070BD254801780520014216D0A8
:1015E00023488068002805D00078002802D0C8076A
:1015F00006D101E0102070BD00F044F8002808D0AA
:101600002078032805D0022803D0002801D012201A
:1016100070BD0C20FEF760FD3060002820D0057002
:10162000002141700A222146801CFEF701FD02F0D4
:1016300031FB040002D001F025FD12E00D480078D6
:1016400003280ED11D20FFF7A1FF0B4900280880B9
:1016500007D00B48094A04210078FEF743FD00E05B
:101660001324204670BD00007C96FF1F1D96FF1FAF
:101670009096FF1F1E96FF1F2096FF1F60EA000036
:10168000AD96FF1F10B505F02FFB10BD70B50C46D1
:1016900005461C2200210948FEF7E2FC08480570B7
:1016A0004470FEF725FD0549002803D0002008708E
:1016B000122070BD01220A7070BD0000C0E6FF1F3D
:1016C0001C96FF1F70B50F4C0025A068002802D0A3
:1016D000FEF714FDA560E068002802D0FEF70EFDBD
:1016E000E560094805210078084206D00548103019
:1016F00002F09AF801F068FC70BD002002F094F846
:10170000002070BD9096FF1F1D96FF1FFEB5344D43
:101710000C46080419D56878FEF7A8FC0121C90316
:101720004C40064600280ED001F09EFF002807D14D
:101730002878FF2804D03146FEF7E6FC002802D0C6
:101740003046FEF799FC2046FEBDE0070127002841
:101750000AD0A868002804D04168002901D00020E0
:10176000884720467840FEBDA00709D56868002854
:1017700004D04168002901D00120884702202AE0D6
:1017800060072AD5174E308800281FD0401E00045D
:10179000000C30801ED101F0E7FC002809D012486F
:1017A00007706868002804D04168002901D0012032
:1017B000884701F0B3FC694600F01AFE684601F064
:1017C0003DFF1D20FFF7E2FE308003E00421687832
:1017D000FEF764FC04206040FEBD0020FEBD00005A
:1017E000AC96FF1F2096FF1F1F96FF1F0149087030
:1017F00070470000AC96FF1F70B50E4C0B46261DBF
:1018000007C60546102200211846FEF783FC012872
:1018100003D11021A06807F07FFB10220021284689
:10182000FEF778FC012803D11021606807F074FBF3
:1018300070BD0000C0E6FF1F272807D2044A91426E
:1018400004D0044A40001152002070470220704723
:10185000FFFF00002896FF1FF8B50D4617461D49EB
:1018600006461B4A1224C868954208D100282DD08C
:101870000268002A2AD029463046904723E0144ABD
:10188000521C954213D1002807D00268002A04D0C8
:10189000294630469047040005D03946304601F0CD
:1018A0005FFB040012D10B48067047700EE028461B
:1018B00005F0CCF9002809D00078B04205D13946AE
:1018C0002846FEF72DFC044600E003242046F8BD20
:1018D000FEFF00008096FF1FF8B50E46014619482E
:1018E0001546007805221F46104028D0304326D0E8
:1018F0001548012E1BD0C468002C20D01F2D18D8ED
:10190000002D01D0002F14D001701F220021601C77
:10191000FEF7A6FB2A463946601CFEF789FB2846DF
:101920002570002E07D0611CFEF700FCF8BD84680E
:10193000E2E70220F8BD611CFEF7FEFBF8BD1220B5
:10194000F8BD00001D96FF1F9096FF1F014610B5C1
:101950000020C90704D0034A0421034800F0A6F977
:1019600010BD00007C830311BC94FF1F70B50F4DA8
:101970000F4CA87029461831204600F01DF80021B0
:1019800028460B461030CA0084521218491C09061A
:101990005360090EF7D0012003F05CF8A87800F03E
:1019A00023FB044805F0B2F970BD00009C94FF1FB2
:1019B000FFFF00008D42021170B50A4C0025A042C5
:1019C00009D1002082008C525218401CC0B2957080
:1019D0000228F7D370BD02F028FC0028FAD004805A
:1019E000857070BDFFFF0000F8B50E4607460699EA
:1019F00000240798002902D00B242046F8BD022BB2
:101A000001D00D24F9E711785278120289188DB2AD
:101A10002946814301D08024EFE73846F16800F081
:101A20003DF9A842E9D02A463846F16800F0A8F905
:101A30000400E2D171892A46384600F065F9DCE7F6
:101A400070B50C46080412D50A488078FEF70EFBE4
:101A5000050008D02878B02802D1284602F002FDFF
:101A60002846FEF709FB0120C003604070BD00203E
:101A700070BD00009C94FF1FFFB587B0087A002559
:101A8000109E1C460F46C0060DD5099802F0C6FBF5
:101A9000030006D00A22394607989847050035D139
:101AA00001E00E2532E0387802281DD1786829221D
:101AB0000178407812020002081880B2811A904220
:101AC0007ED009DC7249401A23D0012821D0022897
:101AD00051D0032808D125E0012972D0022971D004
:101AE00003296DD004296ED0099802F0BFFB0028AD
:101AF000D7D00568002DD4D012991198019100908B
:101B00003346224639460798A847054628460BB073
:101B1000F0BD1198002873D1F868017831800278FF
:101B2000416897E0119800286AD101203080F86858
:101B30000021007820707889401C80B200F04EF9B6
:101B400000280FD0318802788918891C3180817A69
:101B500061704189090AA17002784168E01CFEF7B2
:101B600067FAD3E730880422001D30800021601C12
:101B7000FEF776FACAE71198002872D1F86804A92E
:101B80000088009004203080009820700098000A9F
:101B90006070009800F022F9070028D0F8680590DE
:101BA0006846028A03AB3B49384600F06FF90028CB
:101BB0000FD13B78022138487A68FEF7D6FF03E060
:101BC00027E031E01DE049E0002802D1401E6946CF
:101BD00088810598007802280CD105980222416876
:101BE000201DFEF725FA3088801C308002E069460F
:101BF0000098888168468089A070000AE07085E7B7
:101C00002FE0119800282CD1F968079800F046F8C9
:101C100004E01198002824D1F8680088022131805E
:101C20002070000A607071E7F868FEF78BFA11996E
:101C3000C0B2814210D8814201D1002206E0129A3E
:101C40008918814202D31199401AC2B23280F968D0
:101C500011980918204682E7072557E711980028B0
:101C600001D00B2552E70721F868318001782170F7
:101C7000417861708178A1704188090AE170017929
:101C8000217181796171C088000AA0713EE700006E
:101C900000280000FFFF00008E84031110B502F041
:101CA000C4FA002800D0807810BD00007CB514462E
:101CB000050019D068460195018000F09BF90300EA
:101CC0001DD1002C1BD06D89002D0DD00C20FEF7EE
:101CD00003FA00280AD0002303608580094A846043
:101CE0009168002904D006E0022308E0132306E0EF
:101CF000906004E011460A68002AFBD1086018468B
:101D00007CBD00009C94FF1FF8B50C4C0746207862
:101D100015460E46FF280FD00A20FEF719FA0100DB
:101D20000AD0B12008700020487008714F80CE8022
:101D30000D812078FEF7E8F9F8BD00009C94FF1FA4
:101D4000FFB583B008461F4601A90C9E00F046F877
:101D5000050012D06846808802F088FA00280AD070
:101D60004468002C07D000963B462946059A039804
:101D7000A04707B0F0BD0E20FBE70120F9E7000007
:101D800070B514460E46054602F04FFA002806D1FB
:101D90003146054802F049FA002803D005808470D6
:101DA000002070BD112070BDFFFF000010B501784C
:101DB000B0290BD14178002908D10179122906D028
:101DC0001B2903D14088012100F03EFA10BDFF21FC
:101DD0000231095C0129F5D010BD0000F0B58C4638
:101DE00010494B6819E09F687C89A04214D39E88F3
:101DF0003119814210D900220CE011017D18698946
:101E0000814205D16046002800D004802846F0BDFC
:101E1000521C92B29642F0D81B68002BE3D10020EE
:101E2000F0BD0000B896FF1FFFB5174881B00A9FAC
:101E3000446824E000251EE0A06829014618708946
:101E40000199884215D30299884212D80498002833
:101E500007D031787068049B039AFEF786FE00284D
:101E600007D0002F02D0A06840893880304605B0E6
:101E7000F0BD6D1CADB2A088A842DDD82468002C4E
:101E8000D8D10020F3E70000B896FF1FFEB5174633
:101E900000256A469580044640891D4A1E469042A8
:101EA00008D001AA0092401C237880B26268FFF734
:101EB000BBFF05462378022116486268FEF755FEEF
:101EC000002807D12378022113486268FEF74DFEEF
:101ED000002801D060890EE0237802210F48626853
:101EE000FEF743FE00280DD0002D03D06846808801
:101EF000B84203D0384602F0ABFE04E06889401EC9
:101F000080B200E06089002E00D030802846FEBDFF
:101F1000FFFF00008C8403118E840311928403114F
:101F200010B505490870042100F004FA00F006F825
:101F3000FEF7BAFE10BD0000C896FF1F70B50E4C2C
:101F400000200C4B651CFF228100C91800280ED010
:101F50000D80401CCA70C0B28A700228F4D30748B2
:101F600002F04EF9064804F0D1FE002070BD0C804E
:101F7000EFE70000C096FF1FFEFF0000814B02113B
:101F8000014B0211F8B50D4614460646694601F0AC
:101F900093FF17280CD0002C06D0012210213046C8
:101FA00004F02EFE002803D129463046FEF772FECB
:101FB000F8BD000070B50C46080411D5094800783A
:101FC000FEF754F8050007D00178A02901D102F0EE
:101FD000BBF82846FEF750F80120C003604070BDF2
:101FE000002070BDC896FF1F0149087070470000AF
:101FF000B896FF1F70B50546008800281DD0686898
:102000000221037842682248FEF7AFFD002808D17C
:1020100068680221037842681E48FEF7A6FD002882
:102020000BD01D4C6088002805D00122298812049D
:10203000101A814203D9012070BD022070BD0C200E
:10204000FEF74AF8060001D000200AE0132070BD18
:1020500002016B6861880A329952491C401C6180F8
:1020600080B229888142F3D80020306008222946B6
:10207000301DFDF7DDFF6068002802D1666004E0D6
:10208000084601680029FBD10660002070BD0000F1
:102090008C8403118E840311B896FF1F064949688A
:1020A00006E08A685289824201D1888870470968AF
:1020B0000029F6D100207047B896FF1F10B51422F2
:1020C000114201D0012202E04A0604D5002210216B
:1020D00004F096FD10BDC80701D0002010BD0220FD
:1020E00010BD10B514468A0604D50122102104F053
:1020F00087FD10BD882211420ED008220A4010210F
:1021000004F07EFD00280BD0E034617E0029F0D081
:10211000217E0129EDD103E0880701D4032010BD01
:10212000002010BD014610B50020C90704D0034AA5
:1021300007210348FFF7BAFD10BD0000908303118B
:102140001095FF1F70B50D46164600241D4903006B
:10215000FDF780FF08051234341934222934152D77
:1021600023D8162200211848FDF77AFF2A46314667
:102170001548FDF75DFF22E0022D16D111491088A8
:10218000103908801BE0082D0FD10E480822314677
:102190000838FDF7E3FF12E0012D06D1CA690949AD
:1021A0003078283107E0012D01D0182407E0CA6BF0
:1021B00004493078483102F060FE00E002242046F5
:1021C00070BD00001095FF1FD8E5FF1F0B7803704E
:1021D0000B8802221B0A43700B88801C012B02D043
:1021E000022B07D011E08A7802704988090A4170F1
:1021F00004220AE08A7802704A88120A42700A7938
:1022000082708988090AC170062210467047000052
:1022100008B5044B009313460A46012104F040FC24
:1022200008BD0000CD2102111CB5032301920093CB
:102230000A46024B122104F063FC1CBDC16302116B
:1022400010B5FDF791FF10BD13B5044800780128C3
:1022500003D101AA6946FDF78DFF1CBDD496FF1F6F
:1022600070B50F490F4A087000210B468C00491CBD
:10227000C9B213530429F9D30A4C00211034FF26A4
:102280000A460A256A4315196B80491CA354C9B232
:102290006E720329F4D3FDF773FF04F0D5FB70BD14
:1022A000D596FF1FDCE6FF1F082A01D001207047EA
:1022B0004B780A781B02D2180280CB788A781B02EE
:1022C000D21842804B790A791B02D21882808A790F
:1022D000C97909025118C1800020704770B50C46B9
:1022E000080411D509480078FDF7C0FE050007D0A5
:1022F0000178902901D104F009FB2846FDF7BCFEC6
:102300000120C003604070BD002070BDD596FF1F46
:1023100070B500280AD1064C00252580A581A5802E
:10232000A068002802D0FDF731FFA56070BD000055
:1023300098E7FF1F072907D0052905D0042903D0F6
:10234000062901D002207047044A8B009A181346D0
:10235000403B1986203A907400207047DCE6FF1F4E
:1023600070B506001BD10E4C0025214640310D747E
:102370004D740D76606D002802D0FDF707FF65658E
:102380005C20002546433419E800201840680028E6
:1023900001D0FDF7FBFE6D1CEDB20A2DF4D370BD2C
:1023A000A8E7FF1F70B50A880C460546072A07D024
:1023B000052A05D0042A03D0062A01D0022070BDC8
:1023C000012104F0D1FC002804D02146284604F065
:1023D0000DF870BD142070BD10B5001D80B2FDF762
:1023E000DBFE002803D00321C943FDF7DBFE10BD4F
:1023F00038B50C46050014D0002C12D003216846D5
:1024000006F08AFD6946887840218006800E0843E0
:10241000694688702246284607F0B6FA050002D0C1
:1024200006E0022038BD03226946E01CFDF700FEED
:10243000284638BDF7B58EB00E9815460E460028D2
:102440002DD0002D2BD0301DC0B20190FDF744FEE1
:10245000040039D000F06EFE07463246201D0E996A
:10246000FDF7A6FEF8B20890E0703804000E0B905D
:10247000A0703802000E0A9060703F0E277000F0C6
:1024800053FE0146102202A8FDF792FE06AB21463C
:1024900002A8019A07F0CEF9060003D010E002204E
:1024A00011B0F0BD089828700B9868700A98A87051
:1024B000EF70082206A9281DFDF77AFE00F040FE05
:1024C0002046FDF71BFE00E013263046E8E700003B
:1024D00010B5064C2070FDF771FE06212078FFF73D
:1024E00029FF034804F012FC10BD0000E496FF1F12
:1024F0006D8F021170B50C46080419D50D4800788F
:10250000FDF7B4FD05000FD006F050FE002808D1FD
:1025100009480078FF2804D02946FDF7F5FD00287A
:1025200002D02846FDF7A8FD0120C003604070BD21
:10253000002070BDE496FF1FAC96FF1F10B5054844
:102540000078400701D5044800E0002006F0B6FE00
:10255000002010BD1D96FF1FD896FF1FFFB58DB040
:102560000F98169C0E46002815D0002C13D00D98FD
:1025700004F06CFB050011D0617820780902401846
:10258000A178E2780904120689184718286AB84227
:1025900006D3401C04D0022011B0F0BD1420FBE78C
:1025A000002E04D02879800701D40120F4E7082206
:1025B000002106A8FDF754FD1098001DC0B201903F
:1025C000FDF78AFD060017D0301D109A0F99FDF710
:1025D000EFFD042221463046FDF7EAFD1022A9183E
:1025E00002A8FDF7E5FD06AB314602A8019A07F007
:1025F00021F9050002D013E01320CDE7082206A937
:1026000008A8FDF7D5FD0822211D08A8FDF71CFD2F
:10261000012801D0012503E039460D9801F094FB13
:102620003046FDF76BFD2846B6E7000030B5234C79
:1026300085B0607006211F20FFF7FEF820460B21B1
:10264000103011F005FB1E4B0022C821B42011F000
:10265000C5FA1C48FDF7B8FD6A46FDF7BBFD1948F1
:102660000830FDF7B1FD02AAFDF7B4FD684611F090
:1026700019FA0025ED432846FFF754FD2846FFF7D9
:1026800065F911F039F80120FDF7AAFD0120FDF7E9
:10269000ADFDF720FEF766FC012300211A4608462F
:1026A000FDF7AAFD01216078FDF7FEFC6078FFF7D9
:1026B0009DF8201DFEF790FD05B030BDF095FF1F81
:1026C000701700004B92FF1F1CB50C4608040AD57A
:1026D00029484078FDF7CAFC002801D0FDF7CCFC62
:1026E0000120C00343E0E00707D023480830FEF78D
:1026F000B1FEFDF787FD012039E0A00703D511F0F9
:10270000C5FA022033E060070ED5FF201BA114306C
:10271000019100901C4B1DA224A10420FDF778FD1F
:1027200011F01FF9042022E020070ED5FF2021A17F
:102730001B3001910090144B14A21CA10420FDF742
:1027400067FD11F017F9082011E0E00603D50EF03F
:10275000BFFD10200BE0A00603D511F0BBFD20202B
:1027600005E0600605D5164811F0C1FB4020604029
:102770001CBD00201CBD0000F095FF1F436F6E6E56
:102780006563746564000000DD830311736F757207
:1027900063655C73696D706C65424C455065726928
:1027A00070686572616C2E63000000004E4F5F54CC
:1027B00041470000446973636F6E6E656374000087
:1027C0008A92FF1F002805DBC106C90E0120884040
:1027D000014908607047000000E100E08307FF2224
:1027E000DB0E9A408907090E9940002808DB830810
:1027F00009489B001B1818689043084318607047ED
:102800000007000F0838830804489B001B18D8698C
:1028100090430843D861704700E400E000ED00E019
:102820008307FF22DB0E9A408907090E9940002892
:1028300008DB830809489B001B181868904308436D
:10284000186070470007000F0838830804489B0091
:102850001B18D86990430843D861704700E400E032
:1028600000ED00E00A4610B50146002003F0F2FC3E
:1028700010BD0000F0B50446006885B0012837D1CE
:102880002079022834D3207BA16842001948FDF743
:10289000CFFB21790120184D884029780843C1B227
:1028A0002970281D02788A4222D189061ED5C17856
:1028B000807889068006CE0FC70F10A04C210091AA
:1028C0000190114B114A0397029611A10420FDF7C4
:1028D0009FFC0097227B33460649052002F036FE16
:1028E0000D49FDF79BFCFDF79FFC688000202870D8
:1028F00005B0F0BDD0BEFF1F7892FF1F683A256477
:1029000020643A2564000000BD810311589A031128
:102910004E4F5F544147000000007A44044801686C
:10292000FF22120291430122D2031143016070473A
:102930001CE400E0F8B50F4656B2012922D0022F60
:1029400020D06421FDF776FC45B20C4678B21A21FE
:10295000401C48430A21FDF773FCE117890FEA1771
:102960000919920F891052190919921089186A00D1
:10297000891A40188019401E00280BDD0721FDF739
:102980005FFC0BE06421401EFDF75AFC45B24CB2DF
:102990000C37DBE70721FDF753FCC91DC8B2F8BDB2
:1029A00010B5FF2104469131FDF744FC002909D000
:1029B00064212046FDF73EFC002901D0A00701D08C
:1029C000002010BD012010BD10B5002808D00C2833
:1029D00006D8022804D0054908182038C07F10BD49
:1029E0000846FFF7DDFF1C30C0B210BD884E031152
:1029F000FFB583B00F4603981B4940001646085A9E
:102A0000FFF7EAFC04002AD00125601C2670002F85
:102A100003D00699B847401C85B2300610D5102166
:102A2000039804F0A1F9002801D0192613E06219D7
:102A3000E9B22046FFF7FEFC06000CD10C35ADB222
:102A40000421684601800194058169460398FFF7D7
:102A5000A9FC060004D02046FDF798FB00E01326F1
:102A6000304607B0F0BD00001696FF1F70B5044653
:102A700000680D46401C14D00022DC21201D0AF005
:102A80003DFE2168814201D1012070BD002250210C
:102A9000201D0AF033FE2168814202D101202870F6
:102AA000F2E7002070BD00007FB505460020C0435E
:102AB00069468881E87AA97A0002084344BA1A482C
:102AC00084422ED220460C3081B203AA28460AF056
:102AD000F3FD0646FF2115A02231009101901B4B0A
:102AE0001B4A02961BA10420FDF792FB2919487B83
:102AF000097B0002084340BA69468881FF2217A17A
:102B00002432009201910290104B114A11A104202D
:102B1000FDF77EFB69468889B04202D1002004B0EF
:102B200070BD0120FBE70000D20500005B445D2082
:102B3000545559415F424C453A2063726331365FC8
:102B400063616C5B3078253034785D00E04E0311B2
:102B5000388F03114E4F5F54414700005B445D20A6
:102B6000545559415F424C453A2063726331365B9C
:102B70003078253034785D00FEB58AB201464E4883
:102B800007F0A0FD4C4C0025143C074600280BD054
:102B9000032F09D065602560A068002802D00BF0E3
:102BA00067FEA5600120FEBD4348444E80790128A0
:102BB0001AD1A068002802D00BF05AFEA5603E484A
:102BC00002F0F4F803214902606088422FD80028FF
:102BD0002DD080B225600EF07FFBA060002834D09D
:102BE0006168FDF733FB3562334802F0E3F8316A80
:102BF00040186168884240D8A068002830D02E482C
:102C000002F0D8F800902C4802F0D2F80146A068F3
:102C1000326A8018009AFDF7A1FA274802F0CAF834
:102C2000316A401830622060002F35D032E0656094
:102C3000256023A0E121009101902F4B2F4A02959E
:102C40002FA10420FDF7E4FA24E02FA1E820019150
:102C50000090294B294A2AA10420FDF7D9FA19E04E
:102C600035A1F82001910090234B244A24A104208F
:102C7000FDF7CEFA656025600CE0FF2038A1023038
:102C8000019100901C4B1D4A1DA10420FDF7C0FAC4
:102C900008F0DCF80220FEBD3562FF223EA10932B9
:102CA000009201910290144B144A15A10420FDF7E3
:102CB000AFFA0020FEBD0000B4B5FF1FC890FF1F93
:102CC0005B455D20545559415F424C453A20626C4A
:102CD000655F646174615F756E7061636B20746FB2
:102CE00074616C2073697A65205B2564205D657270
:102CF000726F722E00000000D04E0311388F031146
:102D00004E4F5F54414700005B455D20545559418B
:102D10005F424C453A20626C655F646174615F7527
:102D20006E7061636B206D616C6C6F6320666169AE
:102D30006C65642E000000005B455D2054555941D0
:102D40005F424C453A20626C655F646174615F75F7
:102D50006E7061636B206572726F722E00000000EE
:102D60005B455D20545559415F424C453A20626CA9
:102D7000655F646174615F756E7061636B5B5D203C
:102D80006572726F723A4D54505F494E56414C49CC
:102D9000445F504152414D005B445D2054555941C0
:102DA0005F424C453A20626C655F646174615F7597
:102DB0006E7061636B5B25645D00000030B5044696
:102DC0000120002306E0E55C954201D0002030BDE3
:102DD0005B1C9BB28B42F6D330BD000010B528219E
:102DE0000148FDF739FA10BD40E0FF1F10B5044659
:102DF0000300FDF72FF9020602060FF001FD11F0A6
:102E00002BF905484079A04204D8044840210078B5
:102E1000FDF744F910BD00008A92FF1FF195FF1FD6
:102E2000FFB583B0060011D0059800280ED000250C
:102E30002F4606980128049815D0401B032815D268
:102E4000384600F09AF8022007B0F0BDAB2032A15E
:102E5000800001910090324B324A33A10420FDF7EB
:102E6000D7F90120F0E7401B0428E9D30C200EF02D
:102E700033FA04001AD0002020606060A060069839
:102E8000012818D070198078002804D00EF024FA98
:102E9000A060002816D0705D20716D1C705D60719F
:102EA00006986D1C0128705D12D016E0384600F0BF
:102EB00064F80520C8E770198178C07809020818FD
:102EC00080B2E1E70BF0D4FC20460BF0D1FCEDE73B
:102ED000E0806D1C715D00024018E08004986D1C5C
:102EE000E288401B904206D2A0680BF0C1FC20464D
:102EF0000BF0BEFCA4E7002A03D07119A068FDF70F
:102F00002DF9E0882760451904982746854290D31B
:102F100005980460002097E721212121212100004C
:102F2000C4530311949703114E4F5F54414700005F
:102F30000FB410B503AA0448029903F027FF10BC90
:102F400008BC04B0184700006528021138B5034BCF
:102F500000240FCB009403F04BF938BD58830311C4
:102F600010B50C4603F086FE002804D040882146A8
:102F7000FDF7D6F810BD122010BD70B5002809D09D
:102F800004462568A0680BF073FC20460BF070FC2B
:102F90002C00F6D170BD0022002913D0002811D0DA
:102FA000012806D04A799206920E4A71032805D06C
:102FB00007E04879C0221043487102E040200243F4
:102FC0004A7101221046704770B5124800250078FA
:102FD000052108421BD02020FDF77EF80E4C00286A
:102FE000A06013D020220021FDF73AF82020FDF741
:102FF00073F8E060002804D020220021FDF730F8AB
:1030000005E0A068FDF77AF80020A06013252846A7
:1030100070BD00001D96FF1F9096FF1F002909D06C
:10302000012807D1497989098901C02902D040299D
:1030300001D00220704703207047FFB500200E46E4
:1030400008701AE01C5C401CC5B2002C17D028196F
:10305000904214D85F5D6D1CEDB2384600F09DFEC5
:10306000002806D0641EE0B2307000998F4202D171
:10307000581904B0F0BD4019C0B29042E2D300200C
:10308000F7E7000010B5044C2068002803D0FDF7D6
:1030900035F80020206010BD7C96FF1F70B50E4DE6
:1030A00084002859002815D0006A002801D0FDF7B7
:1030B00025F82859406A002801D0FDF71FF8285943
:1030C000806A002801D0FDF719F82859FDF716F895
:1030D0000020285170BD00008896FF1F10B5044CD9
:1030E0006068002803D0FDF709F80020606010BD7B
:1030F0008096FF1F0100044805D104498978002902
:1031000001D00248801D7047D0E6FF1F1C96FF1FAC
:1031100001488078704700001C96FF1F01484068F6
:1031200070470000C0E6FF1F01488068704700003C
:10313000C0E6FF1F0148C06800687047C0E6FF1F77
:1031400010B50748C0680168491C0160054800784F
:10315000FF2803D001218903FCF7A6FF10BD000062
:10316000C0E6FF1F1C96FF1F02484068002800D0E1
:10317000012070477896FF1FFFB581B00F460D9E66
:103180000A9D039803F062FD040042D001980028D4
:103190003FD120791021084320710499490702D5B5
:1031A0000221084301E0FD21084020710B992846C7
:1031B00008430C9908433043207902D00421084386
:1031C00001E0FB2108402071002E06D0306910225A
:1031D00020623146A018FCF72BFF002D01D0002FF4
:1031E00005D00B98002814D0012F08D011E0606A98
:1031F000002801D0FCF782FF1C21284606E0606A07
:10320000002801D0FCF77AFF1C210B98FDF72AF863
:1032100060620398224C8700E05900283ED0002DC0
:103220000FD0006A002806D11C20FCF755FFE15999
:103230000028086205D0E0591C22006A2946FCF7E4
:10324000F7FE0C98002810D0E059406A002806D1FB
:103250001620FCF741FFE1590028486205D0E059EB
:103260001622406A0C99FCF7E3FE002E10D0E059BC
:10327000806A002806D11420FCF72EFFE1590028AF
:10328000886205D0E0591422806A3146FCF7D0FEEE
:103290000B9B049A0399019805F072FC05B0F0BDF0
:1032A0008896FF1FF3B581B0019803F0CFFC0500AD
:1032B00029D00E20FCF74CFF040024D02620FEF776
:1032C00065F9060000D12E78D020207000276770A5
:1032D0000B20A0700622E91DE01CFCF7A9FE019856
:1032E00060810298C1070120002901D0207300E00D
:1032F00027730299890701D5607300E06773F0B204
:103300002146FCF701FFFEBD10B581881F4B01244B
:10331000CA1A994237D011DC1D4BCA1A994219D0EA
:1033200007DC1C4A8A1810D0022A1ED0032A29D191
:103330001BE0472A27D0482A24D124E01300FCF7B9
:1033400089FE06212222222222218068007800F0B4
:10335000E5FC08E08068827841781202891889B219
:10336000007800F03BFD04460DE0094A921E9142B0
:1033700001D1012200E0002280680178104600F0AF
:1033800015FD00E00024204610BD00005320000081
:103390000A200000FADFFFFF70B51A4D1A4A0146F5
:1033A000002628781268194C01290CD0002A09D06F
:1033B00017490978490705D50221FCF76FFE668099
:1033C000FFF760FE70BD6188002903D0114B1B78A8
:1033D000002B05D0002AF5D01078FEF7ADF870BDAF
:1033E0003C2902D33C39618070BD0221FCF756FEB6
:1033F00062887D20C000424302212878FCF748FE05
:10340000668070BDAD96FF1F7C96FF1F9096FF1FD4
:103410001D96FF1F1F96FF1F08B541890091038964
:10342000C2888188C07800F0C5FB08BDF0B50446AD
:103430008088A12189004843304987B00968401835
:10344000FF30FF300230A1794167002C54D02C4D61
:103450006868002823D006782A480068002804D02D
:103460004168002901D0002088472146E0790831D1
:103470000591FFF7D3FDE0710246277D638A218A1B
:10348000E089019002A88AC0A0880090E0783146C7
:10349000059B05F0EBFBE078002802D00DE01A4810
:1034A000D9E7E079E2896B46059907C3A379A1883A
:1034B0000122304603F078FBE0706868002811D0E4
:1034C000FFF70CFE287800280CD06978FFF748FD3C
:1034D000002807D0E078A2880346297805F0F3FB9E
:1034E00000202870A0881721FDF752FDA088FEF764
:1034F0000FFFA088FEF734FF07B0F0BD3409FF1FAF
:103500008096FF1FB096FF1F1C96FF1F70B50446E4
:103510000026808803F09AFB002803D00678A08854
:1035200003F006FC144D2878002808D0864206D106
:103530006978FFF715FD002809D000202870002EBB
:1035400005D0A379A288A078314605F0BCFBA088FD
:10355000094A810008325158002901D0FFF79EFD29
:10356000A0881721FDF714FDA088FEF7D1FEA088E2
:10357000FEF7F6FE70BD00008096FF1F70B58288D2
:10358000294D0124531B2949AA4242D019DC284D58
:10359000531BAA4218D00BDC264BD21826D0254B41
:1035A0001033D2181ED0032A17D0042A39D10BE0C9
:1035B000012B09D0022B07D0032B21D0042B30D1B3
:1035C0001AE0433B072B2CD8496800292AD0096808
:1035D000002927D08847044624E08068007800F05E
:1035E000ADF81FE0806800F001F9F4E78068411C45
:1035F000007800F0D9F8EEE783681B78002B11D033
:10360000896800290ED00B6808E0014610469847EB
:10361000E1E709490968002904D04B68002BF4D17F
:1036200000E00024204670BD0E200000AC96FF1F75
:1036300008200000F7EFFFFF8C96FF1F10B5094C24
:10364000A17800290CD001460622A01DFCF7F0FC51
:10365000A11DA078FFF79FFCA01DFCF709FE10BD7F
:10366000002010BD1C96FF1F1CB52F4903780124B4
:103670000A68912B02D0A22B2ED13EE04178052979
:1036800009D00E2904D00F2908D03E2924D115E0F5
:10369000FFF774FF10E0FFF739FF3AE0014680883A
:1036A000224B0124C31801D0062B15D1002A30D09B
:1036B0005268002A2DD0904704462AE081780124E0
:1036C000032917D004DC012911D0022904D105E017
:1036D00015291ED016291CD000241AE01449896827
:1036E000002916D04968002913D0884711E0FFF758
:1036F0009DFE0EE0FFF790FE0BE00E4909780429CD
:1037000009D0002A05D05268002A02D001460A4892
:10371000904720461CBD00216A46118001794088EF
:10372000FEF776FDF5E700008C96FF1FF3DFFFFF45
:10373000AC96FF1F1D96FF1FFFFF0000F8B5164F48
:103740000646BD1F2878FF2814D00A20FCF700FD8C
:1037500004000FD0D020207066700820A070A878D8
:10376000E07006223946201DFCF762FC21462878CD
:10377000FCF7CAFCE87801280DD108480068002849
:1037800003D08068002800D080470648044A0421FE
:103790000078FCF7A7FCF8BD2296FF1FB096FF1F2C
:1037A00060EA0000AD96FF1F70B5002405460028B2
:1037B00005D1002903D006220B48FCF739FC0A4842
:1037C00010380178012907D10124002D06D00021ED
:1037D0000170284600F0CAF9204670BD0221017030
:1037E000FCF74CFDF8E70000D0E6FF1F10B5002401
:1037F000002813D002780B49002A03D14288CA82DC
:1038000002790A760A78022A08D102780124002A6D
:1038100006D000220A70007800F0A8F9204610BDFA
:103820000322F7E7C0E6FF1F014948607047000028
:10383000AC96FF1FF8B5774C877801460025072620
:103840006079A2793B00FCF705FC0805361A37378A
:103850005F94C736487800285CD16E4806223C3019
:10386000C91CFCF7E5FB0120A0716A4B01464233FD
:1038700062786079FEF730F800284BD1A2E00F465D
:103880004978002946D1F978002906D0624BA27800
:103890000021FEF721F878700AE0022A0BD00121FE
:1038A000FCF708FC002803D101216079FCF7FCFB40
:1038B000787800282ED1F8BD497800292AD1032F25
:1038C00009D0A289002A0CD0217800290AD0012130
:1038D000FCF7DEFB06E0052A01D0022012E00620FC
:1038E00010E02570A079062802D0042802D008E054
:1038F000052007E00120207001466079FCF7D4FB29
:1039000060E00320A0715DE048780F46002803D0F6
:1039100031282CD0A67155E03E480622391D36309C
:10392000FCF786FB7889E081B8892082F88960827B
:103930000520A071A28A002A03D002216079FCF739
:10394000A7FBB889E083F8892084388A6084E0780E
:1039500001280AD11F20FDF719FE7D21C900484327
:10396000024604216079FCF793FB25702AE025705C
:10397000C7E728480E46062200213630FCF770FBC8
:10398000E5832584658404216079FCF787FB0821A1
:103990006079FCF783FBB079082808D00320A07178
:1039A0002078002805D06079FDF7C6FD07E00420E7
:1039B000F5E70120207001466079FCF775FB0020D7
:1039C000C043E081606A002800D174E701680029E3
:1039D000FBD0A0798847F8BD0D460821FCF75EFBB7
:1039E000687829460028F6D1E888E0832889208471
:1039F0004889608404216079FCF75CFB0028EAD1E7
:103A0000A06A0028E7D00368628C218CE08B98477D
:103A1000F8BD00008495FF1FEEE5FF1F10B501788B
:103A2000224C912906D0A22926D0D02901D1FFF716
:103A300001FF10BD41780E29FBD181881C4A9142BB
:103A40000FD1816803200856A1790529F1D17F287B
:103A5000EFD0616A0029ECD049680029E9D0884795
:103A600010BD144A9142FBD1806883784278017876
:103A700011A0FFF75DFA10BD41791329FBD1008930
:103A8000012802D12079022808D00520FDF77EFD0B
:103A9000024608216079FCF7FBFA10BD0821607925
:103AA000FCF7FCFAFDF7F2FC10BD00008495FF1F47
:103AB00005140000222000005B48434920444C4587
:103AC0005D25642025642025640A00007CB5154C22
:103AD0000546E08BE18A88420AD3218B884207D8C9
:103AE000208C618B884203D1608CA18B884217D0D7
:103AF0000520FDF74BFD0646E18A68460180218BD3
:103B00004180618B8180A18BC18062796946E089A7
:103B1000FEF78AFB2571324608216079FCF7B8FA76
:103B20007CBD00008495FF1FF8B507460E46084689
:103B300003F08CF8040018D02620FDF727FD0500BF
:103B400000D125780620FCF703FB04000DD00622E7
:103B50000021FCF785FAD020207067700E20A0703D
:103B6000A680E8B22146FCF7CFFAF8BD70B50F4D3C
:103B700006462878FF2818D00E20FCF7E9FA040042
:103B800013D0D020207066700020A0700622084953
:103B9000E01CFCF74DFA06481038C18A6181007EAE
:103BA000207321462878FCF7AFFA70BD1C96FF1FE2
:103BB000D0E6FF1FFFB581B01E4617460D460C200C
:103BC000FCF7C6FA040013D0284603F03FF800289B
:103BD00010D00078D0212170019961700721A17067
:103BE000A580E78026810A9961812146FCF78CFA3D
:103BF00005B0F0BD0048ECE71C96FF1F70B50D4DF9
:103C0000044628680E46002812D00620FCF7A0FAC9
:103C1000010009D0D02008704C70032088708E807D
:103C200028680078FCF770FA002C01D0FFF72AFA18
:103C300070BD00007C96FF1FFFB581B01F460E4689
:103C4000084603F003F8050022D01020FCF780FAA4
:103C500004001DD010220021FCF702FA2620FDF7F7
:103C600095FC002800D12878D0212170019961703D
:103C70000F21A170A6800399217267720A99A1721F
:103C80000B99E1720C99E160C0B22146FCF73CFA55
:103C900005B0F0BDF0B51F4D85B02868002837D0BD
:103CA0008778FDF7EFFC002805D00A20FDF76EFCB1
:103CB00004900B200EE002F051FB002805D00620F6
:103CC000FDF764FC0490072004E00820FDF75EFC8B
:103CD00004900920FDF75AFC04460F48007800289C
:103CE00014D001262968C878091DFFF754F92968FE
:103CF0006D46CA7A8B7A091D0BC5039233463A4644
:103D000021460498FCF7C0FA05B0F0BD0026E9E7AB
:103D10000120F9E77C96FF1F1E96FF1F10B5094989
:103D2000096800290CD0002805D101204870FCF753
:103D3000C7F9002802D00021FFF760FF012010BD65
:103D4000002010BD7C96FF1FF8B50C4602F07EFFE8
:103D5000020021D026201462FDF718FC05062D0E66
:103D600000D115789679D01D00901020176AFCF7C5
:103D7000EFF9040010D0D0202070002060700920DE
:103D8000A070E6700622201D0099FCF751F921462B
:103D90002846E760FCF7B8F9F8BD411E152903D99C
:103DA000FF2801D0002070470120704770B50A4EEF
:103DB000054630780C46FF280DD00420FCF7C8F9E2
:103DC000010008D0D02008704C7002208870CD709F
:103DD0003078FCF799F970BD9096FF1FF3B5284D28
:103DE00081B0286800284AD04078264E012803D0A8
:103DF0003078002831D041E002F0B0FA224F00289C
:103E000013D00120FDF7C2FB0446412808D91F4A00
:103E100002213878FCF766F91D483C3C44800EE0EE
:103E20007D20C0002246424303E00020FDF7AEFBA8
:103E30000246002A03D002213878FCF729F92968C4
:103E4000022048703078002802D00020307015E041
:103E500002990198FFF7D2FE10E00320019CFCF7C5
:103E600077F9010008D0D02008704C7004208870C9
:103E700028680078FCF748F9FFF704F90120FEBD37
:103E80007C96FF1F1F96FF1FAD96FF1F60EA000084
:103E90009096FF1F074A00218B00D35A834202D11C
:103EA000880080187047491CC9B20229F4D3002049
:103EB00070470000C096FF1F10B50C46FFF7EAFFE1
:103EC00000280DD0002C00D020608078FE2803D080
:103ED000FF2803D0162010BD172010BD002010BDF4
:103EE000022010BDFFB581B0FF201E4617460530E9
:103EF0000A9DFCF72DF904001BD0B02020706770DC
:103F0000029860802671002D06D02046FC222946AA
:103F10000830FCF78DF805E02046FC22002108302F
:103F2000FCF79EF821460198FCF7EEF8002005B05A
:103F3000F0BD1320FBE70000054817220280098826
:103F4000172901D20420704701800020704700002B
:103F50001896FF1F0020704708B50A460888498850
:103F600088420BD8002809D0002300931379521DF2
:103F7000FDF75AFF002803D0002008BD012008BD2E
:103F80000A2008BDF3B50D4608884988002687B089
:103F9000814215D3002813D0002769460F7100977E
:103FA000002369881A46FDF73FFF04004FD068469A
:103FB0000079002807D069464979012925D008E011
:103FC000012009B0F0BD217802291BD002216A46E8
:103FD00051711222504301AA6189801841806846BC
:103FE00000791223584380181022001D6168FCF7E5
:103FF0001FF868460079401C0106090E68460171E9
:104000001FD11AE001216A465171217802291ED17F
:10401000820001A86189121851806A46127961688C
:10402000920010180222001DFCF702F86A4610796F
:10403000401CC0B21071052803D261890A48814230
:1040400000D101266089401C80B2002EA7D06846AE
:104050000079002805D001A90798FCF701FE00208F
:10406000AFE70A20ADE70000FFFF000038B50C46BF
:1040700008884988884215D8002813D02379621D02
:1040800002210B48FCF771FD00280DD000200090A4
:10409000237961882088621DFDF7C6FE002805D0BF
:1040A000002038BD012038BD102038BD0A2038BDA1
:1040B0008C84031108B50A460888498888420BD8C1
:1040C000002809D0002300931379521DFDF7ACFEA0
:1040D000002803D0002008BD012008BD0A2008BD2B
:1040E000F8B500250F4606460C46E03717E0680095
:1040F000205A0021FDF772FE002809D0017A3046CF
:10410000FDF7DCFF002808D06900615A2180F8BD66
:104110006800205A20800120F8BD6D1CEDB2B87DEA
:10412000A842E4D80020F8BD10B504460888002154
:10413000FDF754FE002804D0017A2046FDF7BEFFAB
:1041400010BD012010BD000030B585B005466946A0
:10415000FCF7FAFD040026D168468078C1071E48A6
:1041600009D08268002A04D06888694690470446CE
:1041700019E0062417E04268002A05D068886946DD
:104180009047040001D10EE00624684640780028DC
:1041900009D16846817801730021C181047468885F
:1041A00003A9FCF71DFDA868002801D0FBF7EEFF6E
:1041B000002C05D168468078122807D01B2803D030
:1041C00068880121FEF740F805B030BD68464078A8
:1041D0000128F5D1F8E70000C896FF1F70B5054625
:1041E0000C4608880021FDF7F9FD002805D0017A6A
:1041F00022462846FDF775FF70BD012070BD000006
:104200000149486070470000C896FF1F10B504467A
:10421000801C00F029FDFF20E07010BD10B500F0FB
:1042200025F8002800D0806810BD00229300CB5AEA
:10423000834202D1900040187047521CD2B2022A29
:10424000F4D3002070470000074A0021CB00D35A66
:10425000834202D1C80080187047491C0906090E24
:10426000F4D0002070470000AC94FF1F0649896815
:1042700005E08A88824201D1886870470968002970
:10428000F7D10020704700009C94FF1FF8B5074647
:10429000012906D0022924D1012102F065FD002860
:1042A0001FD13846FFF7D0FF050015D000240D4E72
:1042B0000CE0F8206968604308180188002908D0DC
:1042C000F8220021FBF7CCFE641CE4B27078844233
:1042D000EFD30020C0432880024938461831FDF74B
:1042E0006BFBF8BD9C94FF1FF3B5064683B0083006
:1042F0000190002000907088FFF7A6FF07002FD0E4
:10430000002523E0F820796868430C1821880029EB
:1043100020D00198007801280FD160880090A388F0
:104320007088A21DFDF70CFD0090002805D00199B2
:1043300000200870049821880180F822002120467E
:10434000FBF78EFE00206D1C2080EDB20748407800
:104350008542D7D30020C04338800098002802D17E
:104360007088FCF767FC009805B0F0BD9C94FF1FB7
:10437000F3B50546374C064685B00835F6220021D0
:104380002046FBF76DFE03A800902B7969882888EA
:104390006A1DFDF749FD074645E070882E4A410039
:1043A000515C2E4BC91FC9B20093002202910192A9
:1043B000284B69468A89F63B3946FDF75DFB0028A4
:1043C00012D126482989001F828891420CD12149A7
:1043D0002846F6390A30FBF737FE002804D021784A
:1043E000788989000919488068468289698804AB00
:1043F0003846FDF74BFD07462078810009194A88A9
:10440000002A10D0002F05D06A46128A401C207066
:104410008A800AE002060021920DC9431219401C4D
:104420002070918006E0002F04D00D48217800888C
:104430008142B2D32078002806D070882146FCF74C
:1044400001FC002007B0F0BD0698298801800A20F1
:10445000F8E70000DEE4FF1F1696FF1FA094FF1F81
:104460001296FF1FF0B585B004460020694688818A
:1044700020790E2869D00FDC082823D004DC02281C
:1044800013D0062818D118E025460835484F0A28C9
:104490001DD00C2810D138E010285BD012285ED037
:1044A000162861D0182877D163E043484149008835
:1044B00008806088FCF79EFB6EE003A92046FFF7AA
:1044C00057FF5AE003A9204600F076F955E0288806
:1044D00004A9FDF783FC010015D06088354E420029
:1044E000BA5C0023521ED2B20193029200966A4631
:1044F000B31C128AFDF7C0FA00281DD1608831462E
:10450000FCF726FD48E0012016E0288804A9FDF705
:1045100065FC0100F7D060886B884200BA5C254ECC
:10452000521ED2B20193029200966A46B31C128ABE
:10453000FDF7A2FA002803D029886A4691811CE081
:1045400060883146FCF7D4FC26E003A9204600F041
:10455000D3F912E003A9204600F082F80DE003A988
:10456000204600F039FA08E003A9204600F028F8B8
:1045700003E003A92046FFF7B7FE00280CD06178BE
:10458000142909D00B4922790A706A4692894A8017
:1045900008716088FCF724FB2046FDF707FC0748FC
:1045A000C168002901D02046884705B0F0BD000051
:1045B0001696FF1FDEE4FF1F1096FF1F9C94FF1F3F
:1045C000F8B504460F460546083400896946FDF7EC
:1045D00005FC06003AD0307A80060ED56846008881
:1045E000FFF71CFE030006D0688812223146984768
:1045F000060002D02BE00E2629E06E883046FFF739
:1046000023FE010005D11448FFF71EFE01000ED065
:104610000E80124A0020527807E0F8264B68464385
:104620009B5B002B05D0401CC0B29042F5D30926FD
:104630000DE04968F822504308182146FBF7F8FCC2
:10464000002668882146FCF749FC02E00126208804
:1046500038803046F8BD0000FFFF00009C94FF1F2B
:10466000F3B58BB000200B9E0746039004A8009082
:104670003246337B718930894C4C0D320836FDF758
:10468000D3FB054678E00B98297A4088FDF716FDA4
:10469000070003D00C98698901806FE00B984449AA
:1046A0004088444B4200895C0093891FC9B20022B4
:1046B000029101923D4B69460A8AF63B2946FDF775
:1046C000DBF90700E6D10398002833D03948618828
:1046D000001F8088021D914253D1039909180B983D
:1046E000408842003248805A801F814249DC039949
:1046F000A87A6118087103986989401C80B2221851
:10470000090A401C117180B203906846028A7188C0
:1047100007AB2846FDF7BAFB050011D003986946A0
:10472000898B2018017103986946401C898B80B2DF
:10473000090A0CE01F48001F8088001D6080D6E732
:104740000398FF21201801710398401C80B22218A1
:104750001171401C80B217490390091F8A881349C0
:104760002018F639001DFBF763FC12490398091F56
:104770008988401880B20390002D84D103980028C6
:104780000CD061880398FBF755FD20700B982146EB
:104790004088FCF7B7FB00200DB0F0BD002F00D122
:1047A0000A270C98318801803846F5E7DEE4FF1FC0
:1047B0001696FF1FA094FF1FF3B50746044608375F
:1047C0008BB049480490388800252E4605906AE051
:1047D00007A800903B7979887A1D0598FDF724FB9E
:1047E0000890002852D0408905900898017A608886
:1047F000FDF764FC06005DD160883C494200895C9D
:104800003B4B091FC9B20093002202910192364B23
:1048100069468A8BF63B0899FDF72EF9060049D1C7
:10482000002D36D0049841883148001F8088801CB4
:10483000814241D12E4B1B1F988829186088420065
:104840002A48805A001F814220DC0898817A049807
:104850004019017108996D1C4989E8B20A0A049946
:1048600009180A71401CC5B2194604988A881E4965
:104870004019F639001DFBF7DBFB1D481D49001FE1
:1048800000792818C5B20598884209D1002D13D1A6
:1048900023E017480499001F8088801C4880C9E7DE
:1048A000401C80B20590608841001048405A001FAB
:1048B000A8428DDA002D0ED0049841882846FBF7D7
:1048C000B9FC01460498017060880499FCF728FB44
:1048D00000200DB0F0BD002E00D10A260C990598DD
:1048E00008803046F5E70000DEE4FF1F1696FF1F44
:1048F000A094FF1FFFFF0000F3B50646044600200A
:1049000085B0324D00900836288007463046E030AA
:10491000049048E07800305A03A9FDF75FFA0100DF
:104920001AD060882B4B844642002948805C009353
:10493000401EC0B2002202900192244B6846828938
:10494000F63B6046FDF798F80090002807D0780005
:10495000315A0698018035E001200090F7E71D49A3
:104960002888091F8988421861884B001849C95A4C
:104970004B1E9A4204DD081A1649091F401E888002
:104980002988A81C08181349091F8A880F49F63975
:10499000FBF74EFB0F482988001F808808182880E5
:1049A0007F1C0498FFB2807DB84207D960882988AF
:1049B00042000748805A401E8142ABDB608829468E
:1049C000FCF7BCFA009807B0F0BD0000DEE4FF1F62
:1049D0001696FF1FA094FF1FF3B5054683B004464B
:1049E0000835008901A9FDF7F9F92746E837064699
:1049F000002822D0307A80060ED568468088FFF7DE
:104A00000DFC030006D0608812223146984706004C
:104A100002D013E00E2611E0002000906B88298858
:104A200060882A1DFDF78CF9060007D1787E0028E2
:104A300007D16088FCF7B8FA03E0012604982988BA
:104A40000180787E002802D0002005B0F0BD3046FD
:104A5000FBE70000F8B504460246F8204243194837
:104A600000250746457010377868002807D00020D9
:104A7000C100C919401C00064D60000EF8D0124E4E
:104A800000213046FBF7ECFA002001466143C9B231
:104A9000F82251438B190B49C200103152180021E2
:104AA000536005E0F8274F435368491CDD53C9B2F2
:104AB000A142F7D3401C0006000EE6D00148447026
:104AC0000020F8BD9C94FF1FF0E2FF1F7CB50C781E
:104AD000069D022C0FD14C68267864782402341984
:104AE000064EA4B2F44206D10224DBB20095019432
:104AF000FCF77AFF7CBD01207CBD0000FED6FFFFE5
:104B0000F8B505461D48854223D0461C002921D012
:104B100001292BD002291CD10121284602F024F9B9
:104B2000002816D12846FFF7B5F9040011D0A07867
:104B3000FF280ED0FE2807D000200090E0781E232A
:104B400014222946FFF7CEF92046FFF75FFBFF202E
:104B5000A070F8BD2846FFF79DF90028F9D130462E
:104B6000FFF798F90028F4D00580F8BD2846FFF734
:104B700091F90400F9D02680D9E70000FEFF00007B
:104B8000F3B50C468978C1B01E2914D02E4D287873
:104B9000FF2829D0182927D84808C2002B48121806
:104BA000803A976F002F1FD0D06F00281CD020783C
:104BB000002817D113E04198FFF76CF905000BD0DE
:104BC00000200090A378E87800224199FFF78AF945
:104BD00006462846FFF71AFB304643B0F0BD627820
:104BE000012A03D1122901D00620F6E702AE009671
:104BF000A3886178A268B8470028EED1A078400861
:104C0000C100124808188038C26F02A94198904725
:104C100000280FD061780029DFD1A27869460A7098
:104C2000087168460189418069464198FBF7D8FFC1
:104C30000020D2E7A378042BCFD00096002228785A
:104C40004199FFF74FF9C8E7B896FF1F2884031171
:104C500000B50346FDF722FA002803D0C018401E15
:104C600080B200BD184600BD10B5040008D0207801
:104C7000FF2805D0FE2803D0FBF70CFBFF20207097
:104C800010BD0000F7B506460F461020FBF724FACA
:104C900005461020FBF720FA0446002D3AD0002CE0
:104CA0002DD010220021FBF7DBF92A4621463046A1
:104CB00004F0B0F8060023D12878000604D4394661
:104CC000284601F063FF08E02146284601F05EFF18
:104CD0003A46114920460FF005FF3878000604D403
:104CE0003846029901F052FF0AE02146384601F0A9
:104CF0004DFF09492046029A0FF0F4FE00E013260A
:104D00002846FBF7FBF9002C02D02046FBF7F6F90A
:104D10003046FEBD1326F6E7B2840311F8B5002233
:104D2000D2436B461A80194A1269521E904201D929
:104D30000020F8BD13224002920386180F0ACCB25D
:104D4000002510E0FF220132114930460CF03AFBF9
:104D5000FF216A4601310E4808F0AEFC69466D1C21
:104D6000FF3608800136BD42ECD3002C0BD0224622
:104D7000074930460CF026FB21466A46044808F0F5
:104D80009BFC6946088068460088F8BDB88FFF1F05
:104D90009099FF1F04490878102801D3002070471C
:104DA000421C0A70704700006D91FF1F0068704739
:104DB00012307047008A7047F8B5069800271D46E4
:104DC00014460E46002801D00B20F8BD3078002193
:104DD000022801D019804DE0706802784078000206
:104DE0001018152280B25202801A0300FBF732F924
:104DF0000504121F1A254100F068FBF7A3F9C2B29F
:104E00000798824200D902462A80F1682046FBF7C3
:104E10000FF930E0F0680221008829802070000A34
:104E2000607028E0062028800246F168EEE7012045
:104E30002880F068007820701DE0F068002816D007
:104E400008212980017821700188090A6170817820
:104E5000A1704188090AE170017921718188090AEC
:104E600061718179A171C088000AE07103E0298035
:104E700001E0298001273846F8BD10B50B7884077A
:104E800002D50224234301E0FD2423400B700307D5
:104E90000B7802D50824234301E0F72423400B704C
:104EA00083060B7802D52024234301E0DF2423402E
:104EB0000B700A21084201D1810603D510780C211C
:104EC000084304E0002803D11078F3210840107053
:104ED00010BD0000FFB581B0087800240A9E1F466F
:104EE0000D4602280FD16868017840780002081842
:104EF000152180B24902401A09D0012829D0022880
:104F000048D003283CD00124204605B0F0BDE86815
:104F1000FBF718F9C0B2864205D8F01900901528A1
:104F200003D90D24F0E70724EEE7E8683A46801934
:104F30000399FBF77DF80098EA6880B200211154CC
:104F40001C4840680028DFD001680029DCD0002020
:104F500012E0002E12D1022BE3D10399E8680A78FF
:104F60004978090251180180124840680028CBD0C6
:104F700001680029C8D001208847C5E70B24C3E792
:104F8000002EFBD1062BCCD10622E8680399FBF753
:104F90004FF8B9E7002EF1D1012BC2D10398007868
:104FA000002803D0012801D08024ADE7E96808700B
:104FB000AAE700000095FF1FF0B52C4895B0C16B23
:104FC0008F05416BBF0D490A49024163284840786B
:104FD000B84244D1022404AE0125A5403D4235D05B
:104FE0002248426BAA4342630020E1018C4662469C
:104FF000810052181F4951188A6813051B0D420081
:10500000B352896892190901090D401C51801D286D
:10501000EDDB16480123856315490878002815D073
:10502000E00701D0601E00E0601C82005118496852
:10503000002907D06A46009310711D200296107354
:10504000684688470948416B29434163641C072C23
:10505000C2DD07488078002801D100F01DFA03481E
:10506000416B054A1143416315B0F0BD0000054096
:1050700040E0FF1F00040540FF01000010B5044898
:10508000C16B034A40321068D06000F06BFD10BD68
:105090000080004010B508494869002806D0087E05
:1050A000064A002803D0002005F007FA10BD0020B2
:1050B00005F0A4F910BD000050E2FF1F00600040A1
:1050C00010B50849486C3031002806D0087E064AE1
:1050D000002803D0012005F0F0F910BD012005F0F3
:1050E0008DF910BD50E2FF1F00700040F3B5A448D9
:1050F00085B00078002806D0A2490878002804D09E
:10510000112007B0F0BD1220FBE7069800280FD051
:105110006846057DE80701D00520F2E76846847DF2
:10512000002C07D0802C05D0202C03D0082C01D0D7
:105130000620E6E7407D8870A807800F48700220AF
:105140000123194681400D4209D0C1078D494A7893
:1051500001D0461E00E0461CB3401A434A70401C72
:10516000C0B20828ECD3012080078068800302D4F5
:105170001120FBF795F8844AD06B40210843D06397
:1051800081484030016801239B0419430160416854
:1051900080231943416041689B0399434160416802
:1051A000431419434160C16B10231943C163C36B9E
:1051B00001210B43C3636846C07D03900020106249
:1051C00002260121B14029420BD00B463046234034
:1051D00000D00123039A114000D001211A4603F0A8
:1051E00087FD761CF6B2082EEBD3674E4036F16A87
:1051F0003046012212059143F162F36A10218B437C
:10520000F362336B93433363336B8B433363736B5F
:1052100093434363436B8B434363836B9343836346
:10522000826B8A4382638268CB049A438260002C3B
:1052300008D0022C6CD0082C62D0202C58D0802CA6
:1052400070D14DE00446C06B10218843E063022614
:105250000120B04005423ED049480021801D875DB5
:10526000384600F0EFFA0121384600F027FA012114
:10527000384600F00BFA3300FAF7ECFE0805090E89
:1052800012171B202428E06A0121090501E0E06AC9
:1052900010210843E06219E0206B0121090501E0BB
:1052A000206B10210843206310E0606B0121090589
:1052B00001E0606B10210843606307E0A06B0121EF
:1052C000090501E0A06B10210843A0632D49B2003D
:1052D000511806984860761CF6B2082EB8D34CE0F8
:1052E0000D2000900920019004200727029019E06A
:1052F000082000900F20019003200527029011E064
:105300000E2000900720019002200327029009E060
:105310000C200090102001900120074602901A48AE
:10532000602101620121009800F0C8F9B168E02213
:105330009143029A52011143B160B168FF220132D8
:105340009143B160B168D2009143B16000210098EF
:1053500000F078FA0021019800F074FA0121009819
:1053600000F094F90121019800F090F905486108D6
:105370004170BA001018069941600020C1E6000093
:105380004094FF1F40E0FF1F00F0004010B50549AA
:1053900001200870044A00211120FAF787FFFDF769
:1053A0001DFD10BD4094FF1F1D29021110B5144CA6
:1053B0006078002823D10120607012480168090537
:1053C000090DA18000680001020D62800EA0FDF7AA
:1053D000AFFDA08810494018FF219B31884207D2B9
:1053E0000D4960884942884202D30C49884206D957
:1053F0000B49A18061800A460AA0FDF799FD10BD06
:105400004094FF1F0010001141445F43414C5B2555
:10541000782025785D0A0000CDF8FFFFCC08000059
:10542000FF0F00002D3E41445F43414C5B25782037
:1054300025785D0A0000000010B50F4800780028AC
:1054400018D00E48012404701120FAF735FF0D49D9
:105450000B4848630C4881680822114381608168C9
:10546000214381600949C00508600A49084848632A
:10547000002010BD122010BD4094FF1F40E0FF1F10
:10548000B94F0211C003FF1F40F0004000E100E0EF
:10549000FF01000000000540F8B52548007800280D
:1054A00044D02548234941630122244B52071A6006
:1054B000BFF34F8FBFF36F8F214B00225A6381637D
:1054C000C26B002AFBD11F4DA86808218843A86041
:1054D00068688902884368601B4E0024A000801918
:1054E0004068002811D01249E0B2891D0F5CFF2FDF
:1054F0000BD00021384600F0C9F80021384600F0F2
:1055000071F90021384600F09DF9641C092CE5DB97
:10551000A86840084000A8601120FAF7D3FEFDF704
:105520005DFC1120FAF7D4FE0020F8BD1220F8BD72
:105530004094FF1FFF0100000000054080E100E0F3
:10554000C003FF1F40F0004040E0FF1FFFB581B0E7
:1055500000240A9E15462046009405E042008A5A1F
:105560001205120D1419401CA842F7D3FFF71EFFB5
:105570002846FAF7B3FE05462046FAF7B5FE294657
:10558000FAF7B8FE3B4900904D883B48854256D01B
:105590008C88844253D0281BFAF7B2FE0022D243F3
:1055A000FAF7B4FEFAF7B8FE07460198C00738D0FC
:1055B000002E0FD02819FAF791FE0446452109065E
:1055C0000098FAF7AFFE3946FAF7ACFE0121FAF778
:1055D000AFFE30E02819FAF781FE044639460098FC
:1055E000FAF7A0FE27E000900498244C244D0128EF
:1055F00037D00198234980000858FAF76FFE0099C8
:10560000FAF70CFEFAF79AFE22462B46FAF79CFEB2
:1056100000221D4BFAF79EFEFAF77EFE009005B0C1
:10562000F0BD002EC6D12819FAF758FE04463946B7
:105630000098FAF795FE2146FAF75CFED3E7002EB4
:1056400009D00A21C9430098FAF772FE7F21C905E3
:10565000FAF768FEC7E70B21C9430098FAF768FE1E
:10566000C1E70098FAF76AFE22462B46FAF76CFE6D
:10567000D2E700004094FF1FFF0F00009A9999990C
:105680009999E93FA882031180842E4130B5C21F49
:105690000A2A01D3062030BD0124074D9440002979
:1056A00005D0002100F0CEF82868204301E02868EA
:1056B000A0432860002030BD00380040054B012287
:1056C00082405868002901D0104300E090435860A0
:1056D0007047000040380040054B01228240D868E6
:1056E000002901D0104300E09043D86070470000CB
:1056F0000038004070B5FF2814D08207D30E84080C
:10570000094A5E1DA400A518AC69F21A0126521CB4
:105710009640761E9E40B44399400C43AC610121F3
:10572000FFF7DAFF70BD00000038004010B5114CE3
:105730002078002801D0072010BDFF212D310D4811
:10574000FAF78AFD012020700B49002008634863A6
:105750000A490862486202211020FDF73FF8102034
:10576000FDF730F8064A07490D20FAF79FFD0020A3
:1057700010BD000068E0FF1F0080004080F0004086
:10578000955902110959021110B5172801D30520A6
:1057900010BD0C4B9C6B0122824010462043986345
:1057A000586B90435863DC6B012907D02046904327
:1057B000D863186B02431A63002010BD10462043C3
:1057C000F6E7000000800040054B0122801E824069
:1057D0005869002901D0104300E090435861704798
:1057E0000038004070B5044614480E4605190029DB
:1057F00002D16878012808D000212046FFF76CFF0D
:10580000022C04D0032C02D005E0072070BD01213A
:105810002046FFF7D9FF00212046FFF737FF084950
:105820000120A0404A68012E05D082434A60022030
:105830006870002070BD02434A60FAE768E0FF1F0D
:105840000080004070B5420083180D4A9C18A5786E
:105850006478D65C641B0122641CA240521EAA40DC
:10586000084BA940132806D2B000C01883689343A0
:105870000B43836070BD586990430843586170BD05
:10588000E382031100F0004007494A680123834086
:105890001A4201D0096802E0034940310969C14058
:1058A000C807C00F704700000080004070B5154C5D
:1058B00045002E1976780123114AB34000290ED0F5
:1058C000142809D0152807D0162805D06057800065
:1058D0008018816819430DE0506918430EE01428C0
:1058E0000AD0152808D0162806D0605780008018E6
:1058F00081689943816070BD50699843506170BD63
:1059000000F000402883031170B5104D00242E19BB
:105910007078012803D1E0B20121FFF7C7FF70784A
:1059200002280ED1E0B2FFF7AFFF01214140E0B203
:1059300000F074F8E0B2FFF7A7FF0C2161434919AA
:105940004876641C172CE2DB70BD000068E0FF1F86
:1059500010B50F4C0D4A0123245C142809D2106A9B
:10596000002902D0A340184301E0A34098431062ED
:1059700010BD506A002903D0203CA340184302E028
:10598000203CA3409843506210BD000080F00040CE
:10599000CC82031170B502211020FCF71FFF1020EC
:1059A000FCF710FF00241C4D07E0022C01D0032C53
:1059B00003D1E0B20121FFF707FF28194078012841
:1059C0000BD1E0B2FFF760FFE2B20146104600F0F3
:1059D00061F8E0B20021FFF769FF0C206043401935
:1059E000007E002814D0E0B200F08AF8E6B230461B
:1059F000FFF74AFF002801D0012100E000210C221E
:105A000072435219527E824202D0304600F0DEF8D4
:105A1000641C172CC9DB70BD68E0FF1FF8B542009D
:105A20008318184AD55C9A189278521ED4B2164A36
:105A300012185278022A21D1144EB76B0122134654
:105A400083401F43B763124B13280ED2002906D0A0
:105A5000A900C9188B68A24093438B600BE0A90092
:105A6000C9188B68A2401343F7E70029596906D08B
:105A7000A240914359610121FFF76AFFF8BDA2409E
:105A80001143F7E7E382031168E0FF1F0080004045
:105A900000F00040012200B5064B82400029196841
:105AA00001D0114300E0914319600121FFF79AFEF4
:105AB00000BD00000080004030B504460E48162CA2
:105AC00001D9052030BD0C210025614345540A4809
:105AD00029461838001945702046FFF783FE07490C
