:020000041102E7
:1000000003B40148019001BDADAE000003B4014846
:10001000019001BD456B010003B40148019001BD91
:100020000189000003B40148019001BDC53F0000F3
:1000300003B40148019001BDE94C010003B401483B
:10004000019001BDC95C010003B40148019001BDEC
:10005000CD4C010003B40148019001BD618900004D
:1000600003B40148019001BD154D010003B40148DE
:10007000019001BDF54E010003B40148019001BD9E
:10008000434D010003B40148019001BD2526000045
:1000900003B40148019001BD8B52010003B4014833
:1000A000019001BDB352010003B40148019001BDAC
:1000B0000D52010003B40148019001BDC94A01007D
:1000C00003B40148019001BD691F000003B4014859
:1000D000019001BD5D17000003B40148019001BD0E
:1000E0003D4B010003B40148019001BD595201008C
:1000F00003B40148019001BD5125000003B401483B
:10010000019001BD014C010003B40148019001BD03
:10011000594F010003B40148019001BD1D4B01007E
:1001200003B40148019001BD8D12000003B40148E1
:10013000019001BD4D1F000003B40148019001BDB5
:100140005522000003B40148019001BDDD520100B9
:1001500003B40148019001BD1D4D010003B40148E5
:10016000019001BD810E000003B40148019001BD62
:10017000017F000003B40148019001BDE1170000B8
:1001800003B40148019001BD7918000003B401488F
:10019000019001BDD949010003B40148019001BD9E
:1001A000E928000003B40148019001BD5549010050
:1001B00003B40148019001BD4551010003B4014859
:1001C000019001BDC926000003B40148019001BDA2
:1001D0001DBC000003B40148019001BD6DBC0000CE
:1001E00003B40148019001BD3555000003B4014836
:1001F000019001BDC51D000003B40148019001BD7F
:10020000B161000003B40148019001BD315F0000FD
:1002100003B40148019001BDDD5E000003B4014854
:10022000019001BD8D3BFF1F03B40148019001BD4A
:10023000810E000003B40148019001BDD5540000B7
:1002400003B40148019001BD1955000003B40148F1
:10025000019001BD293BFF1F03B40148019001BD7E
:10026000F94C010003B40148019001BDC521000013
:1002700003B40148019001BD291C000003B40148EA
:10028000019001BD851F000003B40148019001BD2C
:10029000090E000003B40148019001BDA946010008
:1002A00003B40148019001BD1147010003B40148A6
:1002B000019001BDB30E000003B40148019001BDDF
:1002C0008538FF1F03B40148019001BD053BFF1FA6
:1002D00003B40148019001BDE320FF1F03B40148AE
:1002E000019001BDBD20FF1F03B40148019001BD75
:1002F000B13E000003B40148019001BDBD29FF1FBC
:1003000003B40148019001BD2124000003B4014859
:10031000019001BDFD29FF1F03B40148019001BDFB
:10032000C90E000003B40148019001BD055E000044
:1003300003B40148019001BDB11F000003B401489E
:10034000019001BDD91F000003B40148019001BD17
:10035000AD21000003B40148019001BDE548000053
:1003600003B40148019001BD2951010003B40148C3
:10037000019001BDD91B000003B40148019001BDEB
:10038000B521FF1F03B40148019001BDDD21FF1F0E
:1003900003B40148019001BD5147010003B4014875
:1003A000019001BD8D49FF1FF8B5D349D14A002006
:1003B00004464A608300401CD450FF28FADD486898
:1003C000CE4A014680318A606E22C262CC4A1278DF
:1003D000002A01D07F22C2620A220265C94A13782C
:1003E0008363C94BC36115781023022D08D015789B
:1003F000012D05D01578032D02D01578042D00D1DC
:100400000362C24D45611925AD0185613725CD6077
:1004100036272826C7630825466405644F603227BF
:100420000F603B27CF634127CF6439274031E0C1BC
:1004300032274F6002274F6142270831E0C11E2753
:100440004F60CE608D6005264E6142260E615A26B1
:1004500060390E614D613C258D61AF25ED00056071
:10046000AB4D05631578022D09D01578012D08D004
:100470001578032D07D01578042D06D007E0152533
:1004800004E0436003E00E2500E00C254560FF25F5
:100490002D358560C560FF25F53505619D4D856469
:1004A0007D25ED009C4ECD67C66445629B4D8562FF
:1004B0007325C565062545658565C51D0826F9357D
:1004C00002272E6047664B27FF0087660927C7660D
:1004D000934F07674667BE108467C667914F8E4E7D
:1004E0003E601678022E09D01678012E0AD01678B2
:1004F000032E0BD01278042A0CD00EE01A22CA6107
:10050000212205E01422CA61182201E01322CB61E6
:100510000A6202E00E220B62CA617E4A8A627D2272
:10052000D2008A6764224A620522CA6202220A63F2
:10053000C8228C634A63382169607B4929647B49FE
:10054000A9614B21C900E9617349FF30643929620F
:100550007D2109016962EC661E212C67A96670493C
:10056000A965E96589102966696469677049A967A1
:100570007049714A8130E967026082604160FF2101
:10058000F531C16001616E486C495A4A81606D491C
:10059000803A11616A496C4A80318A626B4ACA6248
:1005A0006B4A82616B4AC2626B4A02636B4A64485F
:1005B0004038C2636A4ACA616A49816360496A48CD
:1005C000403188616A49694888605D48694A803875
:1005D0004260694A4263694A0A62694981605849CE
:1005E0006848C039C860FFF70BFD0120FFF70EFD1A
:1005F000F8BDF3B50746644881B0C169634A11404C
:10060000FF310931C161002613E000252C4611207D
:10061000FFF702FD5C48406A8007800F6100884058
:100620002843641CE4B20546102CF0D301C7761CA5
:10063000F6B202988642E8D3FEBD10B52E4C607823
:1006400000280AD104215248FFF7D3FF5048042163
:100650001030FFF7CEFF0120607010BDF0B5002410
:100660008BB00D460646102902D901200BB0F0BD13
:10067000FFF7E3FF464900200A5C401C1419C0B292
:100680001028F9D3002C03D0102D03D90B20EDE74F
:100690000E20EBE73F483E4C0023006802A91034CF
:1006A000E25CC75C7A40CA545B1CDBB2102BF7D308
:1006B00006AA3748FFF7B6FC102D00D910252A46A8
:1006C00006A93046FFF7B4FCFFF7B8FC21684018D4
:1006D0002060FFF7B3FC616840186060FFF7AEFC74
:1006E000A1684018A060FFF7A9FCE1684018E0602D
:1006F0000020BBE70004FF1F6458FF1FA07FFF1FFF
:10070000B854FF1F4A0AFF1F3A07000080C3C901FF
:100710009A02000050C30000280A00006A18000076
:10072000204E0000F009FF1F00400011681000007B
:10073000DC05000040420F00102700008140FF1F31
:100740000001FF1F9D25FF1FA145FF1F7948FF1FC7
:100750000522FF1F9923FF1F2122FF1FCD31FF1FFD
:100760003952FF1F5D50FF1F3D21FF1F5529FF1FFD
:100770000002FF1FF93CFF1FD53EFF1F193EFF1F60
:10078000B53CFF1F8529FF1F40F0004000FEFEFF23
:10079000087AFF1F9058FF1F0A7802708A7842700B
:1007A0004A88120A82700979C170042070470A7859
:1007B00002700988090A41700220704710B50022B2
:1007C0000EE093005B189C7804705C88521C240A2D
:1007D00044701C7984709B88D2B21B0AC370001DC0
:1007E0000B789342EDD81806800D10BDF8B50D4674
:1007F00006464978012031700024761C16E069789D
:10080000012917D01221614349198A7832704A8828
:10081000871C120A7270B61C10223046091DFFF7A1
:1008200007FC1037B8B21036641CE4B22978A14234
:10083000E5D8F8BDA10049198A7832704A88871C2A
:10084000120A7270B61C02223046091DFFF7F0FB37
:10085000BF1CB8B2B61CE7E710B50C4609780170AA
:100860002188090A41706288211D801CFFF7E0FB86
:100870006088801C80B210BD10B50C4609780170EC
:100880002188090A4170A17881706188090AC170C4
:10089000A288A11D001DFFF7CBFBA088001D80B220
:1008A00010BD10B50C460A88891CFFF7C1FB2088D3
:1008B00010BD10B50B788A7802705343DCB2224623
:1008C000401C091DFFF7B4FB601C10BD10B50B7870
:1008D0008A7802705343DCB22246401C091DFFF7A0
:1008E000A7FB601C10BD10B50C460A88891CFFF7D9
:1008F0009FFB208810BD10B50C460A88891CFFF7A5
:1009000097FB208810BD7FB515460446022901D00B
:10091000102903D1022B04D0102B02D0002004B0E8
:1009200070BD994202D10A46294607E0102969465E
:1009300007D000F00DF8102269462846FFF784FB27
:10094000EDE7104600F004F8102269462046F5E76E
:1009500070B50C4605000CD0002C0AD010220649B8
:100960002046FFF765FB28782073687860730120C4
:1009700070BD002070BD00008082021110B50B46D2
:100980000122024901F0FCFF10BD0000990702118D
:1009900070B5064608880C46172812D30B4603226A
:1009A0000949304601F0ECFF050008D107492088CD
:1009B0000988884200D20146304600F0C1F9284635
:1009C00070BD022070BD0000AF0702119E58FF1FCE
:1009D00010B500231922194601F0D2FF10BD000006
:1009E00010B50A78002A05D00B460722024901F00B
:1009F000C7FF10BD022010BDBD07021110B54A7817
:100A0000012A01D0022A08D10A78002A05D00B4613
:100A10000522034901F0B4FF10BD022010BD000003
:100A2000ED07021101494000085A70479C58FF1F0A
:100A300010B50B461D22024901F0A2FF10BD0000B7
:100A40005908021110B50B461B22024901F098FF0C
:100A500010BD000059080211014917200880704795
:100A60009C58FF1F0098022B01D00420704711787A
:100A70005278120289180180002070470098012BDB
:100A800001D004207047117801700020704770B5C4
:100A9000049C1E461546062B1BD36978287809024C
:100AA00040182080E978A878090240186080022266
:100AB0002271291D601DFFF7BBFAB61FB2B2228159
:100AC000F02A06D82046A91D0A30FFF7B1FA002007
:100AD00070BD042070BD0098042B01D00420704725
:100AE000537811781B02C91801809178D2781202CC
:100AF0008918418000207047F8B584890D46064664
:100B0000002C26D0B2681778380620D50C2C20D9B6
:100B10000C3CA4B21019009001217088234601F00A
:100B20006DFC002811D0022028707806C00F687074
:100B3000B806800EA870641E2004000CA88001D0A6
:100B4000B068401CA8600020F8BD0120ECE7002040
:100B5000EAE70120F8BD10B502981146042B14D322
:100B60004C780A78240212190280CC788A78240200
:100B7000121942801B1F9AB28280F22A05D8801D6A
:100B8000091DFFF755FA002010BD042010BD009884
:100B9000042B01D004207047537811781B02C91828
:100BA00001809178D2781202891841800020704724
:100BB00010B502981146062B03D0142B03D0042045
:100BC00010BD022200E0102202714B780A781B024D
:100BD000D2180280CB788A781B02D2184280027920
:100BE000401D091DFFF724FA002010BD30B5039CFD
:100BF000D80718D1D805010E022914D30B488088D4
:100C0000814210D8F6200155002008E0557813786D
:100C10002D025B194500401C6353C0B2921C8842F0
:100C2000F4D3002030BD042030BD00009658FF1FD3
:100C30000098022B01D004207047117852781202DC
:100C4000891801800020704770B514460246049848
:100C5000022B18D3667825783602AD190580054633
:100C6000E0352A766976002A0BD0E8219B1E9AB2DD
:100C700042808A4207D8A11C001DFFF7D9F9002045
:100C800070BDF421F2E7042070BD000010B50B46E2
:100C90001722024901F074FE10BD0000790802110C
:100CA00010B50B460D22024901F06AFE10BD00008E
:100CB000A308021110B50A78002A05D00B461122AC
:100CC000024901F05DFE10BD022010BDB308021103
:100CD00010B50A78002A05D00B460922024901F016
:100CE0004FFE10BD022010BDCD08021110B50B46FD
:100CF0000F22024901F044FE10BD0000E708021176
:100D000010B50B460B22024901F03AFE10BD00005F
:100D1000F7080211F72800D9F720084A0146108089
:100D2000401EC3179B0F18188003000C5080491EEB
:100D3000C80F4018C003000C908070479658FF1FE2
:100D4000044A1288914203D8024A4000921D11526F
:100D5000704700009658FF1F10B500231322194654
:100D600001F00EFE10BD000070B50C4601460320D8
:100D700000020A1A002534481300FFF76BF91D1012
:100D800012151C1F2326282C303234383A3C3E40A2
:100D9000424446484A4E50525A5456585A00C07916
:100DA00011E01022294902E0284910221031204682
:100DB000FFF73EF945E0C06A206042E02249062282
:100DC0003C31F4E7007820703BE0808936E01E4932
:100DD00042784231EBE71D4982781F39E7E7007A14
:100DE000F1E7407AEFE7184906223031DFE7807AF1
:100DF000E9E7C07AE7E7C08920E0808A1EE0C07892
:100E00001CE0C08A1AE0008B18E0408B16E0808B53
:100E100014E00D4906223631C9E7C08B0EE0008C84
:100E20000CE0408C0AE08079CDE7008A06E0408A39
:100E300004E0272904D2084600F078FA208000E078
:100E40000225284670BD00006856FF1F1C74FF1F56
:100E500070B50E4C00256071A571691EE18100F02E
:100E600095FB0420E071102200210948FFF7F8F8F3
:100E70000748102200211030FFF7F2F8E5622572D2
:100E800065720720A072E57270BD00006856FF1FF2
:100E90001C74FF1FFEB53B4D0C4608040CD5687949
:100EA000FFF7E4F8050004D002F0FAFB2846FFF74C
:100EB000E3F80120C00360E0600403D50120800353
:100EC0004840FEBD2F48E1070126807900292AD03D
:100ED0002978002920D0052821D0297A6846017078
:100EE000697A4170274906223031801CFFF7A0F84B
:100EF000A97A68460172E97A41726946687900F018
:100F000031FA002808D00720A871696A002903D0A7
:100F10000968002900D0884720467040FEBD0320A4
:100F200069460870E4E7A1070DD5052809D1E889CD
:100F3000FFF7A8F8AA8A002A03D002216879FFF7F0
:100F4000A7F8022019E0600704D5002002F000FC99
:100F5000042012E0200712D52879012802D00228A7
:100F60000AD107E00096AB8B6A8B298BE88A00F0E8
:100F70000BF801E000F05AF908206040FEBD0020A7
:100F8000FEBD00006856FF1FF8B5134C069EA579FC
:100F9000052D01D01420F8BD104F851FBD4219D278
:100FA000062917D3BD1DA94214D2FF27F537BA422F
:100FB00010D20A2B0ED3AB420CD2E0822183628383
:100FC000A383304602F0C4FB04216079FFF766F882
:100FD0000020F8BD1820F8BD6856FF1F7A0C0000ED
:100FE000F7B50D4680490098164642187F4F0024F9
:100FF0007879B9791300FFF72DF8190E141BE92041
:1010000040455970777E888FE996A2A9B4BFC8E998
:10101000E9E9E9D3E900102D76D110223146744870
:101020006FE0102D70D1724810223146103068E008
:10103000042D69D13068F862CEE0012D64D13B788F
:1010400032783A70002B0AD0002A07D1022903D047
:10105000062901D0042901D100F03EF9BCE0002AA4
:101060000AD0012905D0032903D0052901D004297C
:1010700002D10121FFF718F8AEE0022D44D13088EB
:10108000B881A9E01F2D3FD858481F2200214230C7
:10109000FEF7E6FF55482A4631464230FEF7C8FFC4
:1010A000524B7D7042332A46012112E01F2D7CD81D
:1010B0004F481F2200211F38FEF7D2FF4C482A4616
:1010C00031461F38FEF7B4FF494B2A461F3BBD701F
:1010D0000021787900F0D0FA83E0012D65D13078D5
:1010E000042862D8387277E0012D5ED13078032869
:1010F0005BD8787270E0062D57D13C480622314605
:101100003030FEF795FF67E04FE0012D4DD130788C
:1011100007284AD8B8725FE0012D46D130780328FD
:1011200043D8F87258E0022D3FD13288BA82002AA3
:1011300052D0052950D10221FEF7AAFF4CE0012D23
:1011400033D13078012830D8F87045E03088022D4E
:101150002BD1062829D31921C901884225D8F88224
:101160003AE03088022D20D106281ED31921C9016A
:1011700088421AD838832FE03088022D15D1FF21FC
:10118000F531884211D2788326E03088022D0CD1C7
:101190000A280AD31921C901884206D8B8831BE05E
:1011A0003178012D01D1012901D0182414E0082142
:1011B000FEF780FF002801D016240DE0002002F089
:1011C000C7FA04217879FEF769FF05E0009827281F
:1011D00001D2022D02D002242046FEBD318800F04B
:1011E000FBF90446F8E70000FFFCFFFF6856FF1F0D
:1011F0001C74FF1F1CB50B4CA179002901D01120D4
:101200001CBD002800D06062064907482C31034607
:1012100001910090103B0022E179607900F016F80E
:1012200000201CBD6856FF1F2C74FF1F10B5064818
:101230008179052901D0122010BDC189132240797E
:1012400000F0DAF910BD00006856FF1FFFB581B04D
:101250001E460D4602240B9F0B00FEF7FBFE0D1AE7
:101260000B1A1A0B1A1A1A1A1A1A1A081A000AA0B2
:1012700001F0AEFC2946019800F0D8F8040008D12E
:101280003A4630460A9900F087F900F0EBF801F091
:10129000A5F8204605B0F0BD4741505F446576692A
:1012A0006365496E69743A204741505F50524F461A
:1012B000494C455F43454E5452414C207C204741A8
:1012C000505F50524F46494C455F50455249504837
:1012D0004552414C200A000070B5104C216800298D
:1012E00004D00978814203D0032070BD122070BD64
:1012F0000B4D02212878FEF7D1FE0A4800264680D1
:1013000004212878FEF7CAFE0748068021680320DA
:1013100048700020FEF7D4FE70BD00000059FF1F8A
:101320003159FF1F1459FF1FA658FF1F272803D24A
:1013300002494000085A704701487047AE58FF1FE5
:10134000FFFF000010B5064C607004F09BFB607856
:10135000FEF7BCFE0521607800F03CFF10BD0000E8
:101360003059FF1F70B5284E054630680C460028DE
:1013700001D0112070BD254801780520014216D00A
:1013800023488068002805D00078002802D0C807CC
:1013900006D101E0102070BD00F044F8002808D00C
:1013A0002078032805D0022803D0002801D012207D
:1013B00070BD0C20FEF790FE3060002820D0057034
:1013C000002141700A222146801CFEF731FE02F006
:1013D000A3FA040002D001F097FC12E00D48007857
:1013E00003280ED11D20FFF7A1FF0B49002808801C
:1013F00007D00B48094A04210078FEF773FE00E08D
:101400001324204670BD00000059FF1FA358FF1F82
:101410001459FF1FA458FF1FA658FF1F60EA0000C1
:101420003159FF1F10B504F04BFB10BD70B50C46D1
:1014300005461C2200210948FEF712FE08480570E7
:101440004470FEF755FE0549002803D000200870BF
:10145000122070BD01220A7070BD0000587AFF1F73
:10146000A258FF1F70B50F4C0025A068002802D0BD
:10147000FEF744FEA560E068002802D0FEF73EFEBD
:10148000E560094805210078084206D0054810307B
:1014900002F00CF801F0DAFB70BD002002F006F853
:1014A000002070BD1459FF1FA358FF1FFEB5344D17
:1014B0000C46080419D56878FEF7D8FD0121C90348
:1014C0004C40064600280ED001F010FF002807D13E
:1014D0002878FF2804D03146FEF716FE002802D0F7
:1014E0003046FEF7C9FD2046FEBDE0070127002873
:1014F0000AD0A868002804D04168002901D0002043
:10150000884720467840FEBDA00709D568680028B6
:1015100004D04168002901D00120884702202AE038
:1015200060072AD5174E308800281FD0401E0004BF
:10153000000C30801ED101F059FC002809D012485F
:1015400007706868002804D04168002901D0012094
:10155000884701F025FC694600F09AFE684601F0D4
:10156000AFFE1D20FFF7E2FE308003E00421687823
:10157000FEF794FD04206040FEBD0020FEBD00008B
:101580003059FF1FA658FF1FA558FF1F01490870BB
:10159000704700003059FF1F70B50E4C0B46261DDA
:1015A00007C60546102200211846FEF7B3FD0128A4
:1015B00003D11021A06805F059FB10220021284614
:1015C000FEF7A8FD012803D11021606805F04EFB4D
:1015D00070BD0000587AFF1F272807D2044A9142A5
:1015E00004D0044A40001152002070470220704786
:1015F000FFFF0000AE58FF1FF8B50D4617461D4906
:1016000006461B4A1224C868954208D100282DD0EE
:101610000268002A2AD029463046904723E0144A1F
:10162000521C954213D1002807D00268002A04D02A
:10163000294630469047040005D03946304601F02F
:10164000DFFA040012D10B48067047700EE02846FE
:1016500004F0E8F9002809D00078B04205D13946F5
:101660002846FEF75DFD044600E003242046F8BD51
:10167000FEFF00000459FF1FF8B50E460146194849
:101680001546007805221F46104028D0304326D04A
:101690001548012E1BD0C468002C20D01F2D18D84F
:1016A000002D01D0002F14D001701F220021601CDA
:1016B000FEF7D6FC2A463946601CFEF7B9FC2846E0
:1016C0002570002E07D0611CFEF730FDF8BD846840
:1016D000E2E70220F8BD611CFEF72EFDF8BD1220E6
:1016E000F8BD0000A358FF1F1459FF1F014610B595
:1016F0000020C90704D0034A0421034800F0FCF984
:1017000010BD0000FC8102113055FF1F10B50023F1
:1017100009E01C012418E468944202D11901081858
:1017200010BD5B1C9BB28B42F3D3002010BD0000A8
:1017300070B50F4D0F4CA87029461831204600F0A7
:101740001DF8002128460B461030CA00845212189A
:10175000491C09065360090EF7D0012002F0BCFFB6
:10176000A87800F091FB044804F0BCF970BD0000BB
:101770001055FF1FFFFF0000113F021170B50A4C0A
:101780000025A04209D1002082008C525218401C32
:10179000C0B295700228F7D370BD02F088FB002814
:1017A000FAD00480857070BDFFFF0000F8B50E46CA
:1017B0000746069900240798002902D00B242046EA
:1017C000F8BD022B01D00D24F9E7117852781202EE
:1017D00089188DB22946814301D08024EFE738462D
:1017E000F16800F081F9A842E9D02A463846F1684C
:1017F00000F0ECF90400E2D171892A46384600F085
:10180000A9F9DCE7FFB50446C1B01F4600881D4AB0
:1018100000254A9B904232D0A07800282FD00A465B
:1018200019463846FFF772FF060028D02088164A6E
:101830004100515C0023C91EC9B203AA02320193C0
:10184000029100927A8904AB314600F03BF80028FF
:1018500015D1708969468881A078C00705D0208895
:1018600003A9439A00F0DEFA0546A078800706D562
:10187000208803A94B9B439A00F078FA0543284639
:1018800045B0F0BDFFFF00009C58FF1F70B50C462F
:10189000080412D50A488078FEF7E8FB050008D056
:1018A0002878B02802D1284602F01EFC2846FEF710
:1018B000E3FB0120C003604070BD002070BD00004C
:1018C0001055FF1FFFB587B0087A0025109E1C46F3
:1018D0000F46C0060DD5099802F0E2FA030006D0C3
:1018E0000A22394607989847050035D101E00E25B0
:1018F00032E0387802281DD17868292201784078B2
:1019000012020002081880B2811A90427ED009DCCF
:101910007249401A23D0012821D0022851D003282F
:1019200008D125E0012972D0022971D003296DD098
:1019300004296ED0099802F0DBFA0028D7D0056898
:10194000002DD4D01299119801910090334622466F
:1019500039460798A847054628460BB0F0BD1198B0
:10196000002873D1F868017831800278416897E0E7
:10197000119800286AD101203080F8680021007891
:1019800020707889401C80B200F04EF900280FD0FA
:10199000318802788918891C3180817A6170418987
:1019A000090AA17002784168E01CFEF741FBD3E709
:1019B00030880422001D30800021601CFEF750FB9F
:1019C000CAE71198002872D1F86804A9008800902D
:1019D00004203080009820700098000A6070009801
:1019E00000F022F9070028D0F86805906846028ABE
:1019F00003AB3B49384600F06FF900280FD13B7824
:101A0000022138487A68FEF77EFF03E027E031E0E4
:101A10001DE049E0002802D1401E694688810598F2
:101A2000007802280CD1059802224168201DFEF79B
:101A3000FFFA3088801C308002E069460098888177
:101A400068468089A070000AE07085E72FE0119851
:101A500000282CD1F968079800F046F804E01198A6
:101A6000002824D1F8680088022131802070000A03
:101A7000607071E7F868FEF765FB1199C0B28142AA
:101A800010D8814201D1002206E0129A89188142C1
:101A900002D31199401AC2B23280F968119809181C
:101AA000204682E7072557E71198002801D00B252B
:101AB00052E70721F8683180017821704178617020
:101AC0008178A1704188090AE170017921718179D9
:101AD0006171C088000AA0713EE700000028000084
:101AE000FFFF0000F682021110B502F0E0F90028B5
:101AF00000D0807810BD00007CB51446050019D0D8
:101B000068460195018000F0C5F903001DD1002C45
:101B10001BD06D89002D0DD00C20FEF7DDFA0028BA
:101B20000AD0002303608580094A846091680029F7
:101B300004D006E0022308E0132306E0906004E0EE
:101B400011460A68002AFBD1086018467CBD0000D7
:101B50001055FF1FF8B50C4C0746207815460E4669
:101B6000FF280FD00A20FEF7F3FA01000AD0B120B7
:101B700008700020487008714F80CE800D81207859
:101B8000FEF7C2FAF8BD00001055FF1FFFB583B085
:101B900008461F4601A90C9E00F046F8050012D029
:101BA0006846808802F0A4F900280AD04468002C16
:101BB00007D000963B462946059A0398A04707B0F0
:101BC000F0BD0E20FBE70120F9E7000070B51446D8
:101BD0000E46054602F06BF9002806D1314605484D
:101BE00002F065F9002803D005808470002070BDE4
:101BF000112070BDFFFF000010B50178B0290BD196
:101C00004178002908D10179122906D01B2903D176
:101C10004088012100F068FA10BDFF210231095C03
:101C20000129F5D010BD0000F0B58C4610494B6875
:101C300019E09F687C89A04214D39E8831198142A3
:101C400010D900220CE011017D186989814205D16B
:101C50006046002800D004802846F0BD521C92B295
:101C60009642F0D81B68002BE3D10020F0BD0000A5
:101C70003C59FF1FFFB5174881B00A9F446824E014
:101C800000251EE0A0682901461870890199884244
:101C900015D30299884212D80498002807D03178C9
:101CA0007068049B039AFEF72EFE002807D0002FD1
:101CB00002D0A06840893880304605B0F0BD6D1C68
:101CC000ADB2A088A842DDD82468002CD8D100206D
:101CD000F3E700003C59FF1FFEB5174600256A4692
:101CE0009580044640891D4A1E46904208D001AAAC
:101CF0000092401C237880B26268FFF7BBFF054664
:101D00002378022116486268FEF7FDFD002807D1FE
:101D10002378022113486268FEF7F5FD002801D000
:101D200060890EE0237802210F486268FEF7EBFD20
:101D300000280DD0002D03D068468088B84203D01B
:101D4000384602F0DDFD04E06889401E80B200E004
:101D50006089002E00D030802846FEBDFFFF0000C5
:101D6000F4820211F6820211FA820211FFB581B0EB
:101D70000F461E4614466946019801F0DFFE050035
:101D800018D1002C06D001221021019803F024FE66
:101D900005000FD139460198FEF74AFE050009D12A
:101DA000009CFF2E06D021461E22A31C034802F0F1
:101DB000B3FDE670284605B0F0BD000005480211ED
:101DC00010B505490870042100F004FA00F006F887
:101DD000FEF742FE10BD00004C59FF1F70B50E4CBF
:101DE00000200C4B651CFF228100C91800280ED072
:101DF0000D80401CCA70C0B28A700228F4D3074814
:101E000002F040F8064803F06DFE002070BD0C8023
:101E1000EFE700004459FF1FFEFF000031480211A8
:101E200085470211F8B50D4614460646694601F08D
:101E300085FE17280CD0002C06D001221021304638
:101E400003F0CAFD002803D129463046FEF7FAFD0B
:101E5000F8BD000070B50C46080411D5094800789B
:101E6000FEF704F9050007D00178A02901D101F09F
:101E7000ADFF2846FEF700F90120C003604070BDA9
:101E8000002070BD4C59FF1F0149087070470000C9
:101E90003C59FF1F70B50546008800281DD06868B2
:101EA0000221037842682248FEF72DFD002808D160
:101EB00068680221037842681E48FEF724FD002866
:101EC0000BD01D4C6088002805D0012229881204FF
:101ED000101A814203D9012070BD022070BD0C2070
:101EE000FEF7FAF8060001D000200AE0132070BDCA
:101EF00002016B6861880A329952491C401C61805A
:101F000080B229888142F3D8002030600822294617
:101F1000301DFEF78DF86068002802D1666004E08D
:101F2000084601680029FBD10660002070BD000052
:101F3000F4820211F68202113C59FF1F06494968DA
:101F400006E08A685289824201D188887047096810
:101F50000029F6D1002070473C59FF1F10B514220C
:101F6000114201D0012202E04A0604D500221021CC
:101F700003F032FD10BDC80701D0002010BD0220C3
:101F800010BD10B514468A0604D50122102103F0B5
:101F900023FD10BD882211420ED008220A401021D4
:101FA00003F01AFD00280BD0E034617E0029F0D048
:101FB000217E0129EDD103E0880701D4032010BD63
:101FC000002010BD014610B50020C90704D0034A07
:101FD00007210348FFF790FD10BD00005482021155
:101FE000F455FF1F70B50D46164600241D49030029
:101FF000FEF730F808051234341934222934152D2F
:1020000023D8162200211848FEF72AF82A4631461E
:102010001548FEF70DF822E0022D16D1114910885F
:10202000103908801BE0082D0FD10E4808223146D8
:102030000838FEF793F812E0012D06D1CA69094964
:102040003078283107E0012D01D0182407E0CA6B51
:1020500004493078483102F020FD00E00224204697
:1020600070BD0000F455FF1FE773FF1F0B7803706E
:102070000B8802221B0A43700B88801C012B02D0A4
:10208000022B07D011E08A7802704988090A417052
:1020900004220AE08A7802704A88120A42700A7999
:1020A00082708988090AC1700622104670470000B4
:1020B00008B5044B009313460A46012103F0DCFBEC
:1020C00008BD00006D2002111CB50323019200938E
:1020D0000A46024B122103F0FFFB1CBD995102116D
:1020E00010B5FEF741F810BD13B50448007801287B
:1020F00003D101AA6946FEF73DF81CBD5859FF1FE0
:1021000070B50F490F4A087000210B468C00491C1E
:10211000C9B213530429F9D30A4C00211034FF2605
:102120000A460A256A4315196B80491CA354C9B293
:102130006E720329F4D3FEF723F803F071FB70BD30
:102140005959FF1F747AFF1F082A01D001207047D8
:102150004B780A781B02D2180280CB788A781B024F
:10216000D21842804B790A791B02D21882808A7970
:10217000C97909025118C1800020704770B50C461A
:10218000080411D509480078FDF770FF050007D055
:102190000178902901D103F0A5FA2846FDF76CFFDC
:1021A0000120C003604070BD002070BD5959FF1F61
:1021B00070B500280AD1064C00252580A581A58090
:1021C000A068002802D0FDF7E1FFA56070BD000007
:1021D000F07AFF1F072907D0052905D0042903D06D
:1021E000062901D002207047044A8B009A18134632
:1021F000403B1986203A907400207047747AFF1F84
:1022000070B506001BD10E4C0025214640310D74DF
:102210004D740D76606D002802D0FDF7B7FF65653F
:102220005C20002546433419E80020184068002847
:1022300001D0FDF7ABFF6D1CEDB20A2DF4D370BDDC
:10224000007BFF1F70B50A880C460546072A07D099
:10225000052A05D0042A03D0062A01D0022070BD29
:10226000012103F06DFC002804D02146284602F02D
:10227000A9FF70BD142070BD10B5001D80B2FDF720
:102280008BFF002803D00321C943FDF78BFF10BD4E
:1022900038B50C46050014D0002C12D00321684636
:1022A00004F0E4FC6946887840218006800E0843EB
:1022B000694688702246284605F010FA050002D0CB
:1022C00006E0022038BD03226946E01CFDF7B0FE9F
:1022D000284638BDF7B58EB00E9815460E46002834
:1022E0002DD0002D2BD0301DC0B20190FDF7F4FE93
:1022F000040039D000F060FD07463246201D0E99DB
:10230000FDF756FFF8B20890E0703804000E0B900D
:10231000A0703802000E0A9060703F0E277000F027
:1023200045FD0146102202A8FDF742FF06AB2146FB
:1023300002A8019A05F028F9060003D010E0022057
:1023400011B0F0BD089828700B9868700A98A870B2
:10235000EF70082206A9281DFDF72AFF00F032FDC4
:102360002046FDF7CBFE00E013263046E8E70000EC
:1023700010B5064C2070FDF721FF06212078FFF7ED
:1023800029FF034803F0AEFB10BD00006859FF1F92
:10239000C16C021170B50C46080419D50D480078BF
:1023A000FDF764FE05000FD004F0AAFD002808D157
:1023B00009480078FF2804D02946FDF7A5FE00282B
:1023C00002D02846FDF758FE0120C003604070BDD2
:1023D000002070BD6859FF1F3059FF1F10B5054818
:1023E0000078400701D5044800E0002004F010FE0A
:1023F000002010BDA358FF1F5C59FF1FFFB58DB013
:102400000F98169C0E46002815D0002C13D00D985E
:1024100003F008FB050011D061782078090240180C
:10242000A178E2780904120689184718286AB84288
:1024300006D3401C04D0022011B0F0BD1420FBE7ED
:10244000002E04D02879800701D40120F4E7082267
:10245000002106A8FDF704FE1098001DC0B20190EF
:10246000FDF73AFE060017D0301D109A0F99FDF7C0
:102470009FFE042221463046FDF79AFE1022A9183D
:1024800002A8FDF795FE06AB314602A8019A05F0B9
:102490007BF8050002D013E01320CDE7082206A93F
:1024A00008A8FDF785FE0822211D08A8FDF7CCFD30
:1024B000012801D0012503E039460D9801F086FA84
:1024C0003046FDF71BFE2846B6E7000030B5694CE4
:1024D000C1B0607206211F20FFF77EF80020694618
:1024E000087201220A7307220A74888218221925A9
:1024F0008A836D010D848884FF20F53008855EA0F5
:1025000003C80191009020786946087606AA012147
:102510005B48FEF765FD5A486A460621801CFEF7B7
:102520005FFDC32004AA01218000FEF759FD544835
:1025300002AA0121001FFEF753FD514805AA0221FE
:10254000C01EFEF74DFD214656310846112238388F
:10255000FDF76EFD224661201C321C21C000FEF7F3
:102560003FFD4748224638321E21801EFEF738FDC7
:10257000312003AA01210001FEF732FD404807AADD
:1025800002210830FEF72CFD3D4808AA022109303F
:10259000FEF726FD3A4809AA02210A30FEF720FD7F
:1025A000C5200AAA02218000FEF71AFD22465632F3
:1025B00015210020FFF716FD29460620FFF70CF82D
:1025C00029460720FFF708F829460820FFF704F8F6
:1025D00029460920FFF700F80025ED432846FFF7BC
:1025E000F1FC2846FFF782F803F04AFD284600F088
:1025F0001BF90F2069460870002001A901E0062898
:1026000001D2002200E002460A54401CC0B2FB285E
:10261000F5D36A460121032000F054F901AAFB21F9
:10262000042000F04FF9174900200854401CFF28EF
:10263000FBDB1048103000F03BF9F7250120FDF7D7
:10264000C3FD0120FDF7C6FD2846FEF763FB2946C2
:102650000DA000F0BDFA0121607AFDF725FD607A3A
:10266000FEF794FF0F48FDF7BBFD0F4800F0B0FAEE
:1026700041B030BDD456FF1F01020304050600001F
:10268000090300000876FF1F5B324D627073207CE7
:1026900020444C45207C204D54552025645D200A63
:1026A000000000004C74FF1F94830211FEB5454CDE
:1026B0000D46080414D5607AFDF7D8FC04000CD050
:1026C0002078912806D160780E2803D1A1883EA0F9
:1026D00000F07EFA2046FDF7CFFC0120C0036CE03D
:1026E000E8070126002808D036481430FEF782FD9E
:1026F000FDF77CFD28467040FEBDA80702D50220EC
:102700004840FEBD280708D5684606706A46012184
:102710003848FEF765FC08204FE068074FD50027D2
:10272000354E35E0A089010A31707070002F18D144
:1027300069460020FDF760FD01A90020FDF762FD5C
:1027400002A90020FDF764FD6846007870746846B1
:102750008088FF38FF3802388010B0746846007AED
:10276000F0740020FEF75EF9C01EC1B2224A0520B7
:1027700004F0B4F8A289010003D020A000F028FAE8
:1027800009E024A000F024FAA089401CA0817F1C4D
:10279000A0788742C6DB6289002A07D0E07800284B
:1027A0000AD10421607AFDF773FC05E00421607A08
:1027B000FDF774FC0020A08104206840FEBD0020CD
:1027C000FEBD0000D456FF1F3D3D3E204843495FFB
:1027D000434F4D4D414E445F434F4D504C45544542
:1027E0005F4556454E545F434F44453A2025780A8D
:1027F00000000000050300000876FF1F5B4E4F54E9
:10280000465F5458204552525D20253032782025AD
:1028100034780A005B4E4F54465F54585D20253093
:102820003278202534780A0070B50546002409491D
:102830000948FEF7A3FF094803F054F9E80706D05A
:102840000448074A0E210830FFF756F9044620468F
:1028500070BD00005057FF1FFFFF0000AD68021160
:102860007482021170B500240D46032806D0042896
:1028700008D006280CD00224204670BD09480078F4
:102880000870F9E70020FEF7CDF8C21E064904E003
:102890000020FEF7C7F80549C21E2846FDF7C8FB11
:1028A000EAE700004057FF1F0877FF1FFE78FF1F71
:1028B000002803D00249486000207047112070476B
:1028C0004057FF1F10B500241346032806D00428E4
:1028D0000AD006280ED00224204610BD012911D1AD
:1028E000094910780870F7E7FB290BD80A46194602
:1028F000064804E0FB2905D80A4619460448FDF7B6
:1029000097FBE9E71824E7E74057FF1F0877FF1F09
:10291000FE78FF1F002805DBC106C90E0120884094
:10292000014908607047000000E100E08307FF22D2
:10293000DB0E9A408907090E9940002808DB8308BE
:1029400009489B001B18186890430843186070479B
:102950000007000F0838830804489B001B18D8693B
:1029600090430843D861704700E400E000ED00E0C8
:102970000A4610B501460020FDF750FC10BD0000CE
:10298000FFB583B00F4603981B4940001646085A0E
:10299000FFF772FC04002AD00125601C2670002F6E
:1029A00003D00699B847401C85B2300610D51021D7
:1029B000039803F0C5F8002801D0192613E0621926
:1029C000E9B22046FFF786FC06000CD10C35ADB20B
:1029D0000421684601800194058169460398FFF748
:1029E00031FC060004D02046FDF7D0FB00E01326A2
:1029F000304607B0F0BD00009C58FF1F10B586B0F0
:102A0000044614220FA16846FDF70EFC124930203F
:102A10000870782048700620891C6A46A41D641E30
:102A20002378401E1B09D35C0B70237800061B071C
:102A30001B0FD35C4B70891C000EF0D10870064848
:102A400006B010BD30313233343536373839414273
:102A500043444546000000003C74FF1FF0B50020D1
:102A60008BB009900746064605460890079025A0BA
:102A700000F0AEF828A000F0ABF8002404A920462E
:102A8000FDF7D8FB6846838AC28A018B408A03938C
:102A90006B4607C36846038A428B21462AA000F092
:102AA00097F86846418B0798641C081880B2079015
:102AB0006846018A0998E4B2081880B2099068460D
:102AC000418A0898081880B208906846008B40191F
:102AD00085B26846C08A801986B26846808AC01965
:102AE00087B2252CCAD323A000F072F86846E0C054
:102AF0002CA0089B099A079900F06AF8FDF7A0FB43
:102B00000BB0F0BD5B504552205354415453204EFE
:102B10006F746966795D0D002D2D2D2D2D20636854
:102B200020636F6E6E4E2072784E756D2072784302
:102B30007263207278546F4E20747841636B2074F6
:102B400078527479200D00005B5045525D2025308D
:102B50003264202530356420253035642025303519
:102B600064202530356420253035642025303564D7
:102B70000A000000544F54414C20636820636F6E7C
:102B80006E4E2072784E756D20727843726320729B
:102B900078546F4E20747841636B20747852747946
:102BA000200D00000A5B5045525D202D2D20253060
:102BB00035642025303564202530356420253035B6
:102BC00064202530356420253035640A000000007B
:102BD0000FB410B503AA0448029903F001F810BC21
:102BE00008BC04B0184700007129021138B5034B26
:102BF00000240FCB0094FDF729FB38BDE4810211BE
:102C000010B50C4602F022FF002804D0408821466F
:102C1000FDF786FA10BD122010BD0022002913D046
:102C2000002811D0012806D04A799206920E4A71E6
:102C3000032805D007E04879C0221043487102E01C
:102C4000402002434A7101221046704770B5124875
:102C500000250078052108421BD02020FDF73CFA12
:102C60000E4C0028A06013D020220021FDF7F8F9B7
:102C70002020FDF731FAE060002804D02022002156
:102C8000FDF7EEF905E0A068FDF738FA0020A06036
:102C90001325284670BD0000A358FF1F1459FF1FBD
:102CA000002909D0012807D1497989098901C0295A
:102CB00002D0402901D00220704703207047FFB5A1
:102CC00000200E4608701AE01C5C401CC5B2002CA7
:102CD00017D02819904214D85F5D6D1CEDB23846AC
:102CE00000F09DFE002806D0641EE0B2307000990E
:102CF0008F4202D1581904B0F0BD4019C0B29042C1
:102D0000E2D30020F7E7000010B5044C206800284B
:102D100003D0FDF7F3F90020206010BD0059FF1F1C
:102D200070B50E4D84002859002815D0006A00287F
:102D300001D0FDF7E3F92859406A002801D0FDF7DA
:102D4000DDF92859806A002801D0FDF7D7F9285904
:102D5000FDF7D4F90020285170BD00000C59FF1F69
:102D600010B5044C6068002803D0FDF7C7F90020B7
:102D7000606010BD0459FF1F0100044805D10449DB
:102D80008978002901D00248801D7047687AFF1FAA
:102D9000A258FF1F0148807870470000A258FF1F0B
:102DA0000148406870470000587AFF1F014880685A
:102DB00070470000587AFF1F0148C06800687047DC
:102DC000587AFF1F10B50748C0680168491C0160A8
:102DD00005480078FF2803D001218903FDF764F935
:102DE00010BD0000587AFF1FA258FF1F024840681C
:102DF000002800D001207047FC58FF1FFFB581B0AC
:102E00000F460D9E0A9D039802F00CFE040042D06E
:102E1000019800283FD1207910210843207104999E
:102E2000490702D50221084301E0FD210840207135
:102E30000B99284608430C9908433043207902D067
:102E40000421084301E0FB2108402071002E06D038
:102E50003069102220623146A018FDF7E9F8002DF4
:102E600001D0002F05D00B98002814D0012F08D0D6
:102E700011E0606A002801D0FDF740F91C212846C6
:102E800006E0606A002801D0FDF738F91C210B9894
:102E9000FDF7E2F960620398224C8700E0590028B0
:102EA0003ED0002D0FD0006A002806D11C20FDF76F
:102EB00013F9E1590028086205D0E0591C22006A84
:102EC0002946FDF7B5F80C98002810D0E059406A63
:102ED000002806D11620FDF7FFF8E15900284862C6
:102EE00005D0E0591622406A0C99FDF7A1F8002E92
:102EF00010D0E059806A002806D11420FDF7ECF8C4
:102F0000E1590028886205D0E0591422806A3146D0
:102F1000FDF78EF80B9B049A0399019803F07AFA57
:102F200005B0F0BD0C59FF1FF3B581B0019802F058
:102F300079FD050029D00E20FDF70AF9040024D000
:102F40002620FEF7F3F9060000D12E78D02020705D
:102F5000002767700B20A0700622E91DE01CFDF71A
:102F600067F8019860810298C1070120002901D00B
:102F7000207300E027730299890701D5607300E090
:102F80006773F0B22146FDF7BFF8FEBD10B581882A
:102F90001F4B0124CA1A994237D011DC1D4BCA1AA3
:102FA000994219D007DC1C4A8A1810D0022A1ED078
:102FB000032A29D11BE0472A27D0482A24D124E01C
:102FC0001300FDF747F806212222222222218068E1
:102FD000007800F0E5FC08E0806882784178120211
:102FE000891889B2007800F03BFD04460DE0094ADB
:102FF000921E914201D1012200E0002280680178F6
:10300000104600F015FD00E00024204610BD000031
:10301000532000000A200000FADFFFFF70B51A4DB0
:103020001A4A0146002628781268194C01290CD04A
:10303000002A09D017490978490705D50221FDF76B
:103040002DF86680FFF760FE70BD6188002903D00F
:10305000114B1B78002B05D0002AF5D01078FEF715
:103060003BF970BD3C2902D33C39618070BD02211F
:10307000FDF714F862887D20C000424302212878C1
:10308000FDF706F8668070BD3159FF1F0059FF1F1C
:103090001459FF1FA358FF1FA558FF1F08B54189EA
:1030A00000910389C2888188C07800F0C5FB08BD03
:1030B000F0B504468088A12189004843304987B093
:1030C00009684018FF30FF300230A1794167002CB9
:1030D00054D02C4D6868002823D006782A48006810
:1030E000002804D04168002901D0002088472146EB
:1030F000E07908310591FFF7D3FDE0710246277DA5
:10310000638A218AE089019002A88AC0A088009081
:10311000E0783146059B03F0F3F9E078002802D00F
:103120000DE01A48D9E7E079E2896B46059907C3B3
:10313000A379A1880122304602F022FCE070686881
:10314000002811D0FFF70CFE287800280CD06978F1
:10315000FFF756FD002807D0E078A28803462978BB
:1031600003F022FA00202870A0881721FDF7E8FD5F
:10317000A088FFF71DF8A088FFF742F807B0F0BD60
:103180003409FF1F0459FF1F3459FF1FA258FF1FA6
:1031900070B504460026808802F044FC002803D065
:1031A0000678A08802F0B0FC144D2878002808D0DA
:1031B000864206D16978FFF723FD002809D0002058
:1031C0002870002E05D0A379A288A078314603F09C
:1031D000EBF9A088094A810008325158002901D032
:1031E000FFF79EFDA0881721FDF7AAFDA088FEF736
:1031F000DFFFA088FFF704F870BD00000459FF1F2F
:1032000070B58288294D0124531B2949AA4242D016
:1032100019DC284D531BAA4218D00BDC264BD218C0
:1032200026D0254B1033D2181ED0032A17D0042ADB
:1032300039D10BE0012B09D0022B07D0032B21D071
:10324000042B30D11AE0433B072B2CD849680029C6
:103250002AD00968002927D08847044624E08068DE
:10326000007800F0ADF81FE0806800F001F9F4E7A5
:103270008068411C007800F0D9F8EEE783681B787D
:10328000002B11D0896800290ED00B6808E0014698
:1032900010469847E1E709490968002904D04B68BE
:1032A000002BF4D100E00024204670BD0E20000069
:1032B0003059FF1F08200000F7EFFFFF1059FF1FD4
:1032C00010B5094CA17800290CD001460622A01D9A
:1032D000FCF7AEFEA11DA078FFF79FFCA01DFCF738
:1032E000C1FF10BD002010BDA258FF1F1CB52F4903
:1032F000037801240A68912B02D0A22B2ED13EE044
:103300004178052909D00E2904D00F2908D03E297B
:1033100024D115E0FFF774FF10E0FFF739FF3AE022
:1033200001468088224B0124C31801D0062B15D1F9
:10333000002A30D05268002A2DD0904704462AE057
:1033400081780124032917D004DC012911D0022936
:1033500004D105E015291ED016291CD000241AE03E
:1033600014498968002916D04968002913D0884774
:1033700011E0FFF79DFE0EE0FFF790FE0BE00E4917
:103380000978042909D0002A05D05268002A02D001
:1033900001460A48904720461CBD00216A4611801C
:1033A00001794088FEF784FEF5E700001059FF1F01
:1033B000F3DFFFFF3059FF1FA358FF1FFFFF00007F
:1033C000F8B5164F0646BD1F2878FF2814D00A20EE
:1033D000FCF7BEFE04000FD0D020207066700820DD
:1033E000A070A878E07006223946201DFCF720FE68
:1033F00021462878FCF788FEE87801280DD1084896
:103400000068002803D08068002800D08047064864
:10341000044A04210078FCF765FEF8BDA858FF1F98
:103420003459FF1F60EA00003159FF1F70B50024B6
:103430000546002805D1002903D006220B48FCF7D9
:10344000F7FD0A4810380178012907D10124002D21
:1034500006D000210170284600F0CAF9204670BD50
:1034600002210170FCF704FFF8E70000687AFF1FF3
:1034700010B50024002813D002780B49002A03D18C
:103480004288CA8202790A760A78022A08D102782A
:103490000124002A06D000220A70007800F0A8F962
:1034A000204610BD0322F7E7587AFF1F0149486004
:1034B000704700003059FF1FF8B5774C87780146F8
:1034C000002507266079A2793B00FCF7C3FD0805BB
:1034D000361A37375F94C736487800285CD16E4873
:1034E00006223C30C91CFCF7A3FD0120A0716A4BE9
:1034F0000146423362786079FEF7BEF800284BD16E
:10350000A2E00F464978002946D1F978002906D073
:10351000624BA2780021FEF7AFF878700AE0022A29
:103520000BD00121FCF7C6FD002803D101216079F1
:10353000FCF7BAFD787800282ED1F8BD497800292B
:103540002AD1032F09D0A289002A0CD02178002982
:103550000AD00121FCF79CFD06E0052A01D00220DB
:1035600012E0062010E02570A079062802D0042879
:1035700002D008E0052007E00120207001466079B4
:10358000FCF792FD60E00320A0715DE048780F46F3
:10359000002803D031282CD0A67155E03E480622E1
:1035A000391D3630FCF744FD7889E081B8892082E6
:1035B000F88960820520A071A28A002A03D0022126
:1035C0006079FCF765FDB889E083F8892084388A42
:1035D0006084E07801280AD11F20FDF7A7FE7D2135
:1035E000C9004843024604216079FCF751FD25706B
:1035F0002AE02570C7E728480E460622002136300B
:10360000FCF72EFDE5832584658404216079FCF7B1
:1036100045FD08216079FCF741FDB079082808D004
:103620000320A0712078002805D06079FDF754FEB2
:1036300007E00420F5E70120207001466079FCF7DF
:1036400033FD0020C043E081606A002800D174E7A8
:1036500001680029FBD0A0798847F8BD0D460821F4
:10366000FCF71CFD687829460028F6D1E888E0833D
:10367000288920844889608404216079FCF71AFD38
:103680000028EAD1A06A0028E7D00368628C218C68
:10369000E08B9847F8BD00006856FF1FFD73FF1FC1
:1036A00010B50178224C912906D0A22926D0D02924
:1036B00001D1FFF701FF10BD41780E29FBD18188B0
:1036C0001C4A91420FD1816803200856A17905292F
:1036D000F1D17F28EFD0616A0029ECD04968002938
:1036E000E9D0884710BD144A9142FBD180688378A5
:1036F0004278017811A0FFF76BFA10BD41791329C8
:10370000FBD10089012802D12079022808D00520A8
:10371000FDF70CFE024608216079FCF7B9FC10BDEC
:1037200008216079FCF7BAFCFDF780FD10BD0000B0
:103730006856FF1F05140000222000005B48434923
:1037400020444C455D25642025642025640A000042
:103750007CB5154C0546E08BE18A88420AD3218B63
:10376000884207D8208C618B884203D1608CA18B62
:10377000884217D00520FDF7D9FD0646E18A684644
:103780000180218B4180618B8180A18BC180627916
:103790006946E089FEF798FC257132460821607978
:1037A000FCF776FC7CBD00006856FF1FF8B50746A5
:1037B0000E46084602F036F9040018D02620FDF720
:1037C000B5FD050000D125780620FCF7C1FC0400FA
:1037D0000DD006220021FCF743FCD020207067703A
:1037E0000E20A070A680E8B22146FCF78DFCF8BD43
:1037F00070B50F4D06462878FF2818D00E20FCF72C
:10380000A7FC040013D0D020207066700020A070A8
:1038100006220849E01CFCF70BFC06481038C18A58
:103820006181007E207321462878FCF76DFC70BD15
:10383000A258FF1F687AFF1FFFB581B01E461746CA
:103840000D460C20FCF784FC040013D0284602F03F
:10385000E9F8002810D00078D0212170019961701A
:103860000721A170A580E78026810A996181214600
:10387000FCF74AFC05B0F0BD0048ECE7A258FF1F7A
:1038800070B50D4D044628680E46002812D006205B
:10389000FCF75EFC010009D0D02008704C700320BA
:1038A00088708E8028680078FCF72EFC002C01D0F0
:1038B000FFF72AFA70BD00000059FF1FFFB581B065
:1038C0001F460E46084602F0ADF8050022D0102033
:1038D000FCF73EFC04001DD010220021FCF7C0FBC9
:1038E0002620FDF723FD002800D12878D021217063
:1038F000019961700F21A170A680039921726772EE
:103900000A99A1720B99E1720C99E160C0B221464B
:10391000FCF7FAFB05B0F0BDF0B51F4D85B0286887
:10392000002837D08778FDF77DFD002805D00A20D4
:10393000FDF7FCFC04900B200EE001F0FBFB0028DF
:1039400005D00620FDF7F2FC0490072004E00820D3
:10395000FDF7ECFC04900920FDF7E8FC04460F4855
:103960000078002814D001262968C878091DFFF7BF
:1039700054F929686D46CA7A8B7A091D0BC50392E2
:1039800033463A4621460498FCF778FC05B0F0BD72
:103990000026E9E70120F9E70059FF1FA458FF1F9F
:1039A00010B50949096800290CD0002805D101206B
:1039B0004870FCF785FB002802D00021FFF760FF6C
:1039C000012010BD002010BD0059FF1FF8B50C46A6
:1039D00002F028F8020021D026201462FDF7A6FC90
:1039E00005062D0E00D115789679D01D0090102077
:1039F000176AFCF7ADFB040010D0D0202070002027
:103A000060700920A070E6700622201D0099FCF766
:103A10000FFB21462846E760FCF776FBF8BD411E08
:103A2000152903D9FF2801D00020704701207047D5
:103A300070B50A4E054630780C46FF280DD004209C
:103A4000FCF786FB010008D0D02008704C700220E3
:103A50008870CD703078FCF757FB70BD1459FF1F8C
:103A6000F3B5284D81B0286800284AD04078264E0A
:103A7000012803D03078002831D041E001F05AFB12
:103A8000224F002813D00120FDF750FC04464128A6
:103A900008D91F4A02213878FCF724FB1D483C3C1A
:103AA00044800EE07D20C0002246424303E0002017
:103AB000FDF73CFC0246002A03D002213878FCF7CF
:103AC000E7FA2968022048703078002802D00020E8
:103AD000307015E002990198FFF7D2FE10E0032044
:103AE000019CFCF735FB010008D0D02008704C7019
:103AF0000420887028680078FCF706FBFFF704F9BB
:103B00000120FEBD0059FF1FA558FF1F3159FF1F9F
:103B100060EA00001459FF1F074A00218B00D35AA6
:103B2000834202D1880080187047491CC9B202291B
:103B3000F4D30020704700004459FF1F10B50C4615
:103B4000FFF7EAFF00280DD0002C00D0206080781D
:103B5000FE2803D0FF2803D0162010BD172010BD6B
:103B6000002010BD022010BDFFB581B0FF201E4611
:103B7000174605300A9DFCF7EBFA04001BD0B02075
:103B800020706770029860802671002D06D0204654
:103B9000FC2229460830FCF74BFA05E02046FC22BF
:103BA00000210830FCF75CFA21460198FCF7ACFADA
:103BB000002005B0F0BD1320FBE7000005481722E8
:103BC00002800988172901D2042070470180002053
:103BD000704700009E58FF1F0020704708B50A4636
:103BE0000888498888420BD8002809D00023009310
:103BF0001379521DFEF73EF8002803D0002008BDBF
:103C0000012008BD0A2008BDF3B50D460888498883
:103C1000002687B0814215D3002813D000276946BB
:103C20000F710097002369881A46FEF723F80400F5
:103C30004FD068460079002807D0694649790129A4
:103C400025D008E0012009B0F0BD217802291BD061
:103C500002216A4651711222504301AA61898018DB
:103C60004180684600791223584380181022001DB5
:103C70006168FCF7DDF968460079401C0106090E11
:103C8000684601711FD11AE001216A4651712178FD
:103C900002291ED1820001A86189121851806A464A
:103CA00012796168920010180222001DFCF7C0F919
:103CB0006A461079401CC0B21071052803D2618990
:103CC0000A48814200D101266089401C80B2002E42
:103CD000A7D068460079002805D001A90798FCF70D
:103CE0008DFE0020AFE70A20ADE70000FFFF0000D7
:103CF00038B50C4608884988884215D8002813D062
:103D00002379621D02210B48FCF7FDFD00280DD030
:103D100000200090237961882088621DFDF7AAFFAA
:103D2000002805D0002038BD012038BD102038BD46
:103D30000A2038BDF482021108B50A46088849886D
:103D400088420BD8002809D0002300931379521D14
:103D5000FDF790FF002803D0002008BD012008BD1A
:103D60000A2008BDF8B500250F4606460C46E03788
:103D700017E06800205A0021FDF756FF002809D0FF
:103D8000017A3046FEF7EAF8002808D06900615A47
:103D90002180F8BD6800205A20800120F8BD6D1CEC
:103DA000EDB2B87DA842E4D80020F8BD10B50446B5
:103DB00008880021FDF738FF002804D0017A20464A
:103DC000FEF7CCF810BD012010BD000030B585B065
:103DD00005466946FCF790FE040026D168468078C7
:103DE000C1071E4809D08268002A04D06888694645
:103DF0009047044619E0062417E04268002A05D0DF
:103E0000688869469047040001D10EE006246846A0
:103E10004078002809D16846817801730021C1816A
:103E20000474688803A9FCF7A9FDA868002801D0DC
:103E3000FCF7ACF9002C05D168468078122807D031
:103E40001B2803D068880121FEF74EF905B030BD6C
:103E5000684640780128F5D1F8E700004C59FF1F6B
:103E600070B505460C4608880021FDF7DDFE0028E8
:103E700005D0017A22462846FEF783F870BD01205E
:103E800070BD000001494860704700004C59FF1F99
:103E900010B50446801C00F046FDFF20E07010BD08
:103EA00010B500F025F8002800D0806810BD002271
:103EB0009300CB5A834202D1900040187047521CA5
:103EC000D2B2022AF4D3002070470000074A002132
:103ED000CB00D35A834202D1C80080187047491CD6
:103EE0000906090EF4D00020704700002055FF1F7E
:103EF0000649896805E08A88824201D1886870474E
:103F000009680029F7D10020704700001055FF1FF5
:103F1000F8B50746012906D0022924D1012101F074
:103F20000FFE00281FD13846FFF7D0FF050015D03F
:103F300000240D4E0CE0F8206968604308180188E1
:103F4000002908D0F8220021FCF78AF8641CE4B2AA
:103F500070788442EFD30020C0432880024938465D
:103F60001831FDF70BFCF8BD1055FF1FF3B50646E1
:103F700083B008300190002000907088FFF7A6FF02
:103F800007002FD0002523E0F820796868430C183B
:103F90002188002920D00198007801280FD160885D
:103FA0000090A3887088A21DFDF7F0FD0090002806
:103FB00005D0019900200870049821880180F8221A
:103FC00000212046FCF74CF800206D1C2080EDB24B
:103FD000074840788542D7D30020C04338800098F6
:103FE000002802D17088FCF7F3FC009805B0F0BD02
:103FF0001055FF1FF3B50546374C064685B008350A
:10400000F62200212046FCF72BF803A800902B791C
:10401000698828886A1DFDF72DFE074645E07088EF
:104020002E4A4100515C2E4BC91FC9B20093002299
:1040300002910192284B69468A89F63B3946FDF781
:1040400041FC002812D126482989001F828891420C
:104050000CD121492846F6390A30FBF7F5FF002834
:1040600004D02178788989000919488068468289B6
:10407000698804AB3846FDF72FFE0746207881009B
:1040800009194A88002A10D0002F05D06A46128AE2
:10409000401C20708A800AE002060021920DC9436C
:1040A0001219401C2070918006E0002F04D00D48AA
:1040B000217800888142B2D32078002806D0708809
:1040C0002146FCF78DFC002007B0F0BD069829883A
:1040D00001800A20F8E700008672FF1F9C58FF1F2E
:1040E0001455FF1F9858FF1FF0B585B004460020F7
:1040F0006946888120790E2869D00FDC082823D0F2
:1041000004DC022813D0062818D118E0254608350B
:10411000484F0A281DD00C2810D138E010285BD059
:1041200012285ED0162861D0182877D163E0434862
:104130004149008808806088FCF72AFC6EE003A9EA
:104140002046FFF757FF5AE003A9204600F076F912
:1041500055E0288804A9FDF767FD010015D06088A7
:10416000354E4200BA5C0023521ED2B20193029235
:1041700000966A46B31C128AFDF7A4FB00281DD1E5
:1041800060883146FCF7BCFD48E0012016E0288835
:1041900004A9FDF749FD0100F7D060886B88420053
:1041A000BA5C254E521ED2B20193029200966A4624
:1041B000B31C128AFDF786FB002803D029886A46C3
:1041C00091811CE060883146FCF76AFD26E003A976
:1041D000204600F0D3F912E003A9204600F082F84F
:1041E0000DE003A9204600F039FA08E003A92046B3
:1041F00000F028F803E003A92046FFF7B7FE0028E7
:104200000CD06178142909D00B4922790A706A46CA
:1042100092894A8008716088FCF7B0FB2046FDF760
:10422000EBFC0748C168002901D02046884705B04B
:10423000F0BD00009C58FF1F8672FF1F9658FF1F9D
:104240001055FF1FF8B504460F460546083400898F
:104250006946FDF7E9FC06003AD0307A80060ED5B3
:1042600068460088FFF71CFE030006D0688812220B
:1042700031469847060002D02BE00E2629E06E88D2
:104280003046FFF723FE010005D11448FFF71EFE5C
:1042900001000ED00E80124A0020527807E0F82666
:1042A0004B6846439B5B002B05D0401CC0B290423C
:1042B000F5D309260DE04968F82250430818214635
:1042C000FBF7B6FE002668882146FCF7DFFC02E01B
:1042D0000126208838803046F8BD0000FFFF00002E
:1042E0001055FF1FF3B58BB000200B9E07460390BF
:1042F00004A800903246337B718930894C4C0D32D2
:104300000836FDF7B7FC054678E00B98297A408817
:10431000FDF724FE070003D00C98698901806FE047
:104320000B9844494088444B4200895C0093891FA4
:10433000C9B20022029101923D4B69460A8AF63BBE
:104340002946FDF7BFFA0700E6D10398002833D0CD
:1043500039486188001F8088021D914253D103991A
:1043600009180B98408842003248805A801F8142C9
:1043700049DC0399A87A6118087103986989401C7F
:1043800080B22218090A401C117180B2039068465D
:10439000028A718807AB2846FDF79EFC050011D004
:1043A00003986946898B2018017103986946401C5F
:1043B000898B80B2090A0CE01F48001F8088001D0D
:1043C0006080D6E70398FF21201801710398401CF4
:1043D00080B222181171401C80B217490390091F46
:1043E0008A8813492018F639001DFBF721FE12496F
:1043F0000398091F8988401880B20390002D84D14A
:10440000039800280CD061880398FBF73DFF2070CB
:104410000B9821464088FCF74DFC00200DB0F0BD04
:10442000002F00D10A270C98318801803846F5E723
:104430008672FF1F9C58FF1F1455FF1FF3B50746D8
:10444000044608378BB049480490388800252E462A
:1044500005906AE007A800903B7979887A1D059855
:10446000FDF708FC0890002852D040890590089874
:10447000017A6088FDF772FD06005DD160883C49D5
:104480004200895C3B4B091FC9B200930022029194
:104490000192364B69468A8BF63B0899FDF712FA72
:1044A000060049D1002D36D0049841883148001FBC
:1044B0008088801C814241D12E4B1B1F988829186F
:1044C000608842002A48805A001F814220DC0898F8
:1044D000817A04984019017108996D1C4989E8B2E4
:1044E0000A0A049909180A71401CC5B219460498B1
:1044F0008A881E494019F639001DFBF799FD1D48B1
:104500001D49001F00792818C5B20598884209D1B5
:10451000002D13D123E017480499001F8088801CC8
:104520004880C9E7401C80B205906088410010486F
:10453000405A001FA8428DDA002D0ED00498418801
:104540002846FBF7A1FE0146049801706088049993
:10455000FCF7BEFB00200DB0F0BD002E00D10A26F6
:104560000C99059808803046F5E700008672FF1F19
:104570009C58FF1F1455FF1FFFFF0000F3B50646B0
:104580000446002085B0324D00900836288007464A
:104590003046E030049048E07800305A03A9FDF737
:1045A00043FB01001AD060882B4B84464200294807
:1045B000805C0093401EC0B2002202900192244B06
:1045C00068468289F63B6046FDF77CF9009000283A
:1045D00007D07800315A0698018035E0012000901C
:1045E000F7E71D492888091F8988421861884B0010
:1045F0001849C95A4B1E9A4204DD081A1649091F68
:10460000401E88802988A81C08181349091F8A8819
:104610000F49F639FBF70CFD0F482988001F8088E9
:10462000081828807F1C0498FFB2807DB84207D903
:104630006088298842000748805A401E8142ABDBCF
:1046400060882946FCF752FB009807B0F0BD0000D7
:104650008672FF1F9C58FF1F1455FF1FF3B50546B8
:1046600083B004460835008901A9FDF7DDFA274625
:10467000E8370646002822D0307A80060ED56846F4
:104680008088FFF70DFC030006D0608812223146B7
:104690009847060002D013E00E2611E0002000909B
:1046A0006B88298860882A1DFDF770FA060007D1FB
:1046B000787E002807D16088FCF74EFB03E00126D6
:1046C000049829880180787E002802D0002005B057
:1046D000F0BD3046FBE70000F8B504460246F8207E
:1046E000424319480025074645701037786800286E
:1046F00007D00020C100C919401C00064D60000E03
:10470000F8D0124E00213046FBF7AAFC00200146EB
:104710006143C9B2F82251438B190B49C2001031D1
:1047200052180021536005E0F8274F435368491C95
:10473000DD53C9B2A142F7D3401C0006000EE6D0FB
:10474000014844700020F8BD1055FF1F9870FF1FEE
:104750007CB50C78069D022C0FD14C6826786478C5
:1047600024023419064EA4B2F44206D10224DBB26C
:1047700000950194FDF71AF87CBD01207CBD000076
:10478000FED6FFFFF8B505461D48854223D0461CDE
:10479000002921D001292BD002291CD10121284632
:1047A00001F0CEF9002816D12846FFF7B5F904002C
:1047B00011D0A078FF280ED0FE2807D0002000904E
:1047C000E0781E2314222946FFF7CEF92046FFF792
:1047D0005FFBFF20A070F8BD2846FFF79DF9002879
:1047E000F9D13046FFF798F90028F4D00580F8BDDC
:1047F0002846FFF791F90400F9D02680D9E7000098
:10480000FEFF000038B5040010D0A078FF280DD0BE
:10481000FE280BD0002000902188E0781E2317226C
:10482000FFF7A2F9FE20A070FF20E07038BD000065
:10483000F3B50C468978C1B01E2914D02E4D2878C6
:10484000FF2829D0182927D84808C2002B48121859
:10485000803A976F002F1FD0D06F00281CD020788F
:10486000002817D113E04198FFF756F905000BD047
:1048700000200090A378E87800224199FFF774F9AE
:1048800006462846FFF704FB304643B0F0BD627889
:10489000012A03D1122901D00620F6E702AE0096C4
:1048A000A3886178A268B8470028EED1A0784008B4
:1048B000C100124808188038C26F02A94198904779
:1048C00000280FD061780029DFD1A27869460A70EC
:1048D000087168460189418069464198FCF74EF8A5
:1048E0000020D2E7A378042BCFD0009600222878AE
:1048F0004199FFF739F9C8E73C59FF1F908202112F
:1049000000B50346FDF71AFB002803D0C018401E6F
:1049100080B200BD184600BD10B57D24E40062439E
:10492000FBF7B8FC10BD10B5040008D02078FF28B4
:1049300005D0FE2803D0FBF7B3FCFF20207010BD8C
:10494000F7B506460F461020FBF7C6FB05461020BC
:10495000FBF7C2FB0446002D3AD0002C2DD01022CC
:104960000021FBF77DFB2A462146304602F0FCF889
:10497000060023D12878000604D43946284600F0E2
:10498000F1FF08E02146284600F0ECFF3A461149C5
:10499000204603F0D7FB3878000604D43846029945
:1049A00000F0E0FF0AE02146384600F0DBFF09494D
:1049B0002046029A03F0C6FB00E013262846FBF7C8
:1049C0009DFB002C02D02046FBF798FB3046FEBD35
:1049D0001326F6E71A830211F8B5069800271D463C
:1049E00014460E46002801D00B20F8BD3078002177
:1049F000022801D019804DE07068027840780002EA
:104A00001018152280B25202801A0300FBF722FB15
:104A10000504121F1A254100F068FBF793FBC2B290
:104A20000798824200D902462A80F1682046FBF7A7
:104A3000FFFA30E0F0680221008829802070000A27
:104A4000607028E0062028800246F168EEE7012029
:104A50002880F068007820701DE0F068002816D0EB
:104A600008212980017821700188090A6170817804
:104A7000A1704188090AE170017921718188090AD0
:104A800061718179A171C088000AE07103E0298019
:104A900001E0298001273846F8BD10B50B7884075E
:104AA00002D50224234301E0FD2423400B700307B9
:104AB0000B7802D50824234301E0F72423400B7030
:104AC00083060B7802D52024234301E0DF24234012
:104AD0000B700A21084201D1810603D510780C2100
:104AE000084304E0002803D11078F3210840107037
:104AF00010BD0000FFB581B0087800240A9E1F4653
:104B00000D4602280FD16868017840780002081825
:104B1000152180B24902401A09D0012829D0022863
:104B200048D003283CD00124204605B0F0BDE868F9
:104B3000FBF708FBC0B2864205D8F0190090152893
:104B400003D90D24F0E70724EEE7E8683A46801918
:104B50000399FBF76DFA0098EA6880B200211154BE
:104B60001C4840680028DFD001680029DCD0002004
:104B700012E0002E12D1022BE3D10399E8680A78E3
:104B80004978090251180180124840680028CBD0AA
:104B900001680029C8D001208847C5E70B24C3E776
:104BA000002EFBD1062BCCD10622E8680399FBF737
:104BB0003FFAB9E7002EF1D1012BC2D1039800785A
:104BC000002803D0012801D08024ADE7E9680870EF
:104BD000AAE70000E455FF1F10B50448C16B034A63
:104BE00040321068D06000F03DFA10BD00800040F7
:104BF00030B5C21F0A2A01D3062030BD0124074D5B
:104C00009440002905D0002100F0C0F82868204316
:104C100001E02868A0432860002030BD0038004033
:104C2000054B01228240D868002901D0104300E0E2
:104C30009043D860704700000038004070B5FF28EE
:104C400014D08207D30E8408094A5E1DA400A5185B
:104C5000AC69F21A0126521C9640761E9E40B4435F
:104C600099400C43AC610121FFF7DAFF70BD0000F1
:104C70000038004010B5114C2078002801D00720E2
:104C800010BDFF212D310D48FBF710FB01202070D6
:104C90000B490020086348630A4908624862022100
:104CA0001020FDF743FE1020FDF734FE064A0749A9
:104CB0000D20FBF701FB002010BD0000B46EFF1FAC
:104CC0000080004080F00040DD4E0211514E021184
:104CD00010B5172801D3052010BD0C4B9C6B012289
:104CE0008240104620439863586B90435863DC6BB6
:104CF000012907D020469043D863186B02431A63FA
:104D0000002010BD10462043F6E700000080004060
:104D1000054B0122801E82405869002901D01043B2
:104D200000E09043586170470038004070B5044679
:104D300014480E460519002902D16878012808D0C8
:104D400000212046FFF76CFF022C04D0032C02D078
:104D500005E0072070BD01212046FFF7D9FF0021A3
:104D60002046FFF745FF08490120A0404A68012E70
:104D700005D082434A6002206870002070BD024363
:104D80004A60FAE7B46EFF1F0080004070B5420031
:104D900083180D4A9C18A5786478D65C641B0122A0
:104DA000641CA240521EAA40084BA940132806D2F8
:104DB000B000C018836893430B43836070BD58698B
:104DC00090430843586170BD7181021100F00040AA
:104DD00007494A68012383401A4201D0096802E06A
:104DE000034940310969C140C807C00F704700003E
:104DF0000080004070B5154C45002E1976780123CF
:104E0000114AB34000290ED0142809D0152807D024
:104E1000162805D0605780008018816819430DE07E
:104E2000506918430EE014280AD0152808D0162817
:104E300006D060578000801881689943816070BDFA
:104E400050699843506170BD00F00040B681021176
:104E500070B5104D00242E197078012803D1E0B2EE
:104E60000121FFF7C7FF707802280ED1E0B2FFF7EB
:104E7000AFFF01214140E0B200F074F8E0B2FFF76B
:104E8000A7FF0C21614349194876641C172CE2DB0B
:104E900070BD0000B46EFF1F10B50F4C0D4A01230A
:104EA000245C142809D2106A002902D0A3401843B8
:104EB00001E0A3409843106210BD506A002903D05E
:104EC000203CA340184302E0203CA340984350629A
:104ED00010BD000080F000405A81021170B502211F
:104EE0001020FDF723FD1020FDF714FD00241C4DBC
:104EF00007E0022C01D0032C03D1E0B20121FFF71F
:104F000007FF2819407801280BD1E0B2FFF760FFB6
:104F1000E2B20146104600F061F8E0B20021FFF76E
:104F200069FF0C2060434019007E002814D0E0B2D5
:104F300000F066F8E6B23046FFF74AFF002801D0DD
:104F4000012100E000210C2272435219527E82425C
:104F500002D0304600F0BAF8641C172CC9DB70BDD3
:104F6000B46EFF1FF8B542008318184AD55C9A1832
:104F70009278521ED4B2164A12185278022A21D1BF
:104F8000144EB76B0122134683401F43B763124B85
:104F900013280ED2002906D0A900C9188B68A24098
:104FA00093438B600BE0A900C9188B68A2401343A0
:104FB000F7E70029596906D0A240914359610121C0
:104FC000FFF76AFFF8BDA2401143F7E771810211B4
:104FD000B46EFF1F0080004000F00040012200B5C9
:104FE000064B82400029196801D0114300E091432B
:104FF00019600121FFF79AFE00BD0000008000400B
:1050000070B50446164821460C2251430D186A68B3
:105010000026002A02D1AA68002A1CD0104B0222C6
:10502000183B1B195A700122425400212046FFF7F9
:105030007DFE6868002808D0A86800280DD02046AA
:10504000FFF7C6FE002808D0002631462046FFF7AD
:105050003FFE002070BD122070BD0126F5E7000064
:10506000CC6EFF1FF3B5184E002481B00746012512
:105070002846A040384223D00299084000D00120A1
:105080000090E0B2009900F021F80C2060438019F4
:105090004168806800290ED0002807D000980028B9
:1050A00002D00021E0B203E00121FBE7E0B20121E0
:1050B000FFF70EFE04E0002802D0E0B20021F7E77F
:1050C000641C172CD4DBFEBDCC6EFF1F074A0C23DB
:1050D00043439B185A68002A01D0012904D09A68DA
:1050E000002A02D0002900D110477047CC6EFF1F64
:1050F00070B505460D4885420CD00D4C01290AD0EB
:10510000022905D10121284600F01AFD002802D00D
:105110000020207070BD06492846891CFCF72EFB34
:1051200020780028F6D0FBF7CDF870BDFEFF000018
:105130007855FF1F08B509488368002B0CD01A78F2
:10514000694601205B1CFDF7BAFD002804D00078F9
:10515000C00701D0012008BD002008BD1459FF1F61
:1051600010B503460B4A00200A214143891849889B
:10517000002905D0401CC0B20328F5D3002010BD83
:105180000A21002441435454044640348818448082
:10519000037210BD847AFF1F0A7802700A88120A0F
:1051A00042708A7882704A88120AC2700A79027143
:1051B0008A88120A42718A798271C988090AC17182
:1051C00008207047F8B505460C4648680421FAF7F0
:1051D000E9FF217A017021890346401C090A017008
:1051E000217841702188090A8170207A001DC2B29D
:1051F000FB2A36D81C48854215D114461E460C2081
:10520000FAF7A6FF01000CD0902008700220087168
:105210004D808E601548CC800078FAF775FF002726
:105220001DE013271BE05C20114968434418264603
:105230004036307E002806D008465C30416A072799
:10524000491C41620BE02146284600F095F90746CB
:10525000307E002803D121462846FBF739F838462E
:10526000F8BD0220F8BD0000FEFF00005959FF1FE5
:10527000007BFF1F10B50A4A00210A234B439B18ED
:105280005C88002C06D01B79834203D10A2041435D
:10529000881810BD491CC9B20329EED3002010BDE7
:1052A000847AFF1F002141800170704770477CB5F0
:1052B00004000FD0608800280CD0002500950195CF
:1052C0001323E188207A172200F028F8FF2060726B
:1052D000658025707CBDF8B5074615460E46102042
:1052E000FAF736FF040017D0A0202070002060706D
:1052F0006680002D05D00C222946201DFAF798FE65
:1053000004E00C220021201DFAF7AAFE21463846AF
:10531000FAF7FAFE0020F8BD0120F8BDFFB581B014
:105320001E46174614200B9DFAF712FF04001AD0F0
:10533000A22020706770029860800A9820716671C0
:10534000002D06D020460C2229460830FAF770FEC0
:1053500005E020460C2200210830FAF781FE2146A4
:105360000198FAF7D1FE05B0F0BD022A1CD34B78A4
:105370000A781B02D21892B20280012A02D0022AB5
:1053800006D00FE08A78C97809025118418009E0F7
:10539000CB788A781B02D21842800A7949790902AF
:1053A000511881800020704701207047F8B50646EB
:1053B0004D88002070600A790C46022A12D029011B
:1053C00060480091415A002906D0009B1F18BB6815
:1053D000002B01D0012A7DD05A486C304169491C0C
:1053E0004161A9E0E288042A43D3A06843780178A8
:1053F0001B02C91889B20091C37881781B02C918B1
:105400008FB2017AC079000208184F49488000998C
:10541000091D8A4220D1072F13D0052F11D0042F48
:1054200002D0062F25D10CE046482901405A002819
:1054300007D02846FCF7BCFE42486C300169491C85
:1054400001610098308137800321C943A068FAF7D1
:10545000A9FE70600020F8BD072F18D0052F16D0C8
:10546000042F07D0062F12D036486C30C168491C73
:10547000C16064E033482901405A002807D028461B
:10548000FCF796FE2F486C300169491C01612D49DB
:105490002D01002048536E180098B081B780009805
:1054A000FCF7EAFEB060002818D00321C943A068C9
:1054B000FAF778FEE2880146224F121FB068FAF729
:1054C000B7FD785BE1884018001F785338466C3090
:1054D000016800E008E0491C016030E019486C30C8
:1054E0008169491C81612AE0E2888918009A89B2A1
:1054F0008152BA8991421AD80546B868E2884018A4
:10550000801AA168FAF794FD0098295AB889814257
:1055100015D13081B8883080B8687060009900205B
:10552000685208486C304168491C416007E00548F2
:105530006C308168491C81602846FCF739FE0120E7
:10554000F8BD0000F07AFF1F6A59FF1F022A01D040
:10555000012070470A78497809025118018000201B
:1055600070470A7802704A7842708A78C9780902CE
:105570005118418070470000FFB50C4607463D4971
:10558000A1208000096878434018FF30C130067EB2
:1055900089B015463846FBF745FA001DB04204D2E3
:1055A0003846FBF73FFA001DC6B2B54207D82A4677
:1055B000002138460C9BFAF791FE0DB0F0BD314644
:1055C0002846FAF761FE2746403738740C99616522
:1055D00001467143691AC9B202910C99049102996A
:1055E000002901D0401C3874002523E002990029CD
:1055F00004D0401EA84201D1084600E03046E90030
:10560000059103916054FCF76BFD039909194860FB
:1056100000281BD00599625C0499FAF709FD0598EA
:10562000215C0498081804901348C169491C6D1C3A
:10563000EDB2C161387CA842D8D8606D002803D093
:10564000FAF7A4FD002060650020B6E7002038745A
:105650000646606506E0F00000194068FAF796FD1E
:10566000761CF6B2AE42F6D30348C16A491CC16249
:105670001320A2E73409FF1F5C7BFF1FF7B586B03C
:1056800016460D464878FFF7F5FD040010D00027B8
:1056900027712878012802D0132809D105E06A88EB
:1056A000314602A8FFF761FE0AE02078032802D005
:1056B000002009B0F0BD6A88314602A8FFF746FF16
:1056C0000646204600F046F902A8019000972B7884
:1056D000207A32460699FFF721FE2046FFF7E2FDC9
:1056E0003046E6E7FEB50446468801466846FFF7C1
:1056F0005DFE0546019800282FD0684600880528E1
:1057000006D0042809D0062807D0072805D026E0AF
:105710006946304600F030F821E08100154808184D
:1057200001464039098E002919D02038807C6A460C
:105730003146FFF7D0FD002811D1684600880428C3
:1057400003D001213046FCF7CFFC012D04D1A06825
:10575000002801D0FAF71AFDFEBD012D04D1A06882
:10576000002801D0FAF712FD01213046FCF7BCFCFD
:10577000FEBD0000747AFF1F30B50546088987B06A
:105780000C46042817D302A86168FFF7EAFE6846B2
:105790004089172837D82189001D81421ED16846CB
:1057A000007AC10709D0626802A92846121DFFF7D6
:1057B00065FF002812D107B030BD6168091D1228AD
:1057C00005D0002069460880497A6A4622E068468A
:1057D000428903A8FCF7B8FC002803D02846FFF74D
:1057E00065FDE8E70D4881880029E4D06946497ADB
:1057F00003AA0192009169460B7A8079002229461A
:10580000FFF78CFDD7E70121684601801721418011
:10581000417A6A462846FCF74BFCCCE7747AFF1FB6
:1058200070B5144C00262680A681A680A068354657
:10583000002802D0FAF7AAFCA5600E4C10342046CE
:105840004030057445740576606D002802D0FAF783
:105850009DFC65655C20002546433419E80020184E
:105860004068002801D0FAF791FC6D1C0A2DF5DB89
:1058700070BD0000F07AFF1FFFB589B015460E46D7
:105880001720129FFCF7F8FC040021D06846067030
:105890004570002F03D0201D0C99B84700E0002070
:1058A00069464880267065704888A070010AE170DA
:1058B000052269468A82001D0694888305A90998F5
:1058C000FFF780FC050004D02046FAF75FFC00E0FB
:1058D000132528460DB0F0BDFFB581B01E46054624
:1058E00001210A9F0B9C00F02BF9002811D02046C3
:1058F000FFF736FC00280AD0C5800446077012481E
:105900004178491C0A06120E427004D005E01525A4
:105910000FE014250DE00122427022710096284606
:10592000039B0299FFF7A8FF050005D02046FFF76B
:10593000B9FC284605B0F0BD23462146034A093389
:105940000348FAF7A7FCF4E76A59FF1F3075000017
:10595000AF52021110B50446407AFAF7A1FCFF20BD
:10596000607210BD10B500240F22835C5B002343DE
:105970008B54835C521EDC0952B2002AF5DA10BD4A
:10598000FFB581B01E4617460D46084600F04AF89E
:10599000002802D0112005B0F0BD0E4800F042F8FA
:1059A000040015D00A98A0710622E01D0B99FAF7A1
:1059B0003FFB65802771667101982070002060624E
:1059C0000C98E0810021284600F0DEFC0020E2E790
:1059D0001520E0E7FFFF000070B514460D460646AF
:1059E00000F020F800280BD0416A007900290CD083
:1059F000C20611D580070AD4002C08D0052070BD3E
:105A0000074886420AD0142070BDC006F6D5887EAD
:105A1000A84203D20C2070BD0F2070BD002070BDC5
:105A2000FEFF0000084A002128234B439B185B8897
:105A3000834203D12820414388187047491C090636
:105A4000090EF1D000207047A47AFF1F30B50B4C2F
:105A50000B4B002128224A43D5186D88A54206D059
:105A60009A5C824203D128204143C81830BD491CAA
:105A70000906090EEED0002030BD0000FFFF000037
:105A8000A47AFF1F10B500200B4C0C4B01462822B6
:105A90004243D2185480401C117100065162000E1E
:105AA000F5D0064A002028328300401CC0B2D150F5
:105AB0000528F9D310BD0000FFFF0000A47AFF1FE6
:105AC0000020074A014628234B439B181B79002BD3
:105AD00001D0401CC0B2491C0906090EF3D0704722
