:020000041102E7
:1000000003B40148019001BDADAE000003B4014846
:10001000019001BD456B010003B40148019001BD91
:100020000189000003B40148019001BDC53F0000F3
:1000300003B40148019001BDE94C010003B401483B
:10004000019001BDC95C010003B40148019001BDEC
:10005000B30E000003B40148019001BDED37FF1F4E
:1000600003B40148019001BD8137FF1F03B401486B
:10007000019001BD8B52010003B40148019001BD04
:100080008538FF1F03B40148019001BDE9AF0000AE
:1000900003B40148019001BDB3520100F8B5D34942
:1000A000D14A002004464A608300401CD450FF28F7
:1000B000FADD4868CE4A014680318A606E22C2620B
:1000C000CC4A1278002A01D07F22C2620A2202653D
:1000D000C94A13788363C94BC36115781023022D75
:1000E00008D01578012D05D01578032D02D015788C
:1000F000042D00D10362C24D45611925AD01856112
:100100003725CD6036272826C76308254664056451
:100110004F6032270F603B27CF634127CF643927D9
:100120004031E0C132274F6002274F61422708313A
:10013000E0C11E274F60CE608D6005264E614226CD
:100140000E615A2660390E614D613C258D61AF25E7
:10015000ED000560AB4D05631578022D09D01578CB
:10016000012D08D01578032D07D01578042D06D061
:1001700007E0152504E0436003E00E2500E00C25B0
:100180004560FF252D358560C560FF25F535056186
:100190009D4D85647D25ED009C4ECD67C66445620E
:1001A0009B4D85627325C565062545658565C51D1D
:1001B0000826F93502272E6047664B27FF00876621
:1001C0000927C766934F07674667BE108467C667EF
:1001D000914F8E4E3E601678022E09D01678012E71
:1001E0000AD01678032E0BD01278042A0CD00EE019
:1001F0001A22CA61212205E01422CA61182201E0F4
:100200001322CB610A6202E00E220B62CA617E4AAF
:100210008A627D22D2008A6764224A620522CA620B
:1002200002220A63C8228C634A63382169607B49D1
:1002300029647B49A9614B21C900E9617349FF30F9
:10024000643929627D2109016962EC661E212C67EF
:10025000A9667049A965E9658910296669646967B5
:100260007049A9677049714A8130E967026082600C
:100270004160FF21F531C16001616E486C495A4A05
:1002800081606D49803A11616A496C4A80318A62A5
:100290006B4ACA626B4A82616B4AC2626B4A0263F2
:1002A0006B4A64484038C2636A4ACA616A498163DA
:1002B00060496A48403188616A49694888605D4898
:1002C000694A80384260694A4263694A0A626949F8
:1002D000816058496848C039C860FFF791FE012025
:1002E000FFF794FEF8BDF3B50746644881B0C169D5
:1002F000634A1140FF310931C161002613E0002536
:100300002C461120FFF788FE5C48406A8007800F6A
:10031000610088402843641CE4B20546102CF0D3E9
:1003200001C7761CF6B202988642E8D3FEBD10B52E
:100330002E4C607800280AD104215248FFF7D3FFE1
:10034000504804211030FFF7CEFF0120607010BD2F
:10035000F0B500248BB00D460646102902D90120C5
:100360000BB0F0BDFFF7E3FF464900200A5C401CDC
:100370001419C0B21028F9D3002C03D0102D03D9C2
:100380000B20EDE70E20EBE73F483E4C00230068D2
:1003900002A91034E25CC75C7A40CA545B1CDBB231
:1003A000102BF7D306AA3748FFF73CFE102D00D9D3
:1003B00010252A4606A93046FFF73AFEFFF73EFE13
:1003C000216840182060FFF739FE616840186060BE
:1003D000FFF734FEA1684018A060FFF72FFEE16828
:1003E0004018E0600020BBE70004FF1FB858FF1F63
:1003F000607FFF1F1C58FF1F4A0AFF1F3A070000BB
:1004000080C3C9019A02000050C30000280A0000FE
:100410006A180000204E0000F009FF1F0040001184
:1004200068100000DC05000040420F0010270000AB
:10043000793FFF1F0001FF1FA125FF1FE948FF1F94
:10044000C14BFF1FAD22FF1F4124FF1FC922FF1F09
:10045000512FFF1F8555FF1FA953FF1FBD3CFF1FD5
:100460002127FF1F0002FF1F053DFF1FCD3DFF1F7E
:10047000113DFF1FC13CFF1F5127FF1F40F00040EF
:1004800000FEFEFF307BFF1FDC58FF1F002809DB4A
:1004900000BF00BFC206D20E01219140024A116086
:1004A00000BF00BF7047000000E100E010B5002869
:1004B00019DB1A4A03231B02D21883089B00D25867
:1004C0008307DC0EFF23A3409A438B071B0E840790
:1004D000E40EA3401A43114B032424021B19840881
:1004E000A4001A5118E00E4A03071B0F083B9B0893
:1004F0009B00D2588307DC0EFF23A3409A438B074F
:100500001B0E8407E40EA3401A43054B0407240F77
:10051000083CA408A4001A5110BD000000E100E04E
:100520001CED00E010B50446600020180949401891
:100530004078012802D0032808D103E0204600F0CB
:100540009FFC04E0204600F02DFD00E000BF00BF4E
:1005500010BD00001C7BFF1F70B50548C56B04482B
:1005600040300468C4602946204600F04BFB70BD53
:100570000080004030B504460D46072C01DB102CEE
:1005800001DD062030BD002D0CD00021204600F0FA
:100590002BF909480068E11F01228A4010430649EF
:1005A000086007E004480068E11F01228A40904388
:1005B000014908600020E5E700380040002907D025
:1005C000074AD268012383401A43054BDA6006E0EC
:1005D000034AD268012383409A43014BDA60704793
:1005E00000380040FCB504460F460020019000256D
:1005F000FF2C27D02046E117890F09188E10E1172C
:10060000890F091889108900611A00910099C8069C
:10061000050E681DC0B201900B48B1004158019809
:10062000421B521C01209040421EAA4008469043A3
:100630003946A94008430449B200885001212046A8
:10064000FFF7BCFFFCBD00001838004010B5114892
:100650000078002801D0072010BDFF212D310D4862
:10066000FFF7F2FC01200B49087000200A490863DB
:1006700048630A490862486202211020FFF716FF0A
:100680001020FFF703FF064A06490D20FFF7E2FCA2
:100690000020E1E71079FF1F0080004080F000405B
:1006A000ED0902113109021101461048426B4B1A43
:1006B0005B1C01209840431E8B401046984301224A
:1006C0008A401043094A50631046026B4B1A5B1C68
:1006D00001209840431E8B401046984300228A40D8
:1006E0001043024A10630020704700000080004061
:1006F00010B502460B46172A01DB052010BD124833
:10070000816B0120904001430F488163416B0120C0
:1007100090400C46844321460B484163C16B012B3A
:1007200003D101209040014304E0012090400C4699
:10073000844321460448C163016B0120904001437A
:10074000014801630020D9E70080004010B500296E
:1007500008D0094A5269831E01249C402243064B5B
:100760005A6107E0044A5269841E0123A3409A4358
:10077000014B5A6110BD00000038004030B50446FE
:100780000D46002D05D11648005D012801D1072036
:1007900030BD00212046FFF711FF022C01D0032CB1
:1007A00003D101212046FFF7D1FF00212046FFF7AA
:1007B000E1FE012D07D10B4840680121A14008430B
:1007C0000849486009E0074840680121A140884382
:1007D000044948600221024801550020D8E7000082
:1007E0001179FF1F00800040F0B5024655005519F1
:1007F000174E735D55005519AD196C785500551994
:10080000AD19A878132A11DA124D9E00AE59271A95
:100810007F1C0125BD406F1E87403546BD430E46F7
:1008200086402E430B4D9F00EE5110E0094D083DD0
:100830006E69271A7F1C0125BD406F1E8740354613
:10084000BD430E4686403543024E083E7561F0BDFD
:10085000E710021108F000400146094840680123F2
:100860008B401840002802D00548026802E0044886
:10087000403002691046C840C007C00F70470000F2
:100880000080004030B5002926D0142803D0152858
:1008900001D016280BD1244A52694300234C1B195E
:1008A0005C780123A3401A431F4B5A613AE01E4A69
:1008B000083243001D4CE3569B00D25843001B19DD
:1008C0005C780123A3401A43174B08334400174DAB
:1008D0002C57A4001A5125E0142803D0152801D064
:1008E00016280BD1104A53694200104C1219547843
:1008F0000122A24093430C4A536113E00A4A083292
:1009000043000A4CE3569B00D35842001219547816
:100910000122A2409343044A08324400034D2C575D
:10092000A400135130BD000000F000402C11021152
:1009300070B500241FE01148005D012803D1E0B22A
:100940000121FFF79FFF0D48005D022812D1E0B2A0
:10095000FFF782FF012148400546E0B2294600F03A
:100960007BF8E0B2FFF778FF0C216143034A1732AE
:1009700089184870641C172CDDDB70BD1179FF1FCE
:1009800010B5142815DA002909D0164A126A164B38
:100990001C5C0123A3401A43124B1A6220E0114A47
:1009A000136A114A145C0122A24093430D4A136258
:1009B00016E000290AD00B4A526A0B4B1B5C203B05
:1009C00001249C402243074B5A6209E0054A526ABF
:1009D000054B1B5C203B01249C40A243014B5A6207
:1009E00010BD000080F00040D010021170B502214F
:1009F0001020FFF75BFD1020FFF748FD002426E0E4
:100A0000022C01D0032C03D1E0B20121FFF79EFE9E
:100A10001048005D01280CD1E0B2FFF71DFF05462C
:100A2000E0B2294600F06CF8E0B20021FFF72AFF9F
:100A300000BF0C20604307491731085C002805D02F
:100A4000E0B200F091F8E0B200F074F9641C172CE9
:100A5000D6DB70BD1179FF1FF8B504460F46600064
:100A6000201823490D5C6000201840188078401E33
:100A7000C6B22048005D022800D0F8BD1E48806B39
:100A80000121A14008431C498863132C15DA002F6B
:100A900009D11A48A90040580121B1400143174823
:100AA000AA0081501EE01548A90040580121B1401C
:100AB00088431249AA00885014E0002F09D10F483A
:100AC000083840690121B14008430C4908394861A0
:100AD00008E00A48083840690121B14088430749C5
:100AE0000839486101212046FFF74AFF00BFC4E7EB
:100AF000E71002111179FF1F0080004008F000404C
:100B000030B504460D46002D07D00A480068012183
:100B1000A14008430749086006E006480068012133
:100B2000A14088430349086001212046FFF726FEC3
:100B300030BD00000080004070B50446094D162C01
:100B400001DD052070BD00210C20604329540548BB
:100B5000173801552046FFF711FE2046FFF7A4FD88
:100B6000F0E700002879FF1FF8B50446244D002661
:100B700000270C20604340194068002807D10C2052
:100B8000604340198068002801D11220F8BD02217D
:100B90001B481738015501210C20604329540021BE
:100BA0002046FFF7EBFD0C20604340194068002809
:100BB00010D00C2060434019806800280AD02046DD
:100BC000FFF74AFE0746002F01D1012000E0002078
:100BD00006460EE00C20604340194068002801D012
:100BE000012606E00C20604340198068002800D0F0
:100BF000002631462046FFF77BFD0020C6E70000B7
:100C00002879FF1FF3B581B00646234D002440E04C
:100C10000120A040304000283AD00120A040029995
:100C20000840002801D0012000E000200746E0B283
:100C3000394600F033F80C20604340194068002822
:100C400010D00C2060434019806800280AD0012F82
:100C500001D0012000E000200746E0B23946FFF74E
:100C600047FD14E00C20604340194068002804D080
:100C7000E0B20121FFF73CFD09E00C206043401980
:100C80008068002803D0E0B20021FFF731FD00BFEB
:100C9000641C172CBCDBFEBD2879FF1F70B5044611
:100CA0000E46104D0C20604340194068002808D0C3
:100CB000012E06D10C20604340194268204690471F
:100CC0000EE00C20604340198068002808D0002EF8
:100CD00006D10C20604340190021826820469047CD
:100CE00070BD00002879FF1FF8B504460D46164672
:100CF0000D4F2046FFF720FF0C206043C0194560D0
:100D00000C206043C01986602046FFF72DFF00903D
:100D10000648074908600098002802D02046FFF7DF
:100D20000BFF0098F8BD00002879FF1F590502113C
:100D3000C003FF1F70B504462046FFF78DFD054632
:100D4000002D01D0012000E0002006460C20604369
:100D5000044940184078A84203D031462046FFF7A6
:100D60009DFF70BD2879FF1F10B504460648005D41
:100D7000022801D1062010BD01210348015520465B
:100D8000FFF7FCFC0020F6E71179FF1F70B5044661
:100D90000D46002D06D160002018104940188078BB
:100DA000012808D0012D18D1600020180B494018E7
:100DB0008078002811D16120FFF752F901206100ED
:100DC0006118064A891848700121E2000348001D95
:100DD00010180171142000F033F970BD1C7BFF1F47
:100DE00010B5002424E060002018154940188078D0
:100DF000002807D161006118114A505C0321FFF7F8
:100E0000F3FC06E0610061180D4A505C0221FFF717
:100E1000EBFC0021E2000A48001D815061006118CE
:100E2000021F505C074A1146FFF75EFF601CC4B208
:100E3000012CD8DB002211466120FFF70BF910BD11
:100E40001C7BFF1F5D10021170B504460D46002D7E
:100E500006D160002018094940188078012808D080
:100E6000012D09D16000201804494018807800281D
:100E700002D1142000F0E4F870BD00001C7BFF1FBD
:100E800010B5044661006118244A505CFFF7E4FC89
:100E9000002806D1600020182049401880780128D9
:100EA0000ED0610061181D4A505CFFF7D5FC002888
:100EB00026D06000201819494018807800281FD1DA
:100EC0001649087B164A0121C903FFF7CFF86120B4
:100ED000FFF7D2F8022061006118104A89184870A3
:100EE000FFF7D0F8E2000D49091D8850081F00697E
:100EF000002811D0081F02210269204690470BE00C
:100F0000002061006118054A891848700021E2003C
:100F10000248001D1018017110BD00001C7BFF1F4E
:100F2000B80B000070B504460D46012D06D16000D7
:100F300020180D4940188078012808D0002D12D1C2
:100F40006000201808494018807800280BD16120E3
:100F5000FFF786F8032061006118034A891848707A
:100F6000142000F06DF870BD1C7BFF1F70B50446A7
:100F70000D46012D06D160002018094940188078DF
:100F8000012808D0002D09D160002018044940181C
:100F90008078002802D1142000F052F870BD0000C3
:100FA0001C7BFF1F70B5044661006118214A505C2C
:100FB000FFF752FC610061181E4A8918897888423F
:100FC00030D11146087B1021FFF762F8FFF75AF87D
:100FD000E2001849091D8958401A17494843054637
:100FE0006120FFF749F813480069002819D0134819
:100FF00085420BD30F4820210269204690470020EC
:10100000610061180B4A891848700AE009480421F8
:10101000026920469047002061006118054A89183E
:10102000487005E0022061006118024A8918487082
:1010300070BD00001C7BFF1F71020000C0C62D00A8
:1010400010B504460449087B224601218903FFF7B5
:101050000DF8002010BD00001C7BFF1F70B5054679
:101060000E46002408E0600020181849085CA842D9
:1010700000D103E0601CC4B2012CF4DB00BF012CE2
:1010800023DA60002018114940184078002806D063
:10109000012809D002280CD0032814D10EE03146D3
:1010A0002046FFF773FE0FE031462046FFF7CCFEE7
:1010B0000AE031462046FFF735FF05E0314620467D
:1010C000FFF754FF00E000BF00BF70BD1C7BFF1F97
:1010D0000001020307090A0B0E0F10111214171852
:1010E000191A1B1F20212200020100050400080715
:1010F000000B0A001716001D1C0102010105040166
:101100000E0D011110011413011716011A19020214
:1011100001020B0A020E0D0211100214130217161F
:10112000030504030807030B0A030E0D000D000E50
:10113000001000110013001401070108010A010B3F
:10114000011C011D02040205020702080219021A0D
:0C115000021C021D030103020317000033
:020000041FFFDC
:1000000000000000F147FF1F0C57FF1F1457FF1F90
:100010006458FF1F00000000000000000000000006
:1000200000000000000000000000000000000000D0
:1000300000000000000000000000000000000000C0
:1000400000000000000000000000000000000000B0
:1000500000000000000000000000000000000000A0
:100060000000000000000000000000000000000090
:100070000000000000000000000000000000000080
:100080000000000000000000000000000000000070
:100090000000000000000000000000000000000060
:1000A0000000000000000000000000000000000050
:1000B0000000000000000000000000000000000040
:1000C0000000000000000000000000000000000030
:1000D0000000000000000000000000000000000020
:1000E0000000000000000000000000000000000010
:1000F0000000000000000000000000000000000000
:1001000000000000000000000000000000000000EF
:1001100000000000000000000000000000000000DF
:1001200000000000000000000000000000000000CF
:1001300000000000000000000000000000000000BF
:1001400000000000000000000000000000000000AF
:10015000000000000000000000000000000000009F
:10016000000000000000000000000000000000008F
:10017000000000000000000000000000000000007F
:10018000000000000000000000000000000000006F
:100190004138FF1F0939FF1F694CFF1F0000000095
:1001A000000000000000000000000000000000004F
:1001B000000000000000000000000000000000003F
:1001C000000000000000000000000000000000002F
:1001D000000000000000000000000000000000001F
:1001E000000000000000000000000000000000000F
:1001F00000000000000000000000000000000000FF
:1002000000000000000000000000000000000000EE
:1002100000000000000000000000000000000000DE
:1002200000000000000000000000000000000000CE
:1002300000000000000000000000000000000000BE
:1002400000000000000000000000000000000000AE
:10025000000000000000000000000000000000009E
:10026000000000000000000000000000000000008E
:10027000000000000000000000000000000000007E
:10028000000000000000000000000000000000006E
:10029000000000000000000000000000000000005E
:1002A000000000000000000000000000000000004E
:1002B000000000000000000000000000000000003E
:1002C000000000000000000000000000000000002E
:1002D000000000000000000000000000000000001E
:1002E000000000000000000000000000000000000E
:1002F00000000000000000000000000000000000FE
:1003000000000000000000000000000000000000ED
:1003100000000000000000000000000000000000DD
:1003200000000000000000000000000000000000CD
:1003300000000000000000000000000000000000BD
:1003400000000000000000000000000000000000AD
:10035000000000000000000000000000000000009D
:10036000000000000000000000000000000000008D
:100370000D19FF1F00000000000000000000000039
:10038000000000000000000000000000000000006D
:10039000000000000000000000000000000000005D
:1003A000000000000000000000000000991FFF1F77
:1003B000000000000000000000000000000000003D
:1003C000000000000000000000000000000000002D
:1003D000000000000000000000000000000000001D
:1003E000000000000000000000000000000000000D
:1003F00000000000000000000000000000000000FD
:0C04000001FF01FF01FF01FF41000000AF
:020000041FFFDC
:10183800607FFF1F3D19FF1F81840000F128000011
:101848000000000000000000000000000000000090
:101858000000000000000000000000004919FF1F00
:101868000000000000000000CD8400004D19FF1F9B
:101878004F19FF1F4F19FF1F4F19FF1F4F19FF1F48
:101888004F19FF1F4F19FF1F4F19FF1F4F19FF1F38
:101898004F19FF1F4F19FF1F4F19FF1F4F19FF1F28
:1018A8004F19FF1F4F19FF1F4F19FF1F4F19FF1F18
:1018B8004F19FF1F4F19FF1F4F19FF1F4F19FF1F08
:1018C8000000000000000000000000000000000010
:1018D8000000000000000000000000000000000000
:1018E8004F19FF1F000000004F19FF1F4F19FF1F5E
:1018F8000348854600F02CF800480047D544FF1FF0
:10190800607FFF1F09484838694601600430F0C00D
:1019180044464D4656465F46F0C030BCF0BCF0C069
:10192800F0BCF0C044380249084700000004FF1F1B
:10193800D129FF1F0448804704480047FEE7FEE717
:10194800FEE7FEE7FEE7FEE79127FF1FF918FF1FF6
:10195800064C0125064E05E0E36807CC2B430C3CFA
:1019680098471034B442F7D3FFF7C6FFEC57FF1F70
:101978001C58FF1F70B58C180578401C6B075B0F4F
:1019880001D10378401C2A1106D10278401C03E0DB
:1019980006780E70401C491C5B1EF9D12B0705D434
:1019A8000023521E0DD40B70491CFAE70378401C23
:1019B800CB1A921C03E01D780D70491C5B1C521E4B
:1019C800F9D5A142D8D3002070BD000003B4014866
:1019D800019001BDD94F010003B40148019001BD38
:1019E80075A9000003B40148019001BDF9A60000E3
:1019F80003B40148019001BDA1AF000003B4014840
:101A0800019001BD9DA9000003B40148019001BDEA
:101A18004D06021103B40148019001BD690D021180
:101A280003B40148019001BD010B021103B4014840
:101A3800019001BD7505021103B40148019001BD73
:101A4800E10D021103B40148019001BD8B52010060
:101A580003B40148019001BD5952010003B4014883
:101A6800019001BD2505021103B40148019001BD93
:101A7800DD3F000003B40148019001BD8944000026
:101A880003B40148019001BD2144000003B401489A
:101A9800019001BD750F000003B40148019001BD1C
:101AA800C95C010003B40148019001BD1907010098
:101AB80003B40148019001BDBD0B010003B4014806
:101AC800019001BDDD0C010003B40148019001BD86
:101AD800DD0A010003B40148019001BD0134010091
:101AE80003B40148019001BD0934010003B4014861
:101AF800019001BD0534010003B40148019001BD06
:101B0800F535010003B40148019001BDF935010024
:101B180003B40148019001BDE917010003B401486D
:101B2800019001BD6137010003B40148019001BD76
:101B380001D7000003B40148019001BD6DF6000013
:101B480003B40148019001BD7912010003B40148B2
:101B5800019001BD4DF9000003B40148019001BD99
:101B6800C1F7000003B40148019001BD116E0000E7
:101B780003B40148019001BD8D82000003B40148FF
:101B8800019001BDE1AC000003B40148019001BD22
:101B9800E53A010003B40148019001BD496D010017
:101BA80003B40148019001BD3D71010003B401482F
:101BB800019001BD0189000003B40148019001BDF5
:101BC800ED4A010003B40148019001BDA54F010091
:101BD80003B40148019001BD8552010003B40148D6
:101BE800019001BDB54C010003B40148019001BD4D
:101BF8004550000003B40148019001BD156B010078
:101C080003B40148019001BD016C010003B401480F
:101C1800019001BDB30E000003B40148019001BD5D
:101C2800BD5C010003B40148019001BD7D070211AC
:101C380003B40148019001BDE907021103B401484A
:101C4800019001BDCD4C010003B40148019001BDD4
:101C5800EDA5000003B40148019001BD810E00000C
:101C680003B40148019001BD21A9000003B4014853
:101C7800019001BDADAE000003B40148019001BD63
:101C8800C56D010003B40148019001BD51B80000C1
:101C980003B40148019001BD85C1000003B40148A7
:101CA800019001BDE9D4000003B40148019001BDD1
:101CB800E90B010003B40148019001BD090E0000C1
:101CC80003B40148019001BD6D0B010003B4014844
:101CD800019001BDC115010003B40148019001BD87
:101CE800CD0C010003B40148019001BD71B00000A2
:101CF80003B40148019001BDD9B0000003B4014804
:101D0800019001BD5976010003B40148019001BD5D
:101D180053B9000003B40148019001BDE94C01002A
:101D280003B40148019001BDED6B010003B4014803
:101D3800019001BDC9A9000003B40148019001BD8B
:101D48009D00021103B40148019001BD3D4B010003
:101D580003B40148019001BD154D010003B40148C9
:101D6800019001BDB14E000003B40148019001BDCE
:101D78002D11010003B40148019001BD891401002F
:101D880003B40148019001BD6189000003B4014812
:101D9800019001BD810E000003B40148019001BD0E
:101DA800BD05021103B40148019001BDD1A5000091
:101DB80003B40148019001BDE505021103B40148CF
:101DC800019001BDD544010003B40148019001BD53
:101DD8002D6C010003B40148019001BD7997000002
:101DE80003B40148019001BD6911010003B4014821
:101DF800019001BD8512010003B40148019001BDA5
:101E08008D11010003B40148019001BDE5120100E4
:101E180003B40148019001BDF90D0100F3B587B085
:101E280004466F4F012C00D16E4F60016E49401877
:101E3800007E00280BD08420C059C6B2002503E0DC
:101E4800387803A948556D1CB542F9DB04E0012632
:101E5800387D387869460873600163494018C0695D
:101E680000280CD069460898087003A801900E72E3
:101E780060015D4A8018C1696846884700BF09B09B
:101E8800F0BDF0B585B00546680157494018041DF6
:101E9800534803906801085C002801D105B0F0BDE3
:101EA800680151494018007E002800D1F6E7680112
:101EB8004D494018807E002800D1EFE7207802289D
:101EC80000D0EBE7A768A0886188401A86B2102E78
:101ED80001DD102000E030460646002E1FD101200B
:101EE800207000206080A08068013F494018C069C8
:101EF80000280AD03D4A07CA6B4607C368013A4A18
:101F08008018C1696846884700BF002D03D10820A2
:101F180001F0B4FC02E0192001F0B0FCBEE7012D8D
:101F280001D13048039005E06188481C6080795CE5
:101F3800039801703046711E8EB20028F4D100BF9C
:101F4800ACE710B5274880680407240F062C17D083
:101F580004DC022C10D0042C17D108E0072C10D078
:101F68000C2C12D102210120FFF758FF0EE00121AD
:101F78000846FFF753FF09E00120FFF782FF05E05D
:101F880004E018484030C06B00E000BF00BF10BD3F
:101F980010B5134880680407240F062C17D004DCFA
:101FA800022C10D0042C17D108E0072C10D00C2CD0
:101FB80012D102210020FFF731FF0EE0012100209D
:101FC800FFF72CFF09E00020FFF75BFF05E004E0C6
:101FD80003484030C06B00E000BF00BF10BD0000E8
:101FE80000400040009000403C7AFF1F2857FF1F28
:101FF80010B500BF76200E49C86000BFFFF7E6FCA9
:1020080010BD0446FFF7E8FC0A48C0694021884330
:102018000849C8612046FFF7E5FC01F063FB04208E
:102028000449C03108600120FFF7E2FC00BFFEE769
:102038000020004000F0004010B5FFF7CDFC0B4831
:102048000468401709498031086009480749086051
:10205800FFF7D4FC204610BD10B50446FFF7BCFCC2
:1020680002480460FFF7CAFC10BD000000E100E070
:102078001000100070B5054600243748057037A0D9
:1020880000F0AAFFFFF7C0FC0D20FFF7C3FC0121F9
:102098000D20FFF7C5FC03203649087000BF44E057
:1020A800002061006118334A89184870610061187E
:1020B80089188870600020181146085C0A280FD11A
:1020C8002D4A0021622001F08DFB61006118294A28
:1020D800505C0021FFF7AAFC28A000F07DFF22E059
:1020E800600020182349085C0B280FD1274A0021DB
:1020F800632001F077FB610061181E4A505C0021E3
:10210800FFF794FC22A000F067FF0CE060002018A5
:102118001849085C052804D060002018085C0628C7
:1021280001D103F005F9601CC4B2012CB8DB0A48E0
:102138000078104908731A480861FFF77DFC194AAE
:10214800012105480078FFF77DFC164A0221024864
:102158000078FFF77DFC70BD6058FF1F6770696FDE
:10216800206B65792064656D6F2073746172742EBD
:102178002E2E0A001C7BFF1F7927FF1F50313620A7
:10218800697320757365640A000000008527FF1FC6
:1021980050313720697320757365640A00000000A8
:1021A800013CFF1F8813000070B506460C463048F6
:1021B8000078864201D0002070BDE007C00F0028DB
:1021C80009D02C4A01212A480078FFF73BFC204619
:1021D80001214840F0E702202040002803D0204693
:1021E80002214840E8E701208003204000281BD056
:1021F800002512E0E900204808180079012807D0D6
:10220800680028181C49091F40184078032802D183
:102218002846FFF723FC681CC5B2012DEADB2046DF
:10222800012189034840C7E70120C0032040002856
:102238001BD0002512E0680028180F49091F401814
:102248004078022809D1680028180A5C29460BA0A2
:1022580000F0C2FE0DA000F0BFFE6D1C012DEADBF0
:1022680020460121C9034840A6E70020A4E7000052
:102278006058FF1F88130000207BFF1F6B65793AA9
:102288002564206770696F3A256409006B657928B1
:102298006C6F6E6720707265737320646F776E2938
:1022A8000000000070B50124A407A36810252B4383
:1022B800A360FFF7D9FBA068A843A06070BD000029
:1022C800FFB5064601208007816881B01D461022AF
:1022D80011438160554F002038603046D730FFF7F2
:1022E800C9FB9D20800034468059FF36CA34013628
:1022F8000028306822462CD00121FFF7C1FB4B4F44
:102308002078F863641C2046FFF7C0FB00BA000A77
:10231800E17800020843B863241D2046FFF7B6FBA6
:1023280000BA000AE178000208437863241D2046B9
:10233800FFF7ACFB00BA000AE178000208433863F3
:102348000398029900020843F860039F00243F1D88
:102358000EE00021D1E72819401CFFF797FB010286
:10236800285D0143324820180160241DA4B23F1F94
:10237800042FF0DA032F04D0022F08D0012F0CD03D
:1023880011E02819FFF782FB0102090A06E0291962
:1023980048780A780102114300E0295D2448201892
:1023A8000160241DA4B20021214F02E0E019016060
:1023B800241DFF2CFADD1D481E4A42600F220261CF
:1023C800012202604269002AFCD04269930701D4C5
:1023D800520708D401208007826810218A4382604E
:1023E800002005B0F0BD01600020039A11E0C1197A
:1023F80009682954401C80B20B0A2B54401C0B0C52
:1024080080B22B54401C80B2090E2954401C80B263
:10241800121F002AEBDC3068401C30600120800766
:10242800826810218A4382600120DAE700000440B4
:1024380000010440080F0000FFB505460120800791
:10244800816881B01E46102211438160504F0020E0
:1024580038602846D730FFF70DFB9D2080002C46BA
:102468004059CA3480350028E86F22462BD0002115
:10247800FFF706FB464F2078F863641C2046FFF7F9
:1024880005FB00BA000AE17800020843B863241D7E
:102498002046FFF7FBFA00BA000AE1780002084379
:1024A8007863241D2046FFF7F1FA00BA000AE178A4
:1024B8000002084338630398029900020843F86051
:1024C8000024039F0EE00121D2E73019401CFFF7DA
:1024D800DDFA0102305D01432E4820180160241DF9
:1024E800A4B23F1F042FF0DA032F04D0022F08D024
:1024F800012F0FD014E03019FFF7C8FA0102090ABA
:1025080009E031194878097800020843214961181F
:10251800086003E0315D1F4820180160241DA4B243
:1025280000211C4B02E0E0180160241DFF2CFADD9D
:102538000F221748120242600F2202610122026034
:102548004269002AFCD00160039A0020121D11E0A4
:10255800C11809683154401C80B20C0A3454401C1C
:102568000C0C80B23454401C80B2090E3154401C0B
:1025780080B2121F002AEBDCE86F401CE8670120DC
:102588008007826810218A43826005B0F0BD000090
:102598000000044000010440F8B5FFF77DFA5649F1
:1025A80008600420FFF77EFAFFF782FA0646C007A4
:1025B80015D052490020086051480078012811D0F0
:1025C800032813D0042815D0022817D0052819D0BD
:1025D800FFF774FA4B4F044601281AD01EE0FFF7A4
:1025E80073FAF8BD3046FFF775FA0EE03046FFF78C
:1025F80077FA0AE03046FFF779FA06E03046FFF747
:102608007BFA02E03046FFF77DFA40B20128E8D0B5
:102618004FE0387805280BD0062809D03A483B4DBA
:102628000078022808D0052806D0022C0ED005E034
:10263800304601F06FFD3CE0022C02D0012C11D095
:1026480014E0A87B002805D0022803D03878052894
:1026580004D00BE0304601F075FD15E0304601F07E
:1026680065FD11E0012807D0062809D03046FFF79C
:102678004FFA022C08D01CE0304601F07BFD18E030
:10268800304601F06BFD14E03878012811D170054F
:102698000FD4687BC10701D0252004E0800701D54D
:1026A800262000E02720297D814202D93220FFF729
:1026B80035FA154C2078042804D003280ED00728B2
:1026C80011D014E0FFF730FA002810D0FFF732FAE3
:1026D8005820FFF735FA0220207008E00C48807C6B
:1026E800FFF734FA03E00B48807BFFF735FA032045
:1026F800FFF7D8F9F8BD00009C09FF1F9809FF1FD4
:102708009009FF1F1C09FF1F2309FF1FA60BFF1FAE
:10271800BC0BFF1FD40BFF1F10B5FB2908D8084BB3
:102728009A4205D81B2903D3FF2349339A4201D281
:10273800302010BD034B19825A82FFF713FA10BDDF
:10274800480800008410FF1F10B5FFF711FA02496E
:102758000020488010BD0000B858FF1FC106C90EF0
:1027680001208840014908607047000000E100E04E
:1027780010B500210A20FFF759F910BD10B5002146
:102788000B20FFF753F910BD014802490860704754
:1027980040787D01B458FF1F10B5002819DB1A4A8C
:1027A80003231B02D21883089B00D2588307DC0E30
:1027B800FF23A3409A438B071B0E8407E40EA34014
:1027C8001A43114B032424021B198408A4001A512C
:1027D80018E00E4A03071B0F083B9B089B00D258C2
:1027E8008307DC0EFF23A3409A438B071B0E840745
:1027F800E40EA3401A43054B0407240F083CA40821
:10280800A4001A5110BD000000E100E01CED00E03A
:1028180010B5002819DB1A4A03231B02D2188308B3
:102828009B00D2588307DC0EFF23A3409A438B07F3
:102838001B0E8407E40EA3401A43114B0324240201
:102848001B198408A4001A5118E00E4A03071B0F2D
:10285800083B9B089B00D2588307DC0EFF23A3404C
:102868009A438B071B0E8407E40EA3401A43054BBB
:102878000407240F083CA408A4001A5110BD000046
:1028880000E100E01CED00E010B5002819DB1A4A51
:1028980003231B02D21883089B00D2588307DC0E3F
:1028A800FF23A3409A438B071B0E8407E40EA34023
:1028B8001A43114B032424021B198408A4001A513B
:1028C80018E00E4A03071B0F083B9B089B00D258D1
:1028D8008307DC0EFF23A3409A438B071B0E840754
:1028E800E40EA3401A43054B0407240F083CA40830
:1028F800A4001A5110BD000000E100E01CED00E04A
:1029080010B5002819DB1A4A03231B02D2188308C2
:102918009B00D2588307DC0EFF23A3409A438B0702
:102928001B0E8407E40EA3401A43114B0324240210
:102938001B198408A4001A5118E00E4A03071B0F3C
:10294800083B9B089B00D2588307DC0EFF23A3405B
:102958009A438B071B0E8407E40EA3401A43054BCA
:102968000407240F083CA408A4001A5110BD000055
:1029780000E100E01CED00E002E008C8121F08C1F9
:10298800002AFAD170477047002001E001C1121FE8
:10299800002AFBD1704700000248C069002800D017
:1029A800004770474003FF1F1CB569460120FFF729
:1029B800E5F8012000900348019000F055FB012044
:1029C8001CBD0000BB0B0000044625462AA0FFF7EB
:1029D800DBF82FA0696AFFF7D7F831A0A96AFFF7DB
:1029E800D3F833A0E96AFFF7CFF835A0296BFFF7D2
:1029F800CBF837A06968FFF7C7F839A0A968FFF7CF
:102A0800C3F83BA0E968FFF7BFF83DA02969FFF7C5
:102A1800BBF83FA06969FFF7B7F841A0A969FFF7BC
:102A2800B3F843A0E969FFF7AFF845A0296AFFF7B3
:102A3800ABF847A0696BFFF7A7F849A02968FFF72B
:102A4800A3F84BA0A96BFFF79FF84DA0E96BFFF720
:102A58009BF84FA0296CFFF797F85148416851A09F
:102A6800FFF792F853480068002802D051480068E0
:102A7800804700BFFEE700005B4861726420666122
:102A8800756C742068616E646C65725D0A00000084
:102A980052302020203D203078253038780A000038
:102AA80052312020203D203078253038780A000027
:102AB80052322020203D203078253038780A000016
:102AC80052332020203D203078253038780A000005
:102AD80052342020203D203078253038780A0000F4
:102AE80052352020203D203078253038780A0000E3
:102AF80052362020203D203078253038780A0000D2
:102B080052372020203D203078253038780A0000C0
:102B180052382020203D203078253038780A0000AF
:102B280052392020203D203078253038780A00009E
:102B380052313020203D203078253038780A000086
:102B480052313120203D203078253038780A000075
:102B580052313220203D203078253038780A000064
:102B680053502020203D203078253038780A000046
:102B78004C522020203D203078253038780A00003B
:102B880050432020203D203078253038780A000036
:102B980050535220203D203078253038780A0000E4
:102BA80000ED00E049435352203D2030782530386D
:102BB800780A00002058FF1F10B500F049FAFFF707
:102BC800F3FE002802D00248804710BDFEE700004F
:102BD800E1A200000EB50020009003460222014643
:102BE80001900520FEF7D6FF00BF00BF0E48006920
:102BF800022108400228F9D02020019000BF019846
:102C0800411E01910028FAD100BF074880380068AA
:102C1800C00FC0070028F8D000BF012102A8FEF7A6
:102C2800BFFF6846007A0EBD80C80040F8B505466B
:102C38000E4600960DE0FFF7CDFF044620462840DB
:102C4800002800D1F8BD0520FEF7B0FF0098401E0F
:102C5800009000980028EED11120F3E710B5024645
:102C68000B46114600E0491C0878002803D0184696
:102C78005B1E0028F7D1881A10BD70B504460D46B2
:102C88002A462146002000F067FF70BD10B5FEF708
:102C980093FF0120FEF796FFFEF79AFF002010BD74
:102CA8001CB5012109030748FEF798FF01200421FC
:102CB8000B4602460091019003490448FEF794FF31
:102CC8001CBD00001069FF1FF058FF1F8C66FF1F16
:102CD800F8B54D484068C043000603D53C20FEF7D0
:102CE80065FFF8BDFEF786FF474D0746803D28681B
:102CF8000121890408432860E869444908402830CC
:102D0800E8610320FEF752FF686AC603F60B03204A
:102D1800FEF74CFF686AC403E40B0320FEF746FF86
:102D2800686AC503ED0BA64201D3204600E0304691
:102D3800A84200D32846A64201D3314600E02146E6
:102D4800A94200D22946324AB218C32A26D2304AAA
:102D5800D243944222D92F4B9C421FD295421DD96F
:102D68009D421BD2081A132818D2274841680C2202
:102D7800914341604168FF2212029143416014204F
:102D8800FEF714FF20488038416AC269C903C90B9D
:102D980008239A43C26120480161F8BD26462C46A3
:102DA8000320FEF703FF18488038406AC503ED0B7F
:102DB800FEF720FFB84201D3C01B01E0C01B401E34
:102DC80016498842AFD310484168090A0091426801
:102DD800FF2109028A430099491C0906090C0A4384
:102DE800426041680C229143091D41600020FEF7B2
:102DF80007FF0B48009988400A49884200DB0846CB
:102E0800FFF7FFF88FE70000C0F0004000FEFEFF6C
:102E180091FCFFFF32040000B858FF1FE40C0000CB
:102E2800E880000060361E00F8B53D4840683C4C1C
:102E38000006803C8021002806DB6068084360604B
:102E48000320FEF7B3FEF8BD364D0020A8612068C8
:102E58000122920410432060334F606880210843A8
:102E680060600320FEF7A2FEA869401CA8616068A4
:102E780001210904084360600026E0692B493840B5
:102E88004018E0610320FEF791FE606AE169C00323
:102E9800C00B08229143E16129690622514381420E
:102EA80001D3091A00E0411A3C2909D2E26901213B
:102EB80009048A43E26162688A4362606861F8BD16
:102EC800761CF6B2052ED8D3E169012000048143AF
:102ED800E161616881436160A8692E46052807D3CE
:102EE800BFF34F8F13491248C860BFF34F8FFEE7F7
:102EF80060688021884360600320FEF757FEE06920
:102F080038402830E0610320FEF750FE606AC003B5
:102F1800C00B3061E16908208143E1619DE7000051
:102F2800C0F00040B858FF1F00FEFEFF2800010057
:102F38000400FA0500ED00E010B528210148FEF76D
:102F480065FE10BDF47AFF1FF8B504460120FEF7B0
:102F58002DFEFEF761FE1849184A0860966A184B5C
:102F68001E60184BDF6A184D2D68AF4202D2DB6A2B
:102F7800EB1A00E00023154D2B603319D362536A16
:102F88002924E40323435362114A1278002A0FD0FC
:102F9800104A1378022B07D01378012B06D0127829
:102FA800032A06D0C01E02E00F3800E00838086087
:102FB800F8BD401FFBE70000E408FF1F00F00040D9
:102FC800340AFF1F00100040180AFF1F1C0AFF1FC9
:102FD8001C09FF1F4A0AFF1F0FB408B503A8009079
:102FE8000548009A029901F0D1F80020009001B03C
:102FF80008BC04B018470000832CFF1F00B585B03B
:10300800064B0FCB049301AB07C30020009001A827
:103018000FC800F067FD05B000BD00001857FF1F7E
:1030280070B5044626460948855DFF2D00D170BD60
:1030380000212846FEF7FAFC00212846FEF7F2FD9B
:1030480000212846FEF7F4FD00BFF0E78E58FF1F69
:103058000349002048610349086048607047000040
:1030680040F0004040F1004070B58AB000241E4D89
:10307800049405942878012806D004A90120FEF7B5
:103088007DFD002802D000200AB070BD0498009091
:1030980005980190154881680291C068134903900A
:1030A80006AA10316846FEF7DFFC104E10222036C3
:1030B800314606A8FEF7C2FD002811D0012028706D
:1030C8000B4A31466846FEF7CFFC04940020694657
:1030D80005948200401C8C500428FADB0120D3E7B9
:1030E800FF202870CFE70000E058FF1F00290011DB
:1030F800507BFF1FF0B595B03C48C06B8705BF0DEE
:103108003A48406B400A400238494863384840789A
:10311800B84263D1022459E00120A0403840002879
:1031280052D03248406B0121A14088432F4948635F
:10313800002516E0E0012F494118A81C8000085816
:103148000005000D690005AA5052E00129494118FF
:10315800A81C800008580001010D681C400011528D
:103168006D1C1D2DE6DB0120A04020498863204806
:103178000078002800D128E02046E10F09184910FE
:103188004900611A01D0611E00E0611C0E46B100C1
:103198001748001D405800280FD0012001906846AC
:1031A800067205A803901D2168460174B2001048F4
:1031B800001D815801A8884700BF0C48406B0121B9
:1031C800A14008430949486300BF641C072CA3DDDC
:1031D80007488078002801D100F010F80348406BB8
:1031E800054908430149486315B0F0BD0000054092
:1031F800F47AFF1F00040540FF01000010B52D48B8
:103208000078002801D1122010BD2B482B494863B3
:103218001D20002815DBC206D20E01219140284A44
:10322800116000BF00BF00BFBFF34F8F00BF00BFDA
:1032380000BF00BF00BF00BFBFF36F8F00BF00BF5C
:1032480000BF00BF00201F49486308151B49886359
:1032580002E01948194988631848C06B0028F8D15A
:1032680019488068082188431749886008464068DB
:103278004914884314494860002408E0A100134811
:103288004058002802D0E0B2FFF7CAFE641C092C9F
:10329800F4DB0D488068400840000B498860112025
:1032A80000F062F8FFF748FE112000F0E7FA00206E
:1032B800AAE700008858FF1FFF0100000000054032
:1032C80080E100E0C003FF1F40F00040F87AFF1FD4
:1032D80008B564200090412000F06EF8402000F00E
:1032E8006BF802204107486200BF0098411E009118
:1032F8000028FAD1032001218907486200F006F866
:10330800002001218907886208BD000038B5FEF752
:1033180063FB01208007846A08200090002C02D1FA
:1033280001208107886202200E49086000BF0098CA
:10333800411E00910028FAD103200A49086008209C
:10334800009000BF0098411E00910028FAD105495D
:103358000860002C02D1012189078862FEF74EFB24
:1033680038BD000000C00040202809DA0121890783
:1033780089680122824091430122920791601AE0F4
:1033880040280BDA012189074A69014620390123BF
:103398008B409A43012189074A610CE060280ADAC8
:1033A800012189070A6A0146403901238B409A4363
:1033B800012189070A627047202809DA0121890753
:1033C80089680122824011430122920791601AE024
:1033D80040280BDA012189074A690146203901236F
:1033E8008B401A43012189074A610CE060280ADAF8
:1033F80001218907096A0246403A0123934019438B
:103408000122920711627047202823DA15280FDB62
:1034180016280DDC012189070968202291435206EC
:10342800116011460968202211435206116056E0C6
:1034380001218907096801228240914301229207EC
:103448001160114609680122824011430122920746
:10345800116044E0402827DA35280FDB38280DDCD6
:1034680001218907C968102291439206D16011464B
:10347800C968102211439206D16030E00121890702
:10348800C9680246203A01239340994301229207D2
:10349800D1601146C9680246203A01239340194376
:1034A80001229207D1601AE0602818DA0121890701
:1034B800496A0246413A01239B1A01229A409143E4
:1034C8000122920751621146496A0246413A012394
:1034D8009B1A01229A4011430122920751627047B8
:1034E80010B588B043480078012802D1002008B000
:1034F80010BDFEF7A1FD044600BF00BF3E480069AD
:10350800022108400228F9D02020029000BF02982A
:10351800411E02910028FAD100BF37488038006860
:10352800C00FC0070028F8D000BF34490120FFF7BA
:103538007DFB002801D01120D9E700200090034628
:103548000322014601909F20FEF724FB032103A8D4
:10355800FEF726FB00BF00BF27480069022108408C
:103568000228F9D02020029000BF0298411E029143
:103578000028FAD100BF204880380068C00FC00773
:103588000028F8D000BF1D490120FFF74FFB002895
:1035980001D01120ABE72046FEF75EFD6946887B27
:1035A8000004497B090208436946097B084311491D
:1035B80048606946887B11280EDB6846807B1628A0
:1035C8000ADC6846817B012088400A4988600846F1
:1035D80080680B49886107E00120C00405498860BC
:1035E8000846806806498861012002490870002061
:1035F8007DE70000A858FF1F80C80040FFFFFF07B5
:103608008008FF1F1CB500F01DF80B480078FEF776
:103618001BFB0A48007800F0FBF900F081F8084924
:1036280003C9019100900199009800F045FAFFF74D
:10363800E5FCFEF7E9F91CBD4A0AFF1F1C58FF1FED
:10364800F456FF1F10B58CB030221B496846FEF7B0
:1036580001FB002409E062006B46D2185178620031
:10366800985CFEF7E5FA601CC4B2172CF3D3134834
:1036780040690F21C90388430521090440180F49EF
:1036880048610846406901214906884340180B49AA
:1036980048610846406903214905884301214905D5
:1036A800401806494861012000F00CF800F026F89F
:1036B80000F006F80CB010BDC456FF1F00F0004023
:1036C8000F207047014648094001002804D0002017
:1036D800034A106006207047014801600020FAE79D
:1036E8007458FF1F0448C0691F21490488430249D0
:1036F800C86100207047000000F000400648C0691B
:103708001F21490488430549098849040843024997
:10371800C86100207047000000F000407458FF1F87
:1037280010B578210F48FEF771FA0F480078012884
:1037380004D0022806D0042807D100E000BFFEF715
:103748008FFA02E0FEF792FA00BF00BF0748007840
:10375800C007C00F002802D00548064908630020AA
:1037680010BD00007C7AFF1F7058FF1F002000402A
:10377800F91FFF1FC000FF1F70B505461226174826
:103788000078012803D015480078042803D1FEF7F3
:1037980067FA002070BDFEF71FF9002417E00C201F
:1037A80060430F49085C002800D112E00C206043F8
:1037B8000B49085CA84209D101210C206043084A42
:1037C80080184170FEF74CFA002602E0641C0A2CAF
:1037D800E5DB00BFFEF712F93046DBE77058FF1F44
:1037E8007C7AFF1F70B503460C461546002100225F
:1037F80012E00C2050430F4E305C984201D1072054
:1038080070BD0C2050430B4E305C002803D10C20B7
:103818005043811902E0521C0A2AEADB00BF002942
:1038280001D10320ECE7002048700B704C608D60DC
:1038380000BFE5E77C7AFF1F10B5FFF75FFF0024A4
:1038480014E00C2060430C49085C002800D10FE00C
:103858000C206043084940184068002805D00C2116
:103868006143054A891848688047641C0A2CE8DBCC
:1038780000BF002010BD00007C7AFF1F70B5054610
:1038880000261D480078012803D01B48007804282A
:1038980003D1FEF7E5F9002070BDFEF79DF800247E
:1038A8001BE00C2060431549085C002800D116E095
:1038B8000C2060431149085CA84205D100210C2066
:1038C80060430E4A801841700C2060430B49401831
:1038D8004078002800D0761C641C0A2CE1DB00BF6D
:1038E800002E02D1FEF7C2F901E0FEF7B9F9FEF7A2
:1038F80085F80020D0E700007058FF1F7C7AFF1F72
:1039080010B5204800680121890788601E480068B2
:1039180001210843890748611C48006B1C4908605D
:103928001A48303040681B49086000210420FEF71F
:10393800ABFF01211420FEF7A7FF01211520FEF798
:10394800A3FF01211720FEF79FFF002415E00C209C
:1039580060431149085C002801D1122010BD0C20D9
:1039680060430D4940188068002805D00C21614348
:10397800094A891888688047641C0A2CE7DB0020FC
:10398800ECE700007858FF1F7C58FF1F80F00040CC
:103998008058FF1F8458FF1F7C7AFF1F10B51F2017
:1039A800154908700120154908700020144908704D
:1039B8001448C06B4009400109301249C8630846E1
:1039C800C06B6021884320300E49C86300F01CF8A2
:1039D80000210420FEF7E0FE01211420FEF7DCFEA2
:1039E80001211520FEF7D8FE01211720FEF7D4FE8D
:1039F800FFF756F910BD0000480AFF1F490AFF1FCC
:103A0800680AFF1F80F0004010B5FFF7D5F810BD19
:103A180010B50446012C18D12448406940014009DA
:103A28000521C9064018214948610846C06920494E
:103A38000840204940181D49C8610846C06940210E
:103A4800884340301949C86120E0002C1ED100216C
:103A58000A20FEF7EDF800210B20FEF7E9F81348DD
:103A6800C06903210902884340181049C861084603
:103A7800C069402188430D49C86108464069400132
:103A880040090B210907401808494861074840695F
:103A9800012109078843401804494861084680699C
:103AA8000321490488430149886110BD00F00040A2
:103AB8007F00FEFF80FD010013B50848002101606A
:103AC8004160019A009906C000F05EF8044A00219E
:103AD8001320FFF787FE00201CBD00009858FF1F29
:103AE800913BFF1F7FB5089C60011849085C0028BE
:103AF80002D0112004B070BD6846407A002801D079
:103B08000520F7E76101114A88182021FEF77EF8A1
:103B180060010E49401869462EC910302EC0204653
:103B280001F05EFB01206101084A5054002C05D1C8
:103B3800074A00210820FFF755FE04E0054A002146
:103B48001920FFF74FFE0020D4E700003C7AFF1F42
:103B58009553FF1F9F53FF1F70B504460D46164629
:103B6800600108494018807E002805D03246294661
:103B7800204601F06FFA70BD32462946204601F012
:103B880021FAF8E73C7AFF1F08B500201649009093
:103B98004A68087800230121FEF76EF81348144993
:103BA80088631220002815DBC206D20E012191403D
:103BB800104A116000BF00BF00BFBFF34F8F00BFA6
:103BC80000BF00BF00BF00BF00BFBFF36F8F00BFC3
:103BD80000BF00BF00BF02211220FEF791FEFFF7D1
:103BE80077FBFFF77DFC08BD9858FF1F050001FF14
:103BF80000C8004080E100E070B504460D46600052
:103C0800201811490A5C214610A0FFF7E5F9022D9A
:103C180004D0042D06D0202D0FD107E011A0FFF706
:103C2800DBF90EE014A0FFF7D7F90AE06120FFF7EF
:103C380025FE16A0FFF7D0F903E01BA0FFF7CCF98B
:103C480000BF00BF70BD00001C7BFF1F0A6B6579B9
:103C580020696E6465783A2564206770696F3A2533
:103C6800642000006B657928707265737320646F37
:103C7800776E290A000000006B65792870726573F9
:103C8800732072656C65617365290A006B65792814
:103C98006C6F6E672070726573732072656C6561F6
:103CA8007365290A00000000756E65787065637495
:103CB8000A0000007047000070B50D460446282928
:103CC80010D1A420005BE188401A0B4980B28842D9
:103CD80008D321466A3105220E46481FFDF7AEFF7C
:103CE800002804D029462046FDF7CCFF70BD314698
:103CF8002046FDF7CDFF70BDFF7F000010B50029FD
:103D080001D0FDF7CBFF10BD70B5264D264E2868B3
:103D1800002804D0FDF7C8FF2978C84004E0FDF763
:103D2800C3FF3168FDF7C6FF04462868002804D0A1
:103D3800FDF7C6FF2978C84004E0FDF7C1FF3168E8
:103D4800FDF7B8FF1949A122897892005143184A12
:103D5800184B126889180D78174A002D17D0FF31B3
:103D6800FF3102314C6C1548641C4C64006899683A
:103D7800884201D3401A02E0114B591A0818D23868
:103D88001060012C02D1FF30F530106070BDFF319A
:103D9800FF31002502314D645968201AC96840185E
:103DA800F3E700001C08FF1F1808FF1F300DFF1F56
:103DB8003409FF1FB858FF1FA009FF1F9C09FF1FE8
:103DC800FFFF3F00F3B506466548A12180788900CA
:103DD8004843644983B00968A12244182046FF304B
:103DE80021305F4900908978920051435D4A407DB7
:103DF800126800258F18FF37813732281DD02228F6
:103E08001BD0F86A0168002909D08188001D090AB9
:103E1800891CFDF75BFFF96A002001250860FDF7A2
:103E28005BFF04992746FF370880C137387C002894
:103E380021D0B0421FDC002014E04B49012008606B
:103E48000020F96A01250860E9E780000019FF30C1
:103E58008130006B8188001D090A891CFDF736FF37
:103E68000198401C0190397C8142EEDCC8B2361AB8
:103E78004519002038743D490020C870FF20AD3036
:103E880000590168002903D00079C04380071ED07B
:103E98000098C07D00281AD00098807D002816D18F
:103EA800387CB04213DAFF204930005B010A204613
:103EB800FF304930891CFDF709FF00990020C875BB
:103EC80000980121817529486D1CC170761E387CC7
:103ED800002802D0284605B0F0BD2046FDF702FFB5
:103EE8000090002821DD002E1FDD002718E0204665
:103EF800FDF7FEFE80000019FF300130C06E81889A
:103F0800001D090A891CFDF7E1FE2046FDF7F6FEB3
:103F1800E01DFF30FA30016A6D1C491C7F1C0162EC
:103F28000098874201DAB742E1DB092080012018B6
:103F3800817E002911D0017D00290ED0428E002AF1
:103F48000BD0817F914202D2491C817705E0002184
:103F580081771A212046FDF7D7FEA8B2BBE70000FB
:103F6800300DFF1F3409FF1F00140340E010FF1F2E
:103F7800F8B550480068012803D14F48816D491CA5
:103F88008165FDF789FD4D4C4D49A0604D48416163
:103F98000125C56005602078002806D006224A4918
:103FA8004A48FDF7B7FE002020704949486B494A46
:103FB800C0B21278002A17D1474A0023D356002BE3
:103FC800464BD35606DB1B040026965732029A1836
:103FD800121808E0FF331B040026965732029A187D
:103FE8003F4B1218D2184A63022801D2022002E07D
:103FF800502800D950203B4A1278022A11D03A4A58
:1040080016783A4B1F78BE420FD916781B78F31AE8
:10401800801E4010434310784001C01A10304011F0
:1040280004E0334A1678334BECE710784A69120AF1
:10403800120210434861FDF741FD0646052801D0EC
:10404800042E1ED12C480078002806D02B48007872
:10405800002802D00020FDF763FE2948A1218078BE
:1040680089004843274909684018FF30FF3002306B
:10407800007B042801D0032803D1FF205F30FDF71F
:104088005FFD022E0ED120480078012807D00328B2
:1040980005D0022803D01D480078022802D16C20E0
:1040A800FDF74EFD1A48C582094840380068E060AF
:1040B800F8BD00009809FF1FFC0FFF1FB858FF1F2D
:1040C800FF3F000000100340D50BFF1F7211FF1FB8
:1040D800800003408C09FF1F680AFF1F00000000D2
:1040E800FFFE0000490AFF1F440AFF1F450AFF1F81
:1040F800460AFF1F470AFF1FF908FF1F2209FF1F73
:10410800300DFF1F3409FF1F1C09FF1F2309FF1F64
:10411800BC0BFF1F10B504490968002901D0884766
:1041280010BDFDF7F5FC10BD8002FF1F10B5044956
:104138008968002901D0884710BDFDF7E9FC10BD4A
:104148008002FF1F10B504494968002901D088473B
:1041580010BDFDF7DDFC10BD8002FF1F10B504493E
:104168000969002901D0884710BDFDF7D1FC10BDB1
:104178008002FF1F10B50449C968002901D088478B
:1041880010BDFDF7C5FC10BD8002FF1FF7B58CB050
:10419800054600200690059083E10D9800782528B3
:1041A8000AD00698002803D10D98069000200590A3
:1041B8000598401C059071E10598002806D00598DF
:1041C80081B20698A847002006900590002400BFF9
:1041D8000D98401C0D900D9800782B280DD004DC0C
:1041E80020280DD0232814D10DE02D2802D0302806
:1041F8000FD10BE010200443EAE704200443E7E76B
:1042080008200443E4E720200443E1E701200443B5
:10421800DEE70026F6430D980078302808DB0D9875
:104228000078392804DC0DA800F0B6FE06460EE03A
:104238000D9800782A280AD10D98401C0D900E98E8
:1042480040C80E90002E02DA764210200443002067
:10425800C04308900D9800782E2821D10D98401C55
:104268000D900D980078302808DB0D9800783928D3
:1042780004DC0DA800F090FE08900CE00D98007882
:104288002A2808D10D98401C0D900E9800680890B7
:104298000E98001D0E900898002801DA002008905A
:1042A8000020C04307900D980078682807D00D9823
:1042B80000786C2803D00D9800784C2805D10D980B
:1042C800007807900D98401C0D900A200A900D98D0
:1042D80000786E287ED00CDC632817D004DC4128D7
:1042E80079D0582873D17AE064287FD06928F9D129
:1042F8007DE073282AD004DC6F286DD070287AD12D
:1043080050E0752876D0782875D16BE010202040D1
:10431800002808D104E020200490012104A8A8471F
:10432800701E061EF7DC0E980178001D0E90C8B2AC
:104338000490012104A8A84704E02020049001214A
:1043480004A8A847701E061EF7DCA7E00E980068B0
:1043580009900E98001D0E900998002801D159A0C7
:10436800099008990998FEF779FC07461020204023
:10437800002809D104E020200490012104A8A847BE
:104388003046761EB842F6DCB9B20998A84704E070
:1043980020200490012104A8A8473046761EB84280
:1043A800F6DC7BE0701C002802D1082601200443BB
:1043B8000898019400900E9802C833461022039181
:1043C8000E90284600F034F968E003E003E012E0BC
:1043D8000CE001E062E061E008200A9023E0402060
:1043E800044300BF10200A901DE003E000BF022034
:1043F800044300BF17E00D980078252804D0252035
:104408000490012104A8A8470D980078002806D038
:104418000D9800780490012104A8A84702E00D989F
:10442800401E0D903AE000BF07986C2806D10E9800
:1044380000680B900E98001D0E9025E007986828DC
:1044480011D102202040002806D00E9800680B9059
:104458000E98001D0E9017E00E9800680B900E98AD
:10446800001D0E9010E002202040002806D00E9873
:1044780000680B900E98001D0E9005E00E980068DD
:104488000B900E98001D0E900898334601940090EA
:1044980028460A9A0B9900F0CBF800BF0D98401CEB
:1044A8000D900D980078002800D076E60598002831
:1044B80006D0059881B20698A84700200690059076
:1044C8000FB0F0BD3C4E554C4C3E00001CB50220D0
:1044D80018490870012018490870FDF727FCFDF7F6
:1044E8002BFCFFF75BFAFFF78DF8144914A0FEF7D1
:1044F80073FD1948007819490978009101900D4811
:1045080003780D4802781648017816A0FEF764FD76
:10451800204A082120A0FEF75FFD01231B03A122EA
:1045280092001C492848FEF757FDFEF7AFFB002014
:104538001CBD00004A0AFF1F1C58FF1F0101030091
:1045480053444B2056657273696F6E204944202589
:10455800303878200A000000450AFF1F440AFF1F70
:104568004B0AFF1F7266436C6B20256420726343FD
:104578006C6B20256420737973436C6B2025642051
:1045880074704361705B2530327820253032785D55
:104598000A0000009C0D000073697A656F66287335
:1045A8007472756374206C6C5F706B745F64657390
:1045B8006329203D2025642C206275662073697A62
:1045C80065203D2025640A003457FF1F70B5054655
:1045D8000C46002C05D12246294605A0FEF7FCFC16
:1045E80004E0224629460AA0FEF7F6FC70BD00004A
:1045F80077616B657570286E6567293A6770696FB2
:104608003A256420747970653A25640A0000000030
:1046180077616B65757028706F73293A6770696F79
:104628003A256420747970653A25640A0000000010
:10463800FFB597B0054617461E46219C6848006896
:10464800039040202040002802D06648006803906C
:1046580010202040002801D064086400022F01DBEC
:10466800242F01DD1BB0F0BDE007C00F002801D0EA
:10467800302100E0202116910021159102202040D0
:10468800002818D01898002806DA2D2015901898B8
:1046980040421890761E0EE004202040002803D0E7
:1046A8002B201590761E06E008202040002802D016
:1046B80020201590761E20202040002806D0102F9C
:1046C80001D1B61E02E0082F00D1761E002002900C
:1046D8001898002806D130220298411C029104A99A
:1046E8000A5413E00FE039461898FDF7E3FA0398E7
:1046F800425C0298411C029104A90A543946189850
:10470800FDF7D8FA189018980028ECD1209902984B
:10471800884201DD029820902098361A1120204006
:10472800002809D104E020200190012101A8A84710
:104738003046761E0028F6DC10A8007D002802D03E
:10474800012115A8A84720202040002816D0082FAE
:1047580005D130200190012101A8A8470EE0102FB3
:104768000CD130210191012101A8A8471C480068FB
:10477800203041780191012101A8A847102020404C
:10478800002807D102E0012116A8A8473046761E66
:104798000028F8DC04E030200190012101A8A84796
:1047A8002098411E209102998842F4DC06E004A971
:1047B8000298085C0190012101A8A8470298411EAF
:1047C80002910028F3DC04E020200190012101A8D7
:1047D800A8473046761E0028F6DC00BF42E70000F6
:1047E8006858FF1F6C58FF1F10B500240420FDF700
:1047F800A9FA084908600422002106480068FDF764
:10480800A7FA2046641CFDF7A9FA2046FDF732FCFA
:1048180010BD00006458FF1F70B505460C46012CFA
:1048280005D12246294604A0FEF7D6FB02E00AA0DD
:10483800FEF7D2FB70BD000077616B65757028705C
:104848006F73293A6770696F3A25642074797065C7
:104858003A25640A000000006572726F720A00004F
:10486800F8B51E484168090601D50020F8BD416821
:10487800802211434160194D0A260027803DE869CE
:1048880040084000E8610620FDF790F9134CC03C51
:10489800A06980210843A061E86901210843E86113
:1048A80002E00820FDF782F9A86A800504D43046A2
:1048B800761EF6B20028F4D1002E07D0286A7E2191
:1048C800C70BA0690F4088433843A061A1698020C5
:1048D8008143A1613806400EF8BD0000C0F00040D9
:1048E80010B500F0A5FA044A0121582000F010FA8A
:1048F800FFF7B6FF10BD0000600AFF1F30B538484B
:1049080001680122920411430160416803221206E2
:104918009143344A13781B061943416043680321C5
:1049280089058B4330490C78A405234343604368C9
:104938006024234343601378022B08D01378012B9B
:1049480005D00B78022B02D00B78012B04D14368D9
:10495800FF240134234343601278032A02D00A78E3
:10496800032A03D1426880231A4342604268032322
:104978009B041A4342600B780122D2051B48002B86
:1049880003D11B4B1B78032B19D0C3689343C36017
:10499800164A184B4032D360FF2581351561164CF5
:1049A8005461164B9361114B80335D609C60144CCD
:1049B800DC60144B03600978002903D006E0C36863
:1049C8001343E4E701680123194301600E4909789C
:1049D8000E4BC906C90BC91881630D48D06130BD9B
:1049E80040F000404C0AFF1F4B0AFF1F80000340A5
:1049F8004A0AFF1FC00B00207A3E6A07000089049C
:104A080000808904CC240000480AFF1F2508000004
:104A18002FFCA601F8B505004A484B4B4B4C4C4AB5
:104A28004C4934D0022D32D086155710066286695B
:104A38009E43B31883612078002833D00F6146481D
:104A48000863464800780122120380184861414EE5
:104A5800404C434B803E403C002D27D06521414AC5
:104A6800C9024148012D2ED0022D31D0032D5AD034
:104A7800042D58D03D49691831603D49A160236033
:104A8800E06002210846FDF76FF93A482BE08026DE
:104A9800066286699E430123DB04F6188661207846
:104AA800002801D00A61CAE70B61C8E732483060C4
:104AB8000020A06023603148E06003210846FDF72C
:104AC80053F92F480FE02F4B3360A2602160D7E7DE
:104AD8002C4B5B1C3360A2602160E0600221084619
:104AE800FDF742F928482061F068FF210843F0608B
:104AF800264860612648A0612648E0612648206271
:104B0800264860622648A0622648E062264820635C
:104B180026486063E020012D0DD02168022D0ED0BB
:104B280081432160F8BD224BEB183360214B736041
:104B38002160A260A4E7216881432031F1E7814325
:104B48004031EEE7C000034000001C004B0AFF1F85
:104B5800000004008000034003000001440AFF1F16
:104B680000280B0055555537D6BE898E0080064261
:104B780055555500805508220080067807EE753691
:104B8800806608220180063D80450822A49C5C546A
:104B98004C44434241524C46403A342E28007F55FB
:104BA8004F49433D37312B4C46403A342E28221C7E
:104BB80000800698545A9850F0B5224B214D21494F
:104BC8008026204A0727BF04403BC03DE0248039A7
:104BD80002281662966914D0BE430127BF04F6194D
:104BE8009661194A1278002A1ED07A101A61012893
:104BF8001ED0164A80182860154808610868A04326
:104C080014E00120BE43C004361896610E4A12789B
:104C1800002A00D0401018610E4828600E4808612C
:104C28000868A043403001E01F61E0E70860F0BD7C
:104C38000848401E2860094808610868A0432030D9
:104C4800F4E70000C00003404B0AFF1F00800698ED
:104C5800805508220280063D804508228066082289
:104C680010B50A4900200870094902200870FFF7AA
:104C780045FE0848007800F011F8074C2078FFF747
:104C8800C9FE2078FDF776F810BD00004B0AFF1F1B
:104C98004C0AFF1F480AFF1F490AFF1FF0B51A4AAE
:104CA80003230725D60019499B026024ED015769A3
:104CB8003F281AD0B74305263604BE195661CA687C
:104CC8009A43CB14D218CA60CA69A2432032CA6177
:104CD800CA69AA43CA610D4940398A6BC0061205E0
:104CE800120DC00B02438A63F0BDB7430126B60418
:104CF800BE195661CA689A43CA60CA69A243CA61A2
:104D0800CA69AA438032E5E700F00040C0000340CA
:104D1800F8B53A4B5D6A9C6A00265E629E62384B23
:104D280058630E2018629E155E62402098625020DB
:104D3800D862FF202B30586231484030012915D005
:104D4800802101622F49FF232D48A533403083601D
:104D58002D4B43602A4B2D48403B18617D20C000F5
:104D68000090471E009705D33846FAE706622549A2
:104D78008331E8E7264889050F18214840388763BA
:104D8800234B5B1CC9188163224800902248007895
:104D98000300FCF7F5FF05040408060D08001F488A
:104DA80000E01F4800901F4810601548403005E09B
:104DB8001D48F7E7C16AC943890F14D000994B1EF3
:104DC8000093F7D20E4940398F630D4900228A6259
:104DD800CA6282604E620A62FF2041304862074818
:104DE80045628462F8BDC16A104B194011601168B0
:104DF8000122090C120489184160E3E700100340FE
:104E080080000340CA0200002020000080560C20C9
:104E180064652100102700004A0AFF1F204E000089
:104E28003075000000002020409C0000FFFF3F3F3D
:104E380000B50021022000F021F80C49801C087000
:104E48000021422000F01AF80949801C087001214D
:104E5800022000F013F80749801C08700121422045
:104E680000F00CF80449801C087000BD440AFF1FBC
:104E7800450AFF1F460AFF1F470AFF1FF8B53B4CAC
:104E8800394A2260394D394A07239B04803540321C
:104E98000129A9690ED0994301239B04C918A96166
:104EA8003349D16033490B780121C905324E002BB3
:104EB80007D009E099430123DB04C918A9612F49E8
:104EC800EFE73378032B14D0D3688B43D360506358
:104ED8000E20106200275762FF20153050622848C4
:104EE800009030780300FCF74BFF0507070D090B0E
:104EF8000D00D3680B43E9E7224802E0224800E0AE
:104F0800224800900098431E0093FBD2686B5762BA
:104F18000002000E17621E4BD360FF234133536219
:104F28006523DB0223601B4D2F78E023012F0AD075
:104F38002D78022D25680AD09D4325600D4B1B78DE
:104F4800002B07D009E025689D432035F5E79D43F0
:104F58004035F2E73378032B03D0D3688B43D36013
:104F6800F8BDD3680B43FAE7100003004000034084
:104F78007F4073004B0AFF1F4A0AFF1F7F40530000
:104F880010270000204E000030750000409C0000F3
:104F980040401000490AFF1F0146002008E00B6846
:104FA8005A1C0A601B780A2242439A181046303865
:104FB8000A681278302A03DB0A681278392AEEDD8B
:104FC8007047000038B504460B461F49012C00D134
:104FD8001E490020009007E00098451C00951C4DD4
:104FE800A84201DD0D2038BDC86FC007C00F0028DA
:104FF800F2D112E00020009007E00098451C0095CF
:10500800134DA84201DD0D20EDE7087D202528403D
:105018000028F2D0187808705B1C1046551EAAB2FA
:105028000028E7D1009007E00098451C0095084D3E
:10503800A84201DD0D20D6E7087D4025284000283C
:10504800F2D00020CFE70000004000400090004070
:10505800A0860100F7B582B00746154678013249A7
:105068004018041D314E002D02D00398002802D1AB
:10507800062005B0F0BD2078002801D10320F8E70C
:10508800E088A84201DA0320F3E72078012816D047
:10509800A0884019E188884201DD0320E9E7FCF790
:1050A8009BFCA288A16888182A460399FCF76EFE23
:1050B800A0884019A080FCF7A1FC0020D9E72A4667
:1050C800A0680399FCF762FEA5800020608002209A
:1050D8002070A0680190102D01DD102000E0284606
:1050E8000546012F00D1124E706802218843706076
:1050F80005E06188481C60800198405C3070284653
:10510800691E8DB20028F4D1002F03D10820FEF7C4
:1051180033FB02E01920FEF72FFB706802210843D9
:1051280070600020A5E700003C7AFF1F00400040A7
:1051380000900040F8B5054608270B26234C012DA2
:1051480002D119271126224C3046002815DBC20649
:10515800D20E012191401F4A116000BF00BF00BF5D
:10516800BFF34F8F00BF00BF00BF00BF00BF00BF2D
:10517800BFF36F8F00BF00BF00BF00BF6901164AB1
:105188008918087C0021FCF707FE6901124A891872
:10519800487C0021FCF700FE80202073002020714D
:1051A80020702073207260603846FEF72DF938466B
:1051B800FEF7DAF8002D03D100200849C86203E0A1
:1051C80000200649403148600020F8BD00400040FA
:1051D8000090004080E100E03C7AFF1F8003FF1F41
:1051E800F0B585B00646FCF7DDFD0490494C082073
:1051F80003900B2002900420019005200090304677
:10520800FFF798FF012E08D1434C19200390112075
:105218000290082001900920009070013F49401831
:10522800007CFF2807D170014018407CFF2802D17C
:10523800062005B0F0BD7001384940180546103504
:105248000398FEF7B9F80398FEF7DEF828780221EC
:10525800FCF7EEFC68780221FCF7EAFC2878019953
:10526800FCF7A6FD68780099FCF7A2FD00202073E2
:10527800049A12116B685B08D0186968FCF71AFD6C
:10528800074600202061802020733846FF2109024C
:105298000840000A20712770E87A002802D01B20F5
:1052A800207301E003202073287A002802D0872089
:1052B800207201E00020207201206060287A002816
:1052C80003D06068802108436060A87A002803D072
:1052D8006068022108436060002E03D1104811491C
:1052E800C86203E010480F49403148600221029823
:1052F800FDF78EFA0298002809DB00BF00BFC2063E
:10530800D20E01219140094A116000BF00BF00BFC1
:1053180000208EE700400040009000403C7AFF1FCC
:10532800991FFF1F8003FF1F4B1FFF1F00E100E0B5
:1053380000B585B00F4B0FCB049301AB07C3002119
:105348000520FCF729FD00210620FCF725FD012199
:105358000820FCF767FC00210920FCF763FC00200B
:10536800009001A80FC8FEF7BDFB03A0FDF734FEAF
:1053780005B000BDFC56FF1F75617274206E65771D
:1053880020706F72742E2E2E0A00000010B50020B7
:10539800FFF726FF10BD10B50120FFF721FF10BD54
:1053A800F8B5614C60688030806880F30888FCF745
:1053B800BDFC5E485E4900680225884206D0002090
:1053C800FCF71EFC68070169A943016100F0D6F8E3
:1053D80058480078FCF7CEFC574E0020F061F56184
:1053E800564D75610120FCF7E1FB0320F061FCF7E5
:1053F80001FC0746FCF750FB0646FCF7FBFB50494F
:105408000860FFF72DFC4F480068874201D9381A19
:1054180001E0381A401E4C49884200D908406168AA
:105428008A8DD20709D0494A030C126880B25343C7
:1054380050431B02000A18180BE0C2018300D21A5D
:105448004300D21AC3001818921C80309208400AF0
:1054580010182062FF313E48013149680068091878
:105468003C480068081A41198B083B488A073B49A1
:1054780003600D68920F52190A60042A04D95B1C54
:105488009207920F03600A60216A354FC81839469F
:10549800FCF710FC02463348334D0368D318036009
:1054A8002A688A182A60BA4206D95B1C0360394602
:1054B8001046FCF7FFFB2960FCF780FC2B480078BE
:1054C800002810D0FCF7E8FA294A216A801B1268E4
:1054D8000B18934202D2511A091A01E07D21C90022
:1054E8001548FCF771FC234D287A002811D0FCF7E9
:1054F800D3FA811B236A1048EA685C183C30A24240
:1055080002D9D21A511A00E01B49FCF75DFC0020B1
:105518002872FCF75FFC0220FCF7C4FA0020FCF7B5
:105528006FFBFCF755FBF8BDB858FF1F0C0AFF1FAF
:10553800B6412103490AFF1F00100040C4090000BA
:10554800100AFF1F340AFF1FFFFF3F00380AFF1F22
:105558001C0AFF1F200AFF1F240AFF1F280AFF1F1B
:10556800710200006008FF1F2C0AFF1F1C09FF1FA3
:10557800E408FF1F740BFF1FDC050000F8B5FDF7FA
:1055880067FDFDF709FA0120404E00903078404C45
:10559800022810D0FCF72EFB05463220FCF706FB4C
:1055A800FDF796FB0F20FCF701FB3078012808D0A7
:1055B800FDF73AFC1AE037484068006AFCF7F6FA4B
:1055C80024E033484038C06B4007400F012802D11F
:1055D8000020FCF739FB6068FF270137B84360609B
:1055E8000220FCF7E3FA606838436060FCF702FBCE
:1055F800A84201D3401B01E0401B401E25491E2242
:10560800C8615043244A49688018C861244923481E
:105618000860234823498030C163FF21413141623A
:105628003078FCF711FB20492048FCF7CDFB1F48D8
:105638001F491430FCF7C8FB0420FDF78FF814202D
:10564800FDF78CF81520FDF789F81720FDF786F887
:10565800FF20FCF765FB0120FCF7C2FBFF20F530BB
:10566800FCF7C4FB5820FCF76BFA1248FCF7C4FBA4
:105678000098FCF7C7FB0720FCF7CAFBE0690E4956
:105688000840FF300930E061F8BD00004A0AFF1FFA
:1056980040F00040B858FF1F720600000180063D28
:1056A800000003403408000071020000141000409C
:1056B800FFFF3F003075000000FEFEFF0200030000
:1056C800050206020703080309030A000C030D0379
:1056D8000003010304030B000E030F03100311035F
:1056E800120313031403150316030000000000003F
:1056F8003B0001080809FFFF00C20100010000008B
:1057080000000000F1590000B121FF1F0200000055
:105718000506FFFF00C201000100000000000000B4
:1057280003000000000000000000000073697A65B3
:105738006F6628675F70436F6E6E656374696F6E1E
:1057480042756666657229203D2025642C207369A0
:105758007A656F662870436F6E6E436F6E746578F6
:105768007429203D2025642C2073697A656F66288A
:105778006C6172676548656170293D2564200A007F
:10578800303132333435363738394142434445466F
:105798004748494A4B4C4D4E4F5051525354555619
:1057A8005758595A000000003031323334353637F3
:1057B80038396162636465666768696A6B6C6D6EC7
:1057C8006F707172737475767778797A000000005B
:1057D8005048592B36325858504C55533035303480
:1057E800000000000004FF1FF058FF1F0C0000001D
:1057F8008029FF1FF058FF1F0004FF1F000400004E
:105808007C19FF1FF058FF1FF058FF1F702600007B
:105818009029FF1F000000000000000000000000A9
:105828000800000000000000000000000000000068
:1058380000000000080000002148FF1FD545FF1F99
:105848000E0000002148FF1FD545FF1F1300000070
:105858002148FF1FD545FF1F000000000000000081
:10586800B057FF1F8857FF1F02000000000000000C
:10587800882108005902E001000000000000000033
:105888000000FF0FFF0FFFFF070E0F08090DFF00B5
:10589800040000003B0001080000000000000000B8
:1058A80000000000000000000000080040787D01B2
:1058B80000000000000000000000000000000000E0
:1058C80000000000000000000100000000000000CF
:1058D80000000000D857FF1F000000000000000073
:0858E8000000000000000000B8
:040000051FFF18F9C8
:00000001FF
