:020000040800F2
:1000000080280020AD010008FF0F00083111000812
:1000100073110008930200089335000800000000E7
:100020000000000000000000000000004D14000867
:10003000350D0008000000001512000865150008C5
:10004000C7010008C7010008C7010008C701000870
:10005000C7010008C7010008C7010008C701000860
:10006000C7010008C7010008C7010008C701000850
:10007000C7010008C7010008C7010008C701000840
:10008000C7010008C7010008C7010008C701000830
:10009000C7010008C7010008C7010008C701000820
:1000A000D1150008C7010008C7010008C7010008F2
:1000B000C7010008C7010008C7010008C701000800
:1000C000C7010008C7010008C7010008C7010008F0
:1000D000C7010008C7010008C7010008C7010008E0
:1000E000C7010008C7010008C7010008C7010008D0
:1000F000C7010008C7010008C7010008C7010008C0
:10010000C7010008C7010008C7010008C7010008AF
:10011000C7010008C7010008C7010008C70100089F
:10012000C7010008C7010008C7010008C70100088F
:10013000C7010008C7010008C7010008C70100087F
:10014000C7010008C7010008C70100080512000820
:10015000C7010008C7010008C7010008C70100085F
:10016000C7010008C7010008C7010008C70100084F
:10017000C7010008C7010008C7010008C70100083F
:10018000C7010008C7010008DFF80CD000F044F8F0
:1001900000480047C74800088028002030BF72B6DA
:1001A000704762B6704780F30888704706488047FA
:1001B00006480047FEE7FEE7FEE7FEE7FEE7FEE74C
:1001C000FEE7FEE7FEE7FEE7691500088901000883
:1001D00040EA01039B0703D009E008C9121F08C0C9
:1001E000042AFAD203E011F8013B00F8013B521E49
:1001F000F9D27047D2B201E000F8012B491EFBD2C0
:1002000070470022F6E710B513460A460446194621
:10021000FFF7F0FF204610BD064C074D06E0E068F2
:1002200040F0010394E8070098471034AC42F6D33D
:10023000FFF7AEFF288100084881000870B58C18D0
:1002400010F8015B15F0070301D110F8013B2A11EA
:1002500006D110F8012B03E010F8016B01F8016BD7
:100260005B1EF9D12B0705D40023521E0DD401F8D3
:10027000013BFAE710F8013BCB1A921C03E013F89C
:10028000015B01F8015B521EF9D5A142D8D30020D1
:1002900070BD00BFFEE770B506460C4604F0800056
:1002A000802808D104F07F0000EB800106F58E70F5
:1002B00000EBC10507E004F07F0000EB800106F5CC
:1002C0005D7000EBC10504F07F00287004F0800031
:1002D000C00968702946304602F013FE002070BD48
:1002E00070B506460C4604F08000802808D104F062
:1002F0007F0000EB800106F58E7000EBC10505E084
:1003000004EB840106F55D7000EBC1050020A870C8
:1003100004F07F002870C4F3C0106870294630468E
:1003200002F0C7FD002070BD70B505460C4604F014
:100330008000802805D104F07F01284602F0E0FF0C
:1003400002E0284602F0B6FF002070BD2DE9F04122
:1003500006460D4690461F4605F08000802808D1CD
:1003600005F07F0000EB800106F58E7000EBC10404
:1003700007E005F07F0000EB800106F55D7000EB03
:10038000C10405F07F00207005F08000C009607096
:10039000C4F80880E770607808B12078E080022F08
:1003A00001D1002020712146304602F036FD0020A8
:1003B000BDE8F0812DE9F04105460E461746984606
:1003C00006F07F0000EB800105F55D7000EBC104D5
:1003D000E760C4F814800020A061607006F07F0020
:1003E0002070E878012800D12761207820B92146C3
:1003F000284602F036FC03E02146284602F0E2FDE2
:100400000020BDE8F08108B500220092009A61F357
:100410000A12009202691268009B1A4303691A606B
:1004200008BD70B506460C4604F08000802808D14F
:1004300004F07F0000EB800106F58E7000EBC10533
:1004400005E004EB840106F55D7000EBC1050120B9
:10045000A87004F07F002870C4F3C01068702946AB
:10046000304602F07DFD002070BD2DE9F0410746C9
:100470000D461646984605F07F0000EB800107F513
:100480008E7000EBC1040120607005F07F002070C9
:10049000E66026610020A061C4F81480207820B9AD
:1004A0002146384602F0DDFB03E02146384602F0E3
:1004B00089FD0020BDE8F08130B587B00546594C74
:1004C000284602F094FB01A800F016FF029CE868A1
:1004D000C0680590059820F4705005900598E9686B
:1004E000C860284602F036FF03280BD10020A87010
:1004F0004FF40070A880059820F4705000F510505B
:1005000005907EE00120A8704020A88046488442E3
:1005100009D34648844206D2059820F4705000F56D
:10052000605005906DE04148844209D340488442C0
:1005300006D2059820F4705000F55050059060E008
:100540003B48844209D33B48844206D2059820F4B4
:10055000705000F54050059053E03648844209D36E
:100560003548844206D2059820F4705000F530508A
:10057000059046E03048844209D33048844206D290
:10058000059820F4705000F52050059039E02B4874
:10059000844209D32A48844206D2059820F4705038
:1005A00000F5105005902CE02548844209D32548D9
:1005B000844206D2059820F4705000F50050059052
:1005C0001FE02048844209D31F48844206D2059880
:1005D00020F4705000F5E050059012E01A48844273
:1005E00009D31A48844206D2059820F4705000F5C9
:1005F000C050059005E0059820F4705000F5A0501B
:1006000005900598E968C86000200690069820F4D7
:10061000005000F5005006900698E96848610120F6
:1006200007B030BD007A030AC0E1E4000024F40002
:10063000E0EC040100C31801002D310140A44C017D
:1006400000366E0140E2950180C3C90160600B0273
:10065000F8B50546002400200090284602F0BBFEB5
:10066000064681E006F0010000287BD0E1B2284672
:1006700000F0F6FA0090009800F0010030B301207D
:1006800000FA04F72869406BB843296948630020E1
:100690000090009820F00100401C009005F1180027
:1006A00050F8240000998160E1B232480068426845
:1006B00028469047E878012808D13CB940F211104B
:1006C000405D042802D1284602F076FB0098C0F372
:1006D000C00060B100200090009820F008000830B1
:1006E000009005F1180050F82400009981600098EE
:1006F000C0F3001060B100200090009820F01000BE
:100700001030009005F1180050F824000099816025
:100710000098C0F3801060B100200090009820F095
:1007200040004030009005F1180050F82400009976
:1007300081600098C0F3400060B1002000900098F4
:1007400020F00200801C009005F1180050F82400F1
:10075000009981600098C0F3C01018B12146284666
:1007600000F092FA641C7608002E7FF47BAF012023
:10077000F8BD0000640200207CB50446002500207E
:100780000190204602F02FFE06466FE006F00100C1
:10079000002869D0E9B2204602F02DFE01900198B0
:1007A00000F00100C8B300200190019820F0010082
:1007B000401C019004F1540050F82500019981601B
:1007C000E078012817D104F1540050F825000069A1
:1007D000009005EB850104F55D7000EBC1008068B9
:1007E0000099C1F31201411A05EB850204F55D7011
:1007F00000EBC2008161E9B21E4800680268204631
:100800009047E078012808D13DB940F21110005D11
:10081000052802D1204602F0CFFA0198C0F340002B
:1008200060B100200190019820F00200801C01902E
:1008300004F1540050F82500019981600198C0F33B
:10084000C00088B10B4800688168204688470020B6
:100850000190019820F008000830019004F1540044
:1008600050F82500019981606D1C7608002E8DD10D
:1008700001207CBD640200203EB50446A07A78B118
:10088000D4F80C0100680090009820F0020000905D
:10089000009820F0010000900099D4F80C0101604C
:1008A00000200190019820F00100401C0190206977
:1008B0004068019988432169486009480068816956
:1008C0002046884700200290029820F0004000F166
:1008D000004002900298E168486101203EBD00009E
:1008E000640200207CB5044600200190019820F0AD
:1008F000100010300190E068806901998843E16838
:100900008861E068006A0090009800F00F0000EB3A
:10091000800104F55D7000EBC1050098C0F3434011
:1009200007282DD2DFE800F02C04051D1E2C1F0027
:1009300027E00098C0F30A1090B10098C0F30A12A3
:100940002046E96802F061FDE8680099C1F30A11E8
:100950000844E860A8690099C1F30A110844A86135
:100960000FE00EE00DE0082204F2CC51204602F028
:100970004CFDA8690099C1F30A110844A86100E080
:1009800000BF00BFE068806901990843E1688861A1
:1009900001207CBD38B5044608480068C16820467F
:1009A000884700200090009820F008000830009050
:1009B0000098E1684861012038BD00006402002011
:1009C0001FB50446002000904FF48970005D009030
:1009D0002348006841692046884720698068019063
:1009E00000200390039820F4006000F5006003905D
:1009F0000398E1684861A07A70B3019800F00100A3
:100A000050B340F21510005D012825D19DF800007B
:100A1000032821D100200290029820F00100401C00
:100A20000290D4F80C01006802990843D4F80C1124
:100A30000860029820F00200801C0290D4F80C019B
:100A4000006802990843D4F80C1108600548006852
:100A500040F0060003490860012004B010BD00000A
:100A60006402002010ED00E030B587B0044600209D
:100A7000029006900590049003900190029820F057
:100A80000100401C02902069406802998843216956
:100A900048600021204602F033FC00250BE0FF21D6
:100AA00004F1180050F82500816004F1540050F85A
:100AB000250081606D1C6078A842F0D84FF0FF31AE
:100AC0002069816106986FF30F00401C069006981C
:100AD00080B200F58030069006992069C1610598C2
:100AE00020F0080008300590059820F00100401C17
:100AF0000590059820F00200801C0590059920695A
:100B00004161049820F00100401C0490049820F0FA
:100B1000080008300490049820F00200801C049023
:100B2000049920690161206900680390039820F40A
:100B3000FE600390039920690160204602F03CF9B1
:100B400000200190019820F4805000F58050019021
:100B50000198E168486104480068016920468847B7
:100B6000012007B030BD0000640200202DE9F041F3
:100B700006460F463946304602F05CFC01214FF430
:100B8000897081550021801C8155002511E005EBFD
:100B9000850106F58E7000EBC104012060702570A0
:100BA000E5800020E0704020A0600020E0606061EF
:100BB0006D1C7078A842EAD8002510E005EB85018D
:100BC00006F55D7000EBC104002060702570E580C3
:100BD000E0704020A0600020E06060616D1C7078D3
:100BE000A842EBD8304601F0F1FF304601F022FE7A
:100BF0000021304602F086FC304601F0AAFE304665
:100C000002F046FBBDE8F08138B5044600200090B4
:100C100007480068C16920468847009820F4801082
:100C200000F5801000900098E1684861012038BD0F
:100C30006402002038B50446002000900748006890
:100C4000016A20468847009820F4001000F5001043
:100C500000900098E1684861012038BD64020020DE
:100C600030B5024615692B6915696C6B24FA01F5DC
:100C700005F0010543EAC51302F1180555F82150A6
:100C8000AD6805EA030030BD2DE9F84306460F467E
:100C900000250020009007EB870106F58E7000EB21
:100CA000C104D4E90501451AA068A84200D2A5688C
:100CB000E81C4FEA900806F1180050F827008069F8
:100CC000009029E0D4E90501451AA068A84200D2A5
:100CD000A568E81C4FEA9008ABB2FAB23046E1686A
:100CE00002F037FCE0682844E060A0692844A06175
:100CF00006F1180050F8270080690090D4E905013A
:100D0000884209D12178012000FA01F93069406B4D
:100D100020EA090031694863009880B2404506D94D
:100D2000D4E90510884202D260690028CAD10120A6
:100D3000BDE8F88370470000014908607047000073
:100D40000C3C024030B10749096841F48061054A12
:100D5000116005E00349096821F48061014A1160CE
:100D600070470000003C024070B504460A46002669
:100D7000092502B909E0012A01D1160205E0022A7B
:100D800001D1160201E04FF4407600F09FF80546CD
:100D9000092D28D11548006820F4407013490860D7
:100DA00008460068304308600846006820F0F800F4
:100DB00008600846006844F0020108430B490860D7
:100DC0000846006840F48030086000F07FF805466F
:100DD0000648006820F002000449086008460068E0
:100DE00020F0F8000860284670BD0000103C02406A
:100DF00009201349096801F48031B1F5803F01D120
:100E000001201CE00E49096801F0100109B106201B
:100E100015E00B49096801F4807109B102200EE068
:100E20000749096801F0EF0109B1072007E004490B
:100E3000096801F0020109B1082000E009207047AB
:100E40000C3C02400348006840F000400149086043
:100E500070470000103C024030B502460C460925A0
:100E600000F034F80546092D19D10E48006820F429
:100E700040700C4908600846006840F40070086043
:100E80000846006840F001000860146000F01EF899
:100E900005460448006820F0010002490860284621
:100EA00030BD0000103C02400548006800F00040E2
:100EB00028B1044802490C390860034808607047AB
:100EC000103C024023016745AB89EFCD08B50920EE
:100ED0000090FFF78DFF009002E0FFF789FF009080
:100EE0009DF800000128F8D09DF8000008BD000022
:100EF00051B18200A2F1C042126842F001038200A7
:100F0000A2F1C042136009E08200A2F1C04212685F
:100F1000034B1A408300A3F1C0431A6070470000DE
:100F2000FEFF0F00F0B50A4600210023002400BF99
:100F30003DE0012505FA01F3156805EA03049C422A
:100F400034D105684F000326BE40B54305601579CE
:100F50004E00B5400668354305601579012D02D075
:100F60001579022D16D185684F000326BE40B54382
:100F7000856055794E00B540866835438560456883
:100F800001268E40B5434560456896798E40B6B2DD
:100F900035434560C5684F000326BE40B543C56074
:100FA000D5794E00B540C6683543C560491C102947
:100FB000BFD3F0BDF0B5002300244D07ED0E02FABB
:100FC00005F3CE1000F1200555F826504E07F70E18
:100FD0000F26BE40B543CF1000F1200646F827503B
:100FE000CE1000F1200555F8265045EA0304CE1036
:100FF00000F1200545F82640F0BD01837047704799
:101000000100D0E901121143C26811430269114382
:101010004269114382691143C2691143026A114353
:10102000426A1143826A1143C26A1143026B11433F
:1010300002689200A2F1C0421160816808290BD1B8
:1010400001688900A1F1C041096841F040020168CE
:101050008900A1F1C0410A60416B0968426B526886
:1010600041EA0211426B926841EA0221426B928985
:1010700041EA0241426B128A41EA0251426B127DFF
:1010800041EA0261426B926911430268521C92006C
:10109000A2F1C0421160C16AB1F5804F1BD1816BD2
:1010A0000968826B526841EA0211826B926841EAD8
:1010B0000221826B128A41EA0251826B127D41EA5F
:1010C0000261826B9269114302689200A2F1C042F0
:1010D000C2F8041107E06FF0704201688900A1F1C5
:1010E000C041C1F8042170470246002013690B403B
:1010F0000BB1012000E000207047000070B50A48E5
:101100000468001D0568001D0668344454B10822B7
:101110000649204600F00EF8042204491031284602
:1011200000F008F870BD0000107AFF1FFA010020DF
:1011300000BFFEE730B50B46002100BF16E00A24D1
:10114000B4EB107F05D9302404EB107403F8114080
:1011500005E0412404EB10740A3C03F8114000013F
:1011600000254C00641C1D554C1CE1B29142E6DB8D
:1011700030BD00BFFEE7000070B5002100230F2244
:10118000C4781CB3174C246804F4E064C4F5E0642C
:10119000C4F30721C1F10404E3B20A4144789C403E
:1011A000E1B28478144021430C07210E0E4C0578DF
:1011B0006155047804F01F050124AC4005786D11D9
:1011C000AD0005F1E025C5F8004109E0047804F020
:1011D0001F050124AC40054D0678761145F82640E0
:1011E00070BD00000CED00E000E400E080E100E0F4
:1011F00002490143024A1160704700000000FA05ED
:101200000CED00E010B5024800F0F2FE10BD000049
:10121000C80B00207047000029B1064A126802433B
:10122000044B1A6004E0034A12688243014B1A60BF
:10123000704700003038024029B1064A1268024364
:10124000044B1A6004E0034A12688243014B1A609F
:10125000704700003438024029B1064A1268024340
:10126000044B1A6004E0034A12688243014B1A607F
:10127000704700003838024029B1064A126802431C
:10128000044B1A6004E0034A12688243014B1A605F
:10129000704700004038024029B1064A12680243F4
:1012A000044B1A6004E0034A12688243014B1A603F
:1012B000704700002038024029B1064A12680243F4
:1012C000044B1A6004E0034A12688243014B1A601F
:1012D000704700004438024029B1064A12680243B0
:1012E000044B1A6004E0034A12688243014B1A60FF
:1012F0007047000024380240F0B50021002200248D
:10130000022500260223324F3F6807F00C0121B16D
:10131000042905D0082937D105E02E4F076036E0B3
:101320002C4F076033E02A4F3F1F3F68C7F38056BA
:10133000274F3F1F3F6807F03F036EB1254FB7FBB4
:10134000F3F7DFF88CC0ACF1040CDCF800C0CCF390
:10135000881C07FB0CF40CE01E4FB7FBF3F7DFF81B
:1013600070C0ACF1040CDCF800C0CCF3881C07FBA7
:101370000CF4174F3F1F3F68C7F301477F1C7D00E8
:10138000B4FBF5F7076002E0124F076000BF00BF33
:101390000F4F3F6807F0F00109090F4F7A5C0768AB
:1013A000D74047600A4F3F6807F4E051890A0A4F67
:1013B0007A5C4768D7408760054F3F6807F4604113
:1013C000490B054F7A5C4768D740C760F0BD000005
:1013D000083802400024F400AC01002021B102884A
:1013E00042F04002028004E002884FF6BF731A40C8
:1013F000028070470246002013890B400BB1012088
:1014000000E000207047014688897047818170475D
:1014100010B50022028802F441520B884C88234305
:101420008C882343CC8823430C8923434C89234352
:101430008C892343CC8923431A430280838B4FF248
:10144000FF74234083830B8A038210BD7047000022
:101450000CB50020019000903448006840F48030C2
:101460003249086000BF3148006800F40030009045
:101470000198401C0190009818B90198B0F5A04F50
:10148000F1D12A48006800F4003010B1012000902A
:1014900001E0002000900098012846D12348403008
:1014A000006840F0805021494031086020480068C1
:1014B00040F440401E4908601C48083000681B4941
:1014C000083108600846006840F40040086008469B
:1014D000006840F4A05008601648091F0860081F03
:1014E000006840F08070091F086000BF0F48006866
:1014F00000F000700028F9D040F205700E49086035
:101500000A480830006820F00300084908310860E4
:101510000846006840F00200086000BF0348083039
:10152000006800F00C000828F8D10CBD003802401B
:1015300000700040082A4007003C0240042808D1FF
:101540004FF0E021096941F004014FF0E022116100
:1015500007E04FF0E021096921F004014FF0E0229B
:10156000116170477047000010B51548006840F4DD
:101570007000134908601348006840F001001149E9
:10158000086000200F49083108600E4800680E49C5
:1015900008400C4908600D48091D0860081F0068D4
:1015A00020F48020091F0860002006490C310860E3
:1015B000FFF74EFF4FF0005001498039086010BD21
:1015C00088ED00E000380240FFFFF6FE10300024F6
:1015D00010B50121084800F0EBF801280AD10748AE
:1015E0000068401C0549086001F0FEFF0121024827
:1015F00000F006F810BD000000400140A0010020EE
:10160000CA430282704721B1028842F0010202807F
:1016100004E002884FF6FE731A4002807047000013
:1016200010B504465548844208D101210846FFF709
:1016300053FE00210120FFF74FFE9DE0B4F1804FE3
:1016400008D101210846FFF727FE00210120FFF7FE
:1016500023FE91E04A48844208D101210220FFF78D
:101660001BFE00210220FFF717FE85E0454884425B
:1016700008D101210420FFF70FFE00210420FFF70D
:101680000BFE79E04048844208D101210820FFF791
:1016900003FE00210820FFF7FFFD6DE03B48844278
:1016A00008D101211020FFF7F7FD00211020FFF7DE
:1016B000F3FD61E03648844208D101212020FFF784
:1016C000EBFD00212020FFF7E7FD55E03148844283
:1016D00008D101210220FFF7FFFD00210220FFF7C2
:1016E000FBFD49E02C48844209D101210804FFF7A1
:1016F000F3FD00214FF48030FFF7EEFD3CE027487A
:10170000844209D101214804FFF7E6FD00214FF48E
:101710000030FFF7E1FD2FE02148844209D101218B
:101720008804FFF7D9FD00214FF48020FFF7D4FD96
:1017300022E01C48844208D101214020FFF7ACFD83
:1017400000214020FFF7A8FD16E01748844208D189
:1017500001218020FFF7A0FD00218020FFF79CFDE4
:101760000AE01248844207D101218015FFF794FD59
:101770000021A015FFF790FD10BD00000000014002
:101780000004004000080040000C00400010004031
:1017900000140040000401400040014000440140AA
:1017A0000048014000180040001C0040002000409C
:1017B00030B50246002000230024158A05EA010303
:1017C000958905EA010413B10CB1012000E0002065
:1017D00030BD1AB183890B43838102E083898B4337
:1017E0008381704700220288184B98420ED0184B14
:1017F00098420BD0B0F1804F08D0164B984205D0DC
:10180000154B984202D0154B984204D14FF68F7376
:101810001A404B881A43124B984207D0114B9842FA
:1018200004D04FF6FF431A400B891A4302804B68DD
:10183000C3620B880385054B984202D0044B984243
:1018400001D18B7A03860123838270470000014017
:10185000000401400004004000080040000C00406B
:10186000001000400014004070B504460D46812170
:101870002046FEF759FD00200149087070BD0000A8
:101880003002002070B505460E464023154A8121DE
:101890002846FEF78FFD00241FE01248015D124824
:1018A000B0F80222B0F80202401C0F4BA3F802026B
:1018B000C2F308001A4611541046B0F8020211464D
:1018C000B1F80012884206D11046B0F80002401C60
:1018D0001146A1F80002601CC4B2402CDDD30020E8
:1018E00070BD0000402400203C12002070B504466A
:1018F0000D4681212046FEF7CEFC01212046FEF751
:10190000CAFC002070BD0000024629200880014862
:1019100070470000B802002070B504460D4603234E
:10192000402281212046FEF711FD032340220121A0
:101930002046FEF70BFD4023034A01212046FEF717
:1019400039FD002070BD00004024002070B506461F
:101950000C4615464FF48970805D032805D12B464F
:10196000224681213046FEF780FD002070BD000038
:101970002DE9F04105460C4600260027B0462078A8
:1019800000F06000002837D020286BD16078801EDE
:101990000A2828D2DFE800F0140927272727271A6A
:1019A0000F05A0783149086024E001222F4928461C
:1019B00000F0F1F81EE0608800122D49086019E07F
:1019C00001222B49284600F0E6F813E001202949BE
:1019D0000860A07828490870A67932462749284629
:1019E00000F0B0F806E02146284600F09CF80220FE
:1019F000BDE8F08100BF35E06078062804D00A28F1
:101A000025D00B282DD128E060882221B1EB202F92
:101A100009D1E0881B2801DD1B2000E0E088074693
:101A2000DFF85C800DE060882121B1EB202F08D128
:101A3000DFF85080E088092801DD092000E0E08817
:101A400007463A464146284600F0A5F809E001223B
:101A50000D49284600F09FF803E0A0780A49086085
:101A600000BF00BF00BF0020C2E70000B00200209E
:101A7000B4020020A8020020A4020020402400207C
:101A8000E1020020CA020020AC02002070B504462A
:101A90000D46D4F8E40529464268204690470020C8
:101AA00070BD70B504460D464FF48970005D022884
:101AB00002D0032812D100E000BF688801280CD1B1
:101AC00000214FF48C700151D4F8E4052946826856
:101AD00020469047204600F075F804E0294620464D
:101AE00000F021F800BF00BF70BD2DE9F0410646AF
:101AF0000C46154600272B46224600213046FEF7AD
:101B000059FC3846BDE8F0812DE9F04106460C4607
:101B1000154600272B46224600213046FEF7A5FC3D
:101B20003846BDE8F08170B504460D468021204658
:101B3000FEF777FC00212046FEF773FC204601F0FB
:101B40003BF970BD2DE9F04104460E4615460027CD
:101B5000C4F89453C4F89053032140F21110015576
:101B60002B46324600212046FEF724FC3846BDE8CD
:101B7000F08170B504460025052140F21110015591
:101B800000231A4619462046FEF714FC204601F0B1
:101B900013F9284670BD2DE9F04104460E4615465E
:101BA0000027C4F83C51C4F83851022140F211100A
:101BB00001552B46324600212046FEF756FC38469A
:101BC000BDE8F08170B504460025042140F21110F3
:101BD000015500231A4619462046FEF746FC2046CA
:101BE00001F0EAF8284670BD70B505460E46002E95
:101BF0005DD105F58E7440F21110405D022849D187
:101C0000A168E069884217D9A168E069401AE061DB
:101C1000E878012803D1D4E902100844E060A08BE1
:101C200082B22846E168FFF76FFF00231A46194683
:101C30002846FEF7BFFB2DE0A168206AB0FBF1F259
:101C400001FB1200A8B9A168206A884211D3D4E927
:101C5000080188420DD2002211462846FFF754FFA2
:101C60000020606200231A4619462846FEF7A2FBB0
:101C700010E0D5F8E405C06848B14FF48970405DC4
:101C8000032804D1D5F8E405C168284688472846CA
:101C9000FFF76FFF4FF48B70405D012816D1284687
:101CA00000F062FA00214FF48B7041550EE0D5F838
:101CB000E405406950B14FF48970405D032805D1B7
:101CC000D5F8E4053146426928469047002070BDAA
:101CD00070B505460E46A6BB05F55D7440F21110C1
:101CE000405D03283DD1A168E069884217D9A16809
:101CF000E069401AE061E878012803D1D4E90210D4
:101D00000844E060A368E069984201D2E06900E01D
:101D1000A06882B22846E168FFF7E7FE21E0D5F827
:101D2000E405006948B14FF48970405D032804D18F
:101D3000D5F8E4050169284688472846FFF742FFA1
:101D40000FE0FFE7D5F8E405806950B14FF48970E2
:101D5000405D032805D1D5F8E4053146826928465F
:101D60009047002070BD01460020704770B50446C2
:101D70000D46E888012804D029462046FFF7D3FE07
:101D80001AE04FF48970005D022802D003280DD1BB
:101D900005E0012209492046FFF7FDFE0BE0012284
:101DA00004F588712046FFF7F6FE04E02946204638
:101DB000FFF7B9FE00BF00BF70BD00006C0200203D
:101DC000F8B504460E46F088009070880012082886
:101DD00062D2DFE800F061040C186161575CA07802
:101DE000D4F8EC150A6869469047054659E0A07892
:101DF000D4F8E4158A6A694690470546022169705D
:101E0000C4F8F0554DE0B078062834D2DFE800F091
:101E1000030B131B232BA078D4F8EC154A686946F2
:101E2000904705462CE0A078D4F8EC158A686946FE
:101E30009047054624E0A078D4F8EC15CA686946B6
:101E4000904705461CE0A078D4F8EC150A6969466D
:101E50009047054614E0A078D4F8EC154A69694625
:101E6000904705460CE0A078D4F8EC158A696946DD
:101E70009047054604E031462046FFF754FEF8BD82
:101E800000BF0EE031462046FFF74DFEF7E7314632
:101E90002046FFF748FEF2E731462046FFF743FEB3
:101EA000EDE700BFBDF8000088B1F08878B1F08898
:101EB000BDF80010884202DDBDF8000000E0F088A7
:101EC0000090BDF8002029462046FFF764FE00BFC1
:101ED000D5E70146002002E0421CD0B2491C0A7836
:101EE000002AF9D17047000070B504460D464FF442
:101EF0008970005D022802D0032813D100E000BFE2
:101F000001200C4908604FF48C70005920B108463C
:101F1000006840F002000860022206492046FFF7F0
:101F20003AFE04E029462046FFF7FDFD00BF00BF52
:101F300070BD0000700200202DE9F04104460D46FE
:101F400017460026FCB12046FFF7C3FF022101EB34
:101F5000400038803A783046711CCEB22A540322B1
:101F60003046711CCEB22A540AE014F8012B3046D8
:101F7000711CCEB22A5400223046711CCEB22A54B3
:101F800020780028F1D1BDE8F0812DE9F041044628
:101F90000F4615461E46DDF81880204600F0FCFB73
:101FA0002046FFF7E0FEC4F8E465C4F8E885C4F80D
:101FB000EC5539462046FEF7D9FDD4F8E8150868F7
:101FC0008047204600F0D3FBBDE8F08110B5044601
:101FD000D4F8E405016A20468847002010BD10B5FA
:101FE0000446D4F8E405416A20468847002010BD25
:101FF0007CB505460024284601F0DAF9002865D0B2
:10200000284601F0E0F90190019808B900207CBD54
:102010000198C0F3C04018B12846FEF7ADFB044359
:102020000198C0F3804018B12846FEF711FB044325
:102030000198C0F3400050B100200090009820F0BB
:102040000200801C00900098E968486100BF019878
:10205000C00F18B12846FEF70FFC04430198C0F3E7
:10206000C02018B12846FEF7ABFC04430198C0F32A
:10207000C00018B12846FEF78DFC04430198C0F358
:10208000001018B12846FEF72DFC04430198C0F358
:10209000003018B12846FEF7E7FC04430198C0F36E
:1020A000403018B12846FEF707FA04430198C0F300
:1020B000005018B12846FEF7A7FD04430198C0F36D
:1020C000405018B12846FEF7B5FD044320469EE770
:1020D00090F8CC250A7090F8CD254A7090F8CE354E
:1020E00090F8CF2503EB02224A8090F8D03590F883
:1020F000D12503EB02228A8090F8D23590F8D325BF
:1021000003EB0222CA80CB884FF4A0721350012344
:1021100040F211121354704710B5044600234022B8
:1021200019462046FEF712F900234022802120465E
:10213000FEF70CF901214FF489700155A078D4F80D
:10214000E82551688847002010BD10B50446D4F832
:10215000E8150869804740F21310015D401E0155E3
:1021600003210155002010BD01460348026808699B
:1021700042600020704700003402002010B5044681
:10218000D4F8E405C06920B1D4F8E405C16920465B
:102190008847002010BD70B504460D46A88818BBBE
:1021A000E88808BBA87800F07F064FF48970005DCE
:1021B000032804D129462046FFF7B5FC18E04FF468
:1021C0008A70065531462046FEF71DF92046FFF776
:1021D000F9FC26B102214FF48970015508E0012174
:1021E0004FF48970015503E029462046FFF79BFC18
:1021F00070BD70B504460D46D4F8E4052946026862
:1022000020469047D4F8E81588688047002070BDC4
:1022100070B504460D46A878304908700846007825
:10222000012804DD29462046FFF77DFC55E04FF4E8
:102230008970005D022802D0032848D117E02748A2
:10224000007880B12548007884F8100103214FF40C
:1022500089700155214801782046FFF7CAFF2046C2
:10226000FFF7B0FC02E02046FFF7ACFC34E01B486F
:10227000007880B902214FF4897001551748007821
:1022800084F81001154801782046FFF7FFFB20462F
:10229000FFF798FC1AE094F8100110490978884279
:1022A00011D094F810112046FFF7F0FB0B4800788E
:1022B00084F81001094801782046FFF79AFF20466C
:1022C000FFF780FC02E02046FFF77CFC04E0294693
:1022D0002046FFF728FC00BF00BF70BD740200203D
:1022E000F8B504460D460026688801280DD1012165
:1022F0004FF48C700151D4F8E405294682682046D9
:1023000090472046FFF75EFC3FE0688802283CD1FA
:102310002879D0BB206940680090A8880612062E54
:1023200022D2DFE806F02103090F151B009820F0E8
:102330007000103000901DE0009820F070002030F8
:10234000009017E0009820F070003030009011E00D
:10235000009820F07000403000900BE0009820F0D2
:1023600070005030009005E0009820F070001030B0
:10237000009000BF00BF05480099016001214FF4A3
:102380008B7001552046FFF71DFCF8BD340200207C
:102390001CB5044669462046FFF79AFE9DF80000EA
:1023A00000F01F0020B1012807D002280FD109E05A
:1023B0006946204600F016F811E06946204600F014
:1023C00007F90CE06946204600F046F807E09DF862
:1023D000000000F080012046FEF723F800BF00BF98
:1023E00000201CBD70B505460C46002660780A2802
:1023F00029D2DFE800F01923281E280A0528140F27
:1024000021462846FFF7DCFC22E021462846FFF75C
:10241000C2FE1DE021462846FFF7FAFE18E02146DD
:102420002846FFF7A3FC13E021462846FFF75CFD92
:102430000EE021462846FFF753FF09E021462846D3
:10244000FFF72FFB04E021462846FFF76CFB00BF97
:1024500000BF304670BD00002DE9F04105460E4634
:1024600000273479307800F06000202808D1D5F8B2
:10247000E40531468268284690473846BDE8F08139
:102480007078002857D001282BD0032875D14FF43D
:102490008970405D022802D003281BD107E02CB1CF
:1024A000802C03D021462846FDF7BBFF17E070883B
:1024B00030B92CB1802C03D021462846FDF7B1FF5E
:1024C000D5F8E40531468268284690472846FFF74C
:1024D00079FB04E031462846FFF725FB00BF00BF2B
:1024E00070E04FF48970405D022802D003281BD1B0
:1024F00007E02CB1802C03D021462846FDF791FF40
:1025000017E0708878B95CB1802C09D02146284644
:10251000FDF7E6FED5F8E405314682682846904787
:102520002846FFF74FFB04E031462846FFF7FBFA49
:1025300000BF00BF46E04FF48970405D022802D022
:10254000032837D107E02CB1802C03D02146284640
:10255000FDF767FF33E004F08000802812D104F01B
:102560007F0000EB800105F58E7000EBC1008078E4
:1025700020B101201549086016E022E0002013492F
:10258000086011E004F0800070B904EB840105F5E7
:102590005D7000EBC100807818B101200B49086024
:1025A00002E0002009490860022208492846FFF796
:1025B000F2FA04E031462846FFF7B5FA00BF00BF43
:1025C00000E000BF00BF384658E700006802002066
:1025D00070B504460D4600264FF48970005D03284F
:1025E00014D1287901280CDCD4F8E4052946826846
:1025F00020469047E88840B93EB92046FFF7E2FA06
:1026000003E029462046FFF78EFA04E029462046DB
:10261000FFF789FA00BF00BF304670BD10B5044611
:102620004FF48970015D401C01550421401E015585
:10263000D4F8E815C8688047002010BD70B505467D
:102640000C462DB92246064906A0FFF775FC04E0AA
:102650002246034903A0FFF76FFC014870BD00004C
:10266000860B002048494420436F6E66696700006E
:1026700070477047024612200880014870470000EA
:10268000D8010020704710B1012802D100E001E01C
:1026900000E000BF00BF7047704770477047000000
:1026A00070B505460C462DB92246064906A0FFF72F
:1026B00043FC04E02246034903A0FFF73DFC014828
:1026C00070BD0000860B002048494420496E7465A7
:1026D00072666163650000000246042008800148BC
:1026E00070470000F401002070B505460C462246F4
:1026F000024903A0FFF720FC004870BD860B0020B4
:10270000506879506C7573496E63000070B505466A
:102710000C462DB92246064906A0FFF70DFC04E041
:102720002246034903A0FFF707FC014870BD0000E3
:10273000860B00205068795772697465720000003A
:1027400070B505460C461A202080FEF7D7FC0148DC
:1027500070BD0000F801002008B543208DF800008E
:1027600000208DF803006846FEF706FD08BD38B569
:1027700004464FF4A060FEF73BFD43208DF80000B7
:1027800002208DF8010001208DF802008DF8030071
:102790006846FEF7F1FC38BD1CB504460121084629
:1027A000FEF73AFD01218020FEF746FD4FF4C050B0
:1027B000009003208DF8050002208DF80400002011
:1027C0008DF806008DF8070069461348FEF7AAFB4E
:1027D0004FF48070009003208DF8050001208DF8E3
:1027E000040000208DF8060001208DF807006946DE
:1027F0000948FEF797FB4FF480710748FEF7FDFB91
:102800000A220B210448FEF7D5FB0A220C210248BC
:10281000FEF7D0FB1CBD00000000024010B50446CE
:10282000A0B200F081FF10BD10B50446204600F0B4
:1028300097FF10BD3EB50446002500200290019090
:102840000090207A01283DD1E068806B01900198CA
:1028500020F480300190607A28B1019820F4801033
:1028600000F5801001900198E168886300200290D3
:10287000E068C0680290029820F040000290029840
:1028800020F480000290029820F400300290029818
:1028900020F4002002900298E168C860204600F011
:1028A0005DF9E07801283FD1009820F01E000A3041
:1028B0000090009820F02000203000900098E168FF
:1028C000886031E0E068C0680290029820F0400023
:1028D000403002900298E168C860204600F03EF95E
:1028E00000200190019820F4803000F580300190A4
:1028F000019820F480200190019820F4002001909C
:10290000019820F4001000F500100190607A28B1C1
:10291000019820F4801000F5801001900198E16882
:1029200088631420FFF77AFFE07801280FD1E06870
:1029300080680090009820F01E000A3000900098F7
:1029400020F02000203000900098E1688860284640
:102950003EBD70B588B00446002600200790069062
:102960000590049003900021D4F80C0101602069C7
:1029700000680690069820F4C050069006992069D9
:102980000160E07A01283DD10321204600F004FDDA
:102990008020E1684862059880B200F580000590CB
:1029A00005986FF30F00803005900598E168886204
:1029B000059800EB1041049861F30F00049004980F
:1029C00080B200F5000004900498E168C1F80401A9
:1029D000049800EB104161F30F000490049880B25A
:1029E00004900499E068C0F80811049800EB1041C5
:1029F00061F30F000490049880B204900499E06899
:102A0000C0F80C111021204600F07AFC204600F09E
:102A100051FC00212069016120694161491E206942
:102A2000816100212069C16100252CE004F11800BA
:102A300050F82500006807900798C00F70B100207B
:102A40000790079820F0804000F180400790079899
:102A500020F0006000F10060079001E00020079086
:102A600004F1180050F8250007990160002104F1D5
:102A7000180050F825000161FF2104F1180050F8FA
:102A8000250081606D1C6078A842CFD800252CE01D
:102A900004F1540050F82500006801900198C00F1F
:102AA00070B100200190019820F0804000F180403A
:102AB0000190019820F0006000F10060019001E0B9
:102AC0000020019004F1540050F8250001990160A4
:102AD000002104F1540050F825000161FF2104F1A8
:102AE000540050F8250081606D1C6078A842CFD852
:102AF00000200390039820F4807000F5807003900C
:102B00002069006903998843084321690861E078D6
:102B100001281DD100200290029820F00100401CE5
:102B20000290029820F00200801C0290402102983E
:102B300061F38A000290029820F4803000F5803022
:102B40000290029861F35940029002992069016352
:102B5000204600F050FB304608B070BDF8B5044682
:102B6000002600250020009000BF0320FFF75CFE38
:102B7000E06800690090681C05461349884201D945
:102B80000020F8BD0098C00F0028EED00025009866
:102B900020F00100401C00900098E168086100BF2F
:102BA000E06800690090681C05460749884200D922
:102BB00004E0009800F001000028F1D100BF0320DC
:102BC000FFF732FE3046DCE7400D030008B5014652
:102BD000002000220092009A22F00102521C009272
:102BE000CA689268009B9A43CB689A6008BD0EB58C
:102BF00001460020002200920A69926802928A69C6
:102C000012680192029AC2F3410232B1012A05D040
:102C1000022A09D0032A0DD101E000BF00BF019AAA
:102C20006FF30A0201920AE0019A6FF30A02D21CC2
:102C3000019204E0019A6FF30A02019200BF00BF03
:102C4000019B8A691360009A22F4807202F58072F7
:102C500000920A695268009B9A431A430B695A60B2
:102C60000EBDFCB50246002000240025019500950C
:102C70004D78012D52D193691D6801951D6900950C
:102C80004D6955B9009D25F07F050095009D25F4FF
:102C9000002505F50025009516E08E684D69B542C2
:102CA00007D98D684D610E7A009D66F30605009583
:102CB00004E00E7D009D66F306050095009D25F459
:102CC000002505F500250095009D1D61D578012D95
:102CD00006D10F7802F1180555F827500E696E617C
:102CE000019D25F0806505F180650195019D25F028
:102CF000004505F100450195019D1D60D578002D29
:102D000059D14D69002D56D00E780125B5402C4380
:102D100015696D6B2543166975634CE00E7802F1F9
:102D2000540555F826502D6801950E7802F154058A
:102D300055F826502D6900954D695DB90E7A009DB4
:102D400066F306050095009D25F4002505F5002590
:102D500000950CE08D684D610E7A009D66F30605C6
:102D60000095009D25F4002505F5002500950F78B8
:102D700002F1540555F82750009E2E61D578012D9B
:102D800006D10F7802F1540555F827500E696E618F
:102D9000019D25F0806505F180650195019D25F077
:102DA000004505F1004501950F7802F1540555F8ED
:102DB0002750019E2E60FCBD0CB5002101910199A8
:102DC00021F0C04101F1C0410191019921F400219C
:102DD00001F500210191019921F07F011831019144
:102DE000019A416D0A61C178012915D10021009134
:102DF00000F2CC51426D5161416D0968009100991A
:102E000021F0004101F1004100914FF0802100913B
:102E1000009A416D0A6000BF0CBD3CB5024600201F
:102E20000024019400944C78012C0CD10D7802F10F
:102E3000180454F825300D780124AC40009D64F34B
:102E40000F0500950BE00D7802F1540454F825307D
:102E50000D780124AC40009D64F31F4500951C686B
:102E60000194019CC4F3C034E4B90D89019C65F35D
:102E70000A040194CD78019C65F3934401948D7903
:102E8000019C65F399540194019C24F0805404F151
:102E900080540194019C24F4004404F500440194FE
:102EA000019C1C601469E469009D2C431569EC6168
:102EB0003CBD38B503460020002400944C78012C1A
:102EC00005D10D7803F1180454F8252004E00D789D
:102ED00003F1540454F8252014680094009C24F451
:102EE00000140094CC78032C02D0CC78022C05D1AD
:102EF000009C24F0805404F180540094009C1460E1
:102F000038BD3CB5024600200024019400944C7862
:102F1000012C0CD10D7802F1180454F825300D78ED
:102F20000124AC40009D64F30F0500950BE00D7883
:102F300002F1540454F825300D780124AC40009D72
:102F400064F31F450095019C24F400440194019C06
:102F50001C601469E469009DAC431569EC613CBDDB
:102F600038B503460A460020002400945478012C0A
:102F700018D1157803F1180454F825100C68009442
:102F8000009CE40F2CB1009C24F0804404F18044A8
:102F90000094009C24F4001404F500140094009C98
:102FA0000C600EE0157803F1540454F825100C68F9
:102FB0000094009C24F4001404F500140094009C78
:102FC0000C6038BDFEB505460C46002600270020E3
:102FD00002900190607801287ED1217805F11800D7
:102FE00050F8210000680290217805F1180050F88F
:102FF000210000690190606948B901986FF31200DF
:1030000001900121019861F3DC40019017E06169B2
:10301000019861F3120001906069401EA1680844A4
:10302000B0FBF1F1019861F3DC400190E0780128F8
:1030300005D1019820F0C04000F1005001902278A5
:1030400005F1180050F8220001990161E878012883
:1030500007D1227805F1180050F82200216941615A
:103060000DE0E07801280AD0606940B121780120A4
:1030700000FA01F72869406B384329694863E07812
:10308000012813D12869806800900098C0F30020BF
:1030900030B9029820F0005000F10050029005E095
:1030A000029820F0805000F180500290029820F0A9
:1030B000806000F180600290029820F0004000F1F2
:1030C00000400290227805F1180050F82200029981
:1030D0000160E078012800E008E070D1A08A83B2A6
:1030E00022782846E16800F034FA68E0217805F19A
:1030F000540050F8210000680290217805F1540036
:1031000050F8210000690190606950B9A1680198E8
:1031100061F3120001900121019861F3DC400190FC
:1031200017E0A068401E61690844A168B0FBF1F196
:10313000019861F3DC4001900198C0F3C940A16897
:103140004843019960F3120101910198C0F3120004
:103150006061227805F1540050F822000199016164
:10316000E878012806D1227805F1540050F82200B1
:1031700021694161E07801280ED1607930B102986F
:1031800020F0005000F10050029005E0029820F07D
:10319000805000F180500290029820F0806000F191
:1031A00080600290029820F0004000F10040029000
:1031B000227805F1540050F822000299016030464F
:1031C000FEBD08B500210091491EC26851606FF034
:1031D0008041C2685161009921F0004101F1004134
:1031E0000091009921F4006101F5006100910099BE
:1031F000C268916108BD38B50446002500200090E2
:10320000E16888616FF08040E16848612046FFF71F
:10321000D8FFE07820B9009820F01000103000901E
:10322000009820F4006000F500600090009820F401
:10323000805000F580500090009820F4005000F578
:1032400000500090009820F4802000F5802000902D
:10325000009820F4002000F500200090009820F055
:10326000080008300090009820F4801000F58010CD
:103270000090009820F4001000F500100090E06825
:103280008069009988430843E1688861284638BD11
:1032900008B50146002000220092009A22F00102A7
:1032A000521C0092CA689268009B1A43CB689A60CD
:1032B00008BD0000F8B50446002500260020009057
:1032C000009820F01000103000900098E16808612C
:1032D00000BFE06800690090701C064607498842FC
:1032E00000D904E00098C0F300100028F1D100BF1D
:1032F0000320FFF799FA2846F8BD0000400D0300AF
:10330000F8B504460D4600260027002000900098DE
:1033100020F0200020300090009865F38A10009083
:103320000098E168086100BFE06800690090781CBF
:1033300007460749884200D904E00098C0F34010CE
:103340000028F1D100BF0320FFF76EFA3046F8BD28
:10335000400D030008B5014600200A6992680092FA
:10336000009AC2F3410232B1012A06D0022A07D0E4
:10337000032A07D102E0032006E000BF022003E099
:10338000012001E0022000BF00BF08BD0146C8685F
:10339000406900F00100704708B5026912680092A8
:1033A000009A61F301020092009B0269136008BD5C
:1033B00000B502461046FFF7E9FF012801D00120C1
:1033C00000BD0020FCE701460020CA685069CA68B9
:1033D0009269104070470146086982690869C069AE
:1033E000024090B270470146086982690869C06965
:1033F0000240100C7047024602F1540353F821308A
:10340000986813695B6918407047F0B5034600245B
:10341000D01CC71700EB9777BD10D3F8D06000BF62
:1034200003E030680860091D641CAC42F9D308460B
:10343000F0BD000070B502460C46002300200025B8
:10344000D5700125957040259580012C0CD14FF049
:10345000A0430125D57208251570042555709D15CA
:10346000D580022515720AE04CB9254B0025D5728E
:103470000C251570062555704FF4A065D580D360D6
:1034800003F500651561002110E003F5106505EBFB
:10349000411602F1180545F8216003F5306505EB8A
:1034A000411602F1540545F82160491C55788D42BA
:1034B000EBD803F5806555614035C2F8CC5000214A
:1034C00008E003F5A06505EB411602F1900545F80B
:1034D0002160491C15788D42F3D8002108E003F5DE
:1034E000805505EB013602F1D00545F82160491CF5
:1034F00015788D42F3D803F56065C2F80C5170BDA4
:1035000000000440F8B504460D460026E068C06897
:103510000090009820F000500090009820F080402B
:103520000090012D06D1009820F0005000F10050CD
:10353000009006E02DB9009820F0804000F1804016
:1035400000900098E168C8603220FFF767F93046C4
:10355000F8BD2DE9F04104460026E078B0B9002717
:103560000020DD1C4FEAE57805EB98784FEAA807C4
:1035700004F1D00555F822C000BF04E00D68CCF876
:103580000050091D401CB842F8D300BF3046BDE8CA
:10359000F08100BFFEE702E008C8121F08C1002A40
:1035A000FAD170477047002001E001C1121F002AC4
:1035B000FBD170471CB501214020FDF72DFE0220F4
:1035C000009001208DF8040000208DF806000320F3
:1035D0008DF8050001208DF8070069460148FDF7C8
:1035E000A1FC1CBD001802401E48C0881D49098866
:1035F000884231DA1B48007BC0B11A48008919495A
:103600004988884205DA17480089401C1549088115
:1036100008E0002013490881488108730846C088E3
:10362000401CC8800120104908601AE00D484089FC
:103630000C498988884205DA0A484089401C0949B2
:10364000488105E00020074948810881012008736E
:1036500000200549086004E000200249087302497F
:103660000860704768030020840243422DE9F04758
:1036700007460C464FF0000800251FE0601BB0F520
:10368000805F01D2661B01E04FF48056B2B239462A
:103690000D4801F01FFA374435444FF000090BE0A4
:1036A000094810F8090080EA1860084951F820001C
:1036B00080EA082809F10109B145F1D3A542DDD31B
:1036C0004046BDE8F087000040140020EC70000880
:1036D00010B5002004494875012215210248153013
:1036E00000F011F9002010BDFC02002010B50446C6
:1036F0006FF00400FDF722FFE11704EB5171C1F3F5
:10370000C701074A11701046007800EB4001C1EB79
:10371000C0104FF6FF7101EAC0000249088010BDD9
:103720009D0100209E01002070B504464FF40770F3
:1037300094FBF0F0C6B24FF4077094FBF0F100FB7D
:10374000114085B205E04FF4077000F02FF8701EAD
:10375000C6B2002EF7D115B1284600F027F870BD8B
:103760000146114A12784A434FF0E0235A61002281
:103770009A611A46126942F001021A6100BF4FF0C5
:10378000E022106900F001021AB100F48032002A30
:10379000F5D04FF0E022126922F001024FF0E02351
:1037A0001A6100229A6170479D0100200146114A6A
:1037B00012884A434FF0E0235A6100229A611A4668
:1037C000126942F001021A6100BF4FF0E022106955
:1037D00000F001021AB100F48032002AF5D04FF057
:1037E000E022126922F001024FF0E0231A61002268
:1037F0009A6170479E01002010B54FF4A060FDF75C
:10380000F7FCA820FFF772FF0A20FFF78DFF00F0FA
:103810001DFB00F0FBFA044600F02EF86C2200219C
:10382000124800F02DF830B92CB91048407D10B97D
:103830000F4800F06BF901F04FFA01F0A5F834B928
:103840000A48407D18B101200A4908700CE00220A6
:1038500008490870FFF7AEFE00F010FC00F000F918
:1038600000F090F801F0A4FA10BD0000FC02002066
:10387000000001089C01002010B500F091F910BD76
:103880002DE9F04105460E46174600240AE032199C
:1038900091B2281900F00AF8012801D1BDE8F081A1
:1038A000601CC4B2BC42F2DB0020F7E770B50646EC
:1038B0000C46A02500F02EFA201245EA4000C5B2C1
:1038C000284600F0F3F900F071FA08B1012070BD4C
:1038D000E0B200F0EBF900F069FA08B10120F6E778
:1038E00000F018FA45F0010000F0E0F900F05EFA8F
:1038F00008B10120EBE7012000F0A6F9307000F0DC
:103900002FFA0020E3E72DE9F04105460E46174661
:1039100000240AE0321991B2285D00F00AF801286B
:1039200001D1BDE8F081601CC4B2BC42F2DB0020D2
:10393000F7E770B506460C46A02500F0EBF920121B
:1039400045EA4000C5B2284600F0B0F900F02EFA72
:1039500008B1012070BDE0B200F0A8F900F026FA2D
:1039600008B10120F6E7304600F0A0F900F01EFA99
:1039700008B10120EEE700F0F3F90520FFF7D4FECF
:103980000020E7E70EB54FF6FF7064234FF4807216
:10399000FA210090402000F0C1FD012020210DA25D
:1039A0004FF6FF73CDE9002102900022FA2140205A
:1039B00000F0FAFE012020210AA24FF6FF73CDE9A4
:1039C0000021029000224FF49671402000F0ECFE9E
:1039D0000EBD0000B9CCBCFEB8FCD0C2C4A3CABDA9
:1039E0000000000020C7EBCFC2D4D8B9CCBCFE0089
:1039F0000EB54FF6FF7064234FF48072FA210090E9
:103A0000402000F08BFD012020210DA24FF6FF7316
:103A1000CDE9002102900022FA21402000F0C4FEEE
:103A2000012020210AA24FF6FF73CDE90021029068
:103A300000224FF49671402000F0B6FE0EBD00004B
:103A4000B9CCBCFEB8FCD0C2C4A3CABD0000000003
:103A5000B9CCBCFEB8FCD0C2CDEAB3C900000000AE
:103A60001CB500201A4908804FF6FF7019490880DC
:103A7000002030214FF4A263174ACDE900106421E1
:103A8000402000F045FE002018214FF4A273134A95
:103A9000CDE900109621642000F03AFE00201821A4
:103AA0004FF458730E4ACDE900104FF4C87110203E
:103AB00000F02EFE002018214FF42273094ACDE9B0
:103AC00000104FF4D771302000F022FE1CBD000022
:103AD000A8010020AA010020EC740008FC7900086D
:103AE000407B0008A07E000810B506480078012839
:103AF00005D101F02DF9044800F008F800E000BFFE
:103B000010BD00009C0100200000010810B5044613
:103B100020680C490840B0F1005F11D100218020DD
:103B2000FDF78AFBFEF718FE0748FDF779FD606890
:103B3000064908602068FCF736FB044800688047A7
:103B400010BD00000000FE2F00400140A401002035
:103B500010B500200F4908600F48006820F03000C1
:103B60000D4908600846006840F010000860002019
:103B70000A49C1F888020220FFF7F2FD0120054939
:103B800008600220FFF7ECFD00200449C1F88C0218
:103B900010BD00008C024342001802400000434266
:103BA0001CB501214020FDF737FB04210F48FDF72C
:103BB00024FA08210D48FDF720FA0C20009001207E
:103BC0008DF804008DF8060003208DF80500012013
:103BD0008DF8070069460548FDF7A4F9012004495E
:103BE00008600449C1F888021CBD000000180240AA
:103BF0008C0243420000434210B500200F49086088
:103C00000F48006820F030000D4908600846006841
:103C100040F01000086001200A49C1F88802022023
:103C2000FFF79EFD0120054908600220FFF798FD7F
:103C300000200449C1F88C0210BD00008C024342F0
:103C4000001802400000434270B5054600241448A5
:103C5000006820F0300012490860002616E00020BD
:103C6000104908600220FFF77BFD01200E49C1F8D2
:103C70008C026006040E0B488438006808B1601C92
:103C8000C4B20120FFF76CFD701CC6B2082EE6DB43
:103C900015B9FFF75DFF01E0FFF7AEFF204670BDED
:103CA000001802408C0243420000434270B50446B3
:103CB0001548006820F03000134908600846006885
:103CC00040F010000860002010490860002517E04F
:103CD000E0090E49091F08606006040E0220FFF784
:103CE0003FFD01200A49C1F88C020220FFF738FD90
:103CF0000020064908600220FFF732FD681CC5B2AB
:103D0000082DE5DB70BD0000001802408C02434224
:103D10000000434210B50F48006820F030000D4904
:103D200008600846006840F01000086001200A4959
:103D300008600A49C1F88C020420FFF711FD002039
:103D4000054908600420FFF70BFD00200349C1F876
:103D50008C0210BD0018024088024342000043421A
:103D600010B50F48006820F030000D490860084683
:103D7000006840F01000086000200A4908600A4905
:103D8000C1F888020420FFF7EBFC01200549086018
:103D90000420FFF7E5FC01200349C1F8880210BDAB
:103DA000001802408C0243420000434210B5002438
:103DB0001348006820F030001149086001201149C3
:103DC0000860FFF7CDFC01200F49C1F88C02FFF716
:103DD000C7FC0AE0601CC4B20120FFF7C1FCFA2C4A
:103DE00003DDFFF7BDFF012010BD064880380068E5
:103DF0000028EFD10349091D086000BFF4E7000067
:103E000000180240880243420000434210B50821D6
:103E10000C48FDF769F998B940210B48FDF764F9A2
:103E200070B91420FFF780FC08210748FDF75CF902
:103E300030B940210448FDF757F908B9012010BDF9
:103E40000020FCE7000C0240000802401CB50121E4
:103E50000820FDF7E1F94820009000208DF80400CB
:103E600003208DF8050001208DF8070069460248FF
:103E7000FDF758F81CBD0000000C024070B5044668
:103E800000250D480688408846430B484088401E60
:103E900083B209480088401E82B20021084600F023
:103EA00093FB00BF05E020124FF0D04148704C70EA
:103EB0006D1CB542F7D370BD780B002000B50346EA
:103EC0002A20114948812B2088812C20088163B940
:103ED000002088714FF4A07008804FF4F070488083
:103EE0000821362000F0EAFC0CE001200649887128
:103EF0004FF4F07008804FF4A0704880A82136205D
:103F000000F0DCFC00BD0000780B00202DE9FC4F28
:103F10000546884691469A46DDF82CB000950D205E
:103F2000019000245FE004EB8410374911F8100081
:103F30009BF80010884253D104EB8410324901EB06
:103F4000400040789BF80110884249D108F11F00D9
:103F500083B205F11F0082B24146284600F034FBCF
:103F600000263BE0002734E00C9890B904EB841065
:103F7000254901EB4000801C805D802139410840CB
:103F800018B1484600F05CF821E0504600F058F8BF
:103F90001DE01E48A0F8009004EB84101A4901EBC4
:103FA0004000801C805D80213941084018B14146A5
:103FB000284600F02FF8681C85B20098281A20289F
:103FC00005D1009D08F101001FFA80F803E0781C7C
:103FD000C7B2082FC8DB00BF701CC6B2802EC1DB81
:103FE00000BF601C84B2019884429CDB0848408872
:103FF000401E83B206480088401E82B20021084657
:1040000000F0E2FABDE8FC8F506A0008A801002029
:10401000780B002030B504460D462946204600F0B6
:10402000A5FA00F043FC0548008800124FF0D0418B
:10403000487002480078487030BD0000A801002098
:1040400000B50246101200F01DFCD0B200F01AFCC0
:1040500000BD000070B505460E46144631462846A0
:1040600000F084FA0448007A4FF0D0410870201222
:1040700048704C7070BD0000780B002000B5A1B0F6
:104080000020209001217A20FDF7C6F80121084682
:10409000FDF7E2F802201E9001208DF87C00002040
:1040A0008DF87E0003208DF87D0001208DF87F00C3
:1040B0001EA9FE48FCF736FF4CF233001E9002208A
:1040C0008DF87C0000208DF87E0003208DF87D00A7
:1040D00001208DF87F001EA9F548FCF723FF4FF45F
:1040E000F0601E9002208DF87C0000208DF87E008C
:1040F00003208DF87D0001208DF87F001EA9ED487A
:10410000FCF710FF01201E9002208DF87C0000209B
:104110008DF87E0003208DF87D0001208DF87F0052
:104120001EA9E248FCF7FEFE4FF480601E900220BC
:104130008DF87C0000208DF87E0003208DF87D0036
:1041400001208DF87F001EA9DB48FCF7EBFE0C2256
:104150000021D748FCF72EFF0C220121D448FCF7A0
:1041600029FF0C220421D248FCF724FF0C22052150
:10417000CF48FCF71FFF0C220E21CD48FCF71AFF99
:104180000C220F21CA48FCF715FF0C220721C94851
:10419000FCF710FF0C220821C648FCF70BFF0C228D
:1041A0000921C448FCF706FF0C220A21C148FCF78C
:1041B00001FF0C220021BD48FCF7FCFE0C220A2165
:1041C000BD48FCF7F7FE0F200890002009903C2026
:1041D0000A9000200B900C900D900E9005200190FD
:1041E0000020029005200390002004900590069086
:1041F000079004200F9000201090119012901390BF
:1042000015901490169017904FF48050189000203D
:1042100019904FF480401A9000201B9008A81C9021
:1042200001A81D900FA8FCF7ECFE01210420FCF76B
:104230005FFE00F05FF9002000F050F99F49888090
:10424000D32000F029FB00F041F99C49888000F060
:104250003DF99A49888000F039F9984988800846E4
:1042600080884FF6FF7101EA00209449888000F0B1
:104270002DF992498988084390498880F92000F0F7
:104280000BFB002000F0FEFA082000F0FBFAC02033
:1042900000F002FB192000F0F5FA1A2000F0F2FA03
:1042A000C12000F0F9FA452000F0ECFA002000F0FF
:1042B000E9FAC22000F0F0FA332000F0E3FAC5205A
:1042C00000F0EAFA002000F0DDFA282000F0DAFA27
:1042D000B12000F0E1FAA02000F0D4FA112000F0A3
:1042E000D1FAB42000F0D8FA022000F0CBFAB620C0
:1042F00000F0D2FA002000F0C5FA422000F0C2FA25
:104300003B2000F0BFFAB72000F0C6FA072000F00B
:10431000B9FAE02000F0C0FA1F2000F0B3FA25201F
:1043200000F0B0FA222000F0ADFA0B2000F0AAFA5B
:10433000062000F0A7FA0A2000F0A4FA4E2000F0B0
:10434000A1FAC62000F09EFA392000F09BFA002066
:1043500000F098FA002000F095FA002000F092FAA0
:10436000002000F08FFA002000F08CFA002000F00E
:1043700089FAE12000F090FA1F2000F083FA3F2034
:1043800000F080FA3F2000F07DFA0F2000F07AFA6A
:104390001F2000F077FA0F2000F074FA462000F09A
:1043A00071FA492000F06EFA312000F06BFA052016
:1043B00000F068FA092000F065FA032000F062FAC4
:1043C0001C2000F05FFA1A2000F05CFA002000F0D8
:1043D00059FAF12000F060FA362000F053FA042078
:1043E00000F050FA002000F04DFA3C2000F04AFAAC
:1043F0000F2000F047FA0F2000F044FAA42000F04C
:1044000041FA022000F03EFAF22000F045FA1820AE
:1044100000F038FAA32000F035FA122000F032FA4A
:10442000022000F02FFA322000F02CFA122000F0C7
:1044300029FAFF2000F026FA322000F023FA0020AB
:1044400000F020FAF42000F027FA402000F01AFAD9
:10445000002000F017FA082000F014FA912000F074
:1044600011FA042000F00EFAF82000F015FA2120CD
:1044700000F008FA042000F005FA362000F00CFAEB
:10448000482000F0FFF93A2000F006FA552000F02D
:10449000F9F9112000F000FA7820FFF745F92920FA
:1044A00000F0FAF90020FFF709FD09E000140240CE
:1044B000000C02400010024000180240780B00205F
:1044C0004FF6FF70FFF7DAFC21B000BD08B54FF0E2
:1044D000D040407800909DF8000008BD10B504461B
:1044E000204600F0D9F90520FFF73AF9FFF7EEFF73
:1044F00010BD000010B50020064908606420FFF7D9
:1045000013F901200449C1F884023220FFF70CF9A5
:1045100010BD000084824242008042422DE9F047F3
:1045200006460F4614461D46DDF820804FF0000970
:10453000A2460AFB05FA7819401E83B23019401EC4
:1045400082B23946304600F03FF800F0AFF900BFC4
:1045500008E04FEA28204FF0D041487081F80180F0
:1045600009F10109D145F4D3BDE8F08710B5024641
:104570000C461449887A00F08FF9101200F082F985
:10458000D0B200F07FF9501CC0F3072000F07AF998
:10459000511CC8B200F076F90A49087B00F07CF99A
:1045A000201200F06FF9E0B200F06CF9601CC0F36B
:1045B000072000F067F9611CC8B200F063F900F051
:1045C00075F910BD780B002070B504460D461E46E7
:1045D0001149887A00F060F9201200F053F9E0B236
:1045E00000F050F9101200F04DF9D0B200F04AF985
:1045F0000949087B00F050F9281200F043F9E8B2AD
:1046000000F040F9301200F03DF9F0B200F03AF954
:1046100000F04CF970BD0000780B00202DE9F84F38
:1046200007460D4690461C46AB462046E31704EB72
:104630005373DB1021464FEAE47C04EB5C7C4FEAC9
:10464000EC0CA4EBCC0CBCF1000F02D04FF0010C31
:1046500001E04FF0000C6344224604EBD27C4FEAA9
:104660006C0C03FB0CF3DBB20093A8F1200000F00C
:10467000FF0800263EE0202C05D1214800EB8810E1
:1046800010F8069001E0BDE8F88F4FF0000A2BE02B
:1046900009F0010030B11B48028829463846FFF76F
:1046A000D9FC07E00A9828B91748028829463846F5
:1046B000FFF7D0FC4FEA6909681C85B213484088AF
:1046C000A84200DCDFE7A5EB0B00A04208D15D4665
:1046D000781C87B20D480088B84200DCD3E706E0BA
:1046E0000AF1010000F0FF0ABAF1080FD0DB00BFA9
:1046F000701CC6B200988642BDDB00BFC3E7000055
:1047000090520008A8010020AA010020780B002088
:104710002DE9F04F05460C4617469846A34600265D
:1047200037E017F806904FF0000A2DE009F001007D
:1047300030B11A48028821462846FFF78BFC07E073
:104740000A9828B91648028821462846FFF782FCB5
:104750004FEA6909601C84B212484088A04201DC1B
:10476000BDE8F08FA4EB0B010998814208D15C46AB
:10477000681C85B20B480088A84200DCF0E706E020
:104780000AF1010000F0FF0ABAF1080FCEDB00BF0A
:10479000761C4645C5D300BFE2E70000A801002013
:1047A000AA010020780B00202DE9FF4F82B00646B9
:1047B0000F469146DDE910480F9DB2464FF0000BC1
:1047C00058E0BBF1000F3BD104EBD4712C4A1288A6
:1047D000A2EB6101B14204DB29494988091BB942B6
:1047E00002DA06B0BDE8F08F2878802802DD4FF0AD
:1047F000010B3FE028780D2804D1381987B25646BE
:104800006D1C1BE0202C0BDDCDF800802A781023D6
:1048100039463046FFF702FF06F1080086B20DE088
:10482000CDF800802A78234639463046FFF7F6FE59
:10483000204604EBD07106EB61018EB26D1C19E0CD
:104840000F480088001BB04204DB0D484088001B65
:10485000B84200DAC5E74FF0000B202C07D1CDE9B4
:1048600000584A4639463046059BFFF74FFBAD1CC2
:10487000301986B228780028A3D100BFB1E7000024
:10488000780B002001B59DF8000000909DF8000015
:104890004FF0D041487008BD01B59DF80000009070
:1048A0009DF800004FF0D041087008BD0248007A22
:1048B0004FF0D04108707047780B00204FF0D04285
:1048C000107051707047FEF797FF03E000F06CFA2C
:1048D000FFF70AF9FAE710B5FF2000F001F810BD64
:1048E00010B5044600BF02210A48FCF783FD0028EA
:1048F000F9D021460748FCF789FD00BF0121054892
:10490000FCF778FD0028F9D00248FCF77CFDC0B226
:1049100010BD00000038004010B500F029F900205B
:1049200006490860C720FFF7DBFF01200449C1F8F2
:10493000B00200F00BF900F012F910BDB082404255
:104940000080404210B5044600F012F900200C49E6
:1049500008602020FFF7C4FFC4F30740FFF7C0FF43
:10496000C4F30720FFF7BCFFE0B2FFF7B9FF012057
:104970000449C1F8B00200F0E9F800F0F0F810BD09
:10498000B08240420080404200B587B001218803D8
:10499000FCF772FC01210220FCF73EFC05220D21F0
:1049A0003348FCF707FB05220E213148FCF702FBD8
:1049B00005220F212E48FCF7FDFA02208DF8180081
:1049C0008DF8190000208DF81A0002208DF81B00C8
:1049D0000003059005A92648FCF7A4FA4FF400400F
:1049E000059005A92248FCF79DFA4FF480400590F8
:1049F00005A91F48FCF796FA4FF480500590012056
:104A00008DF8180000208DF81A0002208DF819008A
:104A100000208DF81B0005A91548FCF783FA01203A
:104A2000144908600020ADF800004FF48270ADF822
:104A300002000020ADF804000220ADF806000120BD
:104A4000ADF808004002ADF80A000820ADF80C00EF
:104A50000020ADF80E000720ADF8100069460648AA
:104A6000FCF7D6FC01210448FCF7B8FC07B000BDF8
:104A700000040240B0824042003800402DE9F0417D
:104A800006460C46174600F073F8002010490860EF
:104A90000220FFF725FFC4F30740FFF721FFC4F30F
:104AA0000720FFF71DFFE0B2FFF71AFF002504E023
:104AB000705DFFF715FF681C85B2BD42F8DB012071
:104AC0000349086000F042F800F049F8BDE8F081C1
:104AD000B08240422DE9F04106460C4617460020C0
:104AE0000E4908600320FFF7FBFEC4F30740FFF701
:104AF000F7FEC4F30720FFF7F3FEE0B2FFF7F0FE86
:104B0000002504E0FFF7E7FE7055681C85B2BD4242
:104B1000F8DB012001490860BDE8F081B082404225
:104B200010B500240020074908600520FFF7D8FED3
:104B3000FFF7D1FE044601200349C1F8B002204628
:104B400010BD0000B08240420080404210B500BF5E
:104B5000FFF7E6FF00F001000028F9D110BD10B505
:104B600000BFFFF7DDFF00F002000228F9D010BD02
:104B700010B50020044908600620FFF7B1FE0120AF
:104B80000249C1F8B00210BDB082404200804042EC
:104B900001461C48814201D2002070471A488142D8
:104BA00001D20820F9E71948814201D21020F4E728
:104BB0001748814201D21820EFE71648814201D2FE
:104BC0002020EAE71448814201D22820E5E7134873
:104BD000814201D23020E0E71148814201D23820E1
:104BE000DBE71048814201D24020D6E70E488142DF
:104BF00001D24820D1E70D48814201D25020CCE7B4
:104C00005820CAE7004000080080000800C00008E3
:104C10000000010800000208000004080000060867
:104C20000000080800000A0800000C0800000E0838
:104C30002DE9F05F04460E4617464FF0090800259F
:104C4000A946AA46B4F1006F02D304F0030010B1E4
:104C50000120BDE8F09FFCF727F90020FCF772F86F
:104C6000F320FCF769F8254604EB870919488542CB
:104C700013D20FE02868401C58B12846FFF788FF80
:104C800083460221FCF770F88046B8F1090F01D085
:104C900002E02D1D4D45EDD300BFB8F1090F10D135
:104CA0004FF0000A0AE020463168FCF7D5F80928E1
:104CB00002D04FF0010A03E0241D361D4C45F2D30B
:104CC00001E04FF0010A0120FCF73CF8FCF7BAF8CC
:104CD0005046BEE70000FF1F1FB5002019490860BD
:104CE00001210804FCF7E8FA18208DF80C000220D6
:104CF0008DF80D0001208DF80E008DF80F0003A82F
:104D0000FCF73AFA10480068C0084FF47A71B0FB1B
:104D1000F1F0401E01900820ADF800000020ADF831
:104D20000800ADF8020069460848FCF75BFD012267
:104D300011460648FCF74DFD01210448FCF763FCD1
:104D40001FBD0000A001002088010020004001409C
:104D500070B500241148407DF8B11048D0F8160015
:104D6000C01C20F0030514E0281BB0F5006F01D231
:104D70002E1B01E04FF40066B2B204F58011084822
:104D8000FFF7A8FEB208074960180549FFF750FF72
:104D90003444AC42E8D3FEF79BFC70BDFC0200201B
:104DA000780300200000010810B500F03BF810BDAA
:104DB00008B50448044B054A012100900448FDF75A
:104DC000E4F808BD1402002078020020BC01002095
:104DD000C80B002010B503460A461148B0F802027D
:104DE0000F4CB4F80042001BC0F30800904214DBE3
:104DF00000210EE00A48B0F80002C0F30800084C99
:104E0000205C58542046B0F80002401CA4F8000270
:104E1000491C9142EED3012010BD0020FCE70000A8
:104E20003C1200202DE9F05F4FF0000AD146002728
:104E30004021EC48FFF7CEFF08B9BDE8F09FE948F4
:104E40004078C01C00F0FF09E6480078AA2804D08A
:104E5000E4480078DD2800D0EFE7B9F1400F00DD2D
:104E6000EBE7002704E0DF48C05D80EA0A0A7F1C08
:104E7000A9F10100B842F6D8DA49085C50450BD0D8
:104E800008460078AA2806D10846817800231A46E9
:104E9000132000F0C1F9D0E7D24890F802800078E2
:104EA000AA287DD1B8F1340F7BD011DCB8F1310FD5
:104EB0004BD006DCB8F1250F1CD0B8F1300F71D102
:104EC0002CE0B8F1320F56D0B8F1330FF7D179E0BA
:104ED000B8F1810F67D006DCB8F1350F70D0B8F1AA
:104EE000800FECD1CAE0B8F1820F6AD0B8F1830F1D
:104EF000E5D134E1BC480078BC490870BA48407834
:104F00004870BB4800788870B9484078C87004235E
:104F10000A464146102000F07FF95EE1B148C078B2
:104F2000B049097940EA0125AE4844793A2C00D9C4
:104F30003A24A2B2A9B2AD48FEF7A2FCE3B2AB4A52
:104F40004146102000F068F947E1A648C078A5491D
:104F5000097940EA0125A3484078C41EA2B2294637
:104F6000A048401DFEF7CFFC00231A464146102002
:104F700000F052F931E19B4880790006994949795E
:104F800040EA01409749097940EA01209549C978EA
:104F900040EA01059348C479382C00D9382403E04D
:104FA0001CE134E012E194E0A2B229468F48FFF7F9
:104FB00091FDE3B28D4A4146102000F02DF90CE13D
:104FC00053E08DE08748807900068649497940EAB8
:104FD00001408449097940EA01208249C97840EAC0
:104FE000010580484078441FC5F30B0010B92846DE
:104FF000FFF7A8FCE2B229467A48C01DFFF73EFD44
:1050000000231A464146102000F006F9E5E07548F5
:10501000807900067349497940EA0140714909796C
:1050200040EA01206F49C97840EA01056D48807A5D
:1050300000066C49497A40EA01406A49097A40EA27
:1050400001206849C97940EA0104002704E0E81911
:10505000FFF778FC07F58057A742F8D300231A46DC
:105060004146102000F0D8F8B7E0FFF755FC0023C8
:105070001A464146102000F0CFF8AEE0594880793A
:1050800000065849497940EA01405649097940EA01
:1050900001205449C978084300F5801551484078EB
:1050A000441FB5F5801F01D1FEF7A2FCC5F30B002C
:1050B00010B92846FFF746FCE2B229464948C01D10
:1050C000FFF7DCFC00231A464146102000F0A4F84C
:1050D00083E000231A464146102000F09DF87CE052
:1050E0004048807900063F49497940EA01403D49FE
:1050F000097940EA01203B49C97840EA010439486E
:10510000807A00063749497A40EA01403549097AF0
:1051100040EA01203349C97940EA010B21464FF4A6
:105120008010FEF7A3FA06465E4506D101202F49FE
:1051300008703048C0F8164002E000202B49087083
:105140002A494E70300A8870300CC870300E0871D1
:1051500005230A464146102000F05EF83DE0214854
:10516000C07801282BD11F48C078224948750422F5
:10517000162120481630FEF7C6FB012215211D48D6
:105180001530FEF7C0FBFFF7E3FD00231A4641464A
:10519000102000F041F81420FEF7C6FA00BFBFF35C
:1051A0004F8F1548006800F4E06014490843001D63
:1051B00011490860BFF34F8F00BF00BFFEE7002317
:1051C0001A464146102000F027F806E000231A4650
:1051D0004146112000F020F800BF00E000BF00BFF2
:1051E0002BE60000FC1100200010000840140020F5
:1051F00000100108FC0200200CED00E00000FA05A0
:1052000070B504460D462A4621460248FCF79EFB2F
:1052100070BD0000C80B00202DE9F0470746884606
:1052200091461C463A2C00DD3A2400BF164800780F
:105230000028FBD140211548FAF7E3FFBB201349B2
:105240000870A01C48700846877080F80380002C06
:1052500004DD22464946001DFAF7BAFF0026002564
:1052600004E00A48405D4640681CC5B2201DA842C3
:10527000F7DC06490E5440210448FFF7C1FF012026
:1052800001490870BDE8F08730020020BC11002001
:10529000000000000000000000000000000000000E
:1052A00000000000000000000000000000000000FE
:1052B00000000000000000000000000000000000EE
:1052C00000000000000000000000000000000000DE
:1052D00000000000000000000000000000000000CE
:1052E0000000000000000000E00F0003E0FF87075F
:1052F000E00F800700000003000000000000000035
:10530000000000000000000000000000000000009D
:105310000000000000000000000400008003000006
:10532000E0010000F80000007800000038040000F0
:1053300080030000E0010000F80000007800000099
:105340003800000000000000000000000000000025
:105350000000000000183000001830000018F007AE
:1053600000F83F00C01F3000001830000018300067
:1053700000183000001830000018F00700F83F0057
:10538000C01F30000018300000183000000000007E
:1053900000000000000000000000E001001EE0032B
:1053A000003F600280700004C0E0000440C00104BF
:1053B000F0FFFF3F4080030440000706800C0E0210
:1053C000800FFC01000FF80000000000000000004A
:1053D000007F000080FF0000C08001004000010647
:1053E000C080810380FFE000007F180000000700FC
:1053F00000C0FD000030FF03008E01068083000422
:10540000C08001060000FF030000FC000000000057
:105410000000F8000000FE03003F030380FF0106C8
:10542000C0C0070440401E0440607804C03FE00252
:10543000800FC0010080C003008038060080070490
:1054400000800004008000020000800100000000D5
:1054500000000000000400003806000038020000D0
:10546000F8010000F0000000000000000000000053
:10547000000000000000000000000000000000002C
:10548000000000000000000000000000000000001C
:10549000000000000000000000000000000000000C
:1054A00000000000000000000000000000E01F00FD
:1054B00000FCFF00001EE00380030007C000000C9A
:1054C0002000001010000020080000400000000034
:1054D0000000000008000040100000202000001024
:1054E000C000000C80030007001EE00300FCFF006A
:1054F00000E01F00000000000000000000000000AD
:10550000000000000000000000000000000000009B
:1055100000000000000000000030180000701C00B7
:1055200000701C0000600C0000C006000086C20174
:1055300000FFFF010086C20000C0060000600C00F2
:1055400000701C0000701C000030180000000000FB
:105550000000000000000000000001000000010049
:105560000000010000000100000001000000010037
:1055700000FEFF000000010000000100000001002B
:105580000000010000000100000001000000000018
:105590000000000000000080000000C7000000477D
:1055A0000000003F0000001E00000000000000009E
:1055B00000000000000000000000000000000000EB
:1055C00000000000000000000000000000000000DB
:1055D00000000000000001000000010000000100C8
:1055E00000000100000001000000010000000100B7
:1055F00000000100000001000000010000000100A7
:105600000000010000000100000001000000000097
:105610000000000000000000000000030000800700
:1056200000008007000000030000000000000000F0
:10563000000000000000000000000000000000006A
:10564000000000000000000000000000000000005A
:1056500000000000000000300000001C00000007F7
:105660000000C0010000700000001C0000000700E6
:1056700000C0010000700000001C000000070000D6
:10568000C0010000700000001800000000000000D1
:10569000000000000000000000F01F0000FEFF00FE
:1056A000000FE00180010003C0000006400000047C
:1056B0004000000440000004C00000068001000318
:1056C0000007C00100FEFF0000F01F000000000006
:1056D00000000000000000000000000000010004C5
:1056E00000010004000100040001000680FFFF0724
:1056F000C0FFFF07000000060000000400000004D7
:105700000000000400000000000000000000000095
:105710000000000000000000001E000700198006C5
:1057200080004006400020064000100640000806A9
:105730004000040640000206C000010680C10006C9
:10574000807F0007003EE001000000000000000034
:105750000000000000000000000FE001800FE003E7
:1057600080000002400000044080000440800004EB
:1057700040800004C0C0010480610102803F030337
:10578000001EFE0100007800000000000000000084
:10579000000000000000100000001C0000001200CB
:1057A000008011000060100000301008000C10088C
:1057B0000002100880FFFF0FC0FFFF0FC0FFFF0FA8
:1057C0000000100800001008000010080000000091
:1057D00000000000000000000000E00100F861028D
:1057E000C0870004C0400004C0200004C0200004A2
:1057F000C0200004C0200004C0600002C0C08003BC
:10580000C080FF01C0007E0000000000000000001A
:10581000000000000000000000E03F0000FCFF006E
:10582000000EC3010081010380800006C040000417
:1058300040400004404000044040000440C00002DA
:10584000808301030003FF0100007E0000000000D0
:105850000000000000000000000F0000C003000076
:10586000C0010000C0000000C000E007C000FC074D
:10587000C0800300C0600000C0180000C006000027
:10588000C0010000C0000000000000000000000097
:10589000000000000000F800001EFC01003F0603AD
:1058A00080710302C0E0010440C000044080010494
:1058B0004080010440800304C080070280610E0321
:1058C000003FFC01001EF800000000000000000086
:1058D0000000000000FC000000FF81038003830340
:1058E0008000060440000404400004044000040456
:1058F0004000040640000203800083010083F100A1
:1059000000FE7F0000F80F00000000000000000013
:105910000000000000000000000000000000000087
:10592000000000000000000000C0000300E081074C
:1059300000E0810700C0000300000000000000003C
:105940000000000000000000000000000000000057
:105950000000000000000000000000000000000047
:105960000000000000000000006000660060001EF3
:105970000000000000000000000000000000000027
:105980000000000000000000000000000000000017
:105990000000000000000000000001000080030083
:1059A00000C0060000600C00003018000018300035
:1059B000000C60000006C0000003800180000002AF
:1059C000400000042000000800000000000000006B
:1059D000000000000020080000200800002008004F
:1059E0000020080000200800002008000020080017
:1059F0000020080000200800002008000020080007
:105A0000002008000020080000200800000000001E
:105A1000000000000000000020000008400000041A
:105A200080000002000380010006C000000C60003E
:105A3000001830000030180000600C0000C00600A4
:105A400000800300000001000000000000000000D2
:105A50000000000000000000001E0000801F000089
:105A6000401C0000400000002000000320009E07B2
:105A7000200081072080000320C00000404000007B
:105A8000C0600000803F0000001F00000000000018
:105A90000000000000F01F0000FC7F00000EE0018D
:105AA0000003000380801F02C0E03F044078200410
:105AB000400C100440040C0440FC3F0480FC200215
:105AC0008001300300078C0100F843000000000053
:105AD00000000004000000060000C00700007C0475
