:020000040800F2
:10000000C8B5002005430008A5020008A7020008A3
:10001000A9020008AB020008AD02000800000000C1
:10002000000000000000000000000000AF02000817
:10003000B102000800000000B3020008B502000889
:100040001F4300081F4300081F4300081F43000808
:100050001F4300081F4300081F4300081F430008F8
:100060001F4300081F4300081F4300081F430008E8
:100070001F4300081F4300081F4300081F430008D8
:100080001F4300081F4300081F4300081F430008C8
:100090001F4300081F4300081F4300081F430008B8
:1000A0002F1000081F4300081F4300081F430008CB
:1000B0001F4300081F4300081F4300081F43000898
:1000C0001F4300081F4300081F4300081F43000888
:1000D0001F430008E712000823150008AB170008AB
:1000E0001F4300081F4300081F4300081F43000868
:1000F000773E00081F4300081F4300081F43000805
:100100001F4300081F4300081F4300081F43000847
:10011000371C0008091E00081F4300081F43000881
:10012000BF3F00081F4300081F4300081F4300088B
:100130001F4300081F4300081F4300081F43000817
:100140001F4300081F4300081F4300080938010827
:100150001F4300081F4300081F430008111A00082E
:100160001F4300081F4300081F4300081F430008E7
:100170001F4300081F4300081F4300081F430008D7
:100180001F4300081F43000800F002F800F064F865
:100190000AA090E8000C82448344AAF10107DA45E2
:1001A00001D100F059F8AFF2090EBAE80F0013F0D0
:1001B000010F18BFFB1A43F00103184780A6010086
:1001C000A0A601000A444FF0000C10F8013B13F008
:1001D000070408BF10F8014B1D1108BF10F8015BA0
:1001E000641E05D010F8016B641E01F8016BF9D193
:1001F00013F0080F1EBF10F8014BAD1C0C1B09D1EA
:100200006D1E58BF01F801CBFAD505E014F8016B5B
:1002100001F8016B6D1EF9D59142D6D370470000ED
:100220000023002400250026103A28BF78C1FBD8FF
:10023000520728BF30C148BF0B607047642915F0D2
:100240004F87782910F0A886002070471FB516F058
:1002500099FC1FBD10B510BD16F08EF91146FFF7C1
:10026000F5FF00F011F816F0ACF903B4FFF7F2FF58
:1002700003BC16F0B1F9000030BF72B6704762B629
:10028000704780F30888704700F0DFF9044C13F0E2
:1002900051FE20780028FAD000F0BBFBF7E7000001
:1002A000244200207047FEE7FEE7FEE7FEE77047C6
:1002B0007047704700F0DCB80CB500224F4900923F
:1002C0000192086840F4803008604FF4A043086849
:1002D00000F4003001900098401C0090019810B983
:1002E00000989842F3D10868800334D5012001902A
:1002F00042484030026842F0805202604048026842
:1003000042F4404202603D480830026802600268E0
:1003100042F400420260026842F4A0520260031FED
:10032000384A1A600A6842F080720A600A689201CC
:10033000FCD5354940F205720A60016821F00301DD
:100340000160016841F0020101600168C1F38101AF
:100350000229FAD10CBD01920CBD2C4810B50168E0
:1003600041F4700101602548016841F0010101601C
:10037000224A0021083211600268254B1A400260AF
:10038000031D244A1A60026822F4802202601B487E
:100390000C300160FFF790FF1C491F48803908604E
:1003A00010BD30B5154D083528681C4A1C4910F0A1
:1003B0000C0003D0042801D0082801D00A6013E003
:1003C0000E4B1B1D1868186800F03F00B2FBF0F0E0
:1003D0001A68C2F3881250431A68C2F30142521CD1
:1003E0005200B0FBF2F0086028680D4AC0F3031019
:1003F000121D105C0A68C2400A6030BD003802401D
:1004000000700040082A4007003C024088ED00E0F0
:10041000FFFFF6FE10300024004000200024F4000E
:1004200088410020B0480021417081702021AF48F0
:1004300015F0E8BFAC4A10B59178AC4C01F01F0341
:10044000491CE054C9B291705078814201D1401CDE
:10045000507010BDA44A90785178884201D1002094
:100460007047A24B01F01F00491C185C5170704787
:100470009D488168002902D08168491E81607047CB
:1004800010B504466FF0040003F0A2FF9649E0089F
:1004900000EB40020870C2EBC0104FF6FF7202EA98
:1004A000C000888010BD924801689248B1FBF0F00E
:1004B000401EB0F1807F0FD24FF0E02148618E4A9C
:1004C000F02082F8140D0020886107200861086977
:1004D00020F0010008617047FEE78349097848432E
:1004E0004FF0E021486100238B61086940F0010072
:1004F00008610869C20701D0C003FAD5086920F075
:10050000010008618B6170477749898848434FF043
:10051000E021486100238B61086940F00100086117
:100520000869C20701D0C003FAD5086920F00100AC
:1005300008618B61704770B54FF40776B0FBF6F138
:10054000CCB2B0FBF6F106FB110504E03046FFF734
:10055000DBFF641EE4B2002CF8D1002D03D0284646
:10056000BDE87040D0E770BD01B55F48009981607B
:100570004FF0E0210A6942F001020A618168002916
:10058000FCD108BD02090A2A01D2303200E037321C
:1005900000F00F000A700A2801D2303000E0373036
:1005A000487070470146422830D00EDCA0F130017F
:1005B00012291AD2DFE801F03E3C3A3836343230A4
:1005C0002E2C191919191919191862291ED00DDCA8
:1005D000452915D004DC432916D0442805D111E063
:1005E00046290BD0612800D10A20704763290BD01F
:1005F000642907D0652903D06628F6D10F207047FB
:100600000E2070470D2070470C2070470B2070475C
:100610000920704708207047072070470620704760
:100620000520704704207047032070470220704760
:10063000012070470020704703460120002201E09E
:100640005843521C8A42FBD3704708B54FF4A06050
:1006500003F078FE0121084604F066FB0121022028
:1006600004F062FB0121042004F05EFB012108205C
:1006700004F05AFB0121102004F056FB0121202038
:1006800004F052FB0121402004F04EFB15F072FCF7
:100690000023022000901A461946184615F09EFBCA
:1006A000A820FFF7EDFE00F00BFC00F0ADFA01F022
:1006B000CFFB00F03BF800F08FF806F0DEFC06F010
:1006C0004FFD06F072FD06F016FD00F0FDFC00F097
:1006D0007AFC13F09CF801F068FF03F0BBF8BDE86A
:1006E000084012F0CBB900009C410020A04500203A
:1006F0008841002040420F000FE000E010B56C215F
:10070000714815F07FFE70484AF65521012201809C
:100710000021817042710F228271C0F80B10A0F885
:100720000F10BDE810406C2201F0F6BB70B56C22D2
:100730000021654801F0DBFB644D012610B16E77A6
:10074000012070BD604C2088A0F52A41553908D1A0
:10075000A078012805D86079012802D8A0790F284F
:1007600001D9FFF7CBFF58480922F7216C3001F07F
:10077000BEFB0021544A08466C32135C401C5940B1
:1007800080B20828F9D3107A0022884222D108B317
:100790002E77D4F80700E8604D4D002185F8AE2192
:1007A000002005EBC10303EB8006401CC0B2F263DE
:1007B0000228F8D3491CC9B20429F1D312F092FBE4
:1007C000C4F81100404804221121113001F0A4FBAB
:1007D000002070BD2A77DCE710B500F0CEFA3B4C64
:1007E000022130B1A0F57F42FF3A02D0C0B21428F6
:1007F00002D26177022010BD33484FF413524FF4F8
:100800008011753000F0D5FA2F487530D0F80B0004
:1008100020B1E168884204D9401A03E04FF0FF306C
:1008200000E000206061002010BD70B54FF480151D
:10083000002404F5801000F01EFB04F58054AC4247
:10084000F7D370BD0021204A08466C32135C401C6F
:100850005940C0B20828F9D311721B480922F72168
:100860006C3001F059BB194810B5C1681648042214
:1008700040F8071F072101F04FFB002010BD12496F
:1008800010B501204875104804221621163001F0D9
:1008900043FB0D4801221521153001F03DFB0020DE
:1008A00010BD094910B501208876024606481A2174
:1008B0001A3001F031FB044804221B211B3001F0E7
:1008C0002BFB002010BD0000C0450020F86A00206E
:1008D000B489002030B5C04A0020C04C927901464E
:1008E000012505FA01F31A4205D0631893F8D830B0
:1008F0000BB9401CC0B2491CC9B20429F1D330BDA8
:1009000030B5B54A0020B54C92790146012505FA6B
:1009100001F31A4205D0631893F8D8300BB1401C8C
:10092000C0B2491CC9B20429F1D330BD10B5AB4CDB
:100930004FF41651C4F8A011607B06F09FFB607B5A
:10094000BDE810400622A6A108F01CB910B5FFF7BB
:1009500081FD002805D0F22803D1BDE8104010F039
:10096000E1BC10BD70B5FFF775FD00249E4D9B4E98
:100970000121D0B3F1281CD006DC112808D01228A0
:1009800011D0142830D103E0F2282FD0F3282BD136
:10099000297012F0B5F89548C0793074C6F8444112
:1009A00008F0BBFE1FE006F000FCBDE8704010F050
:1009B00043BF2970042030748748817108F0ADFE70
:1009C00012F003F9022028774FF413528849874820
:1009D00015F0A1FC10F013FE10F02EFF854840F238
:1009E000E24144600160AC6170BD03E0BDE870406D
:1009F00010F098BC96F8B1010128F5D1297012F0D9
:100A00007FF8C6F8444108F088FEAC6186F8B14131
:100A1000EAE72DE9F041744D86B0287800B301284B
:100A20007ED16E4E744970680968081AA861FFF794
:100A30008DFF10F0EBFC08F011F912F015FA02F03E
:100A4000EBFF08F0E2FE01287DD1287F0124624FF0
:100A50004FF00008012807D030B102284AD070E0DA
:100A600006B0BDE8F0417DE76869A0B1401C12D036
:100A700086F80F80717B002004FA00F2114206D044
:100A80006B693BB35B1E6B61F37B1343F373401CD9
:100A9000C0B20428F0D3FFF71DFF69680144696004
:100AA000E9680844E860FFF7DEFEFFF729FFA96860
:100AB00000280144A960787916D020B13C22502149
:100AC000032000F0E5FA08F0C2FB12F045F810F040
:100AD000DBFD36E0F07B0122C043C0B2032108F009
:100AE0008EFBC5F81480D6E70028ECD000226421E4
:100AF0000120E6E796F8D80040B33C2250210320BD
:100B000000F0C6FA002012F080F808F0A0FB0122E5
:100B10000621B81D01F0EBF90922F721354800E064
:100B200011E001F0E4F94FF413524FF480112F4813
:100B300000F03FF910F063FD10F023FD10F07CFE93
:100B40002C7785F8008006B0BDE8F0811421684656
:100B500015F07AFC092229A1684615F021FC56F807
:100B6000B80F0DF10901000EFFF70CFD30680DF113
:100B70000B01C0F30740FFF705FD30880DF10D01B3
:100B8000C0F30720FFF7FEFC16F8B8090DF10F01BE
:100B9000FFF7F8FC11226946012010F05DFA97F882
:100BA0006B0050B123208DF81100122269460120FC
:100BB00013F064F96420FFF7BEFC012012F025F861
:100BC0000C49D6F8B8004860FFF73CFE00226421CB
:100BD000012000F05DFA98E7C0450020B4890020AC
:100BE0005558544C31360000F86A00203546002034
:100BF000A86B01082C460020AC410020D0A3D7BC34
:100C0000D6B53A3078000000F0B501218E0387B0E8
:100C1000304604F0A7F80121022004F085F8A54F22
:100C200005220D21384603F0D5FC05220E21384659
:100C300003F0D0FC05220F21384603F0CBFC02253F
:100C40008DF804508DF80550002428038DF80640D7
:100C500000908DF807506946384603F047FCA8031A
:100C600000906946384603F041FC694638460096D4
:100C700003F03CFC01268DF80460E8028DF8064084
:100C800000908DF805508DF807406946384603F00E
:100C90002DFC8948C0F8B062ADF808404FF482706E
:100CA000ADF80A00ADF810602802ADF81200082077
:100CB000ADF81400ADF80C40ADF8164007207F4C9D
:100CC000ADF81800ADF80E5002A9204605F07EF9E7
:100CD0000121204605F00AFA07B0F0BD70B5774C47
:100CE00005460221204605F094FA0028F9D029464D
:100CF000204605F061FA0121204605F08AFA002815
:100D0000F9D0204605F056FAC0B270BDFF20E5E7E5
:100D100010B5694C0020C4F8B002052004F52C740D
:100D2000FFF7DCFFFFF7F2FF0121216010BD10B5D6
:100D3000614C0020C4F8B002062004F52C74FFF7C3
:100D4000CDFF0120206010BD10B55B4C0020C4F821
:100D5000B002042004F52C74FFF7C0FF01202060CE
:100D600010BD10B5FFF7D4FFC007FBD110BD10B503
:100D7000FFF7CEFF8007FBD410BD70B54E4C0020AE
:100D8000C4F8B002902004F52C74FFF7A7FF0020F0
:100D9000FFF7A4FF0020FFF7A1FF0020FFF79EFF51
:100DA000FFF7B4FF0502FFF7B1FF284301212160DF
:100DB00070BD2DE9F041404F0646002015460C4617
:100DC000C7F8B0020320FFF789FFC4F30740FFF71D
:100DD00085FFC4F30720FFF781FFE0B2FFF77EFF36
:100DE000002404E0FFF792FF3055641CA4B2AC422B
:100DF000F8D30120C7F8B002BDE8F0812DE9F04139
:100E000015460C460646FFF792FF2B4F0020C7F809
:100E1000B0020220FFF762FFC4F30740FFF75EFF56
:100E2000C4F30720FFF75AFFE0B2FFF757FF002493
:100E300004E0305DFFF752FF641CA4B2AC42F8D36B
:100E40000120C7F8B002FFF78CFFBDE8F0418EE744
:100E500010B5FFF76CFF184C0020C4F8B002C72093
:100E600004F52C74FFF73AFF01202060FFF779FFAB
:100E7000BDE810407BE770B50446FFF758FF0E4D04
:100E80000020C5F8B002202005F52C75FFF726FFDD
:100E9000C4F30740FFF722FFC4F30720FFF71EFF4C
:100EA000E0B2FFF71BFF01202860FFF75AFFBDE803
:100EB00070405CE70004024000804042003800407F
:100EC0007CB50121082003F02FFF48200025009069
:100ED0008DF8045003248DF8054001208DF807009B
:100EE0006946354803F002FB4FF4204000908DF82E
:100EF00004508DF8054002208DF8070069462F4800
:100F000003F0F4FA7CBD70B52B4D0024082128466F
:100F100003F03DFBE0B14021284603F038FBC8B1A7
:100F2000264D4FF40041284603F031FB012813D031
:100F30004FF40051284603F02AFB01280ED000216F
:100F40001F4B4FF47A75187881421AD041B114E0E2
:100F50000121F5E70221F3E70421F1E70821EFE79A
:100F60005A880A2A09D9B2F5FA7F02D840F010044B
:100F700003E0AA4201D940F02004197000205880F3
:100F800011E0002916D05888401C80B25880A84231
:100F900002D141F0300406E040F21452904209D3ED
:100FA00041F040045D80002C04D02046BDE8704034
:100FB000FFF740BA70BD0000000C0240001802406C
:100FC000A841002070471FB52E480024012104606D
:100FD000080403F0D1FE18208DF80C0002208DF8D3
:100FE0000D0001208DF80E008DF80F0003A803F00E
:100FF000AEF925484FF4FA510068ADF80840B0FB4F
:10100000F1F0401E01900820ADF80000ADF802405C
:101010001E4C6946204604F099F9012211462046EB
:1010200004F01DFD0121204604F008FA1FBD70B533
:10103000164D0121284604F026FD012818D1114C37
:101040002068401C2060FFF75EFF00F05EF821681A
:101050004FF47A72B1FBF2F002FB101010B9F220DB
:10106000FFF7E8F92846BDE87040012104F017BDFC
:1010700070BD044A1268511A814201D301207047A1
:1010800000207047AC410020884100200040014012
:10109000F0B501252E064FF0E0270024C7F8806147
:1010A0002E4B188059809A80DC801C812C4A5C81F0
:1010B00021B118B11D73C2F8845202E01C73C2F84A
:1010C0008442C7F80061F0BD1CB50121402003F047
:1010D0002BFE0220009001208DF8040000218DF8E5
:1010E000061003218DF805108DF8070069461D488C
:1010F00003F0FCF91C484079002805D000224FF489
:1011000096710120FFF7C4FF1CBD70B5134B144C42
:101110000022D888198888421ED2197B012571B116
:1011200019895E88B14202D2491C198104E01A81F2
:101130005A811A73401CD880C4F8845270BD5889F3
:101140009988884202D2401C588102E05A811A8153
:101150001D73C4F8842270BD1A73FAE7186B00205F
:101160000000434200180240C04500202DE9F04332
:101170008146FF4887B00024A0F800424FF4007772
:10118000A0F80242394615F03DF90121102003F084
:10119000F3FDDFF8E08307220921404603F01AFA45
:1011A00007220A21404603F015FA02208DF80400B8
:1011B00003268DF8056040028DF806400125009059
:1011C0008DF807506946404603F090F9694640465D
:1011D000009703F08BF925208DF818008DF8195031
:1011E0008DF81A608DF81B5006A803F0B0F8ADF822
:1011F0000C40ADF80E40ADF81040ADF814400C2096
:10120000DD4CADF81200CDF8089002A9204603F09D
:10121000A8FE012240F22551204603F0B2FF012131
:10122000204603F00FFF07B0BDE8F0833EB5002174
:10123000D14803F007FF00248DF80B4025208DF8DE
:10124000080002A803F083F88DF8044003208DF80D
:10125000050002208DF807004002C64C0090694648
:10126000204603F043F901218DF80710490200914F
:101270006946204603F03AF93EBD70B5BE4C0546BE
:101280008021204603F095FF0028F9D0294620460A
:10129000BDE8704003F0FCBE70B50D460646002464
:1012A00004E0305DFFF7E9FF641CA4B2AC42F8D360
:1012B000BDE87040012240F22771AF4803F061BFE2
:1012C000AB48B0F80212B0F80002081AC0F30800E8
:1012D0007047A74AB2F80012C1F30800491C105C1D
:1012E000A2F80012704770B5A34C40F22556314663
:1012F000204603F068FFA14D20B3A148007808B153
:1013000000221BE0204603F0C7FE994AC0B2B2F8A3
:101310000212C1F308015054B2F80212491C89B2FA
:10132000A2F80212B2F80032994202D15B1CA2F874
:101330000032632801D10020287001223146204666
:1013400003F01FFF40F227763146204603F03BFFB3
:10135000002829D03146204603F054FF2878012880
:1013600006D031462046BDE87040002203F009BF98
:101370002820FFF7E0F8834890F89C0401280AD061
:1013800002280BD003280CD004280DD106217EA002
:10139000BDE8704080E706217DA0F9E706217EA028
:1013A000F6E706217EA0F3E770BD2DE9F041804607
:1013B0007D4888B00024A0F80042A0F802424FF413
:1013C000007115F01FF80121480403F0CBFC694FB0
:1013D00007220221384603F0FDF807220321384690
:1013E00003F0F8F802208DF8040003268DF805605C
:1013F00004208DF80640012500908DF807506946BD
:10140000384603F073F8082000906946384603F028
:101410006DF826208DF818008DF819508DF81A6097
:101420008DF81B5006A802F092FFADF80C40ADF805
:101430000E40ADF81040ADF814400C205B4CADF8F8
:101440001200CDF8088002A9204603F08AFD01228F
:1014500040F22551204603F094FE0121204603F07E
:10146000F1FD08B0BDE8F0813EB500214F4803F022
:10147000E9FD00248DF80B4026208DF8080002A815
:1014800002F065FF8DF8044003208DF8050002206E
:101490008DF807000820374C00906946204603F07D
:1014A00025F801218DF80710042100916946204696
:1014B00003F01CF83EBD70B53C4C0546802120462B
:1014C00003F077FE0028F9D029462046BDE8704099
:1014D00003F0DEBD70B50D460646002404E0305D25
:1014E000FFF7E9FF641CA4B2AC42F8D3BDE870403A
:1014F000012240F227712D4803F043BE2A48B0F87C
:101500000212B0F80002081AC0F308007047264A19
:10151000B2F80012C1F30800491C105CA2F80012D6
:10152000704770B5214C40F225563146204603F0F5
:101530004AFE1F4DF0B31248007808B100223FE088
:10154000204603F0A9FD184AC0B2B2F80212C1F356
:1015500008015054B2F80212491C89B2A2F80212D2
:10156000B2F80032994202D15B1CA2F8003222E0AC
:10157000266B0020000002400010014004420020C1
:101580000842002035660020555854445755000045
:101590005558544C3136000055524333324D0000FB
:1015A00055444C4C343800002A6D00200044004063
:1015B0000542002008E0632801D1002028700122A4
:1015C0003146204603F0DDFD40F2277631462046C5
:1015D00003F0F9FD00282DD03146204603F012FE1D
:1015E0002878012806D031462046BDE87040002208
:1015F00003F0C7BD2820FEF79EFFF74890F89C0433
:1016000001280BD002280DD003280FD0042811D1B7
:101610000621AFF28C00BDE870405BE70621AFF217
:101620009000F8E70621AFF29000F4E70621AFF250
:101630009000F0E770BD2DE9F0418046E74888B0A2
:101640000024A0F80042A0F802424FF4007114F008
:10165000D9FE0121880403F085FBE14F07220A210E
:10166000384602F0B7FF07220B21384602F0B2FFDE
:1016700002208DF8040003268DF8056040028DF8E5
:101680000640012500908DF807506946384602F063
:101690002DFFE80200906946384602F027FF272018
:1016A0008DF818008DF819508DF81A608DF81B50C0
:1016B00006A802F04CFEADF80C40ADF80E40ADF8B7
:1016C0001040ADF814400C20C64CADF81200CDF817
:1016D000088002A9204603F044FC012240F2255173
:1016E000204603F04EFD0121204603F0ABFCB8E696
:1016F0003EB50021BB4803F0A5FC00248DF80B404B
:1017000027208DF8080002A802F021FE8DF8044081
:1017100003208DF8050002208DF807008002B04CF0
:1017200000906946204602F0E1FE01218DF8071085
:10173000890200916946204602F0D8FE3EBD70B590
:10174000A84C05468021204603F033FD0028F9D03F
:1017500029462046BDE8704003F09ABC70B50D469E
:101760000646002404E0305DFFF7E9FF641CA4B2E4
:10177000AC42F8D3BDE87040012240F2277199488D
:1017800003F0FFBC9548B0F80212B0F80002081A46
:10179000C0F308007047914AB2F80012C1F3080084
:1017A000491C105CA2F80012704770B58D4C40F2D5
:1017B00025563146204603F006FD8B4D20B38B485D
:1017C000007808B100221BE0204603F065FC834A44
:1017D000C0B2B2F80212C1F308015054B2F80212BA
:1017E000491C89B2A2F80212B2F80032994202D121
:1017F0005B1CA2F80032632801D10020287001226E
:101800003146204603F0BDFC40F2277631462046A3
:1018100003F0D9FC00282DD03146204603F0F2FC1D
:101820002878012806D031462046BDE870400022C5
:1018300003F0A7BC2820FEF77EFE674890F89C04C2
:1018400001280BD002280DD003280FD0042811D175
:101850000621AFF2CC20BDE870407FE70621AFF251
:10186000D020F8E70621AFF2D020F4E70621AFF24E
:10187000D020F0E770BD2DE9F04381465C4887B089
:101880000024A0F800424FF40077A0F80242394645
:1018900014F0B8FD0121202003F06EFADFF8548126
:1018A00008220E21404602F095FE082209214046FA
:1018B00002F090FE02208DF8040003268DF80560EA
:1018C00040038DF80640012500908DF807506946C9
:1018D000404602F00BFE69464046009702F006FEC5
:1018E00047208DF818008DF819508DF81A608DF882
:1018F0001B5006A802F02BFDADF80C40ADF80E40D1
:10190000ADF81040ADF814400C203B4CADF812007F
:10191000CDF8089002A9204603F023FB012240F2F3
:101920002551204603F02DFC0121204603F08AFBBF
:1019300079E43EB50021304803F084FB00248DF8A3
:101940000B4047208DF8080002A802F000FD8DF83A
:10195000044003208DF8050002208DF807000002E6
:10196000244C00906946204602F0C0FD01218DF80C
:101970000710890300916946204602F0B7FD3EBD7D
:1019800070B51D4C05468021204603F012FC00284E
:10199000F9D029462046BDE8704003F079BB70B508
:1019A0000D460646002404E0305DFFF7E9FF641CA5
:1019B000A4B2AC42F8D3BDE87040012240F22771D6
:1019C0000D4803F0DEBB0A48B0F80212B0F800027E
:1019D000081AC0F308007047356600202E6F0020FB
:1019E0000008024000480040064200200842002053
:1019F000327100200018024000140140F64AB2F88B
:101A00000012C1F30800491C105CA2F80012E2E7C2
:101A100070B5F24C40F225563146204603F0D3FB18
:101A2000EF4D20B3EF48007808B100221BE02046BC
:101A300003F032FBE84AC0B2B2F80212C1F3080167
:101A40005054B2F80212491C89B2A2F80212B2F83C
:101A50000032994202D15B1CA2F80032632801D106
:101A60000020287001223146204603F08AFB40F214
:101A700027763146204603F0A6FB00282DD03146BC
:101A8000204603F0BFFB2878012806D031462046C7
:101A9000BDE87040002203F074BB2820FEF74BFD28
:101AA000D14890F89C0401280BD002280DD00328BF
:101AB0000FD0042811D10621AFF23450BDE8704098
:101AC0006DE70621AFF23850F8E70621AFF2385043
:101AD000F4E70621AFF23850F0E770BD2DE9F04190
:101AE0008046C24888B00024A0F80042A0F8024214
:101AF0004FF4007114F086FC0121C80403F032F9A0
:101B0000BB4F08220121384602F064FD0822002163
:101B1000384602F05FFD02208DF8040003268DF8A0
:101B200005608DF80640012500908DF80750694644
:101B3000384602F0DBFC69463846009502F0D6FCD8
:101B400034208DF818008DF819508DF81A608DF832
:101B50001B5006A802F0FBFBADF80C40ADF80E40A0
:101B6000ADF81040ADF814400C20A24CADF81200B6
:101B7000CDF8088002A9204603F0F3F9012240F2D3
:101B80002551204603F0FDFA0121204603F05AFAC0
:101B900067E43EB50021974803F054FA00248DF81D
:101BA0000B4034208DF8080002A802F0D0FB8DF81D
:101BB000044003208DF805008DF8074001208C4C6F
:101BC00000906946204602F091FC0221009169468E
:101BD000204602F08BFC3EBD70B5864C0546802148
:101BE000204603F0E6FA0028F9D029462046BDE851
:101BF000704003F04DBA70B50D460646002404E06F
:101C0000305DFFF7E9FF641CA4B2AC42F8D370BDAD
:101C10007648B0F80212B0F80002081AC0F30800C3
:101C2000D9E6724AB2F80012C1F30800491C105CF0
:101C3000A2F80012CFE610B56E4C40F225512046B6
:101C400003F0C1FA002815D0204603F025FA6749B1
:101C5000B1F80222C2F308028854B1F80202401C13
:101C600080B2A1F80202B1F80022904202D1521CC7
:101C7000A1F8002210BD2DE9F04381465E4887B0EF
:101C80000024A0F80042A0F802424FF4007114F0C2
:101C9000B9FB0121080503F065F8584F08220C2113
:101CA000384602F097FCDFF85881082202214046AE
:101CB00002F090FC02208DF8040003268DF80560E8
:101CC000C0028DF80640012500908DF80750694646
:101CD000384602F00BFC042000906946404602F0B2
:101CE00005FC35208DF818008DF819508DF81A6014
:101CF0008DF81B5006A802F02AFBADF80C40ADF899
:101D00000E40ADF81040ADF814400C203D4CADF83D
:101D10001200CDF8089002A9204603F022F9012212
:101D200040F22551204603F02CFA0121204603F011
:101D300089F9FDE53EB50021324803F083F900241E
:101D40008DF80B4035208DF8080002A802F0FFFA4C
:101D50008DF8044003208DF805004FF4805000906A
:101D60008DF807406946254802F0C0FB042000902A
:101D70006946234802F0BAFB3EBD70B5214C0546CA
:101D80008021204603F015FA0028F9D02946204684
:101D9000BDE8704003F07CB970B50D4606460024DE
:101DA00004E0305DFFF7E9FF641CA4B2AC42F8D355
:101DB00070BD1148B0F80212B0F80002081AC0F362
:101DC000080008E60C4AB2F80012C1F30800491CEA
:101DD000105CA2F80012FEE53271002000140140F0
:101DE000074200200842002035660020367300209C
:101DF00000000240004C00403A75002000080240FC
:101E0000000C02400050004010B50F4C40F225512C
:101E1000204603F0D8F9002815D0204603F03CF9FD
:101E20000A49B1F80222C2F308028854B1F802024A
:101E3000401C80B2A1F80202B1F80022904202D107
:101E4000521CA1F8002210BD005000403A7500203D
:101E500000F076B870B50C460646A02500F094F860
:101E6000200A45EA4000C5B2284600F023F900F0F8
:101E7000C3F870B9E0B200F01DF900F0BDF840B948
:101E800000F082F845F0010000F014F900F0B4F819
:101E900008B1012070BD012000F037F9307000F06A
:101EA0008FF8002070BD70B50C460646A02500F0E6
:101EB0006BF8200A45EA4000C0B200F0FBF800F0E1
:101EC0009BF858B9E0B200F0F5F800F095F828B9A1
:101ED000304600F0EFF800F08FF808B1012070BD37
:101EE00000F06EF80520FEF726FB002070BD2DE9FE
:101EF000F04115460E460746002408E0301981B22D
:101F00003819FFF7A7FF012804D0641CE4B2AC42E3
:101F1000F4D30020BDE8F0812DE9F04115460E46CE
:101F20000746002408E0301981B2385DFFF7BBFF97
:101F30000128EFD0641CE4B2AC42F4D30020E9E7FE
:101F40007CB50121402002F0EFFE874D0421284698
:101F500002F031FB0821284602F02DFB0C20012461
:101F600000908DF804408DF8064003208DF80500A0
:101F70008DF807406946284602F0B8FA7B48C0F859
:101F80008C42C0F888427CBD70B57748016821F06A
:101F900030010160016841F010010160734C0120C3
:101FA000C4F88802C4F88C02042004F52274FEF7F9
:101FB00094FA002525600420FEF78FFA656070BD55
:101FC00070B56948016821F030010160016841F095
:101FD00010010160654C0020C4F88C02C4F888022E
:101FE000042004F52274FEF778FA012565600420C8
:101FF000FEF773FA256070BD70B55B480024016878
:1020000021F030010160594D0126C5F88862304643
:10201000FEF763FAC5F88C620120FEF75EFA0AE06B
:10202000641CE4B20120FEF758FAFA2C03D9FFF73A
:10203000C7FF012070BDD5F808020028F0D1C5F80F
:102040008C0270BD70B5494C0025C4F88C524648CE
:10205000016821F030010160016841F01001016068
:10206000C4F88852022004F52274FEF736FA0120E3
:1020700060600220FEF731FA656070BD70B53B4CC0
:102080000026C4F88C623848016821F030010160F4
:10209000016841F0100101600125C4F88852022056
:1020A00004F52274FEF719FA65600220FEF715FAAE
:1020B000666070BD2DE9F04105462B48016821F0AE
:1020C00030010160016841F010010160274E0027D6
:1020D000C6F88C723C464FF00108E809C6F8880241
:1020E0006806050E0220FEF7F8F9C6F88C82022079
:1020F000FEF7F3F9C6F88C720220FEF7EEF9641CC5
:10210000E4B2082CE9D3BDE8F0812DE9F04781461F
:1021100015480024016821F030010160134E254666
:1021200027464FF00108C6F88C720220FEF7D5F959
:10213000C6F88C826006040ED6F8080208B1641C4A
:10214000E4B20120FEF7C9F96D1CEDB2082DEAD307
:10215000B9F1000F04D0FFF791FF2046BDE8F087EA
:10216000FFF770FFF9E7000000180240000043424B
:1021700001B59DF800008DF800009DF800004FF0BB
:10218000D041087008BD01B59DF800008DF8000031
:102190009DF800004FF0D041487008BD08B54FF0E1
:1021A000D04040788DF800009DF8000008BD00B5D3
:1021B0000246000AFFF7E7FFD0B25DF804EBE2E762
:1021C0004FF0D04210705170704710B5FFF7D0FF3C
:1021D0000520FEF782F9BDE81040DFE7FE484FF02A
:1021E000D041007A087070474FF0D041020A4A701F
:1021F00048707047C0F34511C20AC00200EB41109D
:10220000104480B27047401EC0B2FCD2704730B557
:10221000F14D02460C46A87AFFF7AAFF100AFFF715
:10222000B2FFD0B2FFF7AFFF521CC2F30720FFF797
:10223000AAFFD0B2FFF7A7FF287BFFF799FF200A7C
:10224000FFF7A1FFE0B2FFF79EFF641CC4F3072075
:10225000FFF799FFE0B2FFF796FFBDE83040BDE71A
:10226000F0B5DD4C00232146A279898846F60407A3
:1022700041F66315012A01D02AB11DE0B9421BD0F5
:10228000A94202D118E0A94216D1082814D2DFE8E9
:1022900000F00406080A0C0E101206200CE00720BD
:1022A0000AE0042008E0052006E0012004E0002008
:1022B00002E0032000E00220A1F5134C45F21032A9
:1022C00045F21056BCF1410C07D0B94205D09142FD
:1022D00003D0B14201D0A9427CD1082812D2DFE854
:1022E00000F0110406080A0C0E1080230AE04023B7
:1022F00008E0C02306E0202304E0602302E0A023DE
:1023000000E0E023B14202D14FF4585000E0362003
:10231000914205D0B14203D0A94201D043F0080355
:10232000B94201D143F002031946C0B2FFF748FF9A
:10233000A288AA420AD098062088618802D58842DD
:1023400002D303E0884201D921806080A07AB242A2
:1023500041D1FFF70DFF0020FFF715FFA07A401CC9
:10236000C0B2FFF705FF0020FFF70DFFA07A801C29
:10237000C0B2FFF7FDFE2088401EC0F30720FFF724
:1023800002FFA07AC01CC0B2FFF7F2FE2078401E08
:10239000C0B2FFF7F8FE207BFFF7EAFE0020FFF750
:1023A000F2FE207B401CC0B2FFF7E2FE0020FFF7E8
:1023B000EAFE207B801CC0B2FFF7DAFE6088401E78
:1023C000C0F30720FFF7DFFE207BC01CC0B2FFF781
:1023D000CFFE22E027E0FFF7CBFE0020FFF7D3FE81
:1023E0000020FFF7D0FE2088401EC0F30720FFF733
:1023F000CAFE2078401EC0B2FFF7C5FE207BFFF763
:10240000B7FE0020FFF7BFFE0020FFF7BCFE60888C
:10241000401EC0F30720FFF7B6FEA078BDE8F040ED
:10242000401EC0B2AFE6082812D2DFE800F0040672
:1024300008110A0C0E1030230AE0102308E02023B4
:1024400006E0382304E0282302E0182300E00823F4
:10245000BDE8F040D9B20320B2E600B5FFF7D7FEE1
:10246000FFF7BCFE5D484FF0D0410088020A4A7079
:10247000487000BD10B51446FFF7C9FE5648017AF2
:102480004FF0D0400170210A4170447010BD10B56A
:102490000246BE20FFF76CFE0520FFF774FE1046D3
:1024A00014F05FFA9FED4E1B53EC112B14F06CFAF5
:1024B00014F02AFAC0B2FFF766FE0120FFF763FEB0
:1024C000FF20FFF760FE0020FFF75DFEBDE8104033
:1024D000002058E640492A224FF4F0734A812B220B
:1024E0008A812C220A814FF4A07230B101208871B8
:1024F0000B804A80A821362062E6002088710A807D
:102500004B800821F7E7F0B5334F06461C460D46D1
:10251000B87AFFF72DFE300AFFF735FEF0B2FFF76D
:1025200032FE100AFFF72FFED0B2FFF72CFE387BE9
:10253000FFF71EFE280AFFF726FEE8B2FFF723FE8C
:10254000200AFFF720FEE0B2FFF71DFEBDE8F040D5
:1025500044E610B5244C0020C4F88402642004F53D
:102560002174FDF7E8FF01202060BDE81040322013
:10257000FDF7E1BF70B51849064600240888498870
:1025800001FB00F5491E401E8BB282B22146204657
:10259000FFF7B9FF320A4FF0D041F0B202E04A70C3
:1025A0004870641CAC42FAD370BD2DE9F047A0B06E
:1025B000002401217A201F9402F0B6FB0121084675
:1025C00002F0C6FB012502268DF8045000968DF816
:1025D000064003270AE000003E770020B0410020BB
:1025E000666666666666044000804242DFF85CA468
:1025F0008DF805708DF807506946504601F076FF5A
:102600008DF804604CF233008DF80640DFF84094FA
:1026100000908DF805708DF807506946484601F026
:1026200065FF8DF804604FF4F0608DF80640DFF828
:10263000248400908DF805708DF807506946404657
:1026400001F054FF8DF804608DF806408DF8057098
:1026500000958DF807506946504601F047FF8DF808
:1026600004608DF806408DF80570A8028DF80750BB
:10267000F94D00906946284601F038FF0C220021F0
:10268000484601F0A7FF0C220121484601F0A2FFB5
:102690000C220421484601F09DFF0C2205214846EA
:1026A00001F098FF0C220E21484601F093FF0C2206
:1026B0000F21484601F08EFF0C220721404601F011
:1026C00089FF0C220821404601F084FF0C220921D9
:1026D000404601F07FFF0C220A21404601F07AFFBC
:1026E0000C220021504601F075FF0C220A212846D9
:1026F00001F070FF0F20CDE911043C20CDE9130457
:10270000159405201694CDE91740CDE919401B9486
:102710001C940420CDE902041E94059406948002C2
:10272000CDE90A40089407948000CDE90C401D943F
:102730000494099411A8CDE90E4018A8109002A89D
:1027400001F081FF0121042001F0F6FFFFF701FFF6
:102750000020FFF73AFDC14A9080D320FFF708FD23
:10276000FFF71CFD9080FFF719FD9080FFF716FD25
:102770004FF6FF7101EA00209080FFF70FFD91886E
:1027800008439080F920FFF7F3FC0020FFF7FBFCE3
:102790000820FFF7F8FCC020FFF7EAFC1920FFF73C
:1027A000F2FC1A20FFF7EFFCC120FFF7E1FC452007
:1027B000FFF7E9FC0020FFF7E6FCC220FFF7D8FC9A
:1027C0003320FFF7E0FCC520FFF7D2FC0020FFF725
:1027D000DAFC2820FFF7D7FCB120FFF7C9FCA020C6
:1027E000FFF7D1FC1120FFF7CEFCB420FFF7C0FCAF
:1027F0000220FFF7C8FCB620FFF7BAFC0020FFF765
:10280000C2FC4220FFF7BFFC3B20FFF7BCFCB72017
:10281000FFF7AEFC0720FFF7B6FCE020FFF7A8FCAF
:102820001F20FFF7B0FC2520FFF7ADFC2220FFF7AB
:10283000AAFC0B20FFF7A7FC0620FFF7A4FC0A2048
:10284000FFF7A1FC4E20FFF79EFCC620FFF79BFC84
:102850003920FFF798FC0020FFF795FC0020FFF7D8
:1028600092FC0020FFF78FFC0020FFF78CFC00207B
:10287000FFF789FC0020FFF786FCE120FFF778FCDA
:102880001F20FFF780FC3F20FFF77DFC3F20FFF774
:102890007AFC0F20FFF777FC1F20FFF774FC0F2056
:1028A000FFF771FC4620FFF76EFC4920FFF76BFC39
:1028B0003120FFF768FC0520FFF765FC0920FFF7D2
:1028C00062FC0320FFF75FFC1C20FFF75CFC1A2072
:1028D000FFF759FC0020FFF756FCF120FFF748FCFA
:1028E0003620FFF750FC0420FFF74DFC0020FFF7D7
:1028F0004AFC3C20FFF747FC0F20FFF744FC0F2069
:10290000FFF741FCA420FFF73EFC0220FFF73BFC51
:10291000F220FFF72DFC1820FFF735FCA320FFF76E
:1029200032FC1220FFF72FFC0220FFF72CFC322094
:10293000FFF729FC1220FFF726FCFF20FFF723FCFE
:102940003220FFF720FC0020FFF71DFCF420FFF7EA
:102950000FFC4020FFF717FC0020FFF714FC0820B5
:10296000FFF711FC9120FFF70EFC0420FFF70BFC92
:10297000F820FFF7FDFB2120FFF705FC0420FFF7FF
:1029800002FC3620FFF7F4FB4820FFF7FCFB3A205F
:10299000FFF7EEFB5520FFF7F6FB1120FFF7E8FBF2
:1029A0007820FDF7C8FD2920FFF7E2FB0020FFF7A4
:1029B00091FD0020FFF7DEFD20B0BDE8F08770B587
:1029C00002FB03F50B4402445B1E521E00249BB223
:1029D00092B2049EFFF797FDFFF700FC310A4FF01B
:1029E000D040F2B202E041704270641CAC42FAD3B3
:1029F00070BDF0B5171A5D1A6D1C7F1C00247D4355
:102A0000059EFFF780FDFFF7E9FB310A4FF0D0404C
:102A1000F2B202E041704270641CAC42FAD3F0BDE5
:102A20002DE9F04F8046A2EB0800401C8A4686B292
:102A3000A3EB0A00401C1FFA80FB0025099F29E038
:102A400000240AEB050C4FF0D0491FE000140240AF
:102A5000000C024000100240001802403E770020A7
:102A600008EB04001FFA8CF180B2FFF7D0FBFFF7F0
:102A7000B5FB05FB064037F810100A0A89F801205B
:102A800017F8100089F80100641CA4B2B442E7D31F
:102A90006D1CADB25D45D3D3BDE8F08F2DE9FC4F81
:102AA0000026A2EB000C81465F1A701E3546884650
:102AB000BCF1000F02DD4FF0010102E003D14FF045
:102AC0000001009102E0CCF1000C0090002F02DD2B
:102AD0004FF0010002E003D14FF00000834602E016
:102AE0008346C7F10007BC4501DD644600E03C4673
:102AF000601C4FF0000A019014E01FFA88F11FFAE1
:102B000089F0FFF7AAFC66443D44A64202DD009925
:102B1000361B8944A54201DD2D1BD8440AF1010072
:102B20001FFA80FA01998A45E7DDBDE8FC8FF0B510
:102B30001C4615460E4607460B46FFF7AFFF3A46C2
:102B4000234631461046FFF7A9FF23462A46194679
:102B50003846FFF7A3FF2A4623463146BDE8F0403A
:102B600010469BE72DE9F84F8446002415460320C4
:102B70000F46A0EB45064AE0781B81B20CEB040936
:102B800000901FFA89F0FFF768FCA7EB040B0CEB31
:102B900005081FFA8BF11FFA88F0FFF75EFC07EBC0
:102BA000040A1FFA8AF11FFA88F0FFF756FC07EBB8
:102BB00005081FFA88F11FFA89F0FFF74EFCACEB0D
:102BC00004091FFA88F11FFA89F0FFF746FCACEB05
:102BD00005081FFA8AF11FFA88F0FFF73EFC0098FB
:102BE00081B21FFA89F0FFF738FC1FFA8BF11FFA48
:102BF00088F0FFF732FC641C002E03DA06EB840633
:102C0000B61D04E0601B06EB80066D1E0A36AC4262
:102C1000B2DDBDE8F88F2DE9F04F80460D468946BC
:102C2000002091B01C46590700D0012101EBD401CE
:102C3000630811FB03F11091202C02D342F206002D
:102C400009E0182C02D0102C03D004E040F60460F8
:102C500001E040F2026012FB01016846109AFEF7A3
:102C6000A8F84FF0000CDFF85CA6DFF85CB634E0A3
:102C70000C2C05D0102C03D0182C01D0202C2FD1D7
:102C80001DF80C700026F80702D0BAF8002003E007
:102C90001A9828B9BAF8022029464046FFF7EAFBFD
:102CA0006D1CBBF802007F08ADB2A84218D9A5EB95
:102CB0000900A04209D108F10100BBF800101FFA79
:102CC00080F84D4641450BD903E0761CF6B2082E3C
:102CD000D9D30CF1010C0CF0FF0C10988445C7D32C
:102CE00011B0D9E60346012000E05843491EC9B29D
:102CF000FBD270472DE9FF4F81B00027DDF838B0D7
:102D00001D46924680463C46B9464FEA5B0627E0A0
:102D1000281B401EC1B20A20FFF7E4FFBAFBF0F007
:102D20000A21B0FBF1F201FB120027B9691E8C42A7
:102D300001DA48B101273030C2B206FB048080B20C
:102D40005B46CDF8009006E006FB048080B25B464F
:102D50002022CDF800900299FFF75DFF641CE4B2D9
:102D6000AC42D5D305B097E62DE9F84F00271E46B3
:102D700090468B4681463D463C46DDF828A023E040
:102D8000301B401EC1B20A20FFF7ACFFB8FBF0F0C9
:102D90000A21B0FBF1F201FB120027B9711E8C422F
:102DA00001DA78B10127002130300091C2B24FEA38
:102DB0005A0101FB059080B253465946FFF72BFF9D
:102DC0006D1CEDB2641CE4B2B442D9D321E72DE905
:102DD000FF4F81B08046DDF83CA00E984FF000090F
:102DE0001F4693464C460AF0010546082BE0381B67
:102DF000401EC1B20A20FFF775FFBBFBF0F00A21AD
:102E0000B0FBF1F201FB1200B9F1000F05D1791E00
:102E10008C4202DA48B14FF001093030C2B206FBF1
:102E2000048080B200950E9B08E05FEA0A6006FB12
:102E300004800E9B80B2009508D530220299FFF7DE
:102E4000EAFE641CE4B2BC42D1D38BE72022F5E752
:102E50002DE9F84F044600F0FF0810190D46DDE992
:102E60000A761FFA80FA58191FFA80F94FF0000B02
:102E700011E0544502D3E819444685B24D450FD2BE
:102E80003B4629462046CDF800B0FFF7C4FE04EBD0
:102E9000570084B2761C3278A2F120005E28E8D96F
:102EA000B7E62DE9F04105462DED028BF0EE408AA4
:102EB00082B0BCEEE80A1E46174610EE100A0A9CC5
:102EC000884680B200EE100A02232846B8EE408AF7
:102ED0000094BCEEC80A10EE102AFFF70BFFFBA00F
:102EE000CDE900402544A8B233463A464146FFF7B3
:102EF000AFFF38EEC80ADFEDF60A8020CDE90040CA
:102F000020EE200A05EB540080B20223BCEEC00A7A
:102F1000414610EE102AFFF75AFF02B0BDEC028BBB
:102F2000BDE8F081F0B51E4617468A19521E93B2CD
:102F3000C219521E92B2059DFFF7E5FA00247743AD
:102F40000AE005EB440015F814604078FFF71BF920
:102F50003046FFF718F9641CA742F2DCDA484188D2
:102F60000088491EBDE8F040401E8BB282B20021AD
:102F70000846FFF7C8BA2DE9FF4F87B00F461499EE
:102F80000446064608789046A038C0B2401EC0EB02
:102F90000012497802EB40104FF0FF32A03902EBEB
:102FA0004000C9B2084480B200EB400044F208017E
:102FB00001EBC00118226846FDF7FBFE07F10B008C
:102FC00083B204F10B0082B239462046FFF79BFA28
:102FD000DFF8F0924FF0000CEA464FF0800B00252E
:102FE000159840B3A9F800801AF80C102BFA05F0D8
:102FF000014203D039462046FFF72FFA641CA4B2E1
:10300000A01B0C282AD06D1CEDB2082DE8D30CF1C2
:10301000010C0CF0FF0CBCF1180FE0D3AA4841885A
:103020000088491E8BB2401E82B200210846FFF77D
:103030006AFA0BB030E51AF80C102BFA05F00142D1
:1030400002D0A9F80080D5E70A98A9F8000039460F
:103050002046FFF702FAA9F80080CFE77F1C34462C
:10306000BFB2D4E72DE9FF4F89B00F461699054648
:10307000064608789346A038C0B2401EC0EB001246
:10308000497802EB40104FF0FF32A03902EB4000CC
:10309000C9B208448F4980B201EB40112022684632
:1030A000FDF787FE07F10F0083B205F10F0082B232
:1030B00039462846FFF727FA4FF0000CE9464FF053
:1030C0008008DFF800A20024179888B1AAF800B0A1
:1030D00019F80C1028FA04F0014203D039462846AA
:1030E000FFF7BBF96D1CADB2A81B102823D00AE076
:1030F00019F80C1028FA04F0014201D0584600E0FB
:103100000C98FFF754F8641CE4B2082CDCD30CF1E3
:10311000010C0CF0FF0CBCF1200FD2D36A4841889F
:103120000088491E8BB2401E82B200210846FFF77C
:10313000EAF90DB0B0E47F1C3546BFB2E7E72DE9F0
:10314000FF4F93B00F4620990546064608789346F0
:10315000A038C0B2401EC0EB0012497802EB40100C
:103160004FF0FF32A03902EB4000C9B2084480B2F0
:10317000594900EBC00001EBC00148226846FDF749
:1031800018FE07F1170083B205F1170082B2394625
:103190002846FFF7B8F94FF0000CE9464FF08008D9
:1031A000DFF820A10024219888B1AAF800B019F80E
:1031B0000C1028FA04F0014203D039462846FFF7E4
:1031C0004CF96D1CADB2A81B182823D00AE019F8E1
:1031D0000C1028FA04F0014201D0584600E016987D
:1031E000FEF7E5FF641CE4B2082CDCD30CF1010C03
:1031F0000CF0FF0CBCF1480FD2D333484188008853
:10320000491E8BB2401E82B200210846FFF77BF9AF
:1032100017B041E47F1C3546BFB2E7E72DE9FF4F09
:1032200091B088461E990446074608789346A03810
:10323000C0B2401EC0EB0012497802EB40104FF0C4
:10324000FF32A03902EB4000C9B20844214980B2E4
:1032500001EB401120226846FDF7ABFD00206946D6
:1032600008AD31F8102052BA25F81020401CC0B229
:103270001028F6D308F11F0083B204F11F0082B2B8
:1032800041462046FFF73FF90026A9464FF4004A81
:103290004FF0000C00251F9800B30A492AFA05F0E8
:1032A000A1F800B039F81610014229D04146204655
:1032B000FFF7D3F8641CA4B241462046FFF7CDF8CF
:1032C000641C1EE0B04100203E7700202E0000006C
:1032D0000000C842BA3E03006CB0050039F8161071
:1032E0002AFA05F0014204D05846FEF760FF58461E
:1032F00003E01498FEF75BFF1498FEF758FF04E014
:10330000A41CA4B2E01B20281CD06D1CEDB2102D13
:10331000C1D30CF1010C1FFA8CFCBCF1020FB9D324
:10332000761CF6B2102EB3D3A94841880088491EF6
:103330008BB2401E82B200210846FFF7E4F815B0B8
:10334000BDE8F08F08F101003C461FFA80F8E0E785
:103350002DE9FF4F83B006468246DDE910549D48B3
:1033600088460599129F018006994FF00009418017
:10337000DFF85CB21FE0BBF80010B9F1000F1FD0FE
:10338000091BB1421ADBBBF80200011B414515DBEA
:103390004FF00009202C40D0182C47D0CDE9005721
:1033A000DDE90523102C4146304648D0FFF7E3FD08
:1033B000301986B2AD1C2A78002ADCD107B0BFE7ED
:1033C000A1EB5401B142F9DBBBF80200011B4046FE
:1033D0004145F3DB802A02D94FF00109EBE70D2AC2
:1033E0000AD0202C00970ED9014610233046FFF753
:1033F00012FC0836B6B20EE008EB04001FFA80F8A3
:1034000056466D1C07E0014623463046FFF703FC95
:1034100006EB540086B26D1CCDE7CDE90057DDE91F
:10342000052341463046FFF7F9FEC1E7CDE90057D5
:10343000DDE9052341463046FFF781FEB8E7FFF797
:1034400011FEB5E72DE9F0430E460746614907989E
:103450001C461546088006EB040C07EB05091FFA0D
:103460008CF11FFA89F0FEF7F8FF1FFA8CF1A7EB39
:10347000050C1FFA8CF0FEF7F0FFA6EB04081FFA0C
:1034800088F11FFA89F0FEF7E8FF1FFA88F11FFAAA
:103490008CF0FEF7E2FF06EB050C07EB04081FFAC1
:1034A0008CF11FFA88F0FEF7D8FF3F1B1FFA8CF152
:1034B000B8B2FEF7D2FF741BA1B21FFA88F0FEF774
:1034C000CCFFA1B2B8B2BDE8F043FEF7C6BF2DE90C
:1034D000F84789461E4690468246002471420322E0
:1034E000099802EB4105C8B930E0274608E03B46A1
:1034F000224649465046CDF80080FFF7A3FF7F1CC7
:10350000B742F4DD002D03DA05EB8405AD1D04E0C0
:10351000A01B05EB80050A35761E641CB442E4DD71
:10352000BDE8F8873346224649465046CDF800802C
:10353000FFF788FF002D03DA05EB8405AD1D04E0DD
:10354000A01B05EB80050A35761E641CB442E9DD3C
:10355000E6E72DE9FF4F0C46844688460027DFF852
:103560007490DFF86CA0DDF838B02BE002980025ED
:10357000C65DF00702D0B9F8002004E0BBF1000FEF
:1035800005D1B9F8022021466046FEF773FF641C9E
:10359000BAF802007608A4B2A04216D90D98A4EB9E
:1035A0000801814209D10CF1010CBAF800001FFAA0
:1035B0008CFC4446604508D903E06D1CEDB2082D33
:1035C000D7D37F1C03988742D0D3BDE8FF8F00007C
:1035D0003E770020B04100202DE9F04700259046BD
:1035E0000C4607462E464FF40079DFF814A119E087
:1035F000E078A178000640EA014061784A4640EA56
:10360000012014F8041B01434AF825106D1CADB2CB
:10361000954206D100253A49384600F0BAF807F538
:103620000067361D4645E3D3002D06D02A463846AE
:10363000BDE8F047324900F0ACB8BDE8F08710B5FE
:103640000168304A1140B1F1005F09D141682E4C48
:1036500061600068FCF715FE6068BDE81040004737
:1036600010BD2B492948086070472DE9F047294CC7
:103670000025DFF894A0D4F81B002E46A946B0F52B
:10368000003F04D9FDF70DF98AF80090D5E7A07E38
:103690000028D2D00FF06DFB4FF40067A04611E078
:1036A000841BBC4200D33C46A2B205F580111A48E7
:1036B000FDF77FFB2246184905F10060FFF78CFFFC
:1036C00025442644D8F81B00B042E9D80FF07EFB11
:1036D000FDF7E7F80E498AF800900C480860ACE75F
:1036E00010B5094C2078012808D1607818B90FF07E
:1036F00090FB01206070BDE81040B6E710BD0000EF
:103700004C7700200000FE2FB44100200400FA0591
:103710000CED00E0C04500204C7F002000687047A1
:103720004049884201D2002070473F49884201D277
:10373000082070473D49884201D2102070473C491B
:10374000884201D2182070473A49884201D220208D
:1037500070473949884201D228207047374988424A
:1037600001D2302070473649884201D23820704754
:103770003449884201D2402070473349884201D2FF
:10378000482070473149884201D250207047582064
:1037900070472DE9F041092690460F460446B0F1E6
:1037A000006F31D3A0072FD102F02AFF002002F0D2
:1037B00010FF2748254604EB880884420ED31AE000
:1037C0002868401C09D02846FFF7AAFF022102F012
:1037D00056FF0646092801D00FE02D1D4545EFD3C1
:1037E000092E08D009E02046396803F020F809289E
:1037F00003D1241D3F1D4445F5D3012002F0E9FE0D
:10380000BDE8F04102F008BFBDE8F08110B500232B
:1038100003E010C841F823405B1C9342F9D310BD6C
:1038200070470000004000080080000800C0000849
:10383000000001080000020800000408000006085B
:103840000000080800000A0800000C0800000E082C
:103850000000FF1F2DE9FC5F01248DF804400020CB
:103860008DF8060003208DF8050000208DF8070074
:1038700004266946FA48009600F038FE0421F8480C
:1038800000F09BFE4FF008086946F548CDF800802F
:1038900000F02CFE0821F24800F08FFE4FF01009D6
:1038A0006946F048CDF8009000F020FE1021ED4868
:1038B00000F083FE4FF0400A6946EA48CDF800A0C8
:1038C00000F014FE4021E74800F077FEA5036946AA
:1038D000E548009500F00AFE2946E34800F06DFE39
:1038E0006946DF48009400F001FE0121DC4800F049
:1038F00064FE022000906946D94800F0F7FD0221DD
:10390000D74800F05AFE67036946D548009700F093
:10391000EDFD3946D24800F050FE6946D04800958A
:1039200000F0E4FD2946CE4800F047FEE503694675
:10393000CD48009500F0DAFD2946CB4800F03DFE69
:10394000DFF828B3270269465846009700F0CEFDFD
:103950003946584600F031FE6702694658460097DE
:1039600000F0C4FD3946584600F027FE6946BC48C1
:10397000009500F0BBFD2946B94800F01EFE6946DF
:10398000B948009600F0B2FD0421B74800F015FEDA
:103990000094B74C6946204600F0A8FD012120465E
:1039A00000F00BFE6946B048CDF8008000F09EFDA7
:1039B0000821AD4800F001FE6946AB48CDF8009003
:1039C00000F094FD1021A84800F0F7FD6946A648D4
:1039D000009700F08BFD3946A34800F0EEFD24155A
:1039E0006946A148009400F081FD21469E4800F000
:1039F000E4FD69469A48CDF800A000F077FD40212B
:103A0000974800F0DAFD9B489B49006808604860D1
:103A10008860C860BDE8FC9F2DE9F05FDFF85CA21C
:103A2000974F8F4E9AF80600924D934CDFF83882EC
:103A3000C0074FF4804B5BD005F0E7FE0128DFF8AC
:103A4000249297F8D80001D048B300E080B1042157
:103A5000304600F0B2FD0821304600F0ACFD1021E8
:103A6000484600F0AAFD4021484600F0A4FD0FE0C2
:103A70000421304600F09FFD0821304600F09DFDF6
:103A80001021484600F097FD4021484600F095FD82
:103A90005946404600F091FD2868206028E06420E7
:103AA0002168FDF7E6FAB8B12868206004213046A5
:103AB00000F077FD00284FF00401304606D000F0FA
:103AC0007CFD0821304600F076FD05E000F073FD36
:103AD0000821304600F071FD1021484600F06DFDD0
:103AE0004021484600F069FD5946404600F063FD1C
:103AF0009AF80600D14680075DD505F086FE0128BC
:103B000097F8D9004FF4005A01D050B300E080B1CB
:103B10000121304600F051FD0221304600F04BFDFE
:103B20005146304600F049FD5946304600F043FD0D
:103B30000FE00121304600F03EFD0221304600F04A
:103B40003CFD5146304600F036FD5946304600F007
:103B500034FD4FF40041404600F02FFD28686060BE
:103B600029E064206168FDF784FAB8B128686060D4
:103B70000121304600F015FD00284FF001013046CC
:103B800006D000F01AFD0221304600F014FD05E0D9
:103B900000F011FD0221304600F00FFD5146304685
:103BA00000F00BFD5946304600F007FD4FF4004190
:103BB000404600F000FD99F80600CB46400775D559
:103BC00005F023FE0128DFF8A49097F8DA004FF4FF
:103BD000807A01D068B300E090B15146484600F0C9
:103BE000ECFC4FF40071484600F0E5FC4FF4004156
:103BF000304600F0E2FC0421404600F0DCFC11E01D
:103C00005146484600F0D7FC4FF40071484600F09A
:103C1000D4FC4FF40041304600F0CDFC0421404676
:103C200000F0CBFC0121124800F0C7FC2868A0601E
:103C30003CE06420A168FDF71CFA50B32868A0603E
:103C40005146484600F0ADFC00285146484619D080
:103C500000F0B3FC4FF40071484600F0ACFC18E0F3
:103C6000000802400010024000140240000402401C
:103C700000180240AC4100204C870020C0450020C5
:103C8000B489002000F097FC4FF40071484600F022
:103C900094FC4FF40041304600F08FFC0421404674
:103CA00000F08BFC0121364800F085FC9BF80600F3
:103CB000000735D505F0A9FD012897F8DB004FF482
:103CC000806901D070B300E090B1082147464046BA
:103CD00000F073FC1021384600F06DFC4FF40071C9
:103CE000384600F06AFC4946384600F064FC11E0B2
:103CF00008214746404600F05EFC1021384600F09F
:103D00005CFC4FF40071384600F055FC49463846DB
:103D100000F053FC4021304600F04FFC2868E06082
:103D2000BDE8F09F6420E168FDF7A3F9C0B1286801
:103D3000E06008214446404600F033FC00284FF084
:103D40000801204606D000F038FC1021204600F083
:103D500032FC05E000F02FFC1021204600F02DFC85
:103D60004FF400714446404600F027FC4946204687
:103D700000F023FC3046BDE8F05F402100F01BBCA2
:103D8000001802403EB50121022000F0F5FFFF4C73
:103D90000021204601F052FB684601F007FBFC4879
:103DA0000021ADF800100068FA4AADF80810B0FB29
:103DB000F2F2521EADF8021001926946204601F05F
:103DC000C5FA0121204601F01FFB2021204601F009
:103DD000C8FE0121204601F031FB3EBD2DE9FF4127
:103DE00001248DF80440002504208DF80650032698
:103DF000DFF8A48300908DF805608DF807406946D0
:103E0000404600F073FB0421404600F0D4FB600301
:103E100000908DF8045002278DF8077069464046DF
:103E200000F064FB8DF80C608DF80F5002A9DB48A0
:103E3000029700F05BFB00F005FA00F0C3F92C20BC
:103E40008DF808008DF809408DF80A408DF80B4078
:103E500002A800F07CFA38208DF808008DF809607F
:103E60008DF80A408DF80B4002A800F070FAFFF7B9
:103E700089FFBDE8FF8110B5C44C0121204601F047
:103E800002FE002805D02046BDE81040012101F0C7
:103E900006BE10BDC249C3480A88C36949889A1A38
:103EA0000078511A801EB1FBF0F080B27047BD4817
:103EB000007870474FF40051B74800F068BB2DE917
:103EC000F04FDFF8E092DFF8D8B2002299F80260F4
:103ED00009F12808ABF1300B0127A8F108050BF117
:103EE000100A002107FA01F333421BD0531800EBEC
:103EF000430338F811C09C88644501D228F811406A
:103F00009C8835F811C0644501D925F811405BF84B
:103F100021C09B8863444BF821305AF821305B1C48
:103F20004AF82130491CC9B20429DBD330F81230D9
:103F3000D9F804402344C9F80430D9F808305B1C90
:103F4000C9F8083000EB4203D9F80C405B88521CDA
:103F50002344C9F80C30D9F81030D2B25B1CC9F830
:103F60001030802ABDD300208D4E8A4D02465C461B
:103F70005346103E53F82010A94209D954F8207036
:103F8000B7FBF1F146F8201044F8202043F8202038
:103F9000401CC0B20428EDD3D9F810004946B0F552
:103FA000A06F0AD3CB68CA60B3FBF0F040F6E443DD
:103FB0005843000B8861C9F81020BDE8F08F70B538
:103FC000794C7A4D2146284602F0A6FA002823D0E3
:103FD0007448714A4178B1B1002141700421104602
:103FE00000F0EBFA284602F049FA98B17048FFF762
:103FF00066FF2146284602F0B2FA21462846BDE86F
:10400000704002F062BA012141700421104600F0B4
:10401000D2FAE7E76748EAE770BD10B528216048A3
:1040200012F0F0F95F4800210170C161BDE8104055
:10403000D4E65C4A938A0380108B088070472DE990
:10404000F043DFF86091564D09F1200299F802C063
:10405000A5F130052CEA000C89F802C05FEAC078AF
:104060004FF000014FF6FF7302F1080405F110064E
:1040700005F1200704D01180238029603160396068
:104080005FEA807804D551806380696071607960EF
:104090005FEA407804D59180A380A960B160B960DF
:1040A0005FEA007804D5D180E380E960F160F960CF
:1040B0004CEA000C89F802C0BDE8F08339498A78DF
:1040C00082438A7070472DE9F04F9B46344C0023A1
:1040D000344FA4F130049246894607F120071A466E
:1040E00019465FEAC07807F1080C04F1100504F1E5
:1040F00020060DD0388840F6B8314843030BBCF891
:1041000000004843020B306898BB206829680FE024
:104110005FEA80780FD5788840F6B8314843030BC2
:10412000BCF802004843020B706810BB6068696805
:10413000B0FBF1F01DE05FEA40780DD5B88840F69D
:10414000B8314843030BBCF804004843020BB06885
:1041500078B9A068A968EBE700070ED5F88840F6A3
:10416000B8314843030BBCF806004843020BF06823
:1041700058B140F6B8314843010B5B005200C9F812
:1041800000304900CAF8002016E018E000040140A1
:1041900088410020A0860100001002400004024077
:1041A0008C890020BC410020208000101064024057
:1041B0005C8800205C870020CBF80010FDE6E068FA
:1041C000E968B5E710B501210C028AB0204600F07D
:1041D000D3FD0121204600F001FE0021204600F021
:1041E000FDFD002406944FF480300994CDE90704C6
:1041F00006A801F042FD012001078DF8040002919C
:1042000000948DF805404FF06061CDE903142C4C0B
:104210008DF814006946204601F004FD01231A467A
:104220000921204601F073FD0121204601F0ECFD3B
:104230000121204601F0DEFD0121204601F034FD80
:104240000AB010BD10B5012190B0880500F06CFDDA
:104250001B4900204C31CDE900011A49CDE902107B
:104260008021CDE90410C900069149000791890019
:104270000891491109914902CDE90A100121CDE9BE
:104280000C10114C0E906946204602F081F8002275
:104290000E49204602F0D8F80121204602F0DFF84E
:1042A0000B49204602F05BF901221021204602F062
:1042B0001DF90121204602F0A4F810B010BD000045
:1042C000002001405C870020106402405C880020D0
:1042D0002080001001F11002622A03D2074A02EB8B
:1042E00081010864704700F11001622904D2034A79
:1042F000034902EB80000164704700000040002089
:10430000054300080948804709480047FEE7FEE7E3
:10431000FEE7FEE7FEE7FEE7FEE7FEE7FEE7FEE775
:1043200004480549054A064B704700005B03000836
:1043300089010008C8AF0020C8B50020C8B100201E
:10434000C8B100202F4908432F490860704730B595
:104350000F23C27801780125FAB12B4A126801F1C6
:10436000E02102F4E062C2F5E062C2F30722C2F18A
:104370000404D3404278A24084781C4014432201B4
:1043800081F80024007800F01F018D404009800072
:1043900000F1E020C0F8005130BD01F01F00854061
:1043A0004809800000F1E020C0F8805130BD174A74
:1043B000114001431448001F01607047124A121D4A
:1043C0000029116801D0014300E08143116070476A
:1043D0004FF0E0210428086903D020F004000861B0
:1043E000704740F00400FAE772B609490868401CBB
:1043F0000860704706490868401E086000D162B630
:10440000704700000000FA050CED00E080FFFF1F80
:10441000EC410020774910B5884206D101210846B9
:1044200000F0B4FC002101205BE07349884206D112
:104430000121022000F0AAFC0021022051E06F4976
:10444000884206D10121042000F0A0FC00210420B4
:1044500047E06B49884206D10121082000F096FC14
:10446000002108203DE06749884206D10121102043
:1044700000F08CFC0021102033E06349884206D113
:104480000121202000F082FC0021202029E05F494A
:10449000884206D10121402000F078FC0021402014
:1044A0001FE05B49884206D10121802000F06EFCAC
:1044B0000021802015E05749884202D1012184154E
:1044C0000AE05549884202D10121441504E05349CC
:1044D00088420AD101210415204600F057FC002132
:1044E0002046BDE8104000F051BC10BDF0B50022E0
:1044F00001274FF0030C0B6807FA02F52B40AB4283
:104500002CD1066853000CFA03F4A64306600E791A
:10451000D0F800E09E4046EA0E0606600E79012EB5
:1045200001D0022E12D18668A64386604E79D0F85B
:1045300008E09E4046EA0E0686604668AE43466046
:1045400045688E799640B6B235434560C568A54347
:10455000C560CC799C40C3681C43C460521C102ABF
:10456000C9D3F0BD4FF6FF710160002101714171A7
:104570008171C171704708B541F480320092C26107
:10458000C1610099C161C169C069009008BD02465E
:10459000002012690A4200D001207047006980B2F1
:1045A00070470246002052690A4200D0012070473D
:1045B000406980B2704701837047418370470AB1F8
:1045C00001837047418370474161704742694A40A7
:1045D000426170474B07DB0E9A40C90810B500EBEB
:1045E0008100016A0F249C40A1430162016A1143CA
:1045F000016210BD000002400004024000080240B9
:10460000000C02400010024000140240001802405A
:10461000001C02400020024000240240002802400A
:104620008100A1F1C04140B143F2D20008606FF0B7
:1046300070404860C1F8040170474FF0204243F2D7
:10464000DB001060F3E710B5D0E901121143D0E9A7
:1046500003231A4311434269114382691143C2691A
:104660001143026A1143426A1143826A1143C26ACA
:104670001143026B114302689200A2F1C042116023
:104680008168082907D101688900A1F1C0410A6841
:1046900042F040020A60416BD1E9002342EA031272
:1046A0008B688C891B0243EA04431A430B8A42EA53
:1046B00003520B7D896942EA03620A43016889005B
:1046C000A1F1C0414A60C16AB1F5804F08D00068CD
:1046D0006FF070418000A0F1C040C0F8041110BD1F
:1046E000816BD1E9002342EA03128B680C8A1B021A
:1046F00043EA04531A430B7D896942EA0362006866
:104700000A438000A0F1C040C0F8042110BD002180
:104710000222C0E900128160C160016141618161D2
:10472000D202C161C0E908125200C0E90A21016346
:10473000CB494163816370478000A0F1C0400029EC
:10474000016802D041F0010101E0C64A1140016058
:10475000704710B5182340244FF020414FF0FC3231
:10476000102805D041F8803F4C608A60CA6010BDB7
:104770000B664C668A66CA6610BD30B5D0E9011278
:104780001143D0E903231A431143426941EA42210C
:10479000826941EA423141F00804C169D1E900234C
:1047A00042EA03220B89097B1B0443EA01610A43A5
:1047B000016AD1E9003543EA05230D89097B2D04FF
:1047C00045EA01610B4301684FF02040102904D0F5
:1047D00040F8804F8260C36030BD04668266C36665
:1047E00030BD10210160002141608160C160016124
:1047F00041618161C269FC211160C2695160C26975
:104800009160C269D160026A1160026A5160026AF5
:104810009160006AC16070474FF0204251B110288A
:1048200004D052F8800F40F004000AE0106E40F00F
:1048300004000AE08B49C91E102804D052F8800FEA
:10484000084010607047106E0840106670474FF0C7
:10485000204251B1102804D052F8800F40F040009F
:104860000AE0106E40F040000AE07E493F3910280F
:1048700004D052F8800F084010607047106E084056
:10488000106670474FF02041102802D0D1F89400F4
:104890007047486F70474FF02040182140F8A01F24
:1048A000002141604FF0FC318160C16001617047BF
:1048B00010B5D0E9001241EA42218268102343EA90
:1048C000423211434FF0204242F8A01FC168D1E9A3
:1048D000003443EA04230C89097B240444EA01617F
:1048E0000B4393600169D1E9003443EA04230C8946
:1048F000097B240444EA01610B43D3604069D0E999
:10490000001341EA03210389007B1B0443EA006092
:104910000143116110BD0021016041608160C268E6
:10492000FC211160C2685160C2689160C268D160A8
:104930000269116002695160026991600269D16087
:104940004269116042695160426991604069C16089
:1049500070474FF02041002851F8A00F02D040F0DE
:10496000040002E03F4AD21E10400860704710B5B4
:104970004FF480744FF0204372B1102804D0A0424D
:1049800005D153F8840F04E0586E08430DE053F846
:10499000A40F0843186010BD102804D0A04206D10F
:1049A00053F8840F05E0586E8843586610BD53F8DD
:1049B000A40F8843EEE7034600204FF02042102B5F
:1049C00008D0B3F5807F07D0D2F8A4200A4200D0E7
:1049D00001207047526EF9E7D2F88420F6E74FF0D5
:1049E0002042102807D0B0F5807F08D052F8A40FDD
:1049F000884310607047506E88435066704752F885
:104A0000840FF5E7034600204FF02042102B0CD016
:104A1000B3F5807F0BD0D2F8A4200A4202EAD1017C
:104A200002D0002900D001207047526EF5E7D2F87D
:104A30008420F2E74FF02042102808D0B0F5807FA4
:104A40000AD052F8A40F20EAD10010607047506ECF
:104A500020EAD1005066704752F8840FF3E7000057
:104A600068900108FEFF0F00F948016841F001015C
:104A70000160F74A0021083211600268F54B1A40C4
:104A80000260031DF44A1A60F14BF44A84331A6041
:104A9000F14A103A1B1D1A60026822F4802202605B
:104AA000EB480C300160181D01607047E849002296
:104AB000891C0A70087070470246002051090129BC
:104AC0000CD002290CD0E2497431096802F01F02AF
:104AD000012393400B4200D001207047DC49F4E7EA
:104AE000DB497031F1E718B500204FF4A044009085
:104AF0003120FFF7E1FF0099491C0091A14201D04C
:104B00000028F5D03120FFF7D7FF002800D0012082
:104B100018BDCF4A116821F0F80141EAC0001060C9
:104B20007047CF4908607047C949002270310A7048
:104B30000A70012802D0042801D1052008707047AE
:104B4000C8490860704741EA82115A0810B5C64B3F
:104B5000029C03EB02421143014341EA0460BC4959
:104B6000091D086010BDBE4908667047800140EA13
:104B70000170B749843108607047B9498866704749
:104B8000800140EA0160B24940EA02708831086061
:104B90007047B34908677047B149C8647047AC4B68
:104BA00008331A68084322F0EC621043186070471B
:104BB000A74B08331A68084322F078421043186064
:104BC0007047A34A0832116821F0030101431160C4
:104BD00070479F480830006800F00C0070479C4AFE
:104BE0000832116821F0F001014311607047984AC2
:104BF0000832116821F4E051014311607047944A72
:104C00000832116821F4604141EAC0001060704729
:104C100030B58F4C08342168944A11F00C0103D050
:104C2000042901D0082901D0026013E0884B1B1D24
:104C30001968196801F03F01B2FBF1F11A68C2F37B
:104C4000881251431A68C2F30142521C5200B1FB50
:104C5000F2F1016021680F2202EA1111844A535CCB
:104C60000168D94041602368072505EA9323D35C96
:104C700021FA03F38360236805EA5333D25CD14001
:104C8000C16030BDC0F30121032908D1704B083346
:104C90001968784A21F4F81102400A431A606C49F5
:104CA00070310A68C0F30B0002430A6070476D4917
:104CB0004439086070476B4940390860704768495B
:104CC000C1F85C017047624A8C321168401E21F0C5
:104CD0001F010143116070475D4A8C3211686FF00B
:104CE000FF0321F4F85103EB0020084310607047E4
:104CF000574A8C32116821F440110143116070470A
:104D0000534A8C32116821F440010143116070470D
:104D10004F4A8C32116821F44031014311607047D1
:104D20005549C1F8E0017047494A303200291168FD
:104D300001D0014300E0814311607047444A34329E
:104D40000029116801D0014300E0814311607047E0
:104D50003F4A38320029116801D0014300E0814305
:104D6000116070473A4A40320029116801D001436E
:104D700000E0814311607047354A443200291168D0
:104D800001D0014300E0814311607047304A103286
:104D90000029116801D0014300E081431160704790
:104DA0002B4A14320029116801D0014300E08143ED
:104DB00011607047264A18320029116801D001435A
:104DC00000E0814311607047214A203200291168B8
:104DD00001D0014300E08143116070471C4A243236
:104DE0000029116801D0014300E081431160704740
:104DF000174A50320029116801D0014300E0814375
:104E000011607047124A54320029116801D00143E1
:104E100000E08143116070470D4A58320029116843
:104E200001D0014300E0814311607047084A6032BD
:104E30000029116801D0014300E0814311607047EF
:104E4000034A64320029116818D0014317E00000BA
:104E500000380240FFFFF6EA103000240030002046
:104E600000004742800E47420000FFFF0024F4008C
:104E7000F0410020FFFCFF0F00104742814311600A
:104E8000704714490128086803D020F00800086022
:104E9000704740F00800FAE70E4A633A002911789B
:104EA00001D0014300E08143117070470948001DA3
:104EB000016841F08071016070470146054A002099
:104EC000643A12680A4200D00120704701496239F1
:104ED0000870704770380240CD4910B5884206D13D
:104EE00001211020FFF77AFF0021102020E0C9499E
:104EF000884202D101214C0429E0C749884202D1ED
:104F000001218C0423E0C549884202D10121CC044F
:104F10001DE0C349884202D101210C0517E0C149B7
:104F2000884209D101212020FFF758FF00212020CD
:104F3000BDE81040FFF752BFBB49884202D10121B2
:104F40008C0704E0B94988420AD101214405204672
:104F5000FFF73AFF2046BDE810400021FFF734BFBD
:104F600010BD7FB50446008A0D46C98820F4405024
:104F700001432182A08941F20C618843A9882A89D2
:104F800011436A8902431143A181A08A20F4407130
:104F9000A8890843A0826846FFF73AFE9C488442ED
:104FA00002D0A048844201D1039800E00298A18970
:104FB000090400EBC00101EB0010296801D549008C
:104FC00000E08900B0FBF1F06422B0FBF2F10901CE
:104FD0000B096FF018056B4300EB8300A3891D04D8
:104FE0004FF0320306D503EBC000B0FBF2F000F047
:104FF000070005E003EB0010B0FBF2F000F00F003B
:10500000084320817FBD4FF416510160002181804B
:10501000C18001810C2242818181704710B5028AD2
:105020004C8822F470630A8822438C88C9880C4318
:1050300022431A43028210BD0021018041808180F9
:10504000C18070470029818902D041F4005101E0FC
:1050500021F4005181817047028B02F47F42028368
:10506000028B0A43028370470029818902D041F4F0
:10507000004101E0C1F30E01818170470029818A5E
:1050800002D041F4006101E021F4006181827047A7
:10509000C1F30801818070478088C0F30800704721
:1050A000028A22F00F020282028A0A4302827047B9
:1050B0000029818902D041F0020101E021F00201C2
:1050C00081817047828922F40062828182890A4349
:1050D00082817047028A22F020020282028A0A43F9
:1050E000028270470029018A02D041F4804101E028
:1050F00021F4804101827047818941F00101818161
:1051000070470029818A02D041F0080101E021F0B6
:10511000080181827047028BD2B20283028B42EA7D
:105120000121018370470029818A02D041F02001CA
:1051300001E021F02001818270470029818A02D09C
:1051400041F0100101E021F0100181827047828A54
:1051500022F004028282828A0A43828270470029F6
:10516000818A02D041F0020101E021F00201818236
:105170007047002A828A01D00A4300E08A43828273
:10518000704710B5C1F3421301F01F040121A14083
:10519000012B07D0022B07D01430002A026805D05B
:1051A0000A4304E00C30F8E71030F6E78A43026067
:1051B00010BD0246002012880A4200D0012070472C
:1051C000C9430180704770B501F01F050126002416
:1051D000C1F3421306FA05F2012B0FD0022B0FD0B8
:1051E000838A4FEA11210088134206FA01F600EA89
:1051F000060001D000B10124204670BD8389F0E78C
:10520000038AEEE70A0A01219140C94301807047F1
:10521000001001400044004000480040004C0040A5
:10522000005000400014014000780040007C004025
:10523000FE4910B5884206D101210846FFF7CEFD90
:10524000002101205BE0B0F1804F09D0F84988428D
:105250000DD101210220FFF7B7FD0021022070E0EF
:1052600001210846FFF7B0FD0021012069E0F14966
:10527000884206D101210420FFF7A6FD0021042069
:105280005FE0ED49884206D101210820FFF79CFD2F
:105290000021082055E0E949884206D1012110206B
:1052A000FFF792FD002110204BE0E549884206D12E
:1052B00001212020FFF788FD0021202041E0E14965
:1052C000884206D101210220FFF788FD002102203B
:1052D00015E0DD49884202D101210C040AE0DB49D6
:1052E000884202D101214C0404E0D94988420AD104
:1052F00001218C042046FFF771FD00212046BDE806
:105300001040FFF76BBDD349884206D101214020F0
:10531000FFF75AFD0021402013E0CF49884206D113
:1053200001218020FFF750FD0021802009E0CB49BA
:1053300088420AD1841501212046FFF745FD00214E
:105340002046BDE81040FFF73FBD10BD30B50288D4
:10535000B64CBC4DA0420DD0A8420BD0B0F1804F4E
:1053600008D0B34B984205D0B24B984202D0B24B12
:10537000984203D122F070034A881A43AF4B9842F7
:1053800006D0AF4B984203D022F440730A891A43E7
:1053900002804A68C2620A880285A04201D0A842FF
:1053A00001D1897A01860121818230BD4FF0FF3120
:1053B0004160002101800181418081727047018537
:1053C00082827047028822F070020A43028070478E
:1053D00041627047C1627047406A7047008D7047F4
:1053E0000029018802D041F0020101E021F0020110
:1053F000018070470029018802D041F0040101E0DA
:1054000021F00401018070470029018802D041F099
:10541000800101E021F0800101807047028822F0C4
:105420000802028002880A4302807047028822F440
:105430004072028002880A43028070470029018876
:1054400002D041F0010101E021F00101018070472B
:1054500030B5028C22F001020284028C8388048B16
:1054600022F0020224F073050C882C438D89154329
:105470004A882A436D4DA84202D0724DA8420DD1F0
:1054800022F00805CA8923F440732A4322F0040558
:105490008A882A430D8A1D434B8A2B4383800483C9
:1054A00089684163028430BD70B5028C22F010021D
:1054B0000284028C8388048B0D8824F4E6464FF620
:1054C000FF7404EA052535438E8922F0200204EAA0
:1054D000061616434A8804EA02123243534EB0427B
:1054E00002D0584EB04215D122F08006CA8923F46A
:1054F000406304EA0212324322F040068A8804EA3A
:10550000021232430E8A04EA86061E434B8A04EADC
:10551000830333438380058389688163028470BD7C
:1055200070B5028C22F480720284028C8388848B92
:105530000D8824F0730425438E894FF6FF7422F4FE
:10554000007204EA062616434A8804EA022232431D
:10555000364EB04202D03B4EB04215D122F4006626
:10556000CA8923F4405304EA0222324322F48066BB
:105570008A8804EA022232430E8A04EA06161E438F
:105580004B8A04EA03133343838085838968C163AC
:10559000028470BD70B5028C22F480520284058CA6
:1055A0008288838B0C8823F4E6464FF6FF7303EA68
:1055B0000424344325F400568D8903EA0535354328
:1055C0004E8803EA06362E43184DA84202D01D4DE0
:1055D000A84205D122F480450A8A03EA82122A43AE
:1055E0008280848389680164068470BD0021018003
:1055F0004180818081608181C181018241827047C7
:1056000030B50124058C00F118038C40A5430584B6
:1056100031B308292CD0091FC1F34E00184401688A
:1056200048F6FF731940016001681AE0000001406C
:105630000004004000080040000C00400010004042
:1056400000140040000401400040014000440140BB
:105650000048014000180040001C004000200040AD
:1056600006E04FF6FF7303EA02221143016030BDEA
:1056700003EB510001684FF68F7319400160016818
:10568000F3E74163704781637047C163704701640A
:105690007047028B22F070020A4302837047028B2C
:1056A0004FF6FF7322F4E04203EA01211143018324
:1056B0007047828B22F070020A4382837047828B8C
:1056C0004FF6FF7322F4E04203EA01211143818384
:1056D0007047028B22F008020A4302837047028B54
:1056E0004FF6FF7322F4006203EA012111430183A4
:1056F0007047828B22F008020A4382837047828BB4
:105700004FF6FF7322F4006203EA01211143818303
:105710007047028B22F004020A4302837047028B17
:105720004FF6FF7322F4806203EA012111430183E3
:105730007047828B22F004020A4382837047828B77
:105740004FF6FF7322F4806203EA01211143818343
:105750007047028B22F080020A4302837047028B5B
:105760004FF6FF73C2F30E0203EA012111430183D6
:105770007047828B22F080020A4382837047828BBB
:105780004FF6FF73C2F30E0203EA01211143818336
:105790007047028C22F002020A4302847047028C96
:1057A00022F008020A4302847047028C4FF6FF730E
:1057B00022F0200203EA0111114301847047028C98
:1057C0004FF6FF7322F0800203EA011111430184B6
:1057D0007047028C4FF6FF7322F4007203EA012136
:1057E000114301847047028C4FF6FF7322F400626C
:1057F00003EA0121114301847047028C4FF6FF73C5
:1058000022F4005203EA013111430184704710B5BC
:105810000123048C8B409C430484038C8A401343F3
:10582000038410BD10B50423048C8B409C43048476
:10583000038C8A401343038410BD828B22F44062A0
:105840008283828B4FF6FF7303EA01210A4382832E
:105850007047828B22F00C028283828B0A43828300
:105860007047028B22F440620283028B4FF6FF7373
:1058700003EA01210A4302837047F0B5048C24F047
:1058800010040484078B068C4FF6FF7404EA01159C
:1058900027F4734704EA0331394304EA02220A4336
:1058A00026F0A001294341F0100102830184F0BDDC
:1058B000028B22F00C020283028B0A4302837047A0
:1058C0002DE9F0410C460E884988A28823890546B7
:1058D0000EB3042E26D0082E2E8C4FF6FF7028D043
:1058E00026F480562E84AF8B2E8C00EA022200EA2A
:1058F000013127F473473A4300EA0330104326F49A
:1059000020420A4342F48051A8832984E188284632
:10591000BDE8F04191E700F062F9E1882846BDE872
:10592000F041C5E7FFF7A9FFE1882846BDE8F0414F
:1059300097E726F480762E84AF8B2E8C00EA012127
:1059400000EA0310104327F0F307384326F42062DF
:105950000A4342F48071A8832984E1882846BDE87F
:10596000F04176E700210180418001228280C180E0
:10597000018170472DE9F0410C4600264988074611
:10598000012501B90226A288012A00D1022520881A
:1059900023890028384610D0FFF76FFFE18838468A
:1059A000FFF75FFF23892A463146384600F017F992
:1059B000E1883846BDE8F0417AE700F010F9E18867
:1059C0003846FFF775FF23892A4631463846FFF7E8
:1059D00054FFE1883846BDE8F04142E7406B70472C
:1059E000806B7047C06B7047006C704710B50A88B9
:1059F0004B88CC881A438B8823431A430B891A435C
:105A00004B8989891A430A43A0F8442010BD00211C
:105A1000018041808180C180018141818181704705
:105A2000002930F8441F02D041F4004101E0C1F3E5
:105A30000E01018070470029818802D041F00401E5
:105A400001E021F00401818070470029818802D0A3
:105A500041F0010101E021F0010181807047002A3D
:105A6000828901D00A4300E08A43828170478182A3
:105A7000704702460020128A0A4200D00120704777
:105A8000C9430182704702460020138A92890B4263
:105A900002EA010202D0002A00D001207047C94367
:105AA000018270471143A0F848107047002A82898C
:105AB00001D00A4300E08A4382817047002981882F
:105AC00002D041F0080101E021F008018180704717
:105AD000018921F0070101817047028922F07002DB
